{
	"NFT_Payments.sol": {
		"NFTBuyNowPayLater": {
			"abi": [
				{
					"inputs": [],
					"stateMutability": "nonpayable",
					"type": "constructor"
				},
				{
					"anonymous": false,
					"inputs": [
						{
							"indexed": true,
							"internalType": "uint256",
							"name": "planId",
							"type": "uint256"
						},
						{
							"indexed": true,
							"internalType": "address",
							"name": "buyer",
							"type": "address"
						},
						{
							"indexed": true,
							"internalType": "address",
							"name": "nftContract",
							"type": "address"
						},
						{
							"indexed": false,
							"internalType": "uint256",
							"name": "tokenId",
							"type": "uint256"
						},
						{
							"indexed": false,
							"internalType": "uint256",
							"name": "finalPaymentAmount",
							"type": "uint256"
						},
						{
							"indexed": false,
							"internalType": "uint256",
							"name": "totalPaid",
							"type": "uint256"
						}
					],
					"name": "NFTPurchaseCompleted",
					"type": "event"
				},
				{
					"anonymous": false,
					"inputs": [
						{
							"indexed": true,
							"internalType": "uint256",
							"name": "planId",
							"type": "uint256"
						},
						{
							"indexed": true,
							"internalType": "address",
							"name": "buyer",
							"type": "address"
						},
						{
							"indexed": false,
							"internalType": "uint256",
							"name": "remainingPayments",
							"type": "uint256"
						},
						{
							"indexed": false,
							"internalType": "uint256",
							"name": "amountPaid",
							"type": "uint256"
						},
						{
							"indexed": false,
							"internalType": "uint256",
							"name": "remainingAmount",
							"type": "uint256"
						},
						{
							"indexed": false,
							"internalType": "uint256",
							"name": "timestamp",
							"type": "uint256"
						}
					],
					"name": "PaymentMade",
					"type": "event"
				},
				{
					"anonymous": false,
					"inputs": [
						{
							"indexed": true,
							"internalType": "uint256",
							"name": "planId",
							"type": "uint256"
						},
						{
							"indexed": true,
							"internalType": "address",
							"name": "buyer",
							"type": "address"
						},
						{
							"indexed": false,
							"internalType": "uint256",
							"name": "penaltyAmount",
							"type": "uint256"
						}
					],
					"name": "PenaltyApplied",
					"type": "event"
				},
				{
					"anonymous": false,
					"inputs": [
						{
							"indexed": true,
							"internalType": "uint256",
							"name": "planId",
							"type": "uint256"
						},
						{
							"indexed": true,
							"internalType": "address",
							"name": "buyer",
							"type": "address"
						},
						{
							"indexed": true,
							"internalType": "address",
							"name": "nftContract",
							"type": "address"
						},
						{
							"indexed": false,
							"internalType": "uint256",
							"name": "tokenId",
							"type": "uint256"
						},
						{
							"indexed": false,
							"internalType": "uint256",
							"name": "totalCost",
							"type": "uint256"
						},
						{
							"indexed": false,
							"internalType": "uint256",
							"name": "downPayment",
							"type": "uint256"
						},
						{
							"indexed": false,
							"internalType": "uint256",
							"name": "monthlyPayment",
							"type": "uint256"
						},
						{
							"indexed": false,
							"internalType": "uint256",
							"name": "totalPayments",
							"type": "uint256"
						},
						{
							"indexed": false,
							"internalType": "string",
							"name": "startDate",
							"type": "string"
						}
					],
					"name": "PlanCreated",
					"type": "event"
				},
				{
					"anonymous": false,
					"inputs": [
						{
							"indexed": true,
							"internalType": "uint256",
							"name": "planId",
							"type": "uint256"
						},
						{
							"indexed": true,
							"internalType": "address",
							"name": "buyer",
							"type": "address"
						},
						{
							"indexed": false,
							"internalType": "uint256",
							"name": "amountForfeited",
							"type": "uint256"
						},
						{
							"indexed": false,
							"internalType": "address",
							"name": "nftContract",
							"type": "address"
						},
						{
							"indexed": false,
							"internalType": "uint256",
							"name": "tokenId",
							"type": "uint256"
						}
					],
					"name": "PlanDefaulted",
					"type": "event"
				},
				{
					"inputs": [
						{
							"internalType": "address",
							"name": "",
							"type": "address"
						}
					],
					"name": "buyerToPlanId",
					"outputs": [
						{
							"internalType": "uint256",
							"name": "",
							"type": "uint256"
						}
					],
					"stateMutability": "view",
					"type": "function"
				},
				{
					"inputs": [
						{
							"internalType": "address",
							"name": "buyer",
							"type": "address"
						},
						{
							"internalType": "address",
							"name": "_nftContract",
							"type": "address"
						},
						{
							"internalType": "uint256",
							"name": "_tokenId",
							"type": "uint256"
						},
						{
							"internalType": "uint256",
							"name": "_totalCost",
							"type": "uint256"
						},
						{
							"internalType": "uint256",
							"name": "_downPaymentPercent",
							"type": "uint256"
						},
						{
							"internalType": "uint256",
							"name": "_totalPayments",
							"type": "uint256"
						},
						{
							"internalType": "uint256",
							"name": "_penaltyPercent",
							"type": "uint256"
						}
					],
					"name": "createNFTPaymentPlan",
					"outputs": [
						{
							"internalType": "uint256",
							"name": "",
							"type": "uint256"
						}
					],
					"stateMutability": "nonpayable",
					"type": "function"
				},
				{
					"inputs": [
						{
							"internalType": "uint256",
							"name": "planId",
							"type": "uint256"
						},
						{
							"internalType": "address",
							"name": "to",
							"type": "address"
						}
					],
					"name": "emergencyReleaseNFT",
					"outputs": [],
					"stateMutability": "nonpayable",
					"type": "function"
				},
				{
					"inputs": [
						{
							"internalType": "address",
							"name": "buyer",
							"type": "address"
						}
					],
					"name": "getBuyerPlanId",
					"outputs": [
						{
							"internalType": "uint256",
							"name": "",
							"type": "uint256"
						}
					],
					"stateMutability": "view",
					"type": "function"
				},
				{
					"inputs": [
						{
							"internalType": "uint256",
							"name": "planId",
							"type": "uint256"
						}
					],
					"name": "getPlanDetails",
					"outputs": [
						{
							"internalType": "address",
							"name": "buyer",
							"type": "address"
						},
						{
							"internalType": "address",
							"name": "nftContract",
							"type": "address"
						},
						{
							"internalType": "uint256",
							"name": "tokenId",
							"type": "uint256"
						},
						{
							"internalType": "uint256",
							"name": "totalCost",
							"type": "uint256"
						},
						{
							"internalType": "uint256",
							"name": "monthlyPayment",
							"type": "uint256"
						},
						{
							"internalType": "uint256",
							"name": "remainingAmount",
							"type": "uint256"
						},
						{
							"internalType": "uint256",
							"name": "nextPaymentDueTimestamp",
							"type": "uint256"
						},
						{
							"internalType": "uint256",
							"name": "remainingPayments",
							"type": "uint256"
						},
						{
							"internalType": "uint256",
							"name": "missedPayments",
							"type": "uint256"
						},
						{
							"internalType": "bool",
							"name": "isActive",
							"type": "bool"
						},
						{
							"internalType": "bool",
							"name": "isNFTTransferred",
							"type": "bool"
						}
					],
					"stateMutability": "view",
					"type": "function"
				},
				{
					"inputs": [
						{
							"internalType": "uint256",
							"name": "planId",
							"type": "uint256"
						}
					],
					"name": "makePayment",
					"outputs": [],
					"stateMutability": "payable",
					"type": "function"
				},
				{
					"inputs": [],
					"name": "nextPlanId",
					"outputs": [
						{
							"internalType": "uint256",
							"name": "",
							"type": "uint256"
						}
					],
					"stateMutability": "view",
					"type": "function"
				},
				{
					"inputs": [
						{
							"internalType": "uint256",
							"name": "",
							"type": "uint256"
						}
					],
					"name": "plans",
					"outputs": [
						{
							"internalType": "address",
							"name": "buyer",
							"type": "address"
						},
						{
							"components": [
								{
									"internalType": "address",
									"name": "nftContract",
									"type": "address"
								},
								{
									"internalType": "uint256",
									"name": "tokenId",
									"type": "uint256"
								},
								{
									"internalType": "bool",
									"name": "isTransferred",
									"type": "bool"
								}
							],
							"internalType": "struct NFTBuyNowPayLater.NFTDetails",
							"name": "nftDetails",
							"type": "tuple"
						},
						{
							"components": [
								{
									"internalType": "uint256",
									"name": "totalCost",
									"type": "uint256"
								},
								{
									"internalType": "uint256",
									"name": "paymentPerMonth",
									"type": "uint256"
								},
								{
									"internalType": "uint256",
									"name": "totalPayments",
									"type": "uint256"
								},
								{
									"internalType": "uint256",
									"name": "penaltyPercent",
									"type": "uint256"
								},
								{
									"internalType": "uint256",
									"name": "remainingAmount",
									"type": "uint256"
								},
								{
									"internalType": "uint256",
									"name": "remainingPayments",
									"type": "uint256"
								},
								{
									"internalType": "uint256",
									"name": "downPaymentAmount",
									"type": "uint256"
								}
							],
							"internalType": "struct NFTBuyNowPayLater.PaymentTerms",
							"name": "terms",
							"type": "tuple"
						},
						{
							"components": [
								{
									"internalType": "uint256",
									"name": "paymentDate",
									"type": "uint256"
								},
								{
									"internalType": "uint256",
									"name": "nextPaymentDate",
									"type": "uint256"
								},
								{
									"internalType": "uint256",
									"name": "missedPayments",
									"type": "uint256"
								},
								{
									"internalType": "bool",
									"name": "isActive",
									"type": "bool"
								},
								{
									"internalType": "uint256",
									"name": "planCreationTime",
									"type": "uint256"
								}
							],
							"internalType": "struct NFTBuyNowPayLater.PaymentStatus",
							"name": "status",
							"type": "tuple"
						}
					],
					"stateMutability": "view",
					"type": "function"
				},
				{
					"inputs": [
						{
							"internalType": "uint256",
							"name": "planId",
							"type": "uint256"
						}
					],
					"name": "processDownPayment",
					"outputs": [],
					"stateMutability": "payable",
					"type": "function"
				},
				{
					"inputs": [],
					"name": "seller",
					"outputs": [
						{
							"internalType": "address",
							"name": "",
							"type": "address"
						}
					],
					"stateMutability": "view",
					"type": "function"
				},
				{
					"inputs": [
						{
							"internalType": "uint256",
							"name": "_planId",
							"type": "uint256"
						},
						{
							"internalType": "uint256",
							"name": "_startDay",
							"type": "uint256"
						},
						{
							"internalType": "string",
							"name": "_startMonth",
							"type": "string"
						},
						{
							"internalType": "uint256",
							"name": "_startYear",
							"type": "uint256"
						}
					],
					"name": "setPaymentDates",
					"outputs": [],
					"stateMutability": "nonpayable",
					"type": "function"
				}
			],
			"devdoc": {
				"kind": "dev",
				"methods": {},
				"version": 1
			},
			"evm": {
				"assembly": "    /* \"NFT_Payments.sol\":186:17401  contract NFTBuyNowPayLater is ReentrancyGuard {... */\n  mstore(0x40, 0xa0)\n    /* \"NFT_Payments.sol\":1234:1235  1 */\n  0x01\n    /* \"NFT_Payments.sol\":1206:1235  uint256 public nextPlanId = 1 */\n  0x03\n  sstore\n    /* \"NFT_Payments.sol\":2641:2725  constructor() {... */\n  callvalue\n  dup1\n  iszero\n  tag_1\n  jumpi\n  0x00\n  dup1\n  revert\ntag_1:\n  pop\n    /* \"@openzeppelin/contracts/security/ReentrancyGuard.sol\":1716:1717  1 */\n  0x01\n    /* \"@openzeppelin/contracts/security/ReentrancyGuard.sol\":1821:1828  _status */\n  0x00\n    /* \"@openzeppelin/contracts/security/ReentrancyGuard.sol\":1821:1843  _status = _NOT_ENTERED */\n  sstore\n    /* \"NFT_Payments.sol\":2675:2685  msg.sender */\n  caller\n    /* \"NFT_Payments.sol\":2666:2685  seller = msg.sender */\n  0x80\n  mstore\n    /* \"NFT_Payments.sol\":2696:2717  _initializeMonthMap() */\n  tag_6\n    /* \"NFT_Payments.sol\":2696:2715  _initializeMonthMap */\n  tag_7\n    /* \"NFT_Payments.sol\":2696:2717  _initializeMonthMap() */\n  jump\t// in\ntag_6:\n    /* \"NFT_Payments.sol\":186:17401  contract NFTBuyNowPayLater is ReentrancyGuard {... */\n  jump(tag_34)\n    /* \"NFT_Payments.sol\":2798:3306  function _initializeMonthMap() private {... */\ntag_7:\n    /* \"NFT_Payments.sol\":2875:2876  1 */\n  0x01\n    /* \"NFT_Payments.sol\":2848:2861  monthToNumber */\n  0x04\n    /* \"NFT_Payments.sol\":2848:2872  monthToNumber[\"January\"] */\n  mload(0x40)\n  tag_10\n  swap1\n  shl(0xc8, 0x4a616e75617279)\n    /* \"#utility.yul\":216:238   */\n  dup2\n  mstore\n    /* \"#utility.yul\":263:264   */\n  0x07\n    /* \"#utility.yul\":254:265   */\n  add\n  swap1\n    /* \"#utility.yul\":14:271   */\n  jump\n    /* \"NFT_Payments.sol\":2848:2872  monthToNumber[\"January\"] */\ntag_10:\n  swap1\n  dup2\n  mstore\n  0x40\n  dup1\n  mload\n  swap2\n  dup3\n  swap1\n  sub\n  0x20\n  add\n  dup3\n  keccak256\n    /* \"NFT_Payments.sol\":2848:2876  monthToNumber[\"January\"] = 1 */\n  swap3\n  swap1\n  swap3\n  sstore\n  shl(0xc0, 0x4665627275617279)\n    /* \"#utility.yul\":478:501   */\n  dup2\n  mstore\n    /* \"NFT_Payments.sol\":2887:2900  monthToNumber */\n  0x04\n    /* \"#utility.yul\":526:527   */\n  0x08\n    /* \"#utility.yul\":517:528   */\n  dup1\n  dup4\n  add\n    /* \"NFT_Payments.sol\":2887:2912  monthToNumber[\"February\"] */\n  dup3\n  swap1\n  mstore\n  dup4\n  mload\n  swap3\n  dup4\n  swap1\n  sub\n  0x28\n  swap1\n  dup2\n  add\n  dup5\n  keccak256\n    /* \"NFT_Payments.sol\":2915:2916  2 */\n  0x02\n    /* \"NFT_Payments.sol\":2887:2916  monthToNumber[\"February\"] = 2 */\n  swap1\n  sstore\n  shl(0xdb, 0x09ac2e4c6d)\n    /* \"#utility.yul\":741:761   */\n  dup5\n  mstore\n    /* \"#utility.yul\":786:787   */\n  0x05\n    /* \"#utility.yul\":777:788   */\n  dup1\n  dup6\n  add\n    /* \"NFT_Payments.sol\":2927:2949  monthToNumber[\"March\"] */\n  dup5\n  swap1\n  mstore\n  dup6\n  mload\n  swap5\n  dup6\n  swap1\n  sub\n  0x25\n  swap1\n  dup2\n  add\n  dup7\n  keccak256\n    /* \"NFT_Payments.sol\":2952:2953  3 */\n  0x03\n    /* \"NFT_Payments.sol\":2927:2953  monthToNumber[\"March\"] = 3 */\n  swap1\n  dup2\n  swap1\n  sstore\n  shl(0xda, 0x105c1c9a5b)\n    /* \"#utility.yul\":1001:1021   */\n  dup8\n  mstore\n    /* \"#utility.yul\":1037:1048   */\n  dup7\n  dup4\n  add\n    /* \"NFT_Payments.sol\":2964:2986  monthToNumber[\"April\"] */\n  dup7\n  swap1\n  mstore\n  dup8\n  mload\n  swap7\n  dup8\n  swap1\n  sub\n  swap1\n  swap2\n  add\n  dup7\n  keccak256\n    /* \"NFT_Payments.sol\":2964:2990  monthToNumber[\"April\"] = 4 */\n  dup6\n  swap1\n  sstore\n  shl(0xe8, 0x4d6179)\n    /* \"#utility.yul\":1261:1279   */\n  dup7\n  mstore\n    /* \"#utility.yul\":1295:1306   */\n  dup6\n  add\n    /* \"NFT_Payments.sol\":3001:3021  monthToNumber[\"May\"] */\n  dup5\n  swap1\n  mstore\n  dup6\n  mload\n  swap5\n  dup6\n  swap1\n  sub\n  0x23\n  add\n  dup6\n  keccak256\n    /* \"NFT_Payments.sol\":3001:3025  monthToNumber[\"May\"] = 5 */\n  sstore\n  shl(0xe0, 0x4a756e65)\n    /* \"#utility.yul\":1519:1538   */\n  dup5\n  mstore\n    /* \"#utility.yul\":1554:1565   */\n  dup4\n  dup4\n  add\n    /* \"NFT_Payments.sol\":3036:3057  monthToNumber[\"June\"] */\n  dup4\n  swap1\n  mstore\n  dup5\n  mload\n  swap4\n  dup5\n  swap1\n  sub\n  0x24\n  swap1\n  dup2\n  add\n  dup6\n  keccak256\n    /* \"NFT_Payments.sol\":3060:3061  6 */\n  0x06\n    /* \"NFT_Payments.sol\":3036:3061  monthToNumber[\"June\"] = 6 */\n  swap1\n  dup2\n  swap1\n  sstore\n  shl(0xe0, 0x4a756c79)\n    /* \"#utility.yul\":1778:1797   */\n  dup7\n  mstore\n    /* \"#utility.yul\":1813:1824   */\n  dup6\n  dup6\n  add\n    /* \"NFT_Payments.sol\":3072:3093  monthToNumber[\"July\"] */\n  dup6\n  swap1\n  mstore\n  dup7\n  mload\n  swap6\n  dup7\n  swap1\n  sub\n  swap1\n  swap2\n  add\n  dup6\n  keccak256\n    /* \"NFT_Payments.sol\":3096:3097  7 */\n  0x07\n    /* \"NFT_Payments.sol\":3072:3097  monthToNumber[\"July\"] = 7 */\n  swap1\n  dup2\n  swap1\n  sstore\n  shl(0xd2, 0x105d59dd5cdd)\n    /* \"#utility.yul\":2037:2058   */\n  dup7\n  mstore\n    /* \"#utility.yul\":2074:2085   */\n  swap1\n  dup6\n  add\n    /* \"NFT_Payments.sol\":3108:3131  monthToNumber[\"August\"] */\n  dup5\n  swap1\n  mstore\n  dup6\n  mload\n  swap5\n  dup6\n  swap1\n  sub\n  0x26\n  add\n  dup6\n  keccak256\n    /* \"NFT_Payments.sol\":3108:3135  monthToNumber[\"August\"] = 8 */\n  dup4\n  swap1\n  sstore\n  shl(0xb9, 0x29b2b83a32b6b132b9)\n    /* \"#utility.yul\":2298:2322   */\n  dup6\n  mstore\n    /* \"NFT_Payments.sol\":3175:3176  9 */\n  0x09\n    /* \"#utility.yul\":2338:2349   */\n  dup1\n  dup7\n  add\n    /* \"NFT_Payments.sol\":3146:3172  monthToNumber[\"September\"] */\n  dup6\n  swap1\n  mstore\n  dup7\n  mload\n  swap6\n  dup7\n  swap1\n  sub\n  0x29\n  add\n  dup7\n  keccak256\n    /* \"NFT_Payments.sol\":3146:3176  monthToNumber[\"September\"] = 9 */\n  sstore\n  shl(0xc9, 0x27b1ba37b132b9)\n    /* \"#utility.yul\":2562:2584   */\n  dup6\n  mstore\n    /* \"#utility.yul\":2600:2611   */\n  dup5\n  add\n    /* \"NFT_Payments.sol\":3187:3211  monthToNumber[\"October\"] */\n  dup4\n  swap1\n  mstore\n  dup5\n  mload\n  swap4\n  dup5\n  swap1\n  sub\n  0x27\n  add\n  dup5\n  keccak256\n    /* \"NFT_Payments.sol\":3214:3216  10 */\n  0x0a\n    /* \"NFT_Payments.sol\":3187:3216  monthToNumber[\"October\"] = 10 */\n  swap1\n  sstore\n  shl(0xc1, 0x2737bb32b6b132b9)\n    /* \"#utility.yul\":2824:2847   */\n  dup5\n  mstore\n    /* \"#utility.yul\":2863:2874   */\n  dup4\n  dup3\n  add\n    /* \"NFT_Payments.sol\":3227:3252  monthToNumber[\"November\"] */\n  dup4\n  swap1\n  mstore\n  dup5\n  mload\n  swap4\n  dup5\n  swap1\n  sub\n  dup2\n  add\n  dup5\n  keccak256\n    /* \"NFT_Payments.sol\":3255:3257  11 */\n  0x0b\n    /* \"NFT_Payments.sol\":3227:3257  monthToNumber[\"November\"] = 11 */\n  swap1\n  sstore\n  shl(0xc1, 0x2232b1b2b6b132b9)\n    /* \"#utility.yul\":3087:3110   */\n  dup5\n  mstore\n    /* \"#utility.yul\":3126:3137   */\n  swap1\n  dup4\n  add\n    /* \"NFT_Payments.sol\":3268:3293  monthToNumber[\"December\"] */\n  swap2\n  swap1\n  swap2\n  mstore\n  swap2\n  mload\n  swap1\n  dup2\n  swap1\n  sub\n  swap1\n  swap2\n  add\n  swap1\n  keccak256\n    /* \"NFT_Payments.sol\":3296:3298  12 */\n  0x0c\n    /* \"NFT_Payments.sol\":3268:3298  monthToNumber[\"December\"] = 12 */\n  swap1\n  sstore\n    /* \"NFT_Payments.sol\":2798:3306  function _initializeMonthMap() private {... */\n  jump\t// out\n    /* \"#utility.yul\":2885:3143   */\ntag_34:\n    /* \"NFT_Payments.sol\":186:17401  contract NFTBuyNowPayLater is ReentrancyGuard {... */\n  mload(0x80)\n  codecopy(0x00, dataOffset(sub_0), dataSize(sub_0))\n  0x00\n  assignImmutable(\"0x16c8a63d520d02dbd3ba67dd93cae5eadc6219145ea2099e8e9f17a2533fafa7\")\n  return(0x00, dataSize(sub_0))\nstop\n\nsub_0: assembly {\n        /* \"NFT_Payments.sol\":186:17401  contract NFTBuyNowPayLater is ReentrancyGuard {... */\n      mstore(0x40, 0x80)\n      jumpi(tag_1, lt(calldatasize, 0x04))\n      shr(0xe0, calldataload(0x00))\n      dup1\n      0x7ee9f33e\n      gt\n      tag_13\n      jumpi\n      dup1\n      0x7ee9f33e\n      eq\n      tag_7\n      jumpi\n      dup1\n      0x95e2bf1f\n      eq\n      tag_8\n      jumpi\n      dup1\n      0x9e3b67f1\n      eq\n      tag_9\n      jumpi\n      dup1\n      0xad5abed8\n      eq\n      tag_10\n      jumpi\n      dup1\n      0xb1620616\n      eq\n      tag_11\n      jumpi\n      dup1\n      0xfa502176\n      eq\n      tag_12\n      jumpi\n      0x00\n      dup1\n      revert\n    tag_13:\n      dup1\n      0x08551a53\n      eq\n      tag_2\n      jumpi\n      dup1\n      0x3d5d62d6\n      eq\n      tag_3\n      jumpi\n      dup1\n      0x5114cb52\n      eq\n      tag_4\n      jumpi\n      dup1\n      0x5c6144b9\n      eq\n      tag_5\n      jumpi\n      dup1\n      0x5f8d26b2\n      eq\n      tag_6\n      jumpi\n    tag_1:\n      0x00\n      dup1\n      revert\n        /* \"NFT_Payments.sol\":1248:1279  address public immutable seller */\n    tag_2:\n      callvalue\n      dup1\n      iszero\n      tag_14\n      jumpi\n      0x00\n      dup1\n      revert\n    tag_14:\n      pop\n      tag_15\n      immutable(\"0x16c8a63d520d02dbd3ba67dd93cae5eadc6219145ea2099e8e9f17a2533fafa7\")\n      dup2\n      jump\n    tag_15:\n      mload(0x40)\n      sub(shl(0xa0, 0x01), 0x01)\n        /* \"#utility.yul\":178:210   */\n      swap1\n      swap2\n      and\n        /* \"#utility.yul\":160:211   */\n      dup2\n      mstore\n        /* \"#utility.yul\":148:150   */\n      0x20\n        /* \"#utility.yul\":133:151   */\n      add\n        /* \"NFT_Payments.sol\":1248:1279  address public immutable seller */\n    tag_17:\n      mload(0x40)\n      dup1\n      swap2\n      sub\n      swap1\n      return\n        /* \"NFT_Payments.sol\":1070:1118  mapping(address => uint256) public buyerToPlanId */\n    tag_3:\n      callvalue\n      dup1\n      iszero\n      tag_19\n      jumpi\n      0x00\n      dup1\n      revert\n    tag_19:\n      pop\n      tag_20\n      tag_21\n      calldatasize\n      0x04\n      tag_22\n      jump\t// in\n    tag_21:\n      mstore(0x20, 0x01)\n      0x00\n      swap1\n      dup2\n      mstore\n      0x40\n      swap1\n      keccak256\n      sload\n      dup2\n      jump\n    tag_20:\n      mload(0x40)\n        /* \"#utility.yul\":756:781   */\n      swap1\n      dup2\n      mstore\n        /* \"#utility.yul\":744:746   */\n      0x20\n        /* \"#utility.yul\":729:747   */\n      add\n        /* \"NFT_Payments.sol\":1070:1118  mapping(address => uint256) public buyerToPlanId */\n      tag_17\n        /* \"#utility.yul\":610:787   */\n      jump\n        /* \"NFT_Payments.sol\":10285:11895  function makePayment(uint256 planId) external payable nonReentrant {... */\n    tag_4:\n      tag_26\n      tag_27\n      calldatasize\n      0x04\n      tag_28\n      jump\t// in\n    tag_27:\n      tag_29\n      jump\t// in\n    tag_26:\n      stop\n        /* \"NFT_Payments.sol\":16291:16408  function getBuyerPlanId(address buyer) external view returns (uint256) {... */\n    tag_5:\n      callvalue\n      dup1\n      iszero\n      tag_30\n      jumpi\n      0x00\n      dup1\n      revert\n    tag_30:\n      pop\n      tag_20\n      tag_32\n      calldatasize\n      0x04\n      tag_22\n      jump\t// in\n    tag_32:\n      sub(shl(0xa0, 0x01), 0x01)\n        /* \"NFT_Payments.sol\":16380:16400  buyerToPlanId[buyer] */\n      and\n        /* \"NFT_Payments.sol\":16353:16360  uint256 */\n      0x00\n        /* \"NFT_Payments.sol\":16380:16400  buyerToPlanId[buyer] */\n      swap1\n      dup2\n      mstore\n        /* \"NFT_Payments.sol\":16380:16393  buyerToPlanId */\n      0x01\n        /* \"NFT_Payments.sol\":16380:16400  buyerToPlanId[buyer] */\n      0x20\n      mstore\n      0x40\n      swap1\n      keccak256\n      sload\n      swap1\n        /* \"NFT_Payments.sol\":16291:16408  function getBuyerPlanId(address buyer) external view returns (uint256) {... */\n      jump\n        /* \"NFT_Payments.sol\":1206:1235  uint256 public nextPlanId = 1 */\n    tag_6:\n      callvalue\n      dup1\n      iszero\n      tag_35\n      jumpi\n      0x00\n      dup1\n      revert\n    tag_35:\n      pop\n      tag_20\n      sload(0x03)\n      dup2\n      jump\n        /* \"NFT_Payments.sol\":8458:10248  function processDownPayment(uint256 planId) external payable nonReentrant {... */\n    tag_7:\n      tag_26\n      tag_40\n      calldatasize\n      0x04\n      tag_28\n      jump\t// in\n    tag_40:\n      tag_41\n      jump\t// in\n        /* \"NFT_Payments.sol\":16485:16912  function emergencyReleaseNFT(uint256 planId, address to) external onlySeller {... */\n    tag_8:\n      callvalue\n      dup1\n      iszero\n      tag_42\n      jumpi\n      0x00\n      dup1\n      revert\n    tag_42:\n      pop\n      tag_26\n      tag_44\n      calldatasize\n      0x04\n      tag_45\n      jump\t// in\n    tag_44:\n      tag_46\n      jump\t// in\n        /* \"NFT_Payments.sol\":5805:7128  function setPaymentDates(... */\n    tag_9:\n      callvalue\n      dup1\n      iszero\n      tag_47\n      jumpi\n      0x00\n      dup1\n      revert\n    tag_47:\n      pop\n      tag_26\n      tag_49\n      calldatasize\n      0x04\n      tag_50\n      jump\t// in\n    tag_49:\n      tag_51\n      jump\t// in\n        /* \"NFT_Payments.sol\":15321:16251  function getPlanDetails(uint256 planId) external view returns (... */\n    tag_10:\n      callvalue\n      dup1\n      iszero\n      tag_52\n      jumpi\n      0x00\n      dup1\n      revert\n    tag_52:\n      pop\n      tag_53\n      tag_54\n      calldatasize\n      0x04\n      tag_28\n      jump\t// in\n    tag_54:\n        /* \"NFT_Payments.sol\":15394:15407  address buyer */\n      0x00\n        /* \"NFT_Payments.sol\":15764:15777  plans[planId] */\n      swap1\n      dup2\n      mstore\n        /* \"NFT_Payments.sol\":15764:15769  plans */\n      0x02\n        /* \"NFT_Payments.sol\":15764:15777  plans[planId] */\n      0x20\n      dup2\n      swap1\n      mstore\n      0x40\n      swap1\n      swap2\n      keccak256\n        /* \"NFT_Payments.sol\":15820:15830  plan.buyer */\n      dup1\n      sload\n      0x01\n        /* \"NFT_Payments.sol\":15845:15860  plan.nftDetails */\n      dup3\n      add\n        /* \"NFT_Payments.sol\":15845:15872  plan.nftDetails.nftContract */\n      sload\n        /* \"NFT_Payments.sol\":15887:15910  plan.nftDetails.tokenId */\n      swap3\n      dup3\n      add\n      sload\n        /* \"NFT_Payments.sol\":15925:15935  plan.terms */\n      0x04\n      dup4\n      add\n        /* \"NFT_Payments.sol\":15925:15945  plan.terms.totalCost */\n      sload\n        /* \"NFT_Payments.sol\":15960:15986  plan.terms.paymentPerMonth */\n      0x05\n      dup5\n      add\n      sload\n        /* \"NFT_Payments.sol\":16001:16027  plan.terms.remainingAmount */\n      0x08\n      dup6\n      add\n      sload\n        /* \"NFT_Payments.sol\":16042:16069  plan.status.nextPaymentDate */\n      0x0c\n      dup7\n      add\n      sload\n        /* \"NFT_Payments.sol\":16084:16112  plan.terms.remainingPayments */\n      0x09\n      dup8\n      add\n      sload\n        /* \"NFT_Payments.sol\":16127:16153  plan.status.missedPayments */\n      0x0d\n      dup9\n      add\n      sload\n        /* \"NFT_Payments.sol\":16168:16188  plan.status.isActive */\n      0x0e\n      dup10\n      add\n      sload\n      0x03\n        /* \"NFT_Payments.sol\":16203:16232  plan.nftDetails.isTransferred */\n      swap1\n      swap10\n      add\n      sload\n      sub(shl(0xa0, 0x01), 0x01)\n        /* \"NFT_Payments.sol\":15820:15830  plan.buyer */\n      swap9\n      dup10\n      and\n      swap12\n        /* \"NFT_Payments.sol\":15845:15872  plan.nftDetails.nftContract */\n      swap9\n      swap1\n      swap11\n      and\n      swap10\n        /* \"NFT_Payments.sol\":15887:15910  plan.nftDetails.tokenId */\n      swap7\n      swap9\n        /* \"NFT_Payments.sol\":15925:15945  plan.terms.totalCost */\n      swap6\n      swap8\n        /* \"NFT_Payments.sol\":15960:15986  plan.terms.paymentPerMonth */\n      swap5\n      swap7\n        /* \"NFT_Payments.sol\":16001:16027  plan.terms.remainingAmount */\n      swap4\n      swap6\n        /* \"NFT_Payments.sol\":16042:16069  plan.status.nextPaymentDate */\n      swap3\n      swap5\n        /* \"NFT_Payments.sol\":16084:16112  plan.terms.remainingPayments */\n      swap2\n      swap4\n        /* \"NFT_Payments.sol\":16127:16153  plan.status.missedPayments */\n      swap1\n      swap3\n        /* \"NFT_Payments.sol\":16168:16188  plan.status.isActive */\n      0xff\n      swap1\n      dup2\n      and\n      swap3\n        /* \"NFT_Payments.sol\":16203:16232  plan.nftDetails.isTransferred */\n      swap2\n      and\n      swap1\n        /* \"NFT_Payments.sol\":15321:16251  function getPlanDetails(uint256 planId) external view returns (... */\n      jump\n    tag_53:\n      0x40\n      dup1\n      mload\n      sub(shl(0xa0, 0x01), 0x01)\n        /* \"#utility.yul\":2776:2808   */\n      swap13\n      dup14\n      and\n        /* \"#utility.yul\":2758:2809   */\n      dup2\n      mstore\n        /* \"#utility.yul\":2845:2877   */\n      swap12\n      swap1\n      swap11\n      and\n        /* \"#utility.yul\":2840:2842   */\n      0x20\n        /* \"#utility.yul\":2825:2843   */\n      dup13\n      add\n        /* \"#utility.yul\":2818:2878   */\n      mstore\n        /* \"#utility.yul\":2894:2912   */\n      swap9\n      dup11\n      add\n        /* \"#utility.yul\":2887:2921   */\n      swap8\n      swap1\n      swap8\n      mstore\n        /* \"#utility.yul\":2952:2954   */\n      0x60\n        /* \"#utility.yul\":2937:2955   */\n      dup10\n      add\n        /* \"#utility.yul\":2930:2964   */\n      swap6\n      swap1\n      swap6\n      mstore\n        /* \"#utility.yul\":2995:2998   */\n      0x80\n        /* \"#utility.yul\":2980:2999   */\n      dup9\n      add\n        /* \"#utility.yul\":2973:3008   */\n      swap4\n      swap1\n      swap4\n      mstore\n        /* \"#utility.yul\":2796:2799   */\n      0xa0\n        /* \"#utility.yul\":3024:3043   */\n      dup8\n      add\n        /* \"#utility.yul\":3017:3052   */\n      swap2\n      swap1\n      swap2\n      mstore\n        /* \"#utility.yul\":3083:3086   */\n      0xc0\n        /* \"#utility.yul\":3068:3087   */\n      dup7\n      add\n        /* \"#utility.yul\":3061:3096   */\n      mstore\n        /* \"#utility.yul\":3127:3130   */\n      0xe0\n        /* \"#utility.yul\":3112:3131   */\n      dup6\n      add\n        /* \"#utility.yul\":3105:3140   */\n      mstore\n        /* \"#utility.yul\":3171:3174   */\n      0x0100\n        /* \"#utility.yul\":3156:3175   */\n      dup5\n      add\n        /* \"#utility.yul\":3149:3184   */\n      mstore\n        /* \"#utility.yul\":3228:3242   */\n      iszero\n        /* \"#utility.yul\":3221:3243   */\n      iszero\n        /* \"#utility.yul\":3215:3218   */\n      0x0120\n        /* \"#utility.yul\":3200:3219   */\n      dup4\n      add\n        /* \"#utility.yul\":3193:3244   */\n      mstore\n        /* \"#utility.yul\":3288:3303   */\n      iszero\n        /* \"#utility.yul\":3281:3304   */\n      iszero\n        /* \"#utility.yul\":3275:3278   */\n      0x0140\n        /* \"#utility.yul\":3260:3279   */\n      dup3\n      add\n        /* \"#utility.yul\":3253:3305   */\n      mstore\n        /* \"#utility.yul\":2745:2748   */\n      0x0160\n        /* \"#utility.yul\":2730:2749   */\n      add\n        /* \"NFT_Payments.sol\":15321:16251  function getPlanDetails(uint256 planId) external view returns (... */\n      tag_17\n        /* \"#utility.yul\":2342:3311   */\n      jump\n        /* \"NFT_Payments.sol\":1162:1199  mapping(uint256 => Plan) public plans */\n    tag_11:\n      callvalue\n      dup1\n      iszero\n      tag_58\n      jumpi\n      0x00\n      dup1\n      revert\n    tag_58:\n      pop\n      tag_59\n      tag_60\n      calldatasize\n      0x04\n      tag_28\n      jump\t// in\n    tag_60:\n      0x02\n      0x20\n      dup2\n      dup2\n      mstore\n      0x00\n      swap3\n      dup4\n      mstore\n      0x40\n      swap3\n      dup4\n      swap1\n      keccak256\n      dup1\n      sload\n      dup5\n      mload\n      0x60\n      dup1\n      dup3\n      add\n      dup8\n      mstore\n      0x01\n      dup5\n      add\n      sload\n      sub(shl(0xa0, 0x01), 0x01)\n      swap1\n      dup2\n      and\n      dup4\n      mstore\n      swap6\n      dup5\n      add\n      sload\n      dup3\n      dup7\n      add\n      mstore\n      0x03\n      dup5\n      add\n      sload\n      0xff\n      swap1\n      dup2\n      and\n      iszero\n      iszero\n      dup4\n      dup10\n      add\n      mstore\n      dup8\n      mload\n      0xe0\n      dup2\n      add\n      dup10\n      mstore\n      0x04\n      dup7\n      add\n      sload\n      dup2\n      mstore\n      0x05\n      dup7\n      add\n      sload\n      dup2\n      dup9\n      add\n      mstore\n      0x06\n      dup7\n      add\n      sload\n      dup2\n      dup11\n      add\n      mstore\n      0x07\n      dup7\n      add\n      sload\n      dup2\n      dup5\n      add\n      mstore\n      0x08\n      dup7\n      add\n      sload\n      0x80\n      dup1\n      dup4\n      add\n      swap2\n      swap1\n      swap2\n      mstore\n      0x09\n      dup8\n      add\n      sload\n      0xa0\n      dup1\n      dup5\n      add\n      swap2\n      swap1\n      swap2\n      mstore\n      0x0a\n      dup9\n      add\n      sload\n      0xc0\n      dup5\n      add\n      mstore\n      dup11\n      mload\n      swap1\n      dup2\n      add\n      dup12\n      mstore\n      0x0b\n      dup9\n      add\n      sload\n      dup2\n      mstore\n      0x0c\n      dup9\n      add\n      sload\n      swap9\n      dup2\n      add\n      swap9\n      swap1\n      swap9\n      mstore\n      0x0d\n      dup8\n      add\n      sload\n      swap10\n      dup9\n      add\n      swap10\n      swap1\n      swap10\n      mstore\n      0x0e\n      dup7\n      add\n      sload\n      swap1\n      swap2\n      and\n      iszero\n      iszero\n      swap2\n      dup7\n      add\n      swap2\n      swap1\n      swap2\n      mstore\n      0x0f\n      swap1\n      swap4\n      add\n      sload\n      swap6\n      dup5\n      add\n      swap6\n      swap1\n      swap6\n      mstore\n      swap3\n      swap1\n      swap3\n      and\n      swap3\n      swap2\n      swap1\n      dup5\n      jump\n    tag_59:\n      mload(0x40)\n      tag_17\n      swap5\n      swap4\n      swap3\n      swap2\n      swap1\n      tag_63\n      jump\t// in\n        /* \"NFT_Payments.sol\":3494:5730  function createNFTPaymentPlan(... */\n    tag_12:\n      callvalue\n      dup1\n      iszero\n      tag_64\n      jumpi\n      0x00\n      dup1\n      revert\n    tag_64:\n      pop\n      tag_20\n      tag_66\n      calldatasize\n      0x04\n      tag_67\n      jump\t// in\n    tag_66:\n      tag_68\n      jump\t// in\n        /* \"NFT_Payments.sol\":10285:11895  function makePayment(uint256 planId) external payable nonReentrant {... */\n    tag_29:\n        /* \"@openzeppelin/contracts/security/ReentrancyGuard.sol\":2261:2282  _nonReentrantBefore() */\n      tag_71\n        /* \"@openzeppelin/contracts/security/ReentrancyGuard.sol\":2261:2280  _nonReentrantBefore */\n      tag_72\n        /* \"@openzeppelin/contracts/security/ReentrancyGuard.sol\":2261:2282  _nonReentrantBefore() */\n      jump\t// in\n    tag_71:\n        /* \"NFT_Payments.sol\":10380:10381  0 */\n      0x00\n        /* \"NFT_Payments.sol\":10371:10377  planId */\n      dup2\n        /* \"NFT_Payments.sol\":10371:10381  planId > 0 */\n      gt\n        /* \"NFT_Payments.sol\":10371:10404  planId > 0 && planId < nextPlanId */\n      dup1\n      iszero\n      tag_74\n      jumpi\n      pop\n        /* \"NFT_Payments.sol\":10394:10404  nextPlanId */\n      sload(0x03)\n        /* \"NFT_Payments.sol\":10385:10391  planId */\n      dup2\n        /* \"NFT_Payments.sol\":10385:10404  planId < nextPlanId */\n      lt\n        /* \"NFT_Payments.sol\":10371:10404  planId > 0 && planId < nextPlanId */\n    tag_74:\n        /* \"NFT_Payments.sol\":10363:10424  require(planId > 0 && planId < nextPlanId, \"Invalid plan ID\") */\n      tag_75\n      jumpi\n      mload(0x40)\n      shl(0xe5, 0x461bcd)\n      dup2\n      mstore\n      0x04\n      add\n      tag_76\n      swap1\n      tag_77\n      jump\t// in\n    tag_76:\n      mload(0x40)\n      dup1\n      swap2\n      sub\n      swap1\n      revert\n    tag_75:\n        /* \"NFT_Payments.sol\":10435:10452  Plan storage plan */\n      0x00\n        /* \"NFT_Payments.sol\":10455:10468  plans[planId] */\n      dup2\n      dup2\n      mstore\n        /* \"NFT_Payments.sol\":10455:10460  plans */\n      0x02\n        /* \"NFT_Payments.sol\":10455:10468  plans[planId] */\n      0x20\n      mstore\n      0x40\n      swap1\n      keccak256\n        /* \"NFT_Payments.sol\":10497:10507  plan.buyer */\n      dup1\n      sload\n      sub(shl(0xa0, 0x01), 0x01)\n      and\n        /* \"NFT_Payments.sol\":10511:10521  msg.sender */\n      caller\n        /* \"NFT_Payments.sol\":10497:10521  plan.buyer == msg.sender */\n      eq\n        /* \"NFT_Payments.sol\":10489:10558  require(plan.buyer == msg.sender, \"Only the buyer can make payments\") */\n      tag_78\n      jumpi\n      mload(0x40)\n      shl(0xe5, 0x461bcd)\n      dup2\n      mstore\n        /* \"#utility.yul\":6360:6362   */\n      0x20\n        /* \"NFT_Payments.sol\":10489:10558  require(plan.buyer == msg.sender, \"Only the buyer can make payments\") */\n      0x04\n      dup3\n      add\n        /* \"#utility.yul\":6342:6363   */\n      dup2\n      swap1\n      mstore\n        /* \"#utility.yul\":6379:6397   */\n      0x24\n      dup3\n      add\n        /* \"#utility.yul\":6372:6402   */\n      mstore\n        /* \"#utility.yul\":6438:6472   */\n      0x4f6e6c79207468652062757965722063616e206d616b65207061796d656e7473\n        /* \"#utility.yul\":6418:6436   */\n      0x44\n      dup3\n      add\n        /* \"#utility.yul\":6411:6473   */\n      mstore\n        /* \"#utility.yul\":6490:6508   */\n      0x64\n      add\n        /* \"NFT_Payments.sol\":10489:10558  require(plan.buyer == msg.sender, \"Only the buyer can make payments\") */\n      tag_76\n        /* \"#utility.yul\":6158:6514   */\n      jump\n        /* \"NFT_Payments.sol\":10489:10558  require(plan.buyer == msg.sender, \"Only the buyer can make payments\") */\n    tag_78:\n        /* \"NFT_Payments.sol\":10577:10597  plan.status.isActive */\n      0x0e\n      dup2\n      add\n      sload\n      0xff\n      and\n        /* \"NFT_Payments.sol\":10569:10624  require(plan.status.isActive, \"No active payment plan\") */\n      tag_81\n      jumpi\n      mload(0x40)\n      shl(0xe5, 0x461bcd)\n      dup2\n      mstore\n        /* \"#utility.yul\":6721:6723   */\n      0x20\n        /* \"NFT_Payments.sol\":10569:10624  require(plan.status.isActive, \"No active payment plan\") */\n      0x04\n      dup3\n      add\n        /* \"#utility.yul\":6703:6724   */\n      mstore\n        /* \"#utility.yul\":6760:6762   */\n      0x16\n        /* \"#utility.yul\":6740:6758   */\n      0x24\n      dup3\n      add\n        /* \"#utility.yul\":6733:6763   */\n      mstore\n      shl(0x51, 0x27379030b1ba34bb32903830bcb6b2b73a10383630b7)\n        /* \"#utility.yul\":6779:6797   */\n      0x44\n      dup3\n      add\n        /* \"#utility.yul\":6772:6824   */\n      mstore\n        /* \"#utility.yul\":6841:6859   */\n      0x64\n      add\n        /* \"NFT_Payments.sol\":10569:10624  require(plan.status.isActive, \"No active payment plan\") */\n      tag_76\n        /* \"#utility.yul\":6519:6865   */\n      jump\n        /* \"NFT_Payments.sol\":10569:10624  require(plan.status.isActive, \"No active payment plan\") */\n    tag_81:\n        /* \"NFT_Payments.sol\":10643:10669  plan.terms.remainingAmount */\n      0x08\n      dup2\n      add\n      sload\n        /* \"NFT_Payments.sol\":10635:10703  require(plan.terms.remainingAmount > 0, \"Plan is already completed\") */\n      tag_84\n      jumpi\n      mload(0x40)\n      shl(0xe5, 0x461bcd)\n      dup2\n      mstore\n        /* \"#utility.yul\":7072:7074   */\n      0x20\n        /* \"NFT_Payments.sol\":10635:10703  require(plan.terms.remainingAmount > 0, \"Plan is already completed\") */\n      0x04\n      dup3\n      add\n        /* \"#utility.yul\":7054:7075   */\n      mstore\n        /* \"#utility.yul\":7111:7113   */\n      0x19\n        /* \"#utility.yul\":7091:7109   */\n      0x24\n      dup3\n      add\n        /* \"#utility.yul\":7084:7114   */\n      mstore\n        /* \"#utility.yul\":7150:7177   */\n      0x506c616e20697320616c726561647920636f6d706c6574656400000000000000\n        /* \"#utility.yul\":7130:7148   */\n      0x44\n      dup3\n      add\n        /* \"#utility.yul\":7123:7178   */\n      mstore\n        /* \"#utility.yul\":7195:7213   */\n      0x64\n      add\n        /* \"NFT_Payments.sol\":10635:10703  require(plan.terms.remainingAmount > 0, \"Plan is already completed\") */\n      tag_76\n        /* \"#utility.yul\":6870:7219   */\n      jump\n        /* \"NFT_Payments.sol\":10635:10703  require(plan.terms.remainingAmount > 0, \"Plan is already completed\") */\n    tag_84:\n        /* \"NFT_Payments.sol\":10742:10768  plan.terms.paymentPerMonth */\n      0x05\n      dup2\n      add\n      sload\n        /* \"NFT_Payments.sol\":10839:10866  plan.status.nextPaymentDate */\n      0x0c\n      dup3\n      add\n      sload\n        /* \"NFT_Payments.sol\":10716:10739  uint256 requiredPayment */\n      0x00\n      swap1\n        /* \"NFT_Payments.sol\":10821:10836  block.timestamp */\n      timestamp\n        /* \"NFT_Payments.sol\":10821:10866  block.timestamp > plan.status.nextPaymentDate */\n      gt\n        /* \"NFT_Payments.sol\":10817:11616  if (block.timestamp > plan.status.nextPaymentDate) {... */\n      iszero\n      tag_96\n      jumpi\n        /* \"NFT_Payments.sol\":10883:10909  plan.status.missedPayments */\n      0x0d\n      dup4\n      add\n        /* \"NFT_Payments.sol\":10883:10911  plan.status.missedPayments++ */\n      dup1\n      sload\n      swap1\n        /* \"NFT_Payments.sol\":10883:10909  plan.status.missedPayments */\n      0x00\n        /* \"NFT_Payments.sol\":10883:10911  plan.status.missedPayments++ */\n      tag_88\n      dup4\n      tag_89\n      jump\t// in\n    tag_88:\n      swap1\n      swap2\n      sstore\n      pop\n      pop\n        /* \"NFT_Payments.sol\":10972:10997  plan.terms.penaltyPercent */\n      0x07\n      dup4\n      add\n      sload\n        /* \"NFT_Payments.sol\":10943:10969  plan.terms.remainingAmount */\n      0x08\n      dup5\n      add\n      sload\n        /* \"NFT_Payments.sol\":11001:11004  100 */\n      0x64\n      swap2\n        /* \"NFT_Payments.sol\":10943:10997  plan.terms.remainingAmount * plan.terms.penaltyPercent */\n      tag_90\n      swap2\n      tag_91\n      jump\t// in\n    tag_90:\n        /* \"NFT_Payments.sol\":10942:11004  (plan.terms.remainingAmount * plan.terms.penaltyPercent) / 100 */\n      tag_92\n      swap2\n      swap1\n      tag_93\n      jump\t// in\n    tag_92:\n        /* \"NFT_Payments.sol\":10926:11004  penaltyAmount = (plan.terms.remainingAmount * plan.terms.penaltyPercent) / 100 */\n      swap1\n      pop\n        /* \"NFT_Payments.sol\":11019:11051  requiredPayment += penaltyAmount */\n      tag_94\n        /* \"NFT_Payments.sol\":10926:11004  penaltyAmount = (plan.terms.remainingAmount * plan.terms.penaltyPercent) / 100 */\n      dup2\n        /* \"NFT_Payments.sol\":11019:11051  requiredPayment += penaltyAmount */\n      dup4\n      tag_95\n      jump\t// in\n    tag_94:\n      swap2\n      pop\n        /* \"NFT_Payments.sol\":11102:11103  3 */\n      0x03\n        /* \"NFT_Payments.sol\":11072:11076  plan */\n      dup4\n        /* \"NFT_Payments.sol\":11072:11083  plan.status */\n      0x0b\n      add\n        /* \"NFT_Payments.sol\":11072:11098  plan.status.missedPayments */\n      0x02\n      add\n      sload\n        /* \"NFT_Payments.sol\":11072:11103  plan.status.missedPayments >= 3 */\n      lt\n        /* \"NFT_Payments.sol\":11068:11605  if (plan.status.missedPayments >= 3) {... */\n      tag_96\n      jumpi\n        /* \"NFT_Payments.sol\":11167:11193  plan.terms.remainingAmount */\n      0x08\n      dup4\n      add\n      sload\n        /* \"NFT_Payments.sol\":11167:11177  plan.terms */\n      0x04\n      dup5\n      add\n        /* \"NFT_Payments.sol\":11144:11164  plan.terms.totalCost */\n      sload\n        /* \"NFT_Payments.sol\":11124:11141  uint256 forfeited */\n      0x00\n      swap2\n        /* \"NFT_Payments.sol\":11144:11193  plan.terms.totalCost - plan.terms.remainingAmount */\n      tag_97\n      swap2\n      tag_98\n      jump\t// in\n    tag_97:\n        /* \"NFT_Payments.sol\":11212:11232  plan.status.isActive */\n      0x0e\n      dup6\n      add\n        /* \"NFT_Payments.sol\":11212:11240  plan.status.isActive = false */\n      dup1\n      sload\n      not(0xff)\n      and\n      swap1\n      sstore\n      0x01\n        /* \"NFT_Payments.sol\":11412:11427  plan.nftDetails */\n      dup6\n      add\n        /* \"NFT_Payments.sol\":11412:11439  plan.nftDetails.nftContract */\n      sload\n        /* \"NFT_Payments.sol\":11462:11485  plan.nftDetails.tokenId */\n      0x02\n      dup7\n      add\n      sload\n        /* \"NFT_Payments.sol\":11282:11504  PlanDefaulted(... */\n      0x40\n      dup1\n      mload\n        /* \"#utility.yul\":8391:8416   */\n      dup5\n      dup2\n      mstore\n      sub(shl(0xa0, 0x01), 0x01)\n        /* \"NFT_Payments.sol\":11412:11439  plan.nftDetails.nftContract */\n      swap1\n      swap4\n      and\n        /* \"#utility.yul\":8447:8449   */\n      0x20\n        /* \"#utility.yul\":8432:8450   */\n      dup5\n      add\n        /* \"#utility.yul\":8425:8485   */\n      mstore\n        /* \"#utility.yul\":8501:8519   */\n      dup3\n      add\n        /* \"#utility.yul\":8494:8528   */\n      mstore\n        /* \"NFT_Payments.sol\":11124:11193  uint256 forfeited = plan.terms.totalCost - plan.terms.remainingAmount */\n      swap1\n      swap2\n      pop\n        /* \"NFT_Payments.sol\":11347:11357  msg.sender */\n      caller\n      swap1\n        /* \"NFT_Payments.sol\":11318:11324  planId */\n      dup7\n      swap1\n        /* \"NFT_Payments.sol\":11282:11504  PlanDefaulted(... */\n      0xf07c0238a1bef424f264e711045c0974dfcde753e6a77836cd6a6b2ecdadfe76\n      swap1\n        /* \"#utility.yul\":8379:8381   */\n      0x60\n        /* \"#utility.yul\":8364:8382   */\n      add\n        /* \"NFT_Payments.sol\":11282:11504  PlanDefaulted(... */\n      mload(0x40)\n      dup1\n      swap2\n      sub\n      swap1\n      log3\n        /* \"NFT_Payments.sol\":11541:11589  revert(\"Plan defaulted - three payments missed\") */\n      mload(0x40)\n      shl(0xe5, 0x461bcd)\n      dup2\n      mstore\n        /* \"#utility.yul\":8741:8743   */\n      0x20\n        /* \"NFT_Payments.sol\":11541:11589  revert(\"Plan defaulted - three payments missed\") */\n      0x04\n      dup3\n      add\n        /* \"#utility.yul\":8723:8744   */\n      mstore\n        /* \"#utility.yul\":8780:8782   */\n      0x26\n        /* \"#utility.yul\":8760:8778   */\n      0x24\n      dup3\n      add\n        /* \"#utility.yul\":8753:8783   */\n      mstore\n        /* \"#utility.yul\":8819:8853   */\n      0x506c616e2064656661756c746564202d207468726565207061796d656e747320\n        /* \"#utility.yul\":8799:8817   */\n      0x44\n      dup3\n      add\n        /* \"#utility.yul\":8792:8854   */\n      mstore\n      shl(0xd2, 0x1b5a5cdcd959)\n        /* \"#utility.yul\":8870:8888   */\n      0x64\n      dup3\n      add\n        /* \"#utility.yul\":8863:8899   */\n      mstore\n        /* \"#utility.yul\":8916:8935   */\n      0x84\n      add\n        /* \"NFT_Payments.sol\":11541:11589  revert(\"Plan defaulted - three payments missed\") */\n      tag_76\n        /* \"#utility.yul\":8539:8941   */\n      jump\n        /* \"NFT_Payments.sol\":11068:11605  if (plan.status.missedPayments >= 3) {... */\n    tag_96:\n        /* \"NFT_Payments.sol\":11649:11664  requiredPayment */\n      dup2\n        /* \"NFT_Payments.sol\":11636:11645  msg.value */\n      callvalue\n        /* \"NFT_Payments.sol\":11636:11664  msg.value >= requiredPayment */\n      lt\n      iszero\n        /* \"NFT_Payments.sol\":11628:11696  require(msg.value >= requiredPayment, \"Insufficient payment amount\") */\n      tag_103\n      jumpi\n      mload(0x40)\n      shl(0xe5, 0x461bcd)\n      dup2\n      mstore\n        /* \"#utility.yul\":9148:9150   */\n      0x20\n        /* \"NFT_Payments.sol\":11628:11696  require(msg.value >= requiredPayment, \"Insufficient payment amount\") */\n      0x04\n      dup3\n      add\n        /* \"#utility.yul\":9130:9151   */\n      mstore\n        /* \"#utility.yul\":9187:9189   */\n      0x1b\n        /* \"#utility.yul\":9167:9185   */\n      0x24\n      dup3\n      add\n        /* \"#utility.yul\":9160:9190   */\n      mstore\n        /* \"#utility.yul\":9226:9255   */\n      0x496e73756666696369656e74207061796d656e7420616d6f756e740000000000\n        /* \"#utility.yul\":9206:9224   */\n      0x44\n      dup3\n      add\n        /* \"#utility.yul\":9199:9256   */\n      mstore\n        /* \"#utility.yul\":9273:9291   */\n      0x64\n      add\n        /* \"NFT_Payments.sol\":11628:11696  require(msg.value >= requiredPayment, \"Insufficient payment amount\") */\n      tag_76\n        /* \"#utility.yul\":8946:9297   */\n      jump\n        /* \"NFT_Payments.sol\":11628:11696  require(msg.value >= requiredPayment, \"Insufficient payment amount\") */\n    tag_103:\n        /* \"NFT_Payments.sol\":11743:11792  _processPayment(planId, msg.value, penaltyAmount) */\n      tag_106\n        /* \"NFT_Payments.sol\":11759:11765  planId */\n      dup5\n        /* \"NFT_Payments.sol\":11767:11776  msg.value */\n      callvalue\n        /* \"NFT_Payments.sol\":11778:11791  penaltyAmount */\n      dup4\n        /* \"NFT_Payments.sol\":11743:11758  _processPayment */\n      tag_107\n        /* \"NFT_Payments.sol\":11743:11792  _processPayment(planId, msg.value, penaltyAmount) */\n      jump\t// in\n    tag_106:\n        /* \"NFT_Payments.sol\":11852:11887  payable(seller).transfer(msg.value) */\n      mload(0x40)\n      sub(shl(0xa0, 0x01), 0x01)\n        /* \"NFT_Payments.sol\":11860:11866  seller */\n      immutable(\"0x16c8a63d520d02dbd3ba67dd93cae5eadc6219145ea2099e8e9f17a2533fafa7\")\n        /* \"NFT_Payments.sol\":11852:11876  payable(seller).transfer */\n      and\n      swap1\n        /* \"NFT_Payments.sol\":11877:11886  msg.value */\n      callvalue\n        /* \"NFT_Payments.sol\":11852:11887  payable(seller).transfer(msg.value) */\n      dup1\n      iszero\n      0x08fc\n      mul\n      swap2\n      0x00\n      dup2\n      dup2\n      dup2\n        /* \"NFT_Payments.sol\":11877:11886  msg.value */\n      dup6\n        /* \"NFT_Payments.sol\":11852:11876  payable(seller).transfer */\n      dup9\n        /* \"NFT_Payments.sol\":11852:11887  payable(seller).transfer(msg.value) */\n      dup9\n      call\n      swap4\n      pop\n      pop\n      pop\n      pop\n      iszero\n      dup1\n      iszero\n      tag_109\n      jumpi\n      returndatasize\n      0x00\n      dup1\n      returndatacopy\n      revert(0x00, returndatasize)\n    tag_109:\n      pop\n        /* \"NFT_Payments.sol\":10352:11895  {... */\n      pop\n      pop\n      pop\n        /* \"@openzeppelin/contracts/security/ReentrancyGuard.sol\":2303:2323  _nonReentrantAfter() */\n      tag_110\n        /* \"@openzeppelin/contracts/security/ReentrancyGuard.sol\":1716:1717  1 */\n      0x01\n        /* \"@openzeppelin/contracts/security/ReentrancyGuard.sol\":2809:2816  _status */\n      0x00\n        /* \"@openzeppelin/contracts/security/ReentrancyGuard.sol\":2809:2831  _status = _NOT_ENTERED */\n      sstore\n        /* \"@openzeppelin/contracts/security/ReentrancyGuard.sol\":2629:2838  function _nonReentrantAfter() private {... */\n      jump\n        /* \"@openzeppelin/contracts/security/ReentrancyGuard.sol\":2303:2323  _nonReentrantAfter() */\n    tag_110:\n        /* \"NFT_Payments.sol\":10285:11895  function makePayment(uint256 planId) external payable nonReentrant {... */\n      pop\n      jump\t// out\n        /* \"NFT_Payments.sol\":8458:10248  function processDownPayment(uint256 planId) external payable nonReentrant {... */\n    tag_41:\n        /* \"@openzeppelin/contracts/security/ReentrancyGuard.sol\":2261:2282  _nonReentrantBefore() */\n      tag_114\n        /* \"@openzeppelin/contracts/security/ReentrancyGuard.sol\":2261:2280  _nonReentrantBefore */\n      tag_72\n        /* \"@openzeppelin/contracts/security/ReentrancyGuard.sol\":2261:2282  _nonReentrantBefore() */\n      jump\t// in\n    tag_114:\n        /* \"NFT_Payments.sol\":8560:8561  0 */\n      0x00\n        /* \"NFT_Payments.sol\":8551:8557  planId */\n      dup2\n        /* \"NFT_Payments.sol\":8551:8561  planId > 0 */\n      gt\n        /* \"NFT_Payments.sol\":8551:8584  planId > 0 && planId < nextPlanId */\n      dup1\n      iszero\n      tag_116\n      jumpi\n      pop\n        /* \"NFT_Payments.sol\":8574:8584  nextPlanId */\n      sload(0x03)\n        /* \"NFT_Payments.sol\":8565:8571  planId */\n      dup2\n        /* \"NFT_Payments.sol\":8565:8584  planId < nextPlanId */\n      lt\n        /* \"NFT_Payments.sol\":8551:8584  planId > 0 && planId < nextPlanId */\n    tag_116:\n        /* \"NFT_Payments.sol\":8543:8604  require(planId > 0 && planId < nextPlanId, \"Invalid plan ID\") */\n      tag_117\n      jumpi\n      mload(0x40)\n      shl(0xe5, 0x461bcd)\n      dup2\n      mstore\n      0x04\n      add\n      tag_76\n      swap1\n      tag_77\n      jump\t// in\n    tag_117:\n        /* \"NFT_Payments.sol\":8615:8632  Plan storage plan */\n      0x00\n        /* \"NFT_Payments.sol\":8635:8648  plans[planId] */\n      dup2\n      dup2\n      mstore\n        /* \"NFT_Payments.sol\":8635:8640  plans */\n      0x02\n        /* \"NFT_Payments.sol\":8635:8648  plans[planId] */\n      0x20\n      mstore\n      0x40\n      swap1\n      keccak256\n        /* \"NFT_Payments.sol\":8677:8687  plan.buyer */\n      dup1\n      sload\n      sub(shl(0xa0, 0x01), 0x01)\n      and\n        /* \"NFT_Payments.sol\":8691:8701  msg.sender */\n      caller\n        /* \"NFT_Payments.sol\":8677:8701  plan.buyer == msg.sender */\n      eq\n        /* \"NFT_Payments.sol\":8669:8738  require(plan.buyer == msg.sender, \"Only the buyer can make payments\") */\n      tag_119\n      jumpi\n      mload(0x40)\n      shl(0xe5, 0x461bcd)\n      dup2\n      mstore\n        /* \"#utility.yul\":6360:6362   */\n      0x20\n        /* \"NFT_Payments.sol\":8669:8738  require(plan.buyer == msg.sender, \"Only the buyer can make payments\") */\n      0x04\n      dup3\n      add\n        /* \"#utility.yul\":6342:6363   */\n      dup2\n      swap1\n      mstore\n        /* \"#utility.yul\":6379:6397   */\n      0x24\n      dup3\n      add\n        /* \"#utility.yul\":6372:6402   */\n      mstore\n        /* \"#utility.yul\":6438:6472   */\n      0x4f6e6c79207468652062757965722063616e206d616b65207061796d656e7473\n        /* \"#utility.yul\":6418:6436   */\n      0x44\n      dup3\n      add\n        /* \"#utility.yul\":6411:6473   */\n      mstore\n        /* \"#utility.yul\":6490:6508   */\n      0x64\n      add\n        /* \"NFT_Payments.sol\":8669:8738  require(plan.buyer == msg.sender, \"Only the buyer can make payments\") */\n      tag_76\n        /* \"#utility.yul\":6158:6514   */\n      jump\n        /* \"NFT_Payments.sol\":8669:8738  require(plan.buyer == msg.sender, \"Only the buyer can make payments\") */\n    tag_119:\n        /* \"NFT_Payments.sol\":8757:8777  plan.status.isActive */\n      0x0e\n      dup2\n      add\n      sload\n      0xff\n      and\n        /* \"NFT_Payments.sol\":8749:8804  require(plan.status.isActive, \"No active payment plan\") */\n      tag_121\n      jumpi\n      mload(0x40)\n      shl(0xe5, 0x461bcd)\n      dup2\n      mstore\n        /* \"#utility.yul\":6721:6723   */\n      0x20\n        /* \"NFT_Payments.sol\":8749:8804  require(plan.status.isActive, \"No active payment plan\") */\n      0x04\n      dup3\n      add\n        /* \"#utility.yul\":6703:6724   */\n      mstore\n        /* \"#utility.yul\":6760:6762   */\n      0x16\n        /* \"#utility.yul\":6740:6758   */\n      0x24\n      dup3\n      add\n        /* \"#utility.yul\":6733:6763   */\n      mstore\n      shl(0x51, 0x27379030b1ba34bb32903830bcb6b2b73a10383630b7)\n        /* \"#utility.yul\":6779:6797   */\n      0x44\n      dup3\n      add\n        /* \"#utility.yul\":6772:6824   */\n      mstore\n        /* \"#utility.yul\":6841:6859   */\n      0x64\n      add\n        /* \"NFT_Payments.sol\":8749:8804  require(plan.status.isActive, \"No active payment plan\") */\n      tag_76\n        /* \"#utility.yul\":6519:6865   */\n      jump\n        /* \"NFT_Payments.sol\":8749:8804  require(plan.status.isActive, \"No active payment plan\") */\n    tag_121:\n        /* \"NFT_Payments.sol\":8823:8851  plan.terms.downPaymentAmount */\n      0x0a\n      dup2\n      add\n      sload\n        /* \"NFT_Payments.sol\":8815:8890  require(plan.terms.downPaymentAmount > 0, \"Down payment already processed\") */\n      tag_123\n      jumpi\n      mload(0x40)\n      shl(0xe5, 0x461bcd)\n      dup2\n      mstore\n        /* \"#utility.yul\":9504:9506   */\n      0x20\n        /* \"NFT_Payments.sol\":8815:8890  require(plan.terms.downPaymentAmount > 0, \"Down payment already processed\") */\n      0x04\n      dup3\n      add\n        /* \"#utility.yul\":9486:9507   */\n      mstore\n        /* \"#utility.yul\":9543:9545   */\n      0x1e\n        /* \"#utility.yul\":9523:9541   */\n      0x24\n      dup3\n      add\n        /* \"#utility.yul\":9516:9546   */\n      mstore\n        /* \"#utility.yul\":9582:9614   */\n      0x446f776e207061796d656e7420616c72656164792070726f6365737365640000\n        /* \"#utility.yul\":9562:9580   */\n      0x44\n      dup3\n      add\n        /* \"#utility.yul\":9555:9615   */\n      mstore\n        /* \"#utility.yul\":9632:9650   */\n      0x64\n      add\n        /* \"NFT_Payments.sol\":8815:8890  require(plan.terms.downPaymentAmount > 0, \"Down payment already processed\") */\n      tag_76\n        /* \"#utility.yul\":9302:9656   */\n      jump\n        /* \"NFT_Payments.sol\":8815:8890  require(plan.terms.downPaymentAmount > 0, \"Down payment already processed\") */\n    tag_123:\n        /* \"NFT_Payments.sol\":8909:8936  plan.status.nextPaymentDate */\n      0x0c\n      dup2\n      add\n      sload\n        /* \"NFT_Payments.sol\":8901:8966  require(plan.status.nextPaymentDate > 0, \"Payment dates not set\") */\n      tag_126\n      jumpi\n      mload(0x40)\n      shl(0xe5, 0x461bcd)\n      dup2\n      mstore\n        /* \"#utility.yul\":9863:9865   */\n      0x20\n        /* \"NFT_Payments.sol\":8901:8966  require(plan.status.nextPaymentDate > 0, \"Payment dates not set\") */\n      0x04\n      dup3\n      add\n        /* \"#utility.yul\":9845:9866   */\n      mstore\n        /* \"#utility.yul\":9902:9904   */\n      0x15\n        /* \"#utility.yul\":9882:9900   */\n      0x24\n      dup3\n      add\n        /* \"#utility.yul\":9875:9905   */\n      mstore\n      shl(0x5a, 0x14185e5b595b9d0819185d195cc81b9bdd081cd95d)\n        /* \"#utility.yul\":9921:9939   */\n      0x44\n      dup3\n      add\n        /* \"#utility.yul\":9914:9965   */\n      mstore\n        /* \"#utility.yul\":9982:10000   */\n      0x64\n      add\n        /* \"NFT_Payments.sol\":8901:8966  require(plan.status.nextPaymentDate > 0, \"Payment dates not set\") */\n      tag_76\n        /* \"#utility.yul\":9661:10006   */\n      jump\n        /* \"NFT_Payments.sol\":8901:8966  require(plan.status.nextPaymentDate > 0, \"Payment dates not set\") */\n    tag_126:\n        /* \"NFT_Payments.sol\":9008:9036  plan.terms.downPaymentAmount */\n      0x0a\n      dup2\n      add\n      sload\n        /* \"NFT_Payments.sol\":8995:9004  msg.value */\n      callvalue\n        /* \"NFT_Payments.sol\":8995:9036  msg.value >= plan.terms.downPaymentAmount */\n      lt\n      iszero\n        /* \"NFT_Payments.sol\":8987:9073  require(msg.value >= plan.terms.downPaymentAmount, \"Insufficient down payment amount\") */\n      tag_129\n      jumpi\n      mload(0x40)\n      shl(0xe5, 0x461bcd)\n      dup2\n      mstore\n        /* \"#utility.yul\":10213:10215   */\n      0x20\n        /* \"NFT_Payments.sol\":8987:9073  require(msg.value >= plan.terms.downPaymentAmount, \"Insufficient down payment amount\") */\n      0x04\n      dup3\n      add\n        /* \"#utility.yul\":10195:10216   */\n      dup2\n      swap1\n      mstore\n        /* \"#utility.yul\":10232:10250   */\n      0x24\n      dup3\n      add\n        /* \"#utility.yul\":10225:10255   */\n      mstore\n        /* \"#utility.yul\":10291:10325   */\n      0x496e73756666696369656e7420646f776e207061796d656e7420616d6f756e74\n        /* \"#utility.yul\":10271:10289   */\n      0x44\n      dup3\n      add\n        /* \"#utility.yul\":10264:10326   */\n      mstore\n        /* \"#utility.yul\":10343:10361   */\n      0x64\n      add\n        /* \"NFT_Payments.sol\":8987:9073  require(msg.value >= plan.terms.downPaymentAmount, \"Insufficient down payment amount\") */\n      tag_76\n        /* \"#utility.yul\":10011:10367   */\n      jump\n        /* \"NFT_Payments.sol\":8987:9073  require(msg.value >= plan.terms.downPaymentAmount, \"Insufficient down payment amount\") */\n    tag_129:\n        /* \"NFT_Payments.sol\":9162:9177  plan.nftDetails */\n      0x01\n      dup2\n      add\n        /* \"NFT_Payments.sol\":9162:9189  plan.nftDetails.nftContract */\n      sload\n        /* \"NFT_Payments.sol\":9299:9322  plan.nftDetails.tokenId */\n      0x02\n      dup3\n      add\n      sload\n        /* \"NFT_Payments.sol\":9279:9323  nftContract.ownerOf(plan.nftDetails.tokenId) */\n      mload(0x40)\n      shl(0xe1, 0x31a9108f)\n      dup2\n      mstore\n      sub(shl(0xa0, 0x01), 0x01)\n        /* \"NFT_Payments.sol\":9162:9189  plan.nftDetails.nftContract */\n      swap3\n      dup4\n      and\n      swap3\n        /* \"NFT_Payments.sol\":9327:9333  seller */\n      immutable(\"0x16c8a63d520d02dbd3ba67dd93cae5eadc6219145ea2099e8e9f17a2533fafa7\")\n        /* \"NFT_Payments.sol\":9279:9333  nftContract.ownerOf(plan.nftDetails.tokenId) == seller */\n      and\n      swap2\n        /* \"NFT_Payments.sol\":9162:9189  plan.nftDetails.nftContract */\n      dup4\n      swap2\n        /* \"NFT_Payments.sol\":9279:9298  nftContract.ownerOf */\n      0x6352211e\n      swap2\n        /* \"NFT_Payments.sol\":9279:9323  nftContract.ownerOf(plan.nftDetails.tokenId) */\n      tag_132\n      swap2\n      0x04\n      add\n        /* \"#utility.yul\":756:781   */\n      swap1\n      dup2\n      mstore\n        /* \"#utility.yul\":744:746   */\n      0x20\n        /* \"#utility.yul\":729:747   */\n      add\n      swap1\n        /* \"#utility.yul\":610:787   */\n      jump\n        /* \"NFT_Payments.sol\":9279:9323  nftContract.ownerOf(plan.nftDetails.tokenId) */\n    tag_132:\n      0x20\n      mload(0x40)\n      dup1\n      dup4\n      sub\n      dup2\n      dup7\n      gas\n      staticcall\n      iszero\n      dup1\n      iszero\n      tag_134\n      jumpi\n      returndatasize\n      0x00\n      dup1\n      returndatacopy\n      revert(0x00, returndatasize)\n    tag_134:\n      pop\n      pop\n      pop\n      pop\n      mload(0x40)\n      returndatasize\n      not(0x1f)\n      0x1f\n      dup3\n      add\n      and\n      dup3\n      add\n      dup1\n      0x40\n      mstore\n      pop\n      dup2\n      add\n      swap1\n      tag_135\n      swap2\n      swap1\n      tag_136\n      jump\t// in\n    tag_135:\n      sub(shl(0xa0, 0x01), 0x01)\n        /* \"NFT_Payments.sol\":9279:9333  nftContract.ownerOf(plan.nftDetails.tokenId) == seller */\n      and\n      eq\n        /* \"NFT_Payments.sol\":9257:9388  require(... */\n      tag_137\n      jumpi\n      mload(0x40)\n      shl(0xe5, 0x461bcd)\n      dup2\n      mstore\n        /* \"#utility.yul\":10830:10832   */\n      0x20\n        /* \"NFT_Payments.sol\":9257:9388  require(... */\n      0x04\n      dup3\n      add\n        /* \"#utility.yul\":10812:10833   */\n      mstore\n        /* \"#utility.yul\":10869:10871   */\n      0x1b\n        /* \"#utility.yul\":10849:10867   */\n      0x24\n      dup3\n      add\n        /* \"#utility.yul\":10842:10872   */\n      mstore\n        /* \"#utility.yul\":10908:10937   */\n      0x53656c6c657220646f6573206e6f74206f776e20746865204e46540000000000\n        /* \"#utility.yul\":10888:10906   */\n      0x44\n      dup3\n      add\n        /* \"#utility.yul\":10881:10938   */\n      mstore\n        /* \"#utility.yul\":10955:10973   */\n      0x64\n      add\n        /* \"NFT_Payments.sol\":9257:9388  require(... */\n      tag_76\n        /* \"#utility.yul\":10628:10979   */\n      jump\n        /* \"NFT_Payments.sol\":9257:9388  require(... */\n    tag_137:\n        /* \"NFT_Payments.sol\":9431:9482  nftContract.isApprovedForAll(seller, address(this)) */\n      mload(0x40)\n      shl(0xe0, 0xe985e9c5)\n      dup2\n      mstore\n      sub(shl(0xa0, 0x01), 0x01)\n        /* \"NFT_Payments.sol\":9460:9466  seller */\n      immutable(\"0x16c8a63d520d02dbd3ba67dd93cae5eadc6219145ea2099e8e9f17a2533fafa7\")\n        /* \"#utility.yul\":11176:11208   */\n      dup2\n      and\n        /* \"NFT_Payments.sol\":9431:9482  nftContract.isApprovedForAll(seller, address(this)) */\n      0x04\n      dup4\n      add\n        /* \"#utility.yul\":11158:11209   */\n      mstore\n        /* \"NFT_Payments.sol\":9476:9480  this */\n      address\n        /* \"#utility.yul\":11225:11243   */\n      0x24\n      dup4\n      add\n        /* \"#utility.yul\":11218:11278   */\n      mstore\n        /* \"NFT_Payments.sol\":9431:9459  nftContract.isApprovedForAll */\n      dup3\n      and\n      swap1\n      0xe985e9c5\n      swap1\n        /* \"#utility.yul\":11131:11149   */\n      0x44\n      add\n        /* \"NFT_Payments.sol\":9431:9482  nftContract.isApprovedForAll(seller, address(this)) */\n      0x20\n      mload(0x40)\n      dup1\n      dup4\n      sub\n      dup2\n      dup7\n      gas\n      staticcall\n      iszero\n      dup1\n      iszero\n      tag_143\n      jumpi\n      returndatasize\n      0x00\n      dup1\n      returndatacopy\n      revert(0x00, returndatasize)\n    tag_143:\n      pop\n      pop\n      pop\n      pop\n      mload(0x40)\n      returndatasize\n      not(0x1f)\n      0x1f\n      dup3\n      add\n      and\n      dup3\n      add\n      dup1\n      0x40\n      mstore\n      pop\n      dup2\n      add\n      swap1\n      tag_144\n      swap2\n      swap1\n      tag_145\n      jump\t// in\n    tag_144:\n        /* \"NFT_Payments.sol\":9431:9564  nftContract.isApprovedForAll(seller, address(this)) ||... */\n      dup1\n      tag_146\n      jumpi\n      pop\n        /* \"NFT_Payments.sol\":9523:9546  plan.nftDetails.tokenId */\n      0x02\n      dup3\n      add\n      sload\n        /* \"NFT_Payments.sol\":9499:9547  nftContract.getApproved(plan.nftDetails.tokenId) */\n      mload(0x40)\n      shl(0xe2, 0x020604bf)\n      dup2\n      mstore\n        /* \"NFT_Payments.sol\":9559:9563  this */\n      address\n      swap2\n      sub(shl(0xa0, 0x01), 0x01)\n        /* \"NFT_Payments.sol\":9499:9522  nftContract.getApproved */\n      dup5\n      and\n      swap2\n      0x081812fc\n      swap2\n        /* \"NFT_Payments.sol\":9499:9547  nftContract.getApproved(plan.nftDetails.tokenId) */\n      tag_147\n      swap2\n      0x04\n      add\n        /* \"#utility.yul\":756:781   */\n      swap1\n      dup2\n      mstore\n        /* \"#utility.yul\":744:746   */\n      0x20\n        /* \"#utility.yul\":729:747   */\n      add\n      swap1\n        /* \"#utility.yul\":610:787   */\n      jump\n        /* \"NFT_Payments.sol\":9499:9547  nftContract.getApproved(plan.nftDetails.tokenId) */\n    tag_147:\n      0x20\n      mload(0x40)\n      dup1\n      dup4\n      sub\n      dup2\n      dup7\n      gas\n      staticcall\n      iszero\n      dup1\n      iszero\n      tag_149\n      jumpi\n      returndatasize\n      0x00\n      dup1\n      returndatacopy\n      revert(0x00, returndatasize)\n    tag_149:\n      pop\n      pop\n      pop\n      pop\n      mload(0x40)\n      returndatasize\n      not(0x1f)\n      0x1f\n      dup3\n      add\n      and\n      dup3\n      add\n      dup1\n      0x40\n      mstore\n      pop\n      dup2\n      add\n      swap1\n      tag_150\n      swap2\n      swap1\n      tag_136\n      jump\t// in\n    tag_150:\n      sub(shl(0xa0, 0x01), 0x01)\n        /* \"NFT_Payments.sol\":9499:9564  nftContract.getApproved(plan.nftDetails.tokenId) == address(this) */\n      and\n      eq\n        /* \"NFT_Payments.sol\":9431:9564  nftContract.isApprovedForAll(seller, address(this)) ||... */\n    tag_146:\n        /* \"NFT_Payments.sol\":9409:9629  require(... */\n      tag_151\n      jumpi\n      mload(0x40)\n      shl(0xe5, 0x461bcd)\n      dup2\n      mstore\n        /* \"#utility.yul\":11773:11775   */\n      0x20\n        /* \"NFT_Payments.sol\":9409:9629  require(... */\n      0x04\n      dup3\n      add\n        /* \"#utility.yul\":11755:11776   */\n      mstore\n        /* \"#utility.yul\":11812:11814   */\n      0x25\n        /* \"#utility.yul\":11792:11810   */\n      0x24\n      dup3\n      add\n        /* \"#utility.yul\":11785:11815   */\n      mstore\n        /* \"#utility.yul\":11851:11885   */\n      0x436f6e7472616374206e6f7420617070726f76656420746f207472616e736665\n        /* \"#utility.yul\":11831:11849   */\n      0x44\n      dup3\n      add\n        /* \"#utility.yul\":11824:11886   */\n      mstore\n      shl(0xda, 0x1c88139195)\n        /* \"#utility.yul\":11902:11920   */\n      0x64\n      dup3\n      add\n        /* \"#utility.yul\":11895:11930   */\n      mstore\n        /* \"#utility.yul\":11947:11966   */\n      0x84\n      add\n        /* \"NFT_Payments.sol\":9409:9629  require(... */\n      tag_76\n        /* \"#utility.yul\":11571:11972   */\n      jump\n        /* \"NFT_Payments.sol\":9409:9629  require(... */\n    tag_151:\n        /* \"NFT_Payments.sol\":9746:9769  plan.nftDetails.tokenId */\n      0x02\n      dup3\n      add\n      sload\n        /* \"NFT_Payments.sol\":9698:9770  nftContract.transferFrom(seller, address(this), plan.nftDetails.tokenId) */\n      mload(0x40)\n      shl(0xe0, 0x23b872dd)\n      dup2\n      mstore\n      sub(shl(0xa0, 0x01), 0x01)\n        /* \"NFT_Payments.sol\":9723:9729  seller */\n      immutable(\"0x16c8a63d520d02dbd3ba67dd93cae5eadc6219145ea2099e8e9f17a2533fafa7\")\n        /* \"#utility.yul\":12197:12229   */\n      dup2\n      and\n        /* \"NFT_Payments.sol\":9698:9770  nftContract.transferFrom(seller, address(this), plan.nftDetails.tokenId) */\n      0x04\n      dup4\n      add\n        /* \"#utility.yul\":12179:12230   */\n      mstore\n        /* \"NFT_Payments.sol\":9739:9743  this */\n      address\n        /* \"#utility.yul\":12246:12264   */\n      0x24\n      dup4\n      add\n        /* \"#utility.yul\":12239:12299   */\n      mstore\n        /* \"#utility.yul\":12315:12333   */\n      0x44\n      dup3\n      add\n        /* \"#utility.yul\":12308:12342   */\n      swap3\n      swap1\n      swap3\n      mstore\n        /* \"NFT_Payments.sol\":9698:9722  nftContract.transferFrom */\n      swap1\n      dup3\n      and\n      swap1\n      0x23b872dd\n      swap1\n        /* \"#utility.yul\":12152:12170   */\n      0x64\n      add\n        /* \"NFT_Payments.sol\":9698:9770  nftContract.transferFrom(seller, address(this), plan.nftDetails.tokenId) */\n      0x00\n      mload(0x40)\n      dup1\n      dup4\n      sub\n      dup2\n      0x00\n      dup8\n      dup1\n      extcodesize\n      iszero\n      dup1\n      iszero\n      tag_156\n      jumpi\n      0x00\n      dup1\n      revert\n    tag_156:\n      pop\n      gas\n      call\n      iszero\n      dup1\n      iszero\n      tag_158\n      jumpi\n      returndatasize\n      0x00\n      dup1\n      returndatacopy\n      revert(0x00, returndatasize)\n    tag_158:\n      pop\n      pop\n        /* \"NFT_Payments.sol\":9855:9856  0 */\n      0x00\n        /* \"NFT_Payments.sol\":9824:9852  plan.terms.downPaymentAmount */\n      0x0a\n      dup6\n      add\n        /* \"NFT_Payments.sol\":9824:9856  plan.terms.downPaymentAmount = 0 */\n      dup2\n      swap1\n      sstore\n        /* \"NFT_Payments.sol\":9937:9972  payable(seller).transfer(msg.value) */\n      mload(0x40)\n      sub(shl(0xa0, 0x01), 0x01)\n        /* \"NFT_Payments.sol\":9945:9951  seller */\n      immutable(\"0x16c8a63d520d02dbd3ba67dd93cae5eadc6219145ea2099e8e9f17a2533fafa7\")\n        /* \"NFT_Payments.sol\":9937:9961  payable(seller).transfer */\n      and\n      swap4\n      pop\n        /* \"NFT_Payments.sol\":9962:9971  msg.value */\n      callvalue\n        /* \"NFT_Payments.sol\":9937:9972  payable(seller).transfer(msg.value) */\n      dup1\n      iszero\n      0x08fc\n      mul\n      swap4\n      pop\n        /* \"NFT_Payments.sol\":9962:9971  msg.value */\n      swap2\n        /* \"NFT_Payments.sol\":9937:9972  payable(seller).transfer(msg.value) */\n      dup2\n        /* \"NFT_Payments.sol\":9855:9856  0 */\n      dup2\n        /* \"NFT_Payments.sol\":9937:9972  payable(seller).transfer(msg.value) */\n      dup2\n        /* \"NFT_Payments.sol\":9962:9971  msg.value */\n      dup6\n        /* \"NFT_Payments.sol\":9937:9961  payable(seller).transfer */\n      dup9\n        /* \"NFT_Payments.sol\":9937:9972  payable(seller).transfer(msg.value) */\n      dup9\n      call\n      swap4\n      pop\n      pop\n      pop\n      pop\n      iszero\n      dup1\n      iszero\n      tag_160\n      jumpi\n      returndatasize\n      0x00\n      dup1\n      returndatacopy\n      revert(0x00, returndatasize)\n    tag_160:\n      pop\n        /* \"NFT_Payments.sol\":10106:10134  plan.terms.remainingPayments */\n      0x09\n      dup3\n      add\n      sload\n        /* \"NFT_Payments.sol\":10173:10199  plan.terms.remainingAmount */\n      0x08\n      dup4\n      add\n      sload\n        /* \"NFT_Payments.sol\":10034:10240  PaymentMade(... */\n      0x40\n      dup1\n      mload\n        /* \"#utility.yul\":12584:12609   */\n      swap3\n      dup4\n      mstore\n        /* \"NFT_Payments.sol\":10149:10158  msg.value */\n      callvalue\n        /* \"#utility.yul\":12640:12642   */\n      0x20\n        /* \"#utility.yul\":12625:12643   */\n      dup5\n      add\n        /* \"#utility.yul\":12618:12652   */\n      mstore\n        /* \"#utility.yul\":12668:12686   */\n      dup3\n      add\n        /* \"#utility.yul\":12661:12695   */\n      mstore\n        /* \"NFT_Payments.sol\":10214:10229  block.timestamp */\n      timestamp\n        /* \"#utility.yul\":12726:12728   */\n      0x60\n        /* \"#utility.yul\":12711:12729   */\n      dup3\n      add\n        /* \"#utility.yul\":12704:12738   */\n      mstore\n        /* \"NFT_Payments.sol\":10081:10091  msg.sender */\n      caller\n      swap1\n        /* \"NFT_Payments.sol\":10060:10066  planId */\n      dup5\n      swap1\n        /* \"NFT_Payments.sol\":10034:10240  PaymentMade(... */\n      0x7f05815c7b52d0bff880f573cdfecaa56c4396326c1c01bed184ac277bab7110\n      swap1\n        /* \"#utility.yul\":12571:12574   */\n      0x80\n        /* \"#utility.yul\":12556:12575   */\n      add\n        /* \"NFT_Payments.sol\":10034:10240  PaymentMade(... */\n      mload(0x40)\n      dup1\n      swap2\n      sub\n      swap1\n      log3\n        /* \"NFT_Payments.sol\":8532:10248  {... */\n      pop\n      pop\n        /* \"@openzeppelin/contracts/security/ReentrancyGuard.sol\":2303:2323  _nonReentrantAfter() */\n      tag_110\n        /* \"@openzeppelin/contracts/security/ReentrancyGuard.sol\":1716:1717  1 */\n      0x01\n        /* \"@openzeppelin/contracts/security/ReentrancyGuard.sol\":2809:2816  _status */\n      0x00\n        /* \"@openzeppelin/contracts/security/ReentrancyGuard.sol\":2809:2831  _status = _NOT_ENTERED */\n      sstore\n        /* \"@openzeppelin/contracts/security/ReentrancyGuard.sol\":2629:2838  function _nonReentrantAfter() private {... */\n      jump\n        /* \"NFT_Payments.sol\":16485:16912  function emergencyReleaseNFT(uint256 planId, address to) external onlySeller {... */\n    tag_46:\n        /* \"NFT_Payments.sol\":3355:3365  msg.sender */\n      caller\n      sub(shl(0xa0, 0x01), 0x01)\n        /* \"NFT_Payments.sol\":3369:3375  seller */\n      immutable(\"0x16c8a63d520d02dbd3ba67dd93cae5eadc6219145ea2099e8e9f17a2533fafa7\")\n        /* \"NFT_Payments.sol\":3355:3375  msg.sender == seller */\n      and\n      eq\n        /* \"NFT_Payments.sol\":3347:3415  require(msg.sender == seller, \"Only seller can perform this action\") */\n      tag_165\n      jumpi\n      mload(0x40)\n      shl(0xe5, 0x461bcd)\n      dup2\n      mstore\n      0x04\n      add\n      tag_76\n      swap1\n      tag_167\n      jump\t// in\n    tag_165:\n        /* \"NFT_Payments.sol\":16573:16590  Plan storage plan */\n      0x00\n        /* \"NFT_Payments.sol\":16593:16606  plans[planId] */\n      dup3\n      dup2\n      mstore\n        /* \"NFT_Payments.sol\":16593:16598  plans */\n      0x02\n        /* \"NFT_Payments.sol\":16593:16606  plans[planId] */\n      0x20\n      mstore\n      0x40\n      swap1\n      keccak256\n        /* \"NFT_Payments.sol\":16626:16655  plan.nftDetails.isTransferred */\n      0x03\n      dup2\n      add\n      sload\n      0xff\n      and\n        /* \"NFT_Payments.sol\":16625:16655  !plan.nftDetails.isTransferred */\n      iszero\n        /* \"NFT_Payments.sol\":16617:16683  require(!plan.nftDetails.isTransferred, \"NFT already transferred\") */\n      tag_169\n      jumpi\n      mload(0x40)\n      shl(0xe5, 0x461bcd)\n      dup2\n      mstore\n        /* \"#utility.yul\":13355:13357   */\n      0x20\n        /* \"NFT_Payments.sol\":16617:16683  require(!plan.nftDetails.isTransferred, \"NFT already transferred\") */\n      0x04\n      dup3\n      add\n        /* \"#utility.yul\":13337:13358   */\n      mstore\n        /* \"#utility.yul\":13394:13396   */\n      0x17\n        /* \"#utility.yul\":13374:13392   */\n      0x24\n      dup3\n      add\n        /* \"#utility.yul\":13367:13397   */\n      mstore\n        /* \"#utility.yul\":13433:13458   */\n      0x4e465420616c7265616479207472616e73666572726564000000000000000000\n        /* \"#utility.yul\":13413:13431   */\n      0x44\n      dup3\n      add\n        /* \"#utility.yul\":13406:13459   */\n      mstore\n        /* \"#utility.yul\":13476:13494   */\n      0x64\n      add\n        /* \"NFT_Payments.sol\":16617:16683  require(!plan.nftDetails.isTransferred, \"NFT already transferred\") */\n      tag_76\n        /* \"#utility.yul\":13153:13500   */\n      jump\n        /* \"NFT_Payments.sol\":16617:16683  require(!plan.nftDetails.isTransferred, \"NFT already transferred\") */\n    tag_169:\n        /* \"NFT_Payments.sol\":16712:16727  plan.nftDetails */\n      0x01\n      dup2\n      add\n        /* \"NFT_Payments.sol\":16712:16739  plan.nftDetails.nftContract */\n      sload\n        /* \"NFT_Payments.sol\":16813:16836  plan.nftDetails.tokenId */\n      0x02\n      dup3\n      add\n      sload\n        /* \"NFT_Payments.sol\":16704:16847  IERC721(plan.nftDetails.nftContract).transferFrom(... */\n      mload(0x40)\n      shl(0xe0, 0x23b872dd)\n      dup2\n      mstore\n        /* \"NFT_Payments.sol\":16776:16780  this */\n      address\n        /* \"NFT_Payments.sol\":16704:16847  IERC721(plan.nftDetails.nftContract).transferFrom(... */\n      0x04\n      dup3\n      add\n        /* \"#utility.yul\":12179:12230   */\n      mstore\n      sub(shl(0xa0, 0x01), 0x01)\n        /* \"#utility.yul\":12266:12298   */\n      dup6\n      dup2\n      and\n        /* \"#utility.yul\":12246:12264   */\n      0x24\n      dup4\n      add\n        /* \"#utility.yul\":12239:12299   */\n      mstore\n        /* \"#utility.yul\":12315:12333   */\n      0x44\n      dup3\n      add\n        /* \"#utility.yul\":12308:12342   */\n      swap3\n      swap1\n      swap3\n      mstore\n        /* \"NFT_Payments.sol\":16712:16739  plan.nftDetails.nftContract */\n      swap2\n      and\n      swap1\n        /* \"NFT_Payments.sol\":16704:16753  IERC721(plan.nftDetails.nftContract).transferFrom */\n      0x23b872dd\n      swap1\n        /* \"#utility.yul\":12152:12170   */\n      0x64\n      add\n        /* \"NFT_Payments.sol\":16704:16847  IERC721(plan.nftDetails.nftContract).transferFrom(... */\n      0x00\n      mload(0x40)\n      dup1\n      dup4\n      sub\n      dup2\n      0x00\n      dup8\n      dup1\n      extcodesize\n      iszero\n      dup1\n      iszero\n      tag_173\n      jumpi\n      0x00\n      dup1\n      revert\n    tag_173:\n      pop\n      gas\n      call\n      iszero\n      dup1\n      iszero\n      tag_175\n      jumpi\n      returndatasize\n      0x00\n      dup1\n      returndatacopy\n      revert(0x00, returndatasize)\n    tag_175:\n      pop\n      pop\n      pop\n        /* \"NFT_Payments.sol\":16868:16897  plan.nftDetails.isTransferred */\n      0x03\n      swap1\n      swap2\n      add\n        /* \"NFT_Payments.sol\":16868:16904  plan.nftDetails.isTransferred = true */\n      dup1\n      sload\n      not(0xff)\n      and\n        /* \"NFT_Payments.sol\":16900:16904  true */\n      0x01\n        /* \"NFT_Payments.sol\":16868:16904  plan.nftDetails.isTransferred = true */\n      or\n      swap1\n      sstore\n      pop\n      pop\n      pop\n        /* \"NFT_Payments.sol\":16485:16912  function emergencyReleaseNFT(uint256 planId, address to) external onlySeller {... */\n      jump\t// out\n        /* \"NFT_Payments.sol\":5805:7128  function setPaymentDates(... */\n    tag_51:\n        /* \"NFT_Payments.sol\":3355:3365  msg.sender */\n      caller\n      sub(shl(0xa0, 0x01), 0x01)\n        /* \"NFT_Payments.sol\":3369:3375  seller */\n      immutable(\"0x16c8a63d520d02dbd3ba67dd93cae5eadc6219145ea2099e8e9f17a2533fafa7\")\n        /* \"NFT_Payments.sol\":3355:3375  msg.sender == seller */\n      and\n      eq\n        /* \"NFT_Payments.sol\":3347:3415  require(msg.sender == seller, \"Only seller can perform this action\") */\n      tag_177\n      jumpi\n      mload(0x40)\n      shl(0xe5, 0x461bcd)\n      dup2\n      mstore\n      0x04\n      add\n      tag_76\n      swap1\n      tag_167\n      jump\t// in\n    tag_177:\n        /* \"NFT_Payments.sol\":6007:6008  0 */\n      0x00\n        /* \"NFT_Payments.sol\":5997:6004  _planId */\n      dup6\n        /* \"NFT_Payments.sol\":5997:6008  _planId > 0 */\n      gt\n        /* \"NFT_Payments.sol\":5997:6032  _planId > 0 && _planId < nextPlanId */\n      dup1\n      iszero\n      tag_180\n      jumpi\n      pop\n        /* \"NFT_Payments.sol\":6022:6032  nextPlanId */\n      sload(0x03)\n        /* \"NFT_Payments.sol\":6012:6019  _planId */\n      dup6\n        /* \"NFT_Payments.sol\":6012:6032  _planId < nextPlanId */\n      lt\n        /* \"NFT_Payments.sol\":5997:6032  _planId > 0 && _planId < nextPlanId */\n    tag_180:\n        /* \"NFT_Payments.sol\":5989:6052  require(_planId > 0 && _planId < nextPlanId, \"Invalid plan ID\") */\n      tag_181\n      jumpi\n      mload(0x40)\n      shl(0xe5, 0x461bcd)\n      dup2\n      mstore\n      0x04\n      add\n      tag_76\n      swap1\n      tag_77\n      jump\t// in\n    tag_181:\n        /* \"NFT_Payments.sol\":6071:6085  plans[_planId] */\n      0x00\n      dup6\n      dup2\n      mstore\n        /* \"NFT_Payments.sol\":6071:6076  plans */\n      0x02\n        /* \"NFT_Payments.sol\":6071:6085  plans[_planId] */\n      0x20\n      mstore\n      0x40\n      swap1\n      keccak256\n        /* \"NFT_Payments.sol\":6071:6101  plans[_planId].status.isActive */\n      0x0e\n      add\n      sload\n      0xff\n      and\n        /* \"NFT_Payments.sol\":6063:6124  require(plans[_planId].status.isActive, \"Plan is not active\") */\n      tag_183\n      jumpi\n      mload(0x40)\n      shl(0xe5, 0x461bcd)\n      dup2\n      mstore\n        /* \"#utility.yul\":13707:13709   */\n      0x20\n        /* \"NFT_Payments.sol\":6063:6124  require(plans[_planId].status.isActive, \"Plan is not active\") */\n      0x04\n      dup3\n      add\n        /* \"#utility.yul\":13689:13710   */\n      mstore\n        /* \"#utility.yul\":13746:13748   */\n      0x12\n        /* \"#utility.yul\":13726:13744   */\n      0x24\n      dup3\n      add\n        /* \"#utility.yul\":13719:13749   */\n      mstore\n      shl(0x70, 0x506c616e206973206e6f7420616374697665)\n        /* \"#utility.yul\":13765:13783   */\n      0x44\n      dup3\n      add\n        /* \"#utility.yul\":13758:13806   */\n      mstore\n        /* \"#utility.yul\":13823:13841   */\n      0x64\n      add\n        /* \"NFT_Payments.sol\":6063:6124  require(plans[_planId].status.isActive, \"Plan is not active\") */\n      tag_76\n        /* \"#utility.yul\":13505:13847   */\n      jump\n        /* \"NFT_Payments.sol\":6063:6124  require(plans[_planId].status.isActive, \"Plan is not active\") */\n    tag_183:\n        /* \"NFT_Payments.sol\":6143:6157  plans[_planId] */\n      0x00\n      dup6\n      dup2\n      mstore\n        /* \"NFT_Payments.sol\":6143:6148  plans */\n      0x02\n        /* \"NFT_Payments.sol\":6143:6157  plans[_planId] */\n      0x20\n      mstore\n      0x40\n      swap1\n      keccak256\n        /* \"NFT_Payments.sol\":6143:6180  plans[_planId].status.nextPaymentDate */\n      0x0c\n      add\n      sload\n        /* \"NFT_Payments.sol\":6143:6185  plans[_planId].status.nextPaymentDate == 0 */\n      iszero\n        /* \"NFT_Payments.sol\":6135:6215  require(plans[_planId].status.nextPaymentDate == 0, \"Payment dates already set\") */\n      tag_186\n      jumpi\n      mload(0x40)\n      shl(0xe5, 0x461bcd)\n      dup2\n      mstore\n        /* \"#utility.yul\":14054:14056   */\n      0x20\n        /* \"NFT_Payments.sol\":6135:6215  require(plans[_planId].status.nextPaymentDate == 0, \"Payment dates already set\") */\n      0x04\n      dup3\n      add\n        /* \"#utility.yul\":14036:14057   */\n      mstore\n        /* \"#utility.yul\":14093:14095   */\n      0x19\n        /* \"#utility.yul\":14073:14091   */\n      0x24\n      dup3\n      add\n        /* \"#utility.yul\":14066:14096   */\n      mstore\n        /* \"#utility.yul\":14132:14159   */\n      0x5061796d656e7420646174657320616c72656164792073657400000000000000\n        /* \"#utility.yul\":14112:14130   */\n      0x44\n      dup3\n      add\n        /* \"#utility.yul\":14105:14160   */\n      mstore\n        /* \"#utility.yul\":14177:14195   */\n      0x64\n      add\n        /* \"NFT_Payments.sol\":6135:6215  require(plans[_planId].status.nextPaymentDate == 0, \"Payment dates already set\") */\n      tag_76\n        /* \"#utility.yul\":13852:14201   */\n      jump\n        /* \"NFT_Payments.sol\":6135:6215  require(plans[_planId].status.nextPaymentDate == 0, \"Payment dates already set\") */\n    tag_186:\n        /* \"NFT_Payments.sol\":6234:6247  monthToNumber */\n      0x04\n        /* \"NFT_Payments.sol\":6248:6259  _startMonth */\n      dup4\n      dup4\n        /* \"NFT_Payments.sol\":6234:6260  monthToNumber[_startMonth] */\n      mload(0x40)\n      tag_189\n      swap3\n      swap2\n      swap1\n      tag_190\n      jump\t// in\n    tag_189:\n      swap1\n      dup2\n      mstore\n      0x20\n      add\n      mload(0x40)\n      dup1\n      swap2\n      sub\n      swap1\n      keccak256\n      sload\n        /* \"NFT_Payments.sol\":6264:6265  0 */\n      0x00\n        /* \"NFT_Payments.sol\":6234:6265  monthToNumber[_startMonth] != 0 */\n      sub\n        /* \"NFT_Payments.sol\":6226:6288  require(monthToNumber[_startMonth] != 0, \"Invalid month name\") */\n      tag_191\n      jumpi\n      mload(0x40)\n      shl(0xe5, 0x461bcd)\n      dup2\n      mstore\n        /* \"#utility.yul\":14686:14688   */\n      0x20\n        /* \"NFT_Payments.sol\":6226:6288  require(monthToNumber[_startMonth] != 0, \"Invalid month name\") */\n      0x04\n      dup3\n      add\n        /* \"#utility.yul\":14668:14689   */\n      mstore\n        /* \"#utility.yul\":14725:14727   */\n      0x12\n        /* \"#utility.yul\":14705:14723   */\n      0x24\n      dup3\n      add\n        /* \"#utility.yul\":14698:14728   */\n      mstore\n      shl(0x70, 0x496e76616c6964206d6f6e7468206e616d65)\n        /* \"#utility.yul\":14744:14762   */\n      0x44\n      dup3\n      add\n        /* \"#utility.yul\":14737:14785   */\n      mstore\n        /* \"#utility.yul\":14802:14820   */\n      0x64\n      add\n        /* \"NFT_Payments.sol\":6226:6288  require(monthToNumber[_startMonth] != 0, \"Invalid month name\") */\n      tag_76\n        /* \"#utility.yul\":14484:14826   */\n      jump\n        /* \"NFT_Payments.sol\":6226:6288  require(monthToNumber[_startMonth] != 0, \"Invalid month name\") */\n    tag_191:\n        /* \"NFT_Payments.sol\":6309:6331  uint256 startTimestamp */\n      0x00\n        /* \"NFT_Payments.sol\":6334:6388  calculateTimestamp(_startDay, _startMonth, _startYear) */\n      tag_194\n        /* \"NFT_Payments.sol\":6353:6362  _startDay */\n      dup6\n        /* \"NFT_Payments.sol\":6364:6375  _startMonth */\n      dup6\n      dup6\n        /* \"NFT_Payments.sol\":6334:6388  calculateTimestamp(_startDay, _startMonth, _startYear) */\n      dup1\n      dup1\n      0x1f\n      add\n      0x20\n      dup1\n      swap2\n      div\n      mul\n      0x20\n      add\n      mload(0x40)\n      swap1\n      dup2\n      add\n      0x40\n      mstore\n      dup1\n      swap4\n      swap3\n      swap2\n      swap1\n      dup2\n      dup2\n      mstore\n      0x20\n      add\n      dup4\n      dup4\n      dup1\n      dup3\n      dup5\n      calldatacopy\n      0x00\n      swap3\n      add\n      swap2\n      swap1\n      swap2\n      mstore\n      pop\n        /* \"NFT_Payments.sol\":6377:6387  _startYear */\n      dup8\n      swap3\n      pop\n        /* \"NFT_Payments.sol\":6334:6352  calculateTimestamp */\n      tag_195\n      swap2\n      pop\n      pop\n        /* \"NFT_Payments.sol\":6334:6388  calculateTimestamp(_startDay, _startMonth, _startYear) */\n      jump\t// in\n    tag_194:\n        /* \"NFT_Payments.sol\":6309:6388  uint256 startTimestamp = calculateTimestamp(_startDay, _startMonth, _startYear) */\n      swap1\n      pop\n        /* \"NFT_Payments.sol\":6424:6439  block.timestamp */\n      timestamp\n        /* \"NFT_Payments.sol\":6407:6421  startTimestamp */\n      dup2\n        /* \"NFT_Payments.sol\":6407:6439  startTimestamp > block.timestamp */\n      gt\n        /* \"NFT_Payments.sol\":6399:6476  require(startTimestamp > block.timestamp, \"Start date must be in the future\") */\n      tag_196\n      jumpi\n      mload(0x40)\n      shl(0xe5, 0x461bcd)\n      dup2\n      mstore\n        /* \"#utility.yul\":15033:15035   */\n      0x20\n        /* \"NFT_Payments.sol\":6399:6476  require(startTimestamp > block.timestamp, \"Start date must be in the future\") */\n      0x04\n      dup3\n      add\n        /* \"#utility.yul\":15015:15036   */\n      dup2\n      swap1\n      mstore\n        /* \"#utility.yul\":15052:15070   */\n      0x24\n      dup3\n      add\n        /* \"#utility.yul\":15045:15075   */\n      mstore\n        /* \"#utility.yul\":15111:15145   */\n      0x53746172742064617465206d75737420626520696e2074686520667574757265\n        /* \"#utility.yul\":15091:15109   */\n      0x44\n      dup3\n      add\n        /* \"#utility.yul\":15084:15146   */\n      mstore\n        /* \"#utility.yul\":15163:15181   */\n      0x64\n      add\n        /* \"NFT_Payments.sol\":6399:6476  require(startTimestamp > block.timestamp, \"Start date must be in the future\") */\n      tag_76\n        /* \"#utility.yul\":14831:15187   */\n      jump\n        /* \"NFT_Payments.sol\":6399:6476  require(startTimestamp > block.timestamp, \"Start date must be in the future\") */\n    tag_196:\n        /* \"NFT_Payments.sol\":6563:6572  _startDay */\n      dup5\n        /* \"NFT_Payments.sol\":6527:6532  plans */\n      0x02\n        /* \"NFT_Payments.sol\":6527:6541  plans[_planId] */\n      0x00\n        /* \"NFT_Payments.sol\":6533:6540  _planId */\n      dup9\n        /* \"NFT_Payments.sol\":6527:6541  plans[_planId] */\n      dup2\n      mstore\n      0x20\n      add\n      swap1\n      dup2\n      mstore\n      0x20\n      add\n      0x00\n      keccak256\n        /* \"NFT_Payments.sol\":6527:6548  plans[_planId].status */\n      0x0b\n      add\n        /* \"NFT_Payments.sol\":6527:6560  plans[_planId].status.paymentDate */\n      0x00\n      add\n        /* \"NFT_Payments.sol\":6527:6572  plans[_planId].status.paymentDate = _startDay */\n      dup2\n      swap1\n      sstore\n      pop\n        /* \"NFT_Payments.sol\":6623:6637  startTimestamp */\n      dup1\n        /* \"NFT_Payments.sol\":6583:6588  plans */\n      0x02\n        /* \"NFT_Payments.sol\":6583:6597  plans[_planId] */\n      0x00\n        /* \"NFT_Payments.sol\":6589:6596  _planId */\n      dup9\n        /* \"NFT_Payments.sol\":6583:6597  plans[_planId] */\n      dup2\n      mstore\n      0x20\n      add\n      swap1\n      dup2\n      mstore\n      0x20\n      add\n      0x00\n      keccak256\n        /* \"NFT_Payments.sol\":6583:6604  plans[_planId].status */\n      0x0b\n      add\n        /* \"NFT_Payments.sol\":6583:6620  plans[_planId].status.nextPaymentDate */\n      0x01\n      add\n        /* \"NFT_Payments.sol\":6583:6637  plans[_planId].status.nextPaymentDate = startTimestamp */\n      dup2\n      swap1\n      sstore\n      pop\n        /* \"NFT_Payments.sol\":6702:6719  Plan storage plan */\n      0x00\n        /* \"NFT_Payments.sol\":6722:6727  plans */\n      0x02\n        /* \"NFT_Payments.sol\":6722:6736  plans[_planId] */\n      0x00\n        /* \"NFT_Payments.sol\":6728:6735  _planId */\n      dup9\n        /* \"NFT_Payments.sol\":6722:6736  plans[_planId] */\n      dup2\n      mstore\n      0x20\n      add\n      swap1\n      dup2\n      mstore\n      0x20\n      add\n      0x00\n      keccak256\n        /* \"NFT_Payments.sol\":6702:6736  Plan storage plan = plans[_planId] */\n      swap1\n      pop\n        /* \"NFT_Payments.sol\":6825:6829  plan */\n      dup1\n        /* \"NFT_Payments.sol\":6825:6840  plan.nftDetails */\n      0x01\n      add\n        /* \"NFT_Payments.sol\":6825:6852  plan.nftDetails.nftContract */\n      0x00\n      add\n      0x00\n      swap1\n      sload\n      swap1\n      0x0100\n      exp\n      swap1\n      div\n      sub(shl(0xa0, 0x01), 0x01)\n      and\n      sub(shl(0xa0, 0x01), 0x01)\n        /* \"NFT_Payments.sol\":6752:7120  PlanCreated(... */\n      and\n        /* \"NFT_Payments.sol\":6800:6804  plan */\n      dup2\n        /* \"NFT_Payments.sol\":6800:6810  plan.buyer */\n      0x00\n      add\n      0x00\n      swap1\n      sload\n      swap1\n      0x0100\n      exp\n      swap1\n      div\n      sub(shl(0xa0, 0x01), 0x01)\n      and\n      sub(shl(0xa0, 0x01), 0x01)\n        /* \"NFT_Payments.sol\":6752:7120  PlanCreated(... */\n      and\n        /* \"NFT_Payments.sol\":6778:6785  _planId */\n      dup9\n        /* \"NFT_Payments.sol\":6752:7120  PlanCreated(... */\n      0x6961feb63d2aacb590686ff144b8591f9fe46e85189053e1d79a2fc52d621faf\n        /* \"NFT_Payments.sol\":6867:6871  plan */\n      dup5\n        /* \"NFT_Payments.sol\":6867:6882  plan.nftDetails */\n      0x01\n      add\n        /* \"NFT_Payments.sol\":6867:6890  plan.nftDetails.tokenId */\n      0x01\n      add\n      sload\n        /* \"NFT_Payments.sol\":6905:6909  plan */\n      dup6\n        /* \"NFT_Payments.sol\":6905:6915  plan.terms */\n      0x04\n      add\n        /* \"NFT_Payments.sol\":6905:6925  plan.terms.totalCost */\n      0x00\n      add\n      sload\n        /* \"NFT_Payments.sol\":6940:6944  plan */\n      dup7\n        /* \"NFT_Payments.sol\":6940:6950  plan.terms */\n      0x04\n      add\n        /* \"NFT_Payments.sol\":6940:6968  plan.terms.downPaymentAmount */\n      0x06\n      add\n      sload\n        /* \"NFT_Payments.sol\":6983:6987  plan */\n      dup8\n        /* \"NFT_Payments.sol\":6983:6993  plan.terms */\n      0x04\n      add\n        /* \"NFT_Payments.sol\":6983:7009  plan.terms.paymentPerMonth */\n      0x01\n      add\n      sload\n        /* \"NFT_Payments.sol\":7024:7028  plan */\n      dup9\n        /* \"NFT_Payments.sol\":7024:7034  plan.terms */\n      0x04\n      add\n        /* \"NFT_Payments.sol\":7024:7048  plan.terms.totalPayments */\n      0x02\n      add\n      sload\n        /* \"NFT_Payments.sol\":7063:7109  formatDate(_startDay, _startMonth, _startYear) */\n      tag_199\n        /* \"NFT_Payments.sol\":7074:7083  _startDay */\n      dup16\n        /* \"NFT_Payments.sol\":7085:7096  _startMonth */\n      dup16\n      dup16\n        /* \"NFT_Payments.sol\":7063:7109  formatDate(_startDay, _startMonth, _startYear) */\n      dup1\n      dup1\n      0x1f\n      add\n      0x20\n      dup1\n      swap2\n      div\n      mul\n      0x20\n      add\n      mload(0x40)\n      swap1\n      dup2\n      add\n      0x40\n      mstore\n      dup1\n      swap4\n      swap3\n      swap2\n      swap1\n      dup2\n      dup2\n      mstore\n      0x20\n      add\n      dup4\n      dup4\n      dup1\n      dup3\n      dup5\n      calldatacopy\n      0x00\n      dup2\n      dup5\n      add\n      mstore\n      not(0x1f)\n      0x1f\n      dup3\n      add\n      and\n      swap1\n      pop\n      dup1\n      dup4\n      add\n      swap3\n      pop\n      pop\n      pop\n      pop\n      pop\n      pop\n      pop\n        /* \"NFT_Payments.sol\":7098:7108  _startYear */\n      dup15\n        /* \"NFT_Payments.sol\":7063:7073  formatDate */\n      tag_200\n        /* \"NFT_Payments.sol\":7063:7109  formatDate(_startDay, _startMonth, _startYear) */\n      jump\t// in\n    tag_199:\n        /* \"NFT_Payments.sol\":6752:7120  PlanCreated(... */\n      mload(0x40)\n      tag_201\n      swap7\n      swap6\n      swap5\n      swap4\n      swap3\n      swap2\n      swap1\n      tag_202\n      jump\t// in\n    tag_201:\n      mload(0x40)\n      dup1\n      swap2\n      sub\n      swap1\n      log4\n        /* \"NFT_Payments.sol\":5978:7128  {... */\n      pop\n      pop\n        /* \"NFT_Payments.sol\":5805:7128  function setPaymentDates(... */\n      pop\n      pop\n      pop\n      pop\n      pop\n      jump\t// out\n        /* \"NFT_Payments.sol\":3494:5730  function createNFTPaymentPlan(... */\n    tag_68:\n        /* \"NFT_Payments.sol\":3776:3783  uint256 */\n      0x00\n        /* \"NFT_Payments.sol\":3355:3365  msg.sender */\n      caller\n      sub(shl(0xa0, 0x01), 0x01)\n        /* \"NFT_Payments.sol\":3369:3375  seller */\n      immutable(\"0x16c8a63d520d02dbd3ba67dd93cae5eadc6219145ea2099e8e9f17a2533fafa7\")\n        /* \"NFT_Payments.sol\":3355:3375  msg.sender == seller */\n      and\n      eq\n        /* \"NFT_Payments.sol\":3347:3415  require(msg.sender == seller, \"Only seller can perform this action\") */\n      tag_205\n      jumpi\n      mload(0x40)\n      shl(0xe5, 0x461bcd)\n      dup2\n      mstore\n      0x04\n      add\n      tag_76\n      swap1\n      tag_167\n      jump\t// in\n    tag_205:\n        /* \"NFT_Payments.sol\":3846:3847  0 */\n      0x00\n        /* \"NFT_Payments.sol\":3833:3843  _totalCost */\n      dup6\n        /* \"NFT_Payments.sol\":3833:3847  _totalCost > 0 */\n      gt\n        /* \"NFT_Payments.sol\":3825:3885  require(_totalCost > 0, \"Total cost must be greater than 0\") */\n      tag_208\n      jumpi\n      mload(0x40)\n      shl(0xe5, 0x461bcd)\n      dup2\n      mstore\n        /* \"#utility.yul\":16179:16181   */\n      0x20\n        /* \"NFT_Payments.sol\":3825:3885  require(_totalCost > 0, \"Total cost must be greater than 0\") */\n      0x04\n      dup3\n      add\n        /* \"#utility.yul\":16161:16182   */\n      mstore\n        /* \"#utility.yul\":16218:16220   */\n      0x21\n        /* \"#utility.yul\":16198:16216   */\n      0x24\n      dup3\n      add\n        /* \"#utility.yul\":16191:16221   */\n      mstore\n        /* \"#utility.yul\":16257:16291   */\n      0x546f74616c20636f7374206d7573742062652067726561746572207468616e20\n        /* \"#utility.yul\":16237:16255   */\n      0x44\n      dup3\n      add\n        /* \"#utility.yul\":16230:16292   */\n      mstore\n      shl(0xfc, 0x03)\n        /* \"#utility.yul\":16308:16326   */\n      0x64\n      dup3\n      add\n        /* \"#utility.yul\":16301:16332   */\n      mstore\n        /* \"#utility.yul\":16349:16368   */\n      0x84\n      add\n        /* \"NFT_Payments.sol\":3825:3885  require(_totalCost > 0, \"Total cost must be greater than 0\") */\n      tag_76\n        /* \"#utility.yul\":15977:16374   */\n      jump\n        /* \"NFT_Payments.sol\":3825:3885  require(_totalCost > 0, \"Total cost must be greater than 0\") */\n    tag_208:\n        /* \"NFT_Payments.sol\":3921:3922  0 */\n      0x00\n        /* \"NFT_Payments.sol\":3904:3918  _totalPayments */\n      dup4\n        /* \"NFT_Payments.sol\":3904:3922  _totalPayments > 0 */\n      gt\n        /* \"NFT_Payments.sol\":3896:3968  require(_totalPayments > 0, \"Number of payments must be greater than 0\") */\n      tag_211\n      jumpi\n      mload(0x40)\n      shl(0xe5, 0x461bcd)\n      dup2\n      mstore\n        /* \"#utility.yul\":16581:16583   */\n      0x20\n        /* \"NFT_Payments.sol\":3896:3968  require(_totalPayments > 0, \"Number of payments must be greater than 0\") */\n      0x04\n      dup3\n      add\n        /* \"#utility.yul\":16563:16584   */\n      mstore\n        /* \"#utility.yul\":16620:16622   */\n      0x29\n        /* \"#utility.yul\":16600:16618   */\n      0x24\n      dup3\n      add\n        /* \"#utility.yul\":16593:16623   */\n      mstore\n        /* \"#utility.yul\":16659:16693   */\n      0x4e756d626572206f66207061796d656e7473206d757374206265206772656174\n        /* \"#utility.yul\":16639:16657   */\n      0x44\n      dup3\n      add\n        /* \"#utility.yul\":16632:16694   */\n      mstore\n      shl(0xbc, 0x06572207468616e203)\n        /* \"#utility.yul\":16710:16728   */\n      0x64\n      dup3\n      add\n        /* \"#utility.yul\":16703:16742   */\n      mstore\n        /* \"#utility.yul\":16759:16778   */\n      0x84\n      add\n        /* \"NFT_Payments.sol\":3896:3968  require(_totalPayments > 0, \"Number of payments must be greater than 0\") */\n      tag_76\n        /* \"#utility.yul\":16379:16784   */\n      jump\n        /* \"NFT_Payments.sol\":3896:3968  require(_totalPayments > 0, \"Number of payments must be greater than 0\") */\n    tag_211:\n        /* \"NFT_Payments.sol\":4006:4009  100 */\n      0x64\n        /* \"NFT_Payments.sol\":3987:4002  _penaltyPercent */\n      dup3\n        /* \"NFT_Payments.sol\":3987:4009  _penaltyPercent <= 100 */\n      gt\n      iszero\n        /* \"NFT_Payments.sol\":3979:4047  require(_penaltyPercent <= 100, \"Penalty percentage must be <= 100\") */\n      tag_214\n      jumpi\n      mload(0x40)\n      shl(0xe5, 0x461bcd)\n      dup2\n      mstore\n        /* \"#utility.yul\":16991:16993   */\n      0x20\n        /* \"NFT_Payments.sol\":3979:4047  require(_penaltyPercent <= 100, \"Penalty percentage must be <= 100\") */\n      0x04\n      dup3\n      add\n        /* \"#utility.yul\":16973:16994   */\n      mstore\n        /* \"#utility.yul\":17030:17032   */\n      0x21\n        /* \"#utility.yul\":17010:17028   */\n      0x24\n      dup3\n      add\n        /* \"#utility.yul\":17003:17033   */\n      mstore\n        /* \"#utility.yul\":17069:17103   */\n      0x50656e616c74792070657263656e74616765206d757374206265203c3d203130\n        /* \"#utility.yul\":17049:17067   */\n      0x44\n      dup3\n      add\n        /* \"#utility.yul\":17042:17104   */\n      mstore\n      shl(0xfc, 0x03)\n        /* \"#utility.yul\":17120:17138   */\n      0x64\n      dup3\n      add\n        /* \"#utility.yul\":17113:17144   */\n      mstore\n        /* \"#utility.yul\":17161:17180   */\n      0x84\n      add\n        /* \"NFT_Payments.sol\":3979:4047  require(_penaltyPercent <= 100, \"Penalty percentage must be <= 100\") */\n      tag_76\n        /* \"#utility.yul\":16789:17186   */\n      jump\n        /* \"NFT_Payments.sol\":3979:4047  require(_penaltyPercent <= 100, \"Penalty percentage must be <= 100\") */\n    tag_214:\n        /* \"NFT_Payments.sol\":4089:4092  100 */\n      0x64\n        /* \"NFT_Payments.sol\":4066:4085  _downPaymentPercent */\n      dup5\n        /* \"NFT_Payments.sol\":4066:4092  _downPaymentPercent <= 100 */\n      gt\n      iszero\n        /* \"NFT_Payments.sol\":4058:4135  require(_downPaymentPercent <= 100, \"Down payment percentage must be <= 100\") */\n      tag_217\n      jumpi\n      mload(0x40)\n      shl(0xe5, 0x461bcd)\n      dup2\n      mstore\n        /* \"#utility.yul\":17393:17395   */\n      0x20\n        /* \"NFT_Payments.sol\":4058:4135  require(_downPaymentPercent <= 100, \"Down payment percentage must be <= 100\") */\n      0x04\n      dup3\n      add\n        /* \"#utility.yul\":17375:17396   */\n      mstore\n        /* \"#utility.yul\":17432:17434   */\n      0x26\n        /* \"#utility.yul\":17412:17430   */\n      0x24\n      dup3\n      add\n        /* \"#utility.yul\":17405:17435   */\n      mstore\n        /* \"#utility.yul\":17471:17505   */\n      0x446f776e207061796d656e742070657263656e74616765206d75737420626520\n        /* \"#utility.yul\":17451:17469   */\n      0x44\n      dup3\n      add\n        /* \"#utility.yul\":17444:17506   */\n      mstore\n      shl(0xd4, 0x03c3d2031303)\n        /* \"#utility.yul\":17522:17540   */\n      0x64\n      dup3\n      add\n        /* \"#utility.yul\":17515:17551   */\n      mstore\n        /* \"#utility.yul\":17568:17587   */\n      0x84\n      add\n        /* \"NFT_Payments.sol\":4058:4135  require(_downPaymentPercent <= 100, \"Down payment percentage must be <= 100\") */\n      tag_76\n        /* \"#utility.yul\":17191:17593   */\n      jump\n        /* \"NFT_Payments.sol\":4058:4135  require(_downPaymentPercent <= 100, \"Down payment percentage must be <= 100\") */\n    tag_217:\n      sub(shl(0xa0, 0x01), 0x01)\n        /* \"NFT_Payments.sol\":4154:4174  buyerToPlanId[buyer] */\n      dup9\n      and\n      0x00\n      swap1\n      dup2\n      mstore\n        /* \"NFT_Payments.sol\":4154:4167  buyerToPlanId */\n      0x01\n        /* \"NFT_Payments.sol\":4154:4174  buyerToPlanId[buyer] */\n      0x20\n      mstore\n      0x40\n      swap1\n      keccak256\n      sload\n        /* \"NFT_Payments.sol\":4154:4179  buyerToPlanId[buyer] == 0 */\n      iszero\n        /* \"NFT_Payments.sol\":4146:4216  require(buyerToPlanId[buyer] == 0, \"Buyer already has an active plan\") */\n      tag_220\n      jumpi\n      mload(0x40)\n      shl(0xe5, 0x461bcd)\n      dup2\n      mstore\n        /* \"#utility.yul\":17800:17802   */\n      0x20\n        /* \"NFT_Payments.sol\":4146:4216  require(buyerToPlanId[buyer] == 0, \"Buyer already has an active plan\") */\n      0x04\n      dup3\n      add\n        /* \"#utility.yul\":17782:17803   */\n      dup2\n      swap1\n      mstore\n        /* \"#utility.yul\":17819:17837   */\n      0x24\n      dup3\n      add\n        /* \"#utility.yul\":17812:17842   */\n      mstore\n        /* \"#utility.yul\":17878:17912   */\n      0x427579657220616c72656164792068617320616e2061637469766520706c616e\n        /* \"#utility.yul\":17858:17876   */\n      0x44\n      dup3\n      add\n        /* \"#utility.yul\":17851:17913   */\n      mstore\n        /* \"#utility.yul\":17930:17948   */\n      0x64\n      add\n        /* \"NFT_Payments.sol\":4146:4216  require(buyerToPlanId[buyer] == 0, \"Buyer already has an active plan\") */\n      tag_76\n        /* \"#utility.yul\":17598:17954   */\n      jump\n        /* \"NFT_Payments.sol\":4146:4216  require(buyerToPlanId[buyer] == 0, \"Buyer already has an active plan\") */\n    tag_220:\n        /* \"NFT_Payments.sol\":4275:4294  uint256 downPayment */\n      0x00\n        /* \"NFT_Payments.sol\":4334:4337  100 */\n      0x64\n        /* \"NFT_Payments.sol\":4298:4330  _totalCost * _downPaymentPercent */\n      tag_223\n        /* \"NFT_Payments.sol\":4311:4330  _downPaymentPercent */\n      dup7\n        /* \"NFT_Payments.sol\":4298:4308  _totalCost */\n      dup9\n        /* \"NFT_Payments.sol\":4298:4330  _totalCost * _downPaymentPercent */\n      tag_91\n      jump\t// in\n    tag_223:\n        /* \"NFT_Payments.sol\":4297:4337  (_totalCost * _downPaymentPercent) / 100 */\n      tag_224\n      swap2\n      swap1\n      tag_93\n      jump\t// in\n    tag_224:\n        /* \"NFT_Payments.sol\":4275:4337  uint256 downPayment = (_totalCost * _downPaymentPercent) / 100 */\n      swap1\n      pop\n        /* \"NFT_Payments.sol\":4348:4371  uint256 remainingAmount */\n      0x00\n        /* \"NFT_Payments.sol\":4374:4398  _totalCost - downPayment */\n      tag_225\n        /* \"NFT_Payments.sol\":4275:4337  uint256 downPayment = (_totalCost * _downPaymentPercent) / 100 */\n      dup3\n        /* \"NFT_Payments.sol\":4374:4384  _totalCost */\n      dup9\n        /* \"NFT_Payments.sol\":4374:4398  _totalCost - downPayment */\n      tag_98\n      jump\t// in\n    tag_225:\n        /* \"NFT_Payments.sol\":4348:4398  uint256 remainingAmount = _totalCost - downPayment */\n      swap1\n      pop\n        /* \"NFT_Payments.sol\":4409:4431  uint256 monthlyPayment */\n      0x00\n        /* \"NFT_Payments.sol\":4434:4466  remainingAmount / _totalPayments */\n      tag_226\n        /* \"NFT_Payments.sol\":4452:4466  _totalPayments */\n      dup7\n        /* \"NFT_Payments.sol\":4348:4398  uint256 remainingAmount = _totalCost - downPayment */\n      dup4\n        /* \"NFT_Payments.sol\":4434:4466  remainingAmount / _totalPayments */\n      tag_93\n      jump\t// in\n    tag_226:\n        /* \"NFT_Payments.sol\":4409:4466  uint256 monthlyPayment = remainingAmount / _totalPayments */\n      swap1\n      pop\n        /* \"NFT_Payments.sol\":4530:4545  remainingAmount */\n      dup2\n        /* \"NFT_Payments.sol\":4495:4526  monthlyPayment * _totalPayments */\n      tag_227\n        /* \"NFT_Payments.sol\":4512:4526  _totalPayments */\n      dup8\n        /* \"NFT_Payments.sol\":4409:4466  uint256 monthlyPayment = remainingAmount / _totalPayments */\n      dup4\n        /* \"NFT_Payments.sol\":4495:4526  monthlyPayment * _totalPayments */\n      tag_91\n      jump\t// in\n    tag_227:\n        /* \"NFT_Payments.sol\":4495:4545  monthlyPayment * _totalPayments == remainingAmount */\n      eq\n        /* \"NFT_Payments.sol\":4487:4591  require(monthlyPayment * _totalPayments == remainingAmount, \"Remaining amount must be evenly divisible\") */\n      tag_228\n      jumpi\n      mload(0x40)\n      shl(0xe5, 0x461bcd)\n      dup2\n      mstore\n        /* \"#utility.yul\":18161:18163   */\n      0x20\n        /* \"NFT_Payments.sol\":4487:4591  require(monthlyPayment * _totalPayments == remainingAmount, \"Remaining amount must be evenly divisible\") */\n      0x04\n      dup3\n      add\n        /* \"#utility.yul\":18143:18164   */\n      mstore\n        /* \"#utility.yul\":18200:18202   */\n      0x29\n        /* \"#utility.yul\":18180:18198   */\n      0x24\n      dup3\n      add\n        /* \"#utility.yul\":18173:18203   */\n      mstore\n        /* \"#utility.yul\":18239:18273   */\n      0x52656d61696e696e6720616d6f756e74206d757374206265206576656e6c7920\n        /* \"#utility.yul\":18219:18237   */\n      0x44\n      dup3\n      add\n        /* \"#utility.yul\":18212:18274   */\n      mstore\n      shl(0xb8, 0x646976697369626c65)\n        /* \"#utility.yul\":18290:18308   */\n      0x64\n      dup3\n      add\n        /* \"#utility.yul\":18283:18322   */\n      mstore\n        /* \"#utility.yul\":18339:18358   */\n      0x84\n      add\n        /* \"NFT_Payments.sol\":4487:4591  require(monthlyPayment * _totalPayments == remainingAmount, \"Remaining amount must be evenly divisible\") */\n      tag_76\n        /* \"#utility.yul\":17959:18364   */\n      jump\n        /* \"NFT_Payments.sol\":4487:4591  require(monthlyPayment * _totalPayments == remainingAmount, \"Remaining amount must be evenly divisible\") */\n    tag_228:\n        /* \"NFT_Payments.sol\":4656:4666  nextPlanId */\n      0x03\n        /* \"NFT_Payments.sol\":4656:4668  nextPlanId++ */\n      dup1\n      sload\n        /* \"NFT_Payments.sol\":4639:4653  uint256 planId */\n      0x00\n      swap2\n      dup3\n        /* \"NFT_Payments.sol\":4656:4668  nextPlanId++ */\n      tag_231\n      dup4\n      tag_89\n      jump\t// in\n    tag_231:\n      swap2\n      swap1\n      pop\n      sstore\n        /* \"NFT_Payments.sol\":4639:4668  uint256 planId = nextPlanId++ */\n      swap1\n      pop\n        /* \"NFT_Payments.sol\":4702:4708  planId */\n      dup1\n        /* \"NFT_Payments.sol\":4679:4692  buyerToPlanId */\n      0x01\n        /* \"NFT_Payments.sol\":4679:4699  buyerToPlanId[buyer] */\n      0x00\n        /* \"NFT_Payments.sol\":4693:4698  buyer */\n      dup15\n      sub(shl(0xa0, 0x01), 0x01)\n        /* \"NFT_Payments.sol\":4679:4699  buyerToPlanId[buyer] */\n      and\n      sub(shl(0xa0, 0x01), 0x01)\n      and\n      dup2\n      mstore\n      0x20\n      add\n      swap1\n      dup2\n      mstore\n      0x20\n      add\n      0x00\n      keccak256\n        /* \"NFT_Payments.sol\":4679:4708  buyerToPlanId[buyer] = planId */\n      dup2\n      swap1\n      sstore\n      pop\n        /* \"NFT_Payments.sol\":4786:4791  buyer */\n      dup12\n        /* \"NFT_Payments.sol\":4764:4769  plans */\n      0x02\n        /* \"NFT_Payments.sol\":4764:4777  plans[planId] */\n      0x00\n        /* \"NFT_Payments.sol\":4770:4776  planId */\n      dup4\n        /* \"NFT_Payments.sol\":4764:4777  plans[planId] */\n      dup2\n      mstore\n      0x20\n      add\n      swap1\n      dup2\n      mstore\n      0x20\n      add\n      0x00\n      keccak256\n        /* \"NFT_Payments.sol\":4764:4783  plans[planId].buyer */\n      0x00\n      add\n      0x00\n        /* \"NFT_Payments.sol\":4764:4791  plans[planId].buyer = buyer */\n      0x0100\n      exp\n      dup2\n      sload\n      dup2\n      sub(shl(0xa0, 0x01), 0x01)\n      mul\n      not\n      and\n      swap1\n      dup4\n      sub(shl(0xa0, 0x01), 0x01)\n      and\n      mul\n      or\n      swap1\n      sstore\n      pop\n        /* \"NFT_Payments.sol\":4829:4959  NFTDetails({... */\n      mload(0x40)\n      dup1\n      0x60\n      add\n      0x40\n      mstore\n      dup1\n        /* \"NFT_Payments.sol\":4868:4880  _nftContract */\n      dup13\n      sub(shl(0xa0, 0x01), 0x01)\n        /* \"NFT_Payments.sol\":4829:4959  NFTDetails({... */\n      and\n      dup2\n      mstore\n      0x20\n      add\n        /* \"NFT_Payments.sol\":4904:4912  _tokenId */\n      dup12\n        /* \"NFT_Payments.sol\":4829:4959  NFTDetails({... */\n      dup2\n      mstore\n      0x20\n      add\n        /* \"NFT_Payments.sol\":4942:4947  false */\n      0x00\n        /* \"NFT_Payments.sol\":4829:4959  NFTDetails({... */\n      iszero\n      iszero\n      dup2\n      mstore\n      pop\n        /* \"NFT_Payments.sol\":4802:4807  plans */\n      0x02\n        /* \"NFT_Payments.sol\":4802:4815  plans[planId] */\n      0x00\n        /* \"NFT_Payments.sol\":4808:4814  planId */\n      dup4\n        /* \"NFT_Payments.sol\":4802:4815  plans[planId] */\n      dup2\n      mstore\n      0x20\n      add\n      swap1\n      dup2\n      mstore\n      0x20\n      add\n      0x00\n      keccak256\n        /* \"NFT_Payments.sol\":4802:4826  plans[planId].nftDetails */\n      0x01\n      add\n        /* \"NFT_Payments.sol\":4802:4959  plans[planId].nftDetails = NFTDetails({... */\n      0x00\n      dup3\n      add\n      mload\n      dup2\n      0x00\n      add\n      exp(0x0100, 0x00)\n      dup2\n      sload\n      dup2\n      sub(shl(0xa0, 0x01), 0x01)\n      mul\n      not\n      and\n      swap1\n      dup4\n      sub(shl(0xa0, 0x01), 0x01)\n      and\n      mul\n      or\n      swap1\n      sstore\n      pop\n      0x20\n      dup3\n      add\n      mload\n      dup2\n      0x01\n      add\n      sstore\n      0x40\n      dup3\n      add\n      mload\n      dup2\n      0x02\n      add\n      exp(0x0100, 0x00)\n      dup2\n      sload\n      dup2\n      0xff\n      mul\n      not\n      and\n      swap1\n      dup4\n      iszero\n      iszero\n      mul\n      or\n      swap1\n      sstore\n      pop\n      swap1\n      pop\n      pop\n        /* \"NFT_Payments.sol\":5039:5376  PaymentTerms({... */\n      mload(0x40)\n      dup1\n      0xe0\n      add\n      0x40\n      mstore\n      dup1\n        /* \"NFT_Payments.sol\":5078:5088  _totalCost */\n      dup11\n        /* \"NFT_Payments.sol\":5039:5376  PaymentTerms({... */\n      dup2\n      mstore\n      0x20\n      add\n        /* \"NFT_Payments.sol\":5120:5134  monthlyPayment */\n      dup4\n        /* \"NFT_Payments.sol\":5039:5376  PaymentTerms({... */\n      dup2\n      mstore\n      0x20\n      add\n        /* \"NFT_Payments.sol\":5164:5178  _totalPayments */\n      dup9\n        /* \"NFT_Payments.sol\":5039:5376  PaymentTerms({... */\n      dup2\n      mstore\n      0x20\n      add\n        /* \"NFT_Payments.sol\":5209:5224  _penaltyPercent */\n      dup8\n        /* \"NFT_Payments.sol\":5039:5376  PaymentTerms({... */\n      dup2\n      mstore\n      0x20\n      add\n        /* \"NFT_Payments.sol\":5256:5271  remainingAmount */\n      dup5\n        /* \"NFT_Payments.sol\":5039:5376  PaymentTerms({... */\n      dup2\n      mstore\n      0x20\n      add\n        /* \"NFT_Payments.sol\":5305:5319  _totalPayments */\n      dup9\n        /* \"NFT_Payments.sol\":5039:5376  PaymentTerms({... */\n      dup2\n      mstore\n      0x20\n      add\n        /* \"NFT_Payments.sol\":5353:5364  downPayment */\n      dup6\n        /* \"NFT_Payments.sol\":5039:5376  PaymentTerms({... */\n      dup2\n      mstore\n      pop\n        /* \"NFT_Payments.sol\":5017:5022  plans */\n      0x02\n        /* \"NFT_Payments.sol\":5017:5030  plans[planId] */\n      0x00\n        /* \"NFT_Payments.sol\":5023:5029  planId */\n      dup4\n        /* \"NFT_Payments.sol\":5017:5030  plans[planId] */\n      dup2\n      mstore\n      0x20\n      add\n      swap1\n      dup2\n      mstore\n      0x20\n      add\n      0x00\n      keccak256\n        /* \"NFT_Payments.sol\":5017:5036  plans[planId].terms */\n      0x04\n      add\n        /* \"NFT_Payments.sol\":5017:5376  plans[planId].terms = PaymentTerms({... */\n      0x00\n      dup3\n      add\n      mload\n      dup2\n      0x00\n      add\n      sstore\n      0x20\n      dup3\n      add\n      mload\n      dup2\n      0x01\n      add\n      sstore\n      0x40\n      dup3\n      add\n      mload\n      dup2\n      0x02\n      add\n      sstore\n      0x60\n      dup3\n      add\n      mload\n      dup2\n      0x03\n      add\n      sstore\n      0x80\n      dup3\n      add\n      mload\n      dup2\n      0x04\n      add\n      sstore\n      0xa0\n      dup3\n      add\n      mload\n      dup2\n      0x05\n      add\n      sstore\n      0xc0\n      dup3\n      add\n      mload\n      dup2\n      0x06\n      add\n      sstore\n      swap1\n      pop\n      pop\n        /* \"NFT_Payments.sol\":5491:5688  PaymentStatus({... */\n      mload(0x40)\n      dup1\n      0xa0\n      add\n      0x40\n      mstore\n      dup1\n        /* \"NFT_Payments.sol\":5533:5534  0 */\n      0x00\n        /* \"NFT_Payments.sol\":5491:5688  PaymentStatus({... */\n      dup2\n      mstore\n      0x20\n      add\n        /* \"NFT_Payments.sol\":5566:5567  0 */\n      0x00\n        /* \"NFT_Payments.sol\":5491:5688  PaymentStatus({... */\n      dup2\n      mstore\n      0x20\n      add\n        /* \"NFT_Payments.sol\":5598:5599  0 */\n      0x00\n        /* \"NFT_Payments.sol\":5491:5688  PaymentStatus({... */\n      dup2\n      mstore\n      0x20\n      add\n        /* \"NFT_Payments.sol\":5624:5628  true */\n      0x01\n        /* \"NFT_Payments.sol\":5491:5688  PaymentStatus({... */\n      iszero\n      iszero\n      dup2\n      mstore\n      0x20\n      add\n        /* \"NFT_Payments.sol\":5661:5676  block.timestamp */\n      timestamp\n        /* \"NFT_Payments.sol\":5491:5688  PaymentStatus({... */\n      dup2\n      mstore\n      pop\n        /* \"NFT_Payments.sol\":5468:5473  plans */\n      0x02\n        /* \"NFT_Payments.sol\":5468:5481  plans[planId] */\n      0x00\n        /* \"NFT_Payments.sol\":5474:5480  planId */\n      dup4\n        /* \"NFT_Payments.sol\":5468:5481  plans[planId] */\n      dup2\n      mstore\n      0x20\n      add\n      swap1\n      dup2\n      mstore\n      0x20\n      add\n      0x00\n      keccak256\n        /* \"NFT_Payments.sol\":5468:5488  plans[planId].status */\n      0x0b\n      add\n        /* \"NFT_Payments.sol\":5468:5688  plans[planId].status = PaymentStatus({... */\n      0x00\n      dup3\n      add\n      mload\n      dup2\n      0x00\n      add\n      sstore\n      0x20\n      dup3\n      add\n      mload\n      dup2\n      0x01\n      add\n      sstore\n      0x40\n      dup3\n      add\n      mload\n      dup2\n      0x02\n      add\n      sstore\n      0x60\n      dup3\n      add\n      mload\n      dup2\n      0x03\n      add\n      exp(0x0100, 0x00)\n      dup2\n      sload\n      dup2\n      0xff\n      mul\n      not\n      and\n      swap1\n      dup4\n      iszero\n      iszero\n      mul\n      or\n      swap1\n      sstore\n      pop\n      0x80\n      dup3\n      add\n      mload\n      dup2\n      0x04\n      add\n      sstore\n      swap1\n      pop\n      pop\n        /* \"NFT_Payments.sol\":5716:5722  planId */\n      dup1\n        /* \"NFT_Payments.sol\":5709:5722  return planId */\n      swap5\n      pop\n      pop\n      pop\n      pop\n      pop\n        /* \"NFT_Payments.sol\":3494:5730  function createNFTPaymentPlan(... */\n      swap8\n      swap7\n      pop\n      pop\n      pop\n      pop\n      pop\n      pop\n      pop\n      jump\t// out\n        /* \"@openzeppelin/contracts/security/ReentrancyGuard.sol\":2336:2623  function _nonReentrantBefore() private {... */\n    tag_72:\n        /* \"@openzeppelin/contracts/security/ReentrancyGuard.sol\":1759:1760  2 */\n      0x02\n        /* \"@openzeppelin/contracts/security/ReentrancyGuard.sol\":2468:2475  _status */\n      sload(0x00)\n        /* \"@openzeppelin/contracts/security/ReentrancyGuard.sol\":2468:2487  _status != _ENTERED */\n      sub\n        /* \"@openzeppelin/contracts/security/ReentrancyGuard.sol\":2460:2523  require(_status != _ENTERED, \"ReentrancyGuard: reentrant call\") */\n      tag_233\n      jumpi\n      mload(0x40)\n      shl(0xe5, 0x461bcd)\n      dup2\n      mstore\n        /* \"#utility.yul\":18571:18573   */\n      0x20\n        /* \"@openzeppelin/contracts/security/ReentrancyGuard.sol\":2460:2523  require(_status != _ENTERED, \"ReentrancyGuard: reentrant call\") */\n      0x04\n      dup3\n      add\n        /* \"#utility.yul\":18553:18574   */\n      mstore\n        /* \"#utility.yul\":18610:18612   */\n      0x1f\n        /* \"#utility.yul\":18590:18608   */\n      0x24\n      dup3\n      add\n        /* \"#utility.yul\":18583:18613   */\n      mstore\n        /* \"#utility.yul\":18649:18682   */\n      0x5265656e7472616e637947756172643a207265656e7472616e742063616c6c00\n        /* \"#utility.yul\":18629:18647   */\n      0x44\n      dup3\n      add\n        /* \"#utility.yul\":18622:18683   */\n      mstore\n        /* \"#utility.yul\":18700:18718   */\n      0x64\n      add\n        /* \"@openzeppelin/contracts/security/ReentrancyGuard.sol\":2460:2523  require(_status != _ENTERED, \"ReentrancyGuard: reentrant call\") */\n      tag_76\n        /* \"#utility.yul\":18369:18724   */\n      jump\n        /* \"@openzeppelin/contracts/security/ReentrancyGuard.sol\":2460:2523  require(_status != _ENTERED, \"ReentrancyGuard: reentrant call\") */\n    tag_233:\n        /* \"@openzeppelin/contracts/security/ReentrancyGuard.sol\":1759:1760  2 */\n      0x02\n        /* \"@openzeppelin/contracts/security/ReentrancyGuard.sol\":2598:2605  _status */\n      0x00\n        /* \"@openzeppelin/contracts/security/ReentrancyGuard.sol\":2598:2616  _status = _ENTERED */\n      sstore\n        /* \"@openzeppelin/contracts/security/ReentrancyGuard.sol\":2336:2623  function _nonReentrantBefore() private {... */\n      jump\t// out\n        /* \"NFT_Payments.sol\":11949:12824  function _processPayment(uint256 planId, uint256 paymentAmount, uint256 penaltyAmount) private {... */\n    tag_107:\n        /* \"NFT_Payments.sol\":12055:12072  Plan storage plan */\n      0x00\n        /* \"NFT_Payments.sol\":12075:12088  plans[planId] */\n      dup4\n      dup2\n      mstore\n        /* \"NFT_Payments.sol\":12075:12080  plans */\n      0x02\n        /* \"NFT_Payments.sol\":12075:12088  plans[planId] */\n      0x20\n      mstore\n      0x40\n      dup2\n      keccak256\n        /* \"NFT_Payments.sol\":12170:12196  plan.terms.paymentPerMonth */\n      0x05\n      dup2\n      add\n      sload\n        /* \"NFT_Payments.sol\":12140:12166  plan.terms.remainingAmount */\n      0x08\n      dup3\n      add\n        /* \"NFT_Payments.sol\":12140:12196  plan.terms.remainingAmount -= plan.terms.paymentPerMonth */\n      dup1\n      sload\n        /* \"NFT_Payments.sol\":12075:12088  plans[planId] */\n      swap3\n      swap4\n        /* \"NFT_Payments.sol\":12170:12196  plan.terms.paymentPerMonth */\n      swap2\n      swap3\n        /* \"NFT_Payments.sol\":12140:12166  plan.terms.remainingAmount */\n      swap1\n      swap2\n        /* \"NFT_Payments.sol\":12055:12072  Plan storage plan */\n      swap1\n        /* \"NFT_Payments.sol\":12140:12196  plan.terms.remainingAmount -= plan.terms.paymentPerMonth */\n      tag_237\n      swap1\n        /* \"NFT_Payments.sol\":12170:12196  plan.terms.paymentPerMonth */\n      dup5\n      swap1\n        /* \"NFT_Payments.sol\":12140:12196  plan.terms.remainingAmount -= plan.terms.paymentPerMonth */\n      tag_98\n      jump\t// in\n    tag_237:\n      swap1\n      swap2\n      sstore\n      pop\n      pop\n        /* \"NFT_Payments.sol\":12207:12235  plan.terms.remainingPayments */\n      0x09\n      dup2\n      add\n        /* \"NFT_Payments.sol\":12207:12237  plan.terms.remainingPayments-- */\n      dup1\n      sload\n      swap1\n        /* \"NFT_Payments.sol\":12207:12235  plan.terms.remainingPayments */\n      0x00\n        /* \"NFT_Payments.sol\":12207:12237  plan.terms.remainingPayments-- */\n      tag_238\n      dup4\n      tag_239\n      jump\t// in\n    tag_238:\n      swap2\n      swap1\n      pop\n      sstore\n      pop\n        /* \"NFT_Payments.sol\":12298:12328  _updateNextPaymentDate(planId) */\n      tag_240\n        /* \"NFT_Payments.sol\":12321:12327  planId */\n      dup5\n        /* \"NFT_Payments.sol\":12298:12320  _updateNextPaymentDate */\n      tag_241\n        /* \"NFT_Payments.sol\":12298:12328  _updateNextPaymentDate(planId) */\n      jump\t// in\n    tag_240:\n        /* \"NFT_Payments.sol\":12353:12370  penaltyAmount > 0 */\n      dup2\n      iszero\n        /* \"NFT_Payments.sol\":12349:12453  if (penaltyAmount > 0) {... */\n      tag_242\n      jumpi\n        /* \"NFT_Payments.sol\":12415:12425  plan.buyer */\n      dup1\n      sload\n        /* \"NFT_Payments.sol\":12392:12441  PenaltyApplied(planId, plan.buyer, penaltyAmount) */\n      mload(0x40)\n        /* \"#utility.yul\":756:781   */\n      dup4\n      dup2\n      mstore\n      sub(shl(0xa0, 0x01), 0x01)\n        /* \"NFT_Payments.sol\":12415:12425  plan.buyer */\n      swap1\n      swap2\n      and\n      swap1\n        /* \"NFT_Payments.sol\":12407:12413  planId */\n      dup6\n      swap1\n        /* \"NFT_Payments.sol\":12392:12441  PenaltyApplied(planId, plan.buyer, penaltyAmount) */\n      0xed7a0aea6f0340c8fd7f451ac8b492e2facd06e914d020af7d8f38321f04499a\n      swap1\n        /* \"#utility.yul\":744:746   */\n      0x20\n        /* \"#utility.yul\":729:747   */\n      add\n        /* \"NFT_Payments.sol\":12392:12441  PenaltyApplied(planId, plan.buyer, penaltyAmount) */\n      mload(0x40)\n      dup1\n      swap2\n      sub\n      swap1\n      log3\n        /* \"NFT_Payments.sol\":12349:12453  if (penaltyAmount > 0) {... */\n    tag_242:\n        /* \"NFT_Payments.sol\":12517:12527  plan.buyer */\n      dup1\n      sload\n        /* \"NFT_Payments.sol\":12542:12570  plan.terms.remainingPayments */\n      0x09\n      dup3\n      add\n      sload\n        /* \"NFT_Payments.sol\":12613:12639  plan.terms.remainingAmount */\n      0x08\n      dup4\n      add\n      sload\n        /* \"NFT_Payments.sol\":12470:12680  PaymentMade(... */\n      0x40\n      dup1\n      mload\n        /* \"#utility.yul\":12584:12609   */\n      swap3\n      dup4\n      mstore\n        /* \"#utility.yul\":12640:12642   */\n      0x20\n        /* \"#utility.yul\":12625:12643   */\n      dup4\n      add\n        /* \"#utility.yul\":12618:12652   */\n      dup8\n      swap1\n      mstore\n        /* \"#utility.yul\":12668:12686   */\n      dup3\n      add\n        /* \"#utility.yul\":12661:12695   */\n      mstore\n        /* \"NFT_Payments.sol\":12654:12669  block.timestamp */\n      timestamp\n        /* \"#utility.yul\":12726:12728   */\n      0x60\n        /* \"#utility.yul\":12711:12729   */\n      dup3\n      add\n        /* \"#utility.yul\":12704:12738   */\n      mstore\n      sub(shl(0xa0, 0x01), 0x01)\n        /* \"NFT_Payments.sol\":12517:12527  plan.buyer */\n      swap1\n      swap2\n      and\n      swap1\n        /* \"NFT_Payments.sol\":12496:12502  planId */\n      dup6\n      swap1\n        /* \"NFT_Payments.sol\":12470:12680  PaymentMade(... */\n      0x7f05815c7b52d0bff880f573cdfecaa56c4396326c1c01bed184ac277bab7110\n      swap1\n        /* \"#utility.yul\":12571:12574   */\n      0x80\n        /* \"#utility.yul\":12556:12575   */\n      add\n        /* \"NFT_Payments.sol\":12470:12680  PaymentMade(... */\n      mload(0x40)\n      dup1\n      swap2\n      sub\n      swap1\n      log3\n        /* \"NFT_Payments.sol\":12736:12762  plan.terms.remainingAmount */\n      0x08\n      dup2\n      add\n      sload\n        /* \"NFT_Payments.sol\":12766:12767  0 */\n      0x00\n        /* \"NFT_Payments.sol\":12736:12767  plan.terms.remainingAmount == 0 */\n      sub\n        /* \"NFT_Payments.sol\":12732:12817  if (plan.terms.remainingAmount == 0) {... */\n      tag_246\n      jumpi\n        /* \"NFT_Payments.sol\":12784:12805  _completePlan(planId) */\n      tag_246\n        /* \"NFT_Payments.sol\":12798:12804  planId */\n      dup5\n        /* \"NFT_Payments.sol\":12784:12797  _completePlan */\n      tag_247\n        /* \"NFT_Payments.sol\":12784:12805  _completePlan(planId) */\n      jump\t// in\n    tag_246:\n        /* \"NFT_Payments.sol\":12044:12824  {... */\n      pop\n        /* \"NFT_Payments.sol\":11949:12824  function _processPayment(uint256 planId, uint256 paymentAmount, uint256 penaltyAmount) private {... */\n      pop\n      pop\n      pop\n      jump\t// out\n        /* \"NFT_Payments.sol\":7136:8110  function calculateTimestamp(uint256 day, string memory month, uint256 year) internal view returns (uint256) {... */\n    tag_195:\n        /* \"NFT_Payments.sol\":7235:7242  uint256 */\n      0x00\n        /* \"NFT_Payments.sol\":7269:7270  0 */\n      dup1\n        /* \"NFT_Payments.sol\":7263:7266  day */\n      dup5\n        /* \"NFT_Payments.sol\":7263:7270  day > 0 */\n      gt\n        /* \"NFT_Payments.sol\":7263:7283  day > 0 && day <= 31 */\n      dup1\n      iszero\n      tag_250\n      jumpi\n      pop\n        /* \"NFT_Payments.sol\":7281:7283  31 */\n      0x1f\n        /* \"NFT_Payments.sol\":7274:7277  day */\n      dup5\n        /* \"NFT_Payments.sol\":7274:7283  day <= 31 */\n      gt\n      iszero\n        /* \"NFT_Payments.sol\":7263:7283  day > 0 && day <= 31 */\n    tag_250:\n        /* \"NFT_Payments.sol\":7255:7299  require(day > 0 && day <= 31, \"Invalid day\") */\n      tag_251\n      jumpi\n      mload(0x40)\n      shl(0xe5, 0x461bcd)\n      dup2\n      mstore\n        /* \"#utility.yul\":19072:19074   */\n      0x20\n        /* \"NFT_Payments.sol\":7255:7299  require(day > 0 && day <= 31, \"Invalid day\") */\n      0x04\n      dup3\n      add\n        /* \"#utility.yul\":19054:19075   */\n      mstore\n        /* \"#utility.yul\":19111:19113   */\n      0x0b\n        /* \"#utility.yul\":19091:19109   */\n      0x24\n      dup3\n      add\n        /* \"#utility.yul\":19084:19114   */\n      mstore\n      shl(0xa8, 0x496e76616c696420646179)\n        /* \"#utility.yul\":19130:19148   */\n      0x44\n      dup3\n      add\n        /* \"#utility.yul\":19123:19164   */\n      mstore\n        /* \"#utility.yul\":19181:19199   */\n      0x64\n      add\n        /* \"NFT_Payments.sol\":7255:7299  require(day > 0 && day <= 31, \"Invalid day\") */\n      tag_76\n        /* \"#utility.yul\":18870:19205   */\n      jump\n        /* \"NFT_Payments.sol\":7255:7299  require(day > 0 && day <= 31, \"Invalid day\") */\n    tag_251:\n        /* \"NFT_Payments.sol\":7326:7330  2024 */\n      0x07e8\n        /* \"NFT_Payments.sol\":7318:7322  year */\n      dup3\n        /* \"NFT_Payments.sol\":7318:7330  year >= 2024 */\n      lt\n      iszero\n        /* \"NFT_Payments.sol\":7310:7347  require(year >= 2024, \"Invalid year\") */\n      tag_254\n      jumpi\n      mload(0x40)\n      shl(0xe5, 0x461bcd)\n      dup2\n      mstore\n        /* \"#utility.yul\":19412:19414   */\n      0x20\n        /* \"NFT_Payments.sol\":7310:7347  require(year >= 2024, \"Invalid year\") */\n      0x04\n      dup3\n      add\n        /* \"#utility.yul\":19394:19415   */\n      mstore\n        /* \"#utility.yul\":19451:19453   */\n      0x0c\n        /* \"#utility.yul\":19431:19449   */\n      0x24\n      dup3\n      add\n        /* \"#utility.yul\":19424:19454   */\n      mstore\n      shl(0xa1, 0x24b73b30b634b2103cb2b0b9)\n        /* \"#utility.yul\":19470:19488   */\n      0x44\n      dup3\n      add\n        /* \"#utility.yul\":19463:19505   */\n      mstore\n        /* \"#utility.yul\":19522:19540   */\n      0x64\n      add\n        /* \"NFT_Payments.sol\":7310:7347  require(year >= 2024, \"Invalid year\") */\n      tag_76\n        /* \"#utility.yul\":19210:19546   */\n      jump\n        /* \"NFT_Payments.sol\":7310:7347  require(year >= 2024, \"Invalid year\") */\n    tag_254:\n        /* \"NFT_Payments.sol\":7368:7384  uint256 monthNum */\n      0x00\n        /* \"NFT_Payments.sol\":7387:7400  monthToNumber */\n      0x04\n        /* \"NFT_Payments.sol\":7401:7406  month */\n      dup5\n        /* \"NFT_Payments.sol\":7387:7407  monthToNumber[month] */\n      mload(0x40)\n      tag_257\n      swap2\n      swap1\n      tag_258\n      jump\t// in\n    tag_257:\n      swap1\n      dup2\n      mstore\n      0x20\n      add\n      mload(0x40)\n      dup1\n      swap2\n      sub\n      swap1\n      keccak256\n      sload\n        /* \"NFT_Payments.sol\":7368:7407  uint256 monthNum = monthToNumber[month] */\n      swap1\n      pop\n        /* \"NFT_Payments.sol\":7426:7434  monthNum */\n      dup1\n        /* \"NFT_Payments.sol\":7438:7439  0 */\n      0x00\n        /* \"NFT_Payments.sol\":7426:7439  monthNum != 0 */\n      sub\n        /* \"NFT_Payments.sol\":7418:7457  require(monthNum != 0, \"Invalid month\") */\n      tag_259\n      jumpi\n      mload(0x40)\n      shl(0xe5, 0x461bcd)\n      dup2\n      mstore\n        /* \"#utility.yul\":20167:20169   */\n      0x20\n        /* \"NFT_Payments.sol\":7418:7457  require(monthNum != 0, \"Invalid month\") */\n      0x04\n      dup3\n      add\n        /* \"#utility.yul\":20149:20170   */\n      mstore\n        /* \"#utility.yul\":20206:20208   */\n      0x0d\n        /* \"#utility.yul\":20186:20204   */\n      0x24\n      dup3\n      add\n        /* \"#utility.yul\":20179:20209   */\n      mstore\n      shl(0x9b, 0x092dcecc2d8d2c840dadedce8d)\n        /* \"#utility.yul\":20225:20243   */\n      0x44\n      dup3\n      add\n        /* \"#utility.yul\":20218:20261   */\n      mstore\n        /* \"#utility.yul\":20278:20296   */\n      0x64\n      add\n        /* \"NFT_Payments.sol\":7418:7457  require(monthNum != 0, \"Invalid month\") */\n      tag_76\n        /* \"#utility.yul\":19965:20302   */\n      jump\n        /* \"NFT_Payments.sol\":7418:7457  require(monthNum != 0, \"Invalid month\") */\n    tag_259:\n        /* \"NFT_Payments.sol\":7523:7531  monthNum */\n      dup1\n        /* \"NFT_Payments.sol\":7535:7536  2 */\n      0x02\n        /* \"NFT_Payments.sol\":7523:7536  monthNum == 2 */\n      sub\n        /* \"NFT_Payments.sol\":7519:7871  if (monthNum == 2) {... */\n      tag_262\n      jumpi\n        /* \"NFT_Payments.sol\":7553:7568  bool isLeapYear */\n      0x00\n        /* \"NFT_Payments.sol\":7572:7580  year % 4 */\n      tag_263\n        /* \"NFT_Payments.sol\":7579:7580  4 */\n      0x04\n        /* \"NFT_Payments.sol\":7572:7576  year */\n      dup6\n        /* \"NFT_Payments.sol\":7572:7580  year % 4 */\n      tag_264\n      jump\t// in\n    tag_263:\n        /* \"NFT_Payments.sol\":7572:7585  year % 4 == 0 */\n      iszero\n        /* \"NFT_Payments.sol\":7572:7604  year % 4 == 0 && year % 100 != 0 */\n      dup1\n      iszero\n      tag_265\n      jumpi\n      pop\n        /* \"NFT_Payments.sol\":7589:7599  year % 100 */\n      tag_266\n        /* \"NFT_Payments.sol\":7596:7599  100 */\n      0x64\n        /* \"NFT_Payments.sol\":7589:7593  year */\n      dup6\n        /* \"NFT_Payments.sol\":7589:7599  year % 100 */\n      tag_264\n      jump\t// in\n    tag_266:\n        /* \"NFT_Payments.sol\":7589:7604  year % 100 != 0 */\n      iszero\n      iszero\n        /* \"NFT_Payments.sol\":7572:7604  year % 4 == 0 && year % 100 != 0 */\n    tag_265:\n        /* \"NFT_Payments.sol\":7571:7626  (year % 4 == 0 && year % 100 != 0) || (year % 400 == 0) */\n      dup1\n      tag_267\n      jumpi\n      pop\n        /* \"NFT_Payments.sol\":7610:7620  year % 400 */\n      tag_268\n        /* \"NFT_Payments.sol\":7617:7620  400 */\n      0x0190\n        /* \"NFT_Payments.sol\":7610:7614  year */\n      dup6\n        /* \"NFT_Payments.sol\":7610:7620  year % 400 */\n      tag_264\n      jump\t// in\n    tag_268:\n        /* \"NFT_Payments.sol\":7610:7625  year % 400 == 0 */\n      iszero\n        /* \"NFT_Payments.sol\":7571:7626  (year % 4 == 0 && year % 100 != 0) || (year % 400 == 0) */\n    tag_267:\n        /* \"NFT_Payments.sol\":7553:7626  bool isLeapYear = (year % 4 == 0 && year % 100 != 0) || (year % 400 == 0) */\n      swap1\n      pop\n        /* \"NFT_Payments.sol\":7657:7667  isLeapYear */\n      dup1\n        /* \"NFT_Payments.sol\":7657:7677  isLeapYear ? 29 : 28 */\n      tag_269\n      jumpi\n        /* \"NFT_Payments.sol\":7675:7677  28 */\n      0x1c\n        /* \"NFT_Payments.sol\":7657:7677  isLeapYear ? 29 : 28 */\n      jump(tag_270)\n    tag_269:\n        /* \"NFT_Payments.sol\":7670:7672  29 */\n      0x1d\n        /* \"NFT_Payments.sol\":7657:7677  isLeapYear ? 29 : 28 */\n    tag_270:\n        /* \"NFT_Payments.sol\":7649:7678  day <= (isLeapYear ? 29 : 28) */\n      0xff\n      and\n        /* \"NFT_Payments.sol\":7649:7652  day */\n      dup7\n        /* \"NFT_Payments.sol\":7649:7678  day <= (isLeapYear ? 29 : 28) */\n      gt\n      iszero\n        /* \"NFT_Payments.sol\":7641:7707  require(day <= (isLeapYear ? 29 : 28), \"Invalid day for February\") */\n      tag_271\n      jumpi\n      mload(0x40)\n      shl(0xe5, 0x461bcd)\n      dup2\n      mstore\n        /* \"#utility.yul\":20626:20628   */\n      0x20\n        /* \"NFT_Payments.sol\":7641:7707  require(day <= (isLeapYear ? 29 : 28), \"Invalid day for February\") */\n      0x04\n      dup3\n      add\n        /* \"#utility.yul\":20608:20629   */\n      mstore\n        /* \"#utility.yul\":20665:20667   */\n      0x18\n        /* \"#utility.yul\":20645:20663   */\n      0x24\n      dup3\n      add\n        /* \"#utility.yul\":20638:20668   */\n      mstore\n        /* \"#utility.yul\":20704:20730   */\n      0x496e76616c69642064617920666f722046656272756172790000000000000000\n        /* \"#utility.yul\":20684:20702   */\n      0x44\n      dup3\n      add\n        /* \"#utility.yul\":20677:20731   */\n      mstore\n        /* \"#utility.yul\":20748:20766   */\n      0x64\n      add\n        /* \"NFT_Payments.sol\":7641:7707  require(day <= (isLeapYear ? 29 : 28), \"Invalid day for February\") */\n      tag_76\n        /* \"#utility.yul\":20424:20772   */\n      jump\n        /* \"NFT_Payments.sol\":7641:7707  require(day <= (isLeapYear ? 29 : 28), \"Invalid day for February\") */\n    tag_271:\n        /* \"NFT_Payments.sol\":7538:7719  {... */\n      pop\n        /* \"NFT_Payments.sol\":7519:7871  if (monthNum == 2) {... */\n      jump(tag_279)\n    tag_262:\n        /* \"NFT_Payments.sol\":7729:7737  monthNum */\n      dup1\n        /* \"NFT_Payments.sol\":7741:7742  4 */\n      0x04\n        /* \"NFT_Payments.sol\":7729:7742  monthNum == 4 */\n      eq\n        /* \"NFT_Payments.sol\":7729:7759  monthNum == 4 || monthNum == 6 */\n      dup1\n      tag_275\n      jumpi\n      pop\n        /* \"NFT_Payments.sol\":7746:7754  monthNum */\n      dup1\n        /* \"NFT_Payments.sol\":7758:7759  6 */\n      0x06\n        /* \"NFT_Payments.sol\":7746:7759  monthNum == 6 */\n      eq\n        /* \"NFT_Payments.sol\":7729:7759  monthNum == 4 || monthNum == 6 */\n    tag_275:\n        /* \"NFT_Payments.sol\":7729:7776  monthNum == 4 || monthNum == 6 || monthNum == 9 */\n      dup1\n      tag_276\n      jumpi\n      pop\n        /* \"NFT_Payments.sol\":7763:7771  monthNum */\n      dup1\n        /* \"NFT_Payments.sol\":7775:7776  9 */\n      0x09\n        /* \"NFT_Payments.sol\":7763:7776  monthNum == 9 */\n      eq\n        /* \"NFT_Payments.sol\":7729:7776  monthNum == 4 || monthNum == 6 || monthNum == 9 */\n    tag_276:\n        /* \"NFT_Payments.sol\":7729:7794  monthNum == 4 || monthNum == 6 || monthNum == 9 || monthNum == 11 */\n      dup1\n      tag_277\n      jumpi\n      pop\n        /* \"NFT_Payments.sol\":7780:7788  monthNum */\n      dup1\n        /* \"NFT_Payments.sol\":7792:7794  11 */\n      0x0b\n        /* \"NFT_Payments.sol\":7780:7794  monthNum == 11 */\n      eq\n        /* \"NFT_Payments.sol\":7729:7794  monthNum == 4 || monthNum == 6 || monthNum == 9 || monthNum == 11 */\n    tag_277:\n        /* \"NFT_Payments.sol\":7725:7871  if (monthNum == 4 || monthNum == 6 || monthNum == 9 || monthNum == 11) {... */\n      iszero\n      tag_279\n      jumpi\n        /* \"NFT_Payments.sol\":7826:7828  30 */\n      0x1e\n        /* \"NFT_Payments.sol\":7819:7822  day */\n      dup6\n        /* \"NFT_Payments.sol\":7819:7828  day <= 30 */\n      gt\n      iszero\n        /* \"NFT_Payments.sol\":7811:7859  require(day <= 30, \"Invalid day for this month\") */\n      tag_279\n      jumpi\n      mload(0x40)\n      shl(0xe5, 0x461bcd)\n      dup2\n      mstore\n        /* \"#utility.yul\":20979:20981   */\n      0x20\n        /* \"NFT_Payments.sol\":7811:7859  require(day <= 30, \"Invalid day for this month\") */\n      0x04\n      dup3\n      add\n        /* \"#utility.yul\":20961:20982   */\n      mstore\n        /* \"#utility.yul\":21018:21020   */\n      0x1a\n        /* \"#utility.yul\":20998:21016   */\n      0x24\n      dup3\n      add\n        /* \"#utility.yul\":20991:21021   */\n      mstore\n        /* \"#utility.yul\":21057:21085   */\n      0x496e76616c69642064617920666f722074686973206d6f6e7468000000000000\n        /* \"#utility.yul\":21037:21055   */\n      0x44\n      dup3\n      add\n        /* \"#utility.yul\":21030:21086   */\n      mstore\n        /* \"#utility.yul\":21103:21121   */\n      0x64\n      add\n        /* \"NFT_Payments.sol\":7811:7859  require(day <= 30, \"Invalid day for this month\") */\n      tag_76\n        /* \"#utility.yul\":20777:21127   */\n      jump\n        /* \"NFT_Payments.sol\":7811:7859  require(day <= 30, \"Invalid day for this month\") */\n    tag_279:\n        /* \"NFT_Payments.sol\":1321:1333  24 * 60 * 60 */\n      0x015180\n        /* \"NFT_Payments.sol\":8075:8082  day - 1 */\n      tag_282\n        /* \"NFT_Payments.sol\":8081:8082  1 */\n      0x01\n        /* \"NFT_Payments.sol\":8075:8078  day */\n      dup8\n        /* \"NFT_Payments.sol\":8075:8082  day - 1 */\n      tag_98\n      jump\t// in\n    tag_282:\n        /* \"NFT_Payments.sol\":8074:8101  (day - 1) * SECONDS_PER_DAY */\n      tag_283\n      swap2\n      swap1\n      tag_91\n      jump\t// in\n    tag_283:\n        /* \"NFT_Payments.sol\":1321:1333  24 * 60 * 60 */\n      0x015180\n        /* \"NFT_Payments.sol\":8016:8028  monthNum - 1 */\n      tag_284\n        /* \"NFT_Payments.sol\":8027:8028  1 */\n      0x01\n        /* \"NFT_Payments.sol\":8016:8024  monthNum */\n      dup5\n        /* \"NFT_Payments.sol\":8016:8028  monthNum - 1 */\n      tag_98\n      jump\t// in\n    tag_284:\n        /* \"NFT_Payments.sol\":8015:8034  (monthNum - 1) * 30 */\n      tag_285\n      swap1\n        /* \"NFT_Payments.sol\":8032:8034  30 */\n      0x1e\n        /* \"NFT_Payments.sol\":8015:8034  (monthNum - 1) * 30 */\n      tag_91\n      jump\t// in\n    tag_285:\n        /* \"NFT_Payments.sol\":8015:8052  (monthNum - 1) * 30 * SECONDS_PER_DAY */\n      tag_286\n      swap2\n      swap1\n      tag_91\n      jump\t// in\n    tag_286:\n        /* \"NFT_Payments.sol\":1321:1333  24 * 60 * 60 */\n      0x015180\n        /* \"NFT_Payments.sol\":7973:7974  4 */\n      0x04\n        /* \"NFT_Payments.sol\":7958:7969  year - 1969 */\n      tag_287\n        /* \"NFT_Payments.sol\":7965:7969  1969 */\n      0x07b1\n        /* \"NFT_Payments.sol\":7958:7962  year */\n      dup9\n        /* \"NFT_Payments.sol\":7958:7969  year - 1969 */\n      tag_98\n      jump\t// in\n    tag_287:\n        /* \"NFT_Payments.sol\":7957:7974  (year - 1969) / 4 */\n      tag_288\n      swap2\n      swap1\n      tag_93\n      jump\t// in\n    tag_288:\n        /* \"NFT_Payments.sol\":7935:7946  year - 1970 */\n      tag_289\n        /* \"NFT_Payments.sol\":7942:7946  1970 */\n      0x07b2\n        /* \"NFT_Payments.sol\":7935:7939  year */\n      dup9\n        /* \"NFT_Payments.sol\":7935:7946  year - 1970 */\n      tag_98\n      jump\t// in\n    tag_289:\n        /* \"NFT_Payments.sol\":7934:7953  (year - 1970) * 365 */\n      tag_290\n      swap1\n        /* \"NFT_Payments.sol\":7950:7953  365 */\n      0x016d\n        /* \"NFT_Payments.sol\":7934:7953  (year - 1970) * 365 */\n      tag_91\n      jump\t// in\n    tag_290:\n        /* \"NFT_Payments.sol\":7934:7975  (year - 1970) * 365 + ((year - 1969) / 4) */\n      tag_291\n      swap2\n      swap1\n      tag_95\n      jump\t// in\n    tag_291:\n        /* \"NFT_Payments.sol\":7933:7994  ((year - 1970) * 365 + ((year - 1969) / 4)) * SECONDS_PER_DAY */\n      tag_292\n      swap2\n      swap1\n      tag_91\n      jump\t// in\n    tag_292:\n        /* \"NFT_Payments.sol\":7933:8053  ((year - 1970) * 365 + ((year - 1969) / 4)) * SECONDS_PER_DAY + ... */\n      tag_293\n      swap2\n      swap1\n      tag_95\n      jump\t// in\n    tag_293:\n        /* \"NFT_Payments.sol\":7933:8102  ((year - 1970) * 365 + ((year - 1969) / 4)) * SECONDS_PER_DAY + ... */\n      tag_294\n      swap2\n      swap1\n      tag_95\n      jump\t// in\n    tag_294:\n        /* \"NFT_Payments.sol\":7926:8102  return ((year - 1970) * 365 + ((year - 1969) / 4)) * SECONDS_PER_DAY + ... */\n      swap6\n        /* \"NFT_Payments.sol\":7136:8110  function calculateTimestamp(uint256 day, string memory month, uint256 year) internal view returns (uint256) {... */\n      swap5\n      pop\n      pop\n      pop\n      pop\n      pop\n      jump\t// out\n        /* \"NFT_Payments.sol\":8118:8398  function formatDate(uint256 day, string memory month, uint256 year) internal pure returns (string memory) {... */\n    tag_200:\n        /* \"NFT_Payments.sol\":8209:8222  string memory */\n      0x60\n        /* \"NFT_Payments.sol\":8280:8293  uint2str(day) */\n      tag_296\n        /* \"NFT_Payments.sol\":8289:8292  day */\n      dup5\n        /* \"NFT_Payments.sol\":8280:8288  uint2str */\n      tag_297\n        /* \"NFT_Payments.sol\":8280:8293  uint2str(day) */\n      jump\t// in\n    tag_296:\n        /* \"NFT_Payments.sol\":8326:8331  month */\n      dup4\n        /* \"NFT_Payments.sol\":8364:8378  uint2str(year) */\n      tag_298\n        /* \"NFT_Payments.sol\":8373:8377  year */\n      dup5\n        /* \"NFT_Payments.sol\":8364:8372  uint2str */\n      tag_297\n        /* \"NFT_Payments.sol\":8364:8378  uint2str(year) */\n      jump\t// in\n    tag_298:\n        /* \"NFT_Payments.sol\":8249:8389  abi.encodePacked(... */\n      add(0x20, mload(0x40))\n      tag_299\n      swap4\n      swap3\n      swap2\n      swap1\n      tag_300\n      jump\t// in\n    tag_299:\n      mload(0x40)\n      0x20\n      dup2\n      dup4\n      sub\n      sub\n      dup2\n      mstore\n      swap1\n      0x40\n      mstore\n        /* \"NFT_Payments.sol\":8235:8390  return string(abi.encodePacked(... */\n      swap1\n      pop\n        /* \"NFT_Payments.sol\":8118:8398  function formatDate(uint256 day, string memory month, uint256 year) internal pure returns (string memory) {... */\n      swap4\n      swap3\n      pop\n      pop\n      pop\n      jump\t// out\n        /* \"NFT_Payments.sol\":12869:13603  function _updateNextPaymentDate(uint256 planId) private {... */\n    tag_241:\n        /* \"NFT_Payments.sol\":12936:12953  Plan storage plan */\n      0x00\n        /* \"NFT_Payments.sol\":12956:12969  plans[planId] */\n      dup2\n      dup2\n      mstore\n        /* \"NFT_Payments.sol\":12956:12961  plans */\n      0x02\n        /* \"NFT_Payments.sol\":12956:12969  plans[planId] */\n      0x20\n      mstore\n      0x40\n      dup2\n      keccak256\n      swap1\n        /* \"NFT_Payments.sol\":13114:13135  365 * SECONDS_PER_DAY */\n      tag_302\n        /* \"NFT_Payments.sol\":1321:1333  24 * 60 * 60 */\n      0x015180\n        /* \"NFT_Payments.sol\":13114:13117  365 */\n      0x016d\n        /* \"NFT_Payments.sol\":13114:13135  365 * SECONDS_PER_DAY */\n      tag_91\n      jump\t// in\n    tag_302:\n        /* \"NFT_Payments.sol\":13083:13110  plan.status.nextPaymentDate */\n      0x0c\n      dup4\n      add\n      sload\n        /* \"NFT_Payments.sol\":13083:13136  plan.status.nextPaymentDate / (365 * SECONDS_PER_DAY) */\n      tag_303\n      swap2\n      swap1\n      tag_93\n      jump\t// in\n    tag_303:\n        /* \"NFT_Payments.sol\":13082:13144  (plan.status.nextPaymentDate / (365 * SECONDS_PER_DAY)) + 1970 */\n      tag_304\n      swap1\n        /* \"NFT_Payments.sol\":13140:13144  1970 */\n      0x07b2\n        /* \"NFT_Payments.sol\":13082:13144  (plan.status.nextPaymentDate / (365 * SECONDS_PER_DAY)) + 1970 */\n      tag_95\n      jump\t// in\n    tag_304:\n        /* \"NFT_Payments.sol\":13060:13144  uint256 currentYear = (plan.status.nextPaymentDate / (365 * SECONDS_PER_DAY)) + 1970 */\n      swap1\n      pop\n        /* \"NFT_Payments.sol\":13155:13175  uint256 currentMonth */\n      0x00\n        /* \"NFT_Payments.sol\":13238:13258  30 * SECONDS_PER_DAY */\n      tag_305\n        /* \"NFT_Payments.sol\":1321:1333  24 * 60 * 60 */\n      0x015180\n        /* \"NFT_Payments.sol\":13238:13240  30 */\n      0x1e\n        /* \"NFT_Payments.sol\":13238:13258  30 * SECONDS_PER_DAY */\n      tag_91\n      jump\t// in\n    tag_305:\n        /* \"NFT_Payments.sol\":13211:13232  365 * SECONDS_PER_DAY */\n      tag_306\n        /* \"NFT_Payments.sol\":1321:1333  24 * 60 * 60 */\n      0x015180\n        /* \"NFT_Payments.sol\":13211:13214  365 */\n      0x016d\n        /* \"NFT_Payments.sol\":13211:13232  365 * SECONDS_PER_DAY */\n      tag_91\n      jump\t// in\n    tag_306:\n        /* \"NFT_Payments.sol\":13180:13207  plan.status.nextPaymentDate */\n      0x0c\n      dup6\n      add\n      sload\n        /* \"NFT_Payments.sol\":13180:13233  plan.status.nextPaymentDate % (365 * SECONDS_PER_DAY) */\n      tag_307\n      swap2\n      swap1\n      tag_264\n      jump\t// in\n    tag_307:\n        /* \"NFT_Payments.sol\":13179:13259  (plan.status.nextPaymentDate % (365 * SECONDS_PER_DAY)) / (30 * SECONDS_PER_DAY) */\n      tag_308\n      swap2\n      swap1\n      tag_93\n      jump\t// in\n    tag_308:\n        /* \"NFT_Payments.sol\":13178:13264  ((plan.status.nextPaymentDate % (365 * SECONDS_PER_DAY)) / (30 * SECONDS_PER_DAY)) + 1 */\n      tag_309\n      swap1\n        /* \"NFT_Payments.sol\":13263:13264  1 */\n      0x01\n        /* \"NFT_Payments.sol\":13178:13264  ((plan.status.nextPaymentDate % (365 * SECONDS_PER_DAY)) / (30 * SECONDS_PER_DAY)) + 1 */\n      tag_95\n      jump\t// in\n    tag_309:\n        /* \"NFT_Payments.sol\":13155:13264  uint256 currentMonth = ((plan.status.nextPaymentDate % (365 * SECONDS_PER_DAY)) / (30 * SECONDS_PER_DAY)) + 1 */\n      swap1\n      pop\n        /* \"NFT_Payments.sol\":13285:13302  currentMonth += 1 */\n      tag_310\n        /* \"NFT_Payments.sol\":13301:13302  1 */\n      0x01\n        /* \"NFT_Payments.sol\":13155:13264  uint256 currentMonth = ((plan.status.nextPaymentDate % (365 * SECONDS_PER_DAY)) / (30 * SECONDS_PER_DAY)) + 1 */\n      dup3\n        /* \"NFT_Payments.sol\":13285:13302  currentMonth += 1 */\n      tag_95\n      jump\t// in\n    tag_310:\n      swap1\n      pop\n        /* \"NFT_Payments.sol\":13332:13334  12 */\n      0x0c\n        /* \"NFT_Payments.sol\":13317:13329  currentMonth */\n      dup2\n        /* \"NFT_Payments.sol\":13317:13334  currentMonth > 12 */\n      gt\n        /* \"NFT_Payments.sol\":13313:13410  if (currentMonth > 12) {... */\n      iszero\n      tag_311\n      jumpi\n      pop\n        /* \"NFT_Payments.sol\":13366:13367  1 */\n      0x01\n        /* \"NFT_Payments.sol\":13382:13398  currentYear += 1 */\n      tag_312\n        /* \"NFT_Payments.sol\":13366:13367  1 */\n      dup2\n        /* \"NFT_Payments.sol\":13382:13398  currentYear += 1 */\n      dup4\n      tag_95\n      jump\t// in\n    tag_312:\n      swap2\n      pop\n        /* \"NFT_Payments.sol\":13313:13410  if (currentMonth > 12) {... */\n    tag_311:\n        /* \"NFT_Payments.sol\":13493:13504  plan.status */\n      0x0b\n      dup4\n      add\n        /* \"NFT_Payments.sol\":13493:13516  plan.status.paymentDate */\n      sload\n        /* \"NFT_Payments.sol\":13460:13595  calculateTimestamp(... */\n      tag_313\n      swap1\n        /* \"NFT_Payments.sol\":13531:13558  monthToString(currentMonth) */\n      tag_314\n        /* \"NFT_Payments.sol\":13545:13557  currentMonth */\n      dup4\n        /* \"NFT_Payments.sol\":13531:13544  monthToString */\n      tag_315\n        /* \"NFT_Payments.sol\":13531:13558  monthToString(currentMonth) */\n      jump\t// in\n    tag_314:\n        /* \"NFT_Payments.sol\":13573:13584  currentYear */\n      dup5\n        /* \"NFT_Payments.sol\":13460:13478  calculateTimestamp */\n      tag_195\n        /* \"NFT_Payments.sol\":13460:13595  calculateTimestamp(... */\n      jump\t// in\n    tag_313:\n        /* \"NFT_Payments.sol\":13430:13457  plan.status.nextPaymentDate */\n      0x0c\n      swap1\n      swap4\n      add\n        /* \"NFT_Payments.sol\":13430:13595  plan.status.nextPaymentDate = calculateTimestamp(... */\n      swap3\n      swap1\n      swap3\n      sstore\n      pop\n      pop\n      pop\n        /* \"NFT_Payments.sol\":12869:13603  function _updateNextPaymentDate(uint256 planId) private {... */\n      jump\t// out\n        /* \"NFT_Payments.sol\":13654:14675  function _completePlan(uint256 planId) private {... */\n    tag_247:\n        /* \"NFT_Payments.sol\":13712:13729  Plan storage plan */\n      0x00\n        /* \"NFT_Payments.sol\":13732:13745  plans[planId] */\n      dup2\n      dup2\n      mstore\n        /* \"NFT_Payments.sol\":13732:13737  plans */\n      0x02\n        /* \"NFT_Payments.sol\":13732:13745  plans[planId] */\n      0x20\n      mstore\n      0x40\n      swap1\n      keccak256\n        /* \"NFT_Payments.sol\":13756:13776  plan.status.isActive */\n      0x0e\n      dup2\n      add\n        /* \"NFT_Payments.sol\":13756:13784  plan.status.isActive = false */\n      dup1\n      sload\n      not(0xff)\n      and\n      swap1\n      sstore\n        /* \"NFT_Payments.sol\":13756:13776  plan.status.isActive */\n      0x03\n        /* \"NFT_Payments.sol\":13861:13890  plan.nftDetails.isTransferred */\n      dup2\n      add\n      sload\n        /* \"NFT_Payments.sol\":13756:13784  plan.status.isActive = false */\n      0xff\n        /* \"NFT_Payments.sol\":13861:13890  plan.nftDetails.isTransferred */\n      and\n        /* \"NFT_Payments.sol\":13856:14668  if (!plan.nftDetails.isTransferred) {... */\n      tag_327\n      jumpi\n        /* \"NFT_Payments.sol\":13963:13978  plan.nftDetails */\n      0x01\n      dup2\n      add\n        /* \"NFT_Payments.sol\":13963:13990  plan.nftDetails.nftContract */\n      sload\n        /* \"NFT_Payments.sol\":14056:14066  plan.buyer */\n      dup2\n      sload\n        /* \"NFT_Payments.sol\":14085:14108  plan.nftDetails.tokenId */\n      0x02\n      dup4\n      add\n      sload\n        /* \"NFT_Payments.sol\":13955:14123  IERC721(plan.nftDetails.nftContract).transferFrom(... */\n      mload(0x40)\n      shl(0xe0, 0x23b872dd)\n      dup2\n      mstore\n        /* \"NFT_Payments.sol\":14031:14035  this */\n      address\n        /* \"NFT_Payments.sol\":13955:14123  IERC721(plan.nftDetails.nftContract).transferFrom(... */\n      0x04\n      dup3\n      add\n        /* \"#utility.yul\":12179:12230   */\n      mstore\n      sub(shl(0xa0, 0x01), 0x01)\n        /* \"NFT_Payments.sol\":14056:14066  plan.buyer */\n      swap3\n      dup4\n      and\n        /* \"#utility.yul\":12246:12264   */\n      0x24\n      dup3\n      add\n        /* \"#utility.yul\":12239:12299   */\n      mstore\n        /* \"#utility.yul\":12315:12333   */\n      0x44\n      dup2\n      add\n        /* \"#utility.yul\":12308:12342   */\n      swap2\n      swap1\n      swap2\n      mstore\n        /* \"NFT_Payments.sol\":13963:13990  plan.nftDetails.nftContract */\n      swap2\n      and\n      swap1\n        /* \"NFT_Payments.sol\":13955:14004  IERC721(plan.nftDetails.nftContract).transferFrom */\n      0x23b872dd\n      swap1\n        /* \"#utility.yul\":12152:12170   */\n      0x64\n      add\n        /* \"NFT_Payments.sol\":13955:14123  IERC721(plan.nftDetails.nftContract).transferFrom(... */\n      0x00\n      mload(0x40)\n      dup1\n      dup4\n      sub\n      dup2\n      0x00\n      dup8\n      dup1\n      extcodesize\n      iszero\n      dup1\n      iszero\n      tag_319\n      jumpi\n      0x00\n      dup1\n      revert\n    tag_319:\n      pop\n      gas\n      call\n      swap3\n      pop\n      pop\n      pop\n      dup1\n      iszero\n      tag_320\n      jumpi\n      pop\n      0x01\n    tag_320:\n        /* \"NFT_Payments.sol\":13951:14657  try IERC721(plan.nftDetails.nftContract).transferFrom(... */\n      tag_321\n      jumpi\n        /* \"NFT_Payments.sol\":14595:14641  revert(\"NFT transfer failed - contact seller\") */\n      mload(0x40)\n      shl(0xe5, 0x461bcd)\n      dup2\n      mstore\n        /* \"#utility.yul\":21989:21991   */\n      0x20\n        /* \"NFT_Payments.sol\":14595:14641  revert(\"NFT transfer failed - contact seller\") */\n      0x04\n      dup3\n      add\n        /* \"#utility.yul\":21971:21992   */\n      mstore\n        /* \"#utility.yul\":22028:22030   */\n      0x24\n        /* \"#utility.yul\":22008:22026   */\n      dup1\n      dup3\n      add\n        /* \"#utility.yul\":22001:22031   */\n      mstore\n        /* \"#utility.yul\":22067:22101   */\n      0x4e4654207472616e73666572206661696c6564202d20636f6e74616374207365\n        /* \"#utility.yul\":22047:22065   */\n      0x44\n      dup3\n      add\n        /* \"#utility.yul\":22040:22102   */\n      mstore\n      shl(0xe1, 0x363632b9)\n        /* \"#utility.yul\":22118:22136   */\n      0x64\n      dup3\n      add\n        /* \"#utility.yul\":22111:22145   */\n      mstore\n        /* \"#utility.yul\":22162:22181   */\n      0x84\n      add\n        /* \"NFT_Payments.sol\":14595:14641  revert(\"NFT transfer failed - contact seller\") */\n      tag_76\n        /* \"#utility.yul\":21787:22187   */\n      jump\n        /* \"NFT_Payments.sol\":13951:14657  try IERC721(plan.nftDetails.nftContract).transferFrom(... */\n    tag_321:\n        /* \"NFT_Payments.sol\":14143:14172  plan.nftDetails.isTransferred */\n      0x03\n      dup2\n      add\n        /* \"NFT_Payments.sol\":14143:14179  plan.nftDetails.isTransferred = true */\n      dup1\n      sload\n      not(0xff)\n      and\n        /* \"NFT_Payments.sol\":14175:14179  true */\n      0x01\n        /* \"NFT_Payments.sol\":14143:14179  plan.nftDetails.isTransferred = true */\n      swap1\n      dup2\n      or\n      swap1\n      swap2\n      sstore\n        /* \"NFT_Payments.sol\":14143:14158  plan.nftDetails */\n      dup2\n      add\n        /* \"NFT_Payments.sol\":14326:14353  plan.nftDetails.nftContract */\n      sload\n        /* \"NFT_Payments.sol\":14293:14303  plan.buyer */\n      dup2\n      sload\n        /* \"NFT_Payments.sol\":14143:14172  plan.nftDetails.isTransferred */\n      0x02\n        /* \"NFT_Payments.sol\":14376:14399  plan.nftDetails.tokenId */\n      dup4\n      add\n      sload\n        /* \"NFT_Payments.sol\":14422:14448  plan.terms.paymentPerMonth */\n      0x05\n      dup5\n      add\n      sload\n        /* \"NFT_Payments.sol\":14422:14432  plan.terms */\n      0x04\n      dup6\n      add\n        /* \"NFT_Payments.sol\":14471:14491  plan.terms.totalCost */\n      sload\n        /* \"NFT_Payments.sol\":14221:14510  NFTPurchaseCompleted(... */\n      0x40\n      dup1\n      mload\n        /* \"#utility.yul\":22394:22419   */\n      swap4\n      dup5\n      mstore\n        /* \"#utility.yul\":22450:22452   */\n      0x20\n        /* \"#utility.yul\":22435:22453   */\n      dup5\n      add\n        /* \"#utility.yul\":22428:22462   */\n      swap3\n      swap1\n      swap3\n      mstore\n        /* \"#utility.yul\":22478:22496   */\n      swap1\n      dup3\n      add\n        /* \"#utility.yul\":22471:22505   */\n      mstore\n      sub(shl(0xa0, 0x01), 0x01)\n        /* \"NFT_Payments.sol\":14326:14353  plan.nftDetails.nftContract */\n      swap3\n      dup4\n      and\n      swap3\n        /* \"NFT_Payments.sol\":14293:14303  plan.buyer */\n      swap1\n      swap2\n      and\n      swap1\n        /* \"NFT_Payments.sol\":14264:14270  planId */\n      dup5\n      swap1\n        /* \"NFT_Payments.sol\":14221:14510  NFTPurchaseCompleted(... */\n      0x0c353ff0be67df5a5b38b51dd836480fcbb84172b535a89ae18ac96b046ac157\n      swap1\n        /* \"#utility.yul\":22382:22384   */\n      0x60\n        /* \"#utility.yul\":22367:22385   */\n      add\n        /* \"NFT_Payments.sol\":14221:14510  NFTPurchaseCompleted(... */\n      mload(0x40)\n      dup1\n      swap2\n      sub\n      swap1\n      log4\n        /* \"NFT_Payments.sol\":13951:14657  try IERC721(plan.nftDetails.nftContract).transferFrom(... */\n    tag_327:\n        /* \"NFT_Payments.sol\":13701:14675  {... */\n      pop\n        /* \"NFT_Payments.sol\":13654:14675  function _completePlan(uint256 planId) private {... */\n      pop\n      jump\t// out\n        /* \"NFT_Payments.sol\":16920:17398  function uint2str(uint256 _i) internal pure returns (string memory) {... */\n    tag_297:\n        /* \"NFT_Payments.sol\":16973:16986  string memory */\n      0x60\n        /* \"NFT_Payments.sol\":17003:17005  _i */\n      dup2\n        /* \"NFT_Payments.sol\":17009:17010  0 */\n      0x00\n        /* \"NFT_Payments.sol\":17003:17010  _i == 0 */\n      sub\n        /* \"NFT_Payments.sol\":16999:17022  if (_i == 0) return \"0\" */\n      tag_331\n      jumpi\n      pop\n      pop\n        /* \"NFT_Payments.sol\":17012:17022  return \"0\" */\n      0x40\n      dup1\n      mload\n      dup1\n      dup3\n      add\n      swap1\n      swap2\n      mstore\n      0x01\n      dup2\n      mstore\n      shl(0xfc, 0x03)\n      0x20\n      dup3\n      add\n      mstore\n      swap1\n        /* \"NFT_Payments.sol\":16920:17398  function uint2str(uint256 _i) internal pure returns (string memory) {... */\n      jump\t// out\n        /* \"NFT_Payments.sol\":16999:17022  if (_i == 0) return \"0\" */\n    tag_331:\n        /* \"NFT_Payments.sol\":17045:17047  _i */\n      dup2\n        /* \"NFT_Payments.sol\":17033:17042  uint256 j */\n      0x00\n        /* \"NFT_Payments.sol\":17083:17155  while (j != 0) {... */\n    tag_332:\n        /* \"NFT_Payments.sol\":17090:17096  j != 0 */\n      dup2\n      iszero\n        /* \"NFT_Payments.sol\":17083:17155  while (j != 0) {... */\n      tag_333\n      jumpi\n        /* \"NFT_Payments.sol\":17113:17121  length++ */\n      dup1\n      tag_334\n      dup2\n      tag_89\n      jump\t// in\n    tag_334:\n      swap2\n      pop\n        /* \"NFT_Payments.sol\":17136:17143  j /= 10 */\n      tag_335\n      swap1\n      pop\n        /* \"NFT_Payments.sol\":17141:17143  10 */\n      0x0a\n        /* \"NFT_Payments.sol\":17136:17143  j /= 10 */\n      dup4\n      tag_93\n      jump\t// in\n    tag_335:\n      swap2\n      pop\n        /* \"NFT_Payments.sol\":17083:17155  while (j != 0) {... */\n      jump(tag_332)\n    tag_333:\n        /* \"NFT_Payments.sol\":17165:17182  bytes memory bstr */\n      0x00\n        /* \"NFT_Payments.sol\":17195:17201  length */\n      dup2\n        /* \"NFT_Payments.sol\":17185:17202  new bytes(length) */\n      0xffffffffffffffff\n      dup2\n      gt\n      iszero\n      tag_337\n      jumpi\n      tag_337\n      tag_338\n      jump\t// in\n    tag_337:\n      mload(0x40)\n      swap1\n      dup1\n      dup3\n      mstore\n      dup1\n      0x1f\n      add\n      not(0x1f)\n      and\n      0x20\n      add\n      dup3\n      add\n      0x40\n      mstore\n      dup1\n      iszero\n      tag_339\n      jumpi\n      0x20\n      dup3\n      add\n      dup2\n      dup1\n      calldatasize\n      dup4\n      calldatacopy\n      add\n      swap1\n      pop\n    tag_339:\n      pop\n        /* \"NFT_Payments.sol\":17246:17248  _i */\n      dup6\n      swap4\n      pop\n        /* \"NFT_Payments.sol\":17165:17202  bytes memory bstr = new bytes(length) */\n      swap1\n      pop\n        /* \"NFT_Payments.sol\":17225:17231  length */\n      dup2\n        /* \"NFT_Payments.sol\":17259:17361  while (j != 0) {... */\n    tag_340:\n        /* \"NFT_Payments.sol\":17266:17272  j != 0 */\n      dup4\n      iszero\n        /* \"NFT_Payments.sol\":17259:17361  while (j != 0) {... */\n      tag_341\n      jumpi\n        /* \"NFT_Payments.sol\":17319:17325  j % 10 */\n      tag_342\n        /* \"NFT_Payments.sol\":17323:17325  10 */\n      0x0a\n        /* \"NFT_Payments.sol\":17319:17320  j */\n      dup6\n        /* \"NFT_Payments.sol\":17319:17325  j % 10 */\n      tag_264\n      jump\t// in\n    tag_342:\n        /* \"NFT_Payments.sol\":17314:17325  48 + j % 10 */\n      tag_343\n      swap1\n        /* \"NFT_Payments.sol\":17314:17316  48 */\n      0x30\n        /* \"NFT_Payments.sol\":17314:17325  48 + j % 10 */\n      tag_95\n      jump\t// in\n    tag_343:\n        /* \"NFT_Payments.sol\":17301:17327  bytes1(uint8(48 + j % 10)) */\n      0xf8\n      shl\n        /* \"NFT_Payments.sol\":17289:17293  bstr */\n      dup3\n        /* \"NFT_Payments.sol\":17294:17297  --k */\n      tag_344\n      dup4\n      tag_239\n      jump\t// in\n    tag_344:\n      swap3\n      pop\n      dup3\n        /* \"NFT_Payments.sol\":17289:17298  bstr[--k] */\n      dup2\n      mload\n      dup2\n      lt\n      tag_346\n      jumpi\n      tag_346\n      tag_347\n      jump\t// in\n    tag_346:\n      0x20\n      add\n      add\n        /* \"NFT_Payments.sol\":17289:17327  bstr[--k] = bytes1(uint8(48 + j % 10)) */\n      swap1\n      not(sub(shl(0xf8, 0x01), 0x01))\n      and\n      swap1\n      dup2\n      0x00\n      byte\n      swap1\n      mstore8\n      pop\n        /* \"NFT_Payments.sol\":17342:17349  j /= 10 */\n      tag_348\n        /* \"NFT_Payments.sol\":17347:17349  10 */\n      0x0a\n        /* \"NFT_Payments.sol\":17342:17349  j /= 10 */\n      dup6\n      tag_93\n      jump\t// in\n    tag_348:\n      swap4\n      pop\n        /* \"NFT_Payments.sol\":17259:17361  while (j != 0) {... */\n      jump(tag_340)\n    tag_341:\n      pop\n        /* \"NFT_Payments.sol\":17385:17389  bstr */\n      swap5\n        /* \"NFT_Payments.sol\":16920:17398  function uint2str(uint256 _i) internal pure returns (string memory) {... */\n      swap4\n      pop\n      pop\n      pop\n      pop\n      jump\t// out\n        /* \"NFT_Payments.sol\":14687:15313  function monthToString(uint256 month) internal pure returns (string memory) {... */\n    tag_315:\n        /* \"NFT_Payments.sol\":14748:14761  string memory */\n      0x60\n        /* \"NFT_Payments.sol\":14778:14783  month */\n      dup2\n        /* \"NFT_Payments.sol\":14787:14788  1 */\n      0x01\n        /* \"NFT_Payments.sol\":14778:14788  month == 1 */\n      sub\n        /* \"NFT_Payments.sol\":14774:14806  if (month == 1) return \"January\" */\n      tag_350\n      jumpi\n      pop\n      pop\n        /* \"NFT_Payments.sol\":14790:14806  return \"January\" */\n      0x40\n      dup1\n      mload\n      dup1\n      dup3\n      add\n      swap1\n      swap2\n      mstore\n      0x07\n      dup2\n      mstore\n      shl(0xc8, 0x4a616e75617279)\n      0x20\n      dup3\n      add\n      mstore\n      swap1\n        /* \"NFT_Payments.sol\":14687:15313  function monthToString(uint256 month) internal pure returns (string memory) {... */\n      jump\t// out\n        /* \"NFT_Payments.sol\":14774:14806  if (month == 1) return \"January\" */\n    tag_350:\n        /* \"NFT_Payments.sol\":14821:14826  month */\n      dup2\n        /* \"NFT_Payments.sol\":14830:14831  2 */\n      0x02\n        /* \"NFT_Payments.sol\":14821:14831  month == 2 */\n      sub\n        /* \"NFT_Payments.sol\":14817:14850  if (month == 2) return \"February\" */\n      tag_351\n      jumpi\n      pop\n      pop\n        /* \"NFT_Payments.sol\":14833:14850  return \"February\" */\n      0x40\n      dup1\n      mload\n      dup1\n      dup3\n      add\n      swap1\n      swap2\n      mstore\n      0x08\n      dup2\n      mstore\n      shl(0xc0, 0x4665627275617279)\n      0x20\n      dup3\n      add\n      mstore\n      swap1\n        /* \"NFT_Payments.sol\":14687:15313  function monthToString(uint256 month) internal pure returns (string memory) {... */\n      jump\t// out\n        /* \"NFT_Payments.sol\":14817:14850  if (month == 2) return \"February\" */\n    tag_351:\n        /* \"NFT_Payments.sol\":14865:14870  month */\n      dup2\n        /* \"NFT_Payments.sol\":14874:14875  3 */\n      0x03\n        /* \"NFT_Payments.sol\":14865:14875  month == 3 */\n      sub\n        /* \"NFT_Payments.sol\":14861:14891  if (month == 3) return \"March\" */\n      tag_352\n      jumpi\n      pop\n      pop\n        /* \"NFT_Payments.sol\":14877:14891  return \"March\" */\n      0x40\n      dup1\n      mload\n      dup1\n      dup3\n      add\n      swap1\n      swap2\n      mstore\n      0x05\n      dup2\n      mstore\n      shl(0xdb, 0x09ac2e4c6d)\n      0x20\n      dup3\n      add\n      mstore\n      swap1\n        /* \"NFT_Payments.sol\":14687:15313  function monthToString(uint256 month) internal pure returns (string memory) {... */\n      jump\t// out\n        /* \"NFT_Payments.sol\":14861:14891  if (month == 3) return \"March\" */\n    tag_352:\n        /* \"NFT_Payments.sol\":14906:14911  month */\n      dup2\n        /* \"NFT_Payments.sol\":14915:14916  4 */\n      0x04\n        /* \"NFT_Payments.sol\":14906:14916  month == 4 */\n      sub\n        /* \"NFT_Payments.sol\":14902:14932  if (month == 4) return \"April\" */\n      tag_353\n      jumpi\n      pop\n      pop\n        /* \"NFT_Payments.sol\":14918:14932  return \"April\" */\n      0x40\n      dup1\n      mload\n      dup1\n      dup3\n      add\n      swap1\n      swap2\n      mstore\n      0x05\n      dup2\n      mstore\n      shl(0xda, 0x105c1c9a5b)\n      0x20\n      dup3\n      add\n      mstore\n      swap1\n        /* \"NFT_Payments.sol\":14687:15313  function monthToString(uint256 month) internal pure returns (string memory) {... */\n      jump\t// out\n        /* \"NFT_Payments.sol\":14902:14932  if (month == 4) return \"April\" */\n    tag_353:\n        /* \"NFT_Payments.sol\":14947:14952  month */\n      dup2\n        /* \"NFT_Payments.sol\":14956:14957  5 */\n      0x05\n        /* \"NFT_Payments.sol\":14947:14957  month == 5 */\n      sub\n        /* \"NFT_Payments.sol\":14943:14971  if (month == 5) return \"May\" */\n      tag_354\n      jumpi\n      pop\n      pop\n        /* \"NFT_Payments.sol\":14959:14971  return \"May\" */\n      0x40\n      dup1\n      mload\n      dup1\n      dup3\n      add\n      swap1\n      swap2\n      mstore\n      0x03\n      dup2\n      mstore\n      shl(0xe8, 0x4d6179)\n      0x20\n      dup3\n      add\n      mstore\n      swap1\n        /* \"NFT_Payments.sol\":14687:15313  function monthToString(uint256 month) internal pure returns (string memory) {... */\n      jump\t// out\n        /* \"NFT_Payments.sol\":14943:14971  if (month == 5) return \"May\" */\n    tag_354:\n        /* \"NFT_Payments.sol\":14986:14991  month */\n      dup2\n        /* \"NFT_Payments.sol\":14995:14996  6 */\n      0x06\n        /* \"NFT_Payments.sol\":14986:14996  month == 6 */\n      sub\n        /* \"NFT_Payments.sol\":14982:15011  if (month == 6) return \"June\" */\n      tag_355\n      jumpi\n      pop\n      pop\n        /* \"NFT_Payments.sol\":14998:15011  return \"June\" */\n      0x40\n      dup1\n      mload\n      dup1\n      dup3\n      add\n      swap1\n      swap2\n      mstore\n      0x04\n      dup2\n      mstore\n      shl(0xe0, 0x4a756e65)\n      0x20\n      dup3\n      add\n      mstore\n      swap1\n        /* \"NFT_Payments.sol\":14687:15313  function monthToString(uint256 month) internal pure returns (string memory) {... */\n      jump\t// out\n        /* \"NFT_Payments.sol\":14982:15011  if (month == 6) return \"June\" */\n    tag_355:\n        /* \"NFT_Payments.sol\":15026:15031  month */\n      dup2\n        /* \"NFT_Payments.sol\":15035:15036  7 */\n      0x07\n        /* \"NFT_Payments.sol\":15026:15036  month == 7 */\n      sub\n        /* \"NFT_Payments.sol\":15022:15051  if (month == 7) return \"July\" */\n      tag_356\n      jumpi\n      pop\n      pop\n        /* \"NFT_Payments.sol\":15038:15051  return \"July\" */\n      0x40\n      dup1\n      mload\n      dup1\n      dup3\n      add\n      swap1\n      swap2\n      mstore\n      0x04\n      dup2\n      mstore\n      shl(0xe0, 0x4a756c79)\n      0x20\n      dup3\n      add\n      mstore\n      swap1\n        /* \"NFT_Payments.sol\":14687:15313  function monthToString(uint256 month) internal pure returns (string memory) {... */\n      jump\t// out\n        /* \"NFT_Payments.sol\":15022:15051  if (month == 7) return \"July\" */\n    tag_356:\n        /* \"NFT_Payments.sol\":15066:15071  month */\n      dup2\n        /* \"NFT_Payments.sol\":15075:15076  8 */\n      0x08\n        /* \"NFT_Payments.sol\":15066:15076  month == 8 */\n      sub\n        /* \"NFT_Payments.sol\":15062:15093  if (month == 8) return \"August\" */\n      tag_357\n      jumpi\n      pop\n      pop\n        /* \"NFT_Payments.sol\":15078:15093  return \"August\" */\n      0x40\n      dup1\n      mload\n      dup1\n      dup3\n      add\n      swap1\n      swap2\n      mstore\n      0x06\n      dup2\n      mstore\n      shl(0xd2, 0x105d59dd5cdd)\n      0x20\n      dup3\n      add\n      mstore\n      swap1\n        /* \"NFT_Payments.sol\":14687:15313  function monthToString(uint256 month) internal pure returns (string memory) {... */\n      jump\t// out\n        /* \"NFT_Payments.sol\":15062:15093  if (month == 8) return \"August\" */\n    tag_357:\n        /* \"NFT_Payments.sol\":15108:15113  month */\n      dup2\n        /* \"NFT_Payments.sol\":15117:15118  9 */\n      0x09\n        /* \"NFT_Payments.sol\":15108:15118  month == 9 */\n      sub\n        /* \"NFT_Payments.sol\":15104:15138  if (month == 9) return \"September\" */\n      tag_358\n      jumpi\n      pop\n      pop\n        /* \"NFT_Payments.sol\":15120:15138  return \"September\" */\n      0x40\n      dup1\n      mload\n      dup1\n      dup3\n      add\n      swap1\n      swap2\n      mstore\n      0x09\n      dup2\n      mstore\n      shl(0xb9, 0x29b2b83a32b6b132b9)\n      0x20\n      dup3\n      add\n      mstore\n      swap1\n        /* \"NFT_Payments.sol\":14687:15313  function monthToString(uint256 month) internal pure returns (string memory) {... */\n      jump\t// out\n        /* \"NFT_Payments.sol\":15104:15138  if (month == 9) return \"September\" */\n    tag_358:\n        /* \"NFT_Payments.sol\":15153:15158  month */\n      dup2\n        /* \"NFT_Payments.sol\":15162:15164  10 */\n      0x0a\n        /* \"NFT_Payments.sol\":15153:15164  month == 10 */\n      sub\n        /* \"NFT_Payments.sol\":15149:15182  if (month == 10) return \"October\" */\n      tag_359\n      jumpi\n      pop\n      pop\n        /* \"NFT_Payments.sol\":15166:15182  return \"October\" */\n      0x40\n      dup1\n      mload\n      dup1\n      dup3\n      add\n      swap1\n      swap2\n      mstore\n      0x07\n      dup2\n      mstore\n      shl(0xc9, 0x27b1ba37b132b9)\n      0x20\n      dup3\n      add\n      mstore\n      swap1\n        /* \"NFT_Payments.sol\":14687:15313  function monthToString(uint256 month) internal pure returns (string memory) {... */\n      jump\t// out\n        /* \"NFT_Payments.sol\":15149:15182  if (month == 10) return \"October\" */\n    tag_359:\n        /* \"NFT_Payments.sol\":15197:15202  month */\n      dup2\n        /* \"NFT_Payments.sol\":15206:15208  11 */\n      0x0b\n        /* \"NFT_Payments.sol\":15197:15208  month == 11 */\n      sub\n        /* \"NFT_Payments.sol\":15193:15227  if (month == 11) return \"November\" */\n      tag_360\n      jumpi\n      pop\n      pop\n        /* \"NFT_Payments.sol\":15210:15227  return \"November\" */\n      0x40\n      dup1\n      mload\n      dup1\n      dup3\n      add\n      swap1\n      swap2\n      mstore\n      0x08\n      dup2\n      mstore\n      shl(0xc1, 0x2737bb32b6b132b9)\n      0x20\n      dup3\n      add\n      mstore\n      swap1\n        /* \"NFT_Payments.sol\":14687:15313  function monthToString(uint256 month) internal pure returns (string memory) {... */\n      jump\t// out\n        /* \"NFT_Payments.sol\":15193:15227  if (month == 11) return \"November\" */\n    tag_360:\n        /* \"NFT_Payments.sol\":15242:15247  month */\n      dup2\n        /* \"NFT_Payments.sol\":15251:15253  12 */\n      0x0c\n        /* \"NFT_Payments.sol\":15242:15253  month == 12 */\n      sub\n        /* \"NFT_Payments.sol\":15238:15272  if (month == 12) return \"December\" */\n      tag_361\n      jumpi\n      pop\n      pop\n        /* \"NFT_Payments.sol\":15255:15272  return \"December\" */\n      0x40\n      dup1\n      mload\n      dup1\n      dup3\n      add\n      swap1\n      swap2\n      mstore\n      0x08\n      dup2\n      mstore\n      shl(0xc1, 0x2232b1b2b6b132b9)\n      0x20\n      dup3\n      add\n      mstore\n      swap1\n        /* \"NFT_Payments.sol\":14687:15313  function monthToString(uint256 month) internal pure returns (string memory) {... */\n      jump\t// out\n        /* \"NFT_Payments.sol\":15238:15272  if (month == 12) return \"December\" */\n    tag_361:\n      pop\n      pop\n        /* \"NFT_Payments.sol\":15283:15305  return \"Invalid Month\" */\n      0x40\n      dup1\n      mload\n      dup1\n      dup3\n      add\n      swap1\n      swap2\n      mstore\n      0x0d\n      dup2\n      mstore\n      shl(0x9b, 0x092dcecc2d8d2c8409adedce8d)\n      0x20\n      dup3\n      add\n      mstore\n      swap1\n        /* \"NFT_Payments.sol\":14687:15313  function monthToString(uint256 month) internal pure returns (string memory) {... */\n      jump\t// out\n        /* \"#utility.yul\":222:353   */\n    tag_362:\n      sub(shl(0xa0, 0x01), 0x01)\n        /* \"#utility.yul\":297:328   */\n      dup2\n      and\n        /* \"#utility.yul\":287:329   */\n      dup2\n      eq\n        /* \"#utility.yul\":277:347   */\n      tag_110\n      jumpi\n        /* \"#utility.yul\":343:344   */\n      0x00\n        /* \"#utility.yul\":340:341   */\n      dup1\n        /* \"#utility.yul\":333:345   */\n      revert\n        /* \"#utility.yul\":358:605   */\n    tag_22:\n        /* \"#utility.yul\":417:423   */\n      0x00\n        /* \"#utility.yul\":470:472   */\n      0x20\n        /* \"#utility.yul\":458:467   */\n      dup3\n        /* \"#utility.yul\":449:456   */\n      dup5\n        /* \"#utility.yul\":445:468   */\n      sub\n        /* \"#utility.yul\":441:473   */\n      slt\n        /* \"#utility.yul\":438:490   */\n      iszero\n      tag_372\n      jumpi\n        /* \"#utility.yul\":486:487   */\n      0x00\n        /* \"#utility.yul\":483:484   */\n      dup1\n        /* \"#utility.yul\":476:488   */\n      revert\n        /* \"#utility.yul\":438:490   */\n    tag_372:\n        /* \"#utility.yul\":525:534   */\n      dup2\n        /* \"#utility.yul\":512:535   */\n      calldataload\n        /* \"#utility.yul\":544:575   */\n      tag_373\n        /* \"#utility.yul\":569:574   */\n      dup2\n        /* \"#utility.yul\":544:575   */\n      tag_362\n      jump\t// in\n    tag_373:\n        /* \"#utility.yul\":594:599   */\n      swap4\n        /* \"#utility.yul\":358:605   */\n      swap3\n      pop\n      pop\n      pop\n      jump\t// out\n        /* \"#utility.yul\":792:1018   */\n    tag_28:\n        /* \"#utility.yul\":851:857   */\n      0x00\n        /* \"#utility.yul\":904:906   */\n      0x20\n        /* \"#utility.yul\":892:901   */\n      dup3\n        /* \"#utility.yul\":883:890   */\n      dup5\n        /* \"#utility.yul\":879:902   */\n      sub\n        /* \"#utility.yul\":875:907   */\n      slt\n        /* \"#utility.yul\":872:924   */\n      iszero\n      tag_376\n      jumpi\n        /* \"#utility.yul\":920:921   */\n      0x00\n        /* \"#utility.yul\":917:918   */\n      dup1\n        /* \"#utility.yul\":910:922   */\n      revert\n        /* \"#utility.yul\":872:924   */\n    tag_376:\n      pop\n        /* \"#utility.yul\":965:988   */\n      calldataload\n      swap2\n        /* \"#utility.yul\":792:1018   */\n      swap1\n      pop\n      jump\t// out\n        /* \"#utility.yul\":1023:1390   */\n    tag_45:\n        /* \"#utility.yul\":1091:1097   */\n      0x00\n        /* \"#utility.yul\":1099:1105   */\n      dup1\n        /* \"#utility.yul\":1152:1154   */\n      0x40\n        /* \"#utility.yul\":1140:1149   */\n      dup4\n        /* \"#utility.yul\":1131:1138   */\n      dup6\n        /* \"#utility.yul\":1127:1150   */\n      sub\n        /* \"#utility.yul\":1123:1155   */\n      slt\n        /* \"#utility.yul\":1120:1172   */\n      iszero\n      tag_378\n      jumpi\n        /* \"#utility.yul\":1168:1169   */\n      0x00\n        /* \"#utility.yul\":1165:1166   */\n      dup1\n        /* \"#utility.yul\":1158:1170   */\n      revert\n        /* \"#utility.yul\":1120:1172   */\n    tag_378:\n        /* \"#utility.yul\":1213:1236   */\n      dup3\n      calldataload\n      swap2\n      pop\n        /* \"#utility.yul\":1312:1314   */\n      0x20\n        /* \"#utility.yul\":1297:1315   */\n      dup4\n      add\n        /* \"#utility.yul\":1284:1316   */\n      calldataload\n        /* \"#utility.yul\":1325:1358   */\n      tag_379\n        /* \"#utility.yul\":1284:1316   */\n      dup2\n        /* \"#utility.yul\":1325:1358   */\n      tag_362\n      jump\t// in\n    tag_379:\n        /* \"#utility.yul\":1377:1384   */\n      dup1\n        /* \"#utility.yul\":1367:1384   */\n      swap2\n      pop\n      pop\n        /* \"#utility.yul\":1023:1390   */\n      swap3\n      pop\n      swap3\n      swap1\n      pop\n      jump\t// out\n        /* \"#utility.yul\":1395:2337   */\n    tag_50:\n        /* \"#utility.yul\":1493:1499   */\n      0x00\n        /* \"#utility.yul\":1501:1507   */\n      dup1\n        /* \"#utility.yul\":1509:1515   */\n      0x00\n        /* \"#utility.yul\":1517:1523   */\n      dup1\n        /* \"#utility.yul\":1525:1531   */\n      0x00\n        /* \"#utility.yul\":1578:1581   */\n      0x80\n        /* \"#utility.yul\":1566:1575   */\n      dup7\n        /* \"#utility.yul\":1557:1564   */\n      dup9\n        /* \"#utility.yul\":1553:1576   */\n      sub\n        /* \"#utility.yul\":1549:1582   */\n      slt\n        /* \"#utility.yul\":1546:1599   */\n      iszero\n      tag_381\n      jumpi\n        /* \"#utility.yul\":1595:1596   */\n      0x00\n        /* \"#utility.yul\":1592:1593   */\n      dup1\n        /* \"#utility.yul\":1585:1597   */\n      revert\n        /* \"#utility.yul\":1546:1599   */\n    tag_381:\n        /* \"#utility.yul\":1640:1663   */\n      dup6\n      calldataload\n      swap5\n      pop\n        /* \"#utility.yul\":1760:1762   */\n      0x20\n        /* \"#utility.yul\":1745:1763   */\n      dup7\n      add\n        /* \"#utility.yul\":1732:1764   */\n      calldataload\n      swap4\n      pop\n        /* \"#utility.yul\":1841:1843   */\n      0x40\n        /* \"#utility.yul\":1826:1844   */\n      dup7\n      add\n        /* \"#utility.yul\":1813:1845   */\n      calldataload\n        /* \"#utility.yul\":1868:1886   */\n      0xffffffffffffffff\n        /* \"#utility.yul\":1857:1887   */\n      dup2\n      gt\n        /* \"#utility.yul\":1854:1904   */\n      iszero\n      tag_382\n      jumpi\n        /* \"#utility.yul\":1900:1901   */\n      0x00\n        /* \"#utility.yul\":1897:1898   */\n      dup1\n        /* \"#utility.yul\":1890:1902   */\n      revert\n        /* \"#utility.yul\":1854:1904   */\n    tag_382:\n        /* \"#utility.yul\":1923:1945   */\n      dup7\n      add\n        /* \"#utility.yul\":1976:1980   */\n      0x1f\n        /* \"#utility.yul\":1968:1981   */\n      dup2\n      add\n        /* \"#utility.yul\":1964:1991   */\n      dup9\n      sgt\n        /* \"#utility.yul\":1954:2009   */\n      tag_383\n      jumpi\n        /* \"#utility.yul\":2005:2006   */\n      0x00\n        /* \"#utility.yul\":2002:2003   */\n      dup1\n        /* \"#utility.yul\":1995:2007   */\n      revert\n        /* \"#utility.yul\":1954:2009   */\n    tag_383:\n        /* \"#utility.yul\":2045:2047   */\n      dup1\n        /* \"#utility.yul\":2032:2048   */\n      calldataload\n        /* \"#utility.yul\":2071:2089   */\n      0xffffffffffffffff\n        /* \"#utility.yul\":2063:2069   */\n      dup2\n        /* \"#utility.yul\":2060:2090   */\n      gt\n        /* \"#utility.yul\":2057:2107   */\n      iszero\n      tag_384\n      jumpi\n        /* \"#utility.yul\":2103:2104   */\n      0x00\n        /* \"#utility.yul\":2100:2101   */\n      dup1\n        /* \"#utility.yul\":2093:2105   */\n      revert\n        /* \"#utility.yul\":2057:2107   */\n    tag_384:\n        /* \"#utility.yul\":2148:2155   */\n      dup9\n        /* \"#utility.yul\":2143:2145   */\n      0x20\n        /* \"#utility.yul\":2134:2140   */\n      dup3\n        /* \"#utility.yul\":2130:2132   */\n      dup5\n        /* \"#utility.yul\":2126:2141   */\n      add\n        /* \"#utility.yul\":2122:2146   */\n      add\n        /* \"#utility.yul\":2119:2156   */\n      gt\n        /* \"#utility.yul\":2116:2173   */\n      iszero\n      tag_385\n      jumpi\n        /* \"#utility.yul\":2169:2170   */\n      0x00\n        /* \"#utility.yul\":2166:2167   */\n      dup1\n        /* \"#utility.yul\":2159:2171   */\n      revert\n        /* \"#utility.yul\":2116:2173   */\n    tag_385:\n        /* \"#utility.yul\":1395:2337   */\n      swap6\n      swap9\n      swap5\n      swap8\n      pop\n        /* \"#utility.yul\":2200:2202   */\n      0x20\n        /* \"#utility.yul\":2192:2203   */\n      add\n      swap6\n        /* \"#utility.yul\":2301:2303   */\n      0x60\n        /* \"#utility.yul\":2286:2304   */\n      add\n        /* \"#utility.yul\":2273:2305   */\n      calldataload\n      swap4\n        /* \"#utility.yul\":1395:2337   */\n      swap3\n      pop\n      pop\n      pop\n      jump\t// out\n        /* \"#utility.yul\":3659:4812   */\n    tag_63:\n        /* \"#utility.yul\":4007:4011   */\n      0x00\n        /* \"#utility.yul\":4049:4052   */\n      0x0200\n        /* \"#utility.yul\":4038:4047   */\n      dup3\n        /* \"#utility.yul\":4034:4053   */\n      add\n        /* \"#utility.yul\":4026:4053   */\n      swap1\n      pop\n        /* \"#utility.yul\":4109:4110   */\n      0x01\n        /* \"#utility.yul\":4105:4106   */\n      dup1\n        /* \"#utility.yul\":4100:4103   */\n      0xa0\n        /* \"#utility.yul\":4096:4107   */\n      shl\n        /* \"#utility.yul\":4092:4111   */\n      sub\n        /* \"#utility.yul\":4084:4090   */\n      dup7\n        /* \"#utility.yul\":4080:4112   */\n      and\n        /* \"#utility.yul\":4069:4078   */\n      dup3\n        /* \"#utility.yul\":4062:4113   */\n      mstore\n        /* \"#utility.yul\":4185:4186   */\n      0x01\n        /* \"#utility.yul\":4181:4182   */\n      dup1\n        /* \"#utility.yul\":4176:4179   */\n      0xa0\n        /* \"#utility.yul\":4172:4183   */\n      shl\n        /* \"#utility.yul\":4168:4187   */\n      sub\n        /* \"#utility.yul\":4159:4165   */\n      dup6\n        /* \"#utility.yul\":4153:4166   */\n      mload\n        /* \"#utility.yul\":4149:4188   */\n      and\n        /* \"#utility.yul\":4144:4146   */\n      0x20\n        /* \"#utility.yul\":4133:4142   */\n      dup4\n        /* \"#utility.yul\":4129:4147   */\n      add\n        /* \"#utility.yul\":4122:4189   */\n      mstore\n        /* \"#utility.yul\":4243:4245   */\n      0x20\n        /* \"#utility.yul\":4235:4241   */\n      dup6\n        /* \"#utility.yul\":4231:4246   */\n      add\n        /* \"#utility.yul\":4225:4247   */\n      mload\n        /* \"#utility.yul\":4220:4222   */\n      0x40\n        /* \"#utility.yul\":4209:4218   */\n      dup4\n        /* \"#utility.yul\":4205:4223   */\n      add\n        /* \"#utility.yul\":4198:4248   */\n      mstore\n        /* \"#utility.yul\":4316:4318   */\n      0x40\n        /* \"#utility.yul\":4308:4314   */\n      dup6\n        /* \"#utility.yul\":4304:4319   */\n      add\n        /* \"#utility.yul\":4298:4320   */\n      mload\n        /* \"#utility.yul\":4291:4321   */\n      iszero\n        /* \"#utility.yul\":4284:4322   */\n      iszero\n        /* \"#utility.yul\":4279:4281   */\n      0x60\n        /* \"#utility.yul\":4268:4277   */\n      dup4\n        /* \"#utility.yul\":4264:4282   */\n      add\n        /* \"#utility.yul\":4257:4323   */\n      mstore\n        /* \"#utility.yul\":4366:4372   */\n      dup4\n        /* \"#utility.yul\":4360:4373   */\n      mload\n        /* \"#utility.yul\":4354:4357   */\n      0x80\n        /* \"#utility.yul\":4343:4352   */\n      dup4\n        /* \"#utility.yul\":4339:4358   */\n      add\n        /* \"#utility.yul\":4332:4374   */\n      mstore\n        /* \"#utility.yul\":4429:4431   */\n      0x20\n        /* \"#utility.yul\":4421:4427   */\n      dup5\n        /* \"#utility.yul\":4417:4432   */\n      add\n        /* \"#utility.yul\":4411:4433   */\n      mload\n        /* \"#utility.yul\":4405:4408   */\n      0xa0\n        /* \"#utility.yul\":4394:4403   */\n      dup4\n        /* \"#utility.yul\":4390:4409   */\n      add\n        /* \"#utility.yul\":4383:4434   */\n      mstore\n        /* \"#utility.yul\":4489:4491   */\n      0x40\n        /* \"#utility.yul\":4481:4487   */\n      dup5\n        /* \"#utility.yul\":4477:4492   */\n      add\n        /* \"#utility.yul\":4471:4493   */\n      mload\n        /* \"#utility.yul\":4465:4468   */\n      0xc0\n        /* \"#utility.yul\":4454:4463   */\n      dup4\n        /* \"#utility.yul\":4450:4469   */\n      add\n        /* \"#utility.yul\":4443:4494   */\n      mstore\n        /* \"#utility.yul\":4549:4551   */\n      0x60\n        /* \"#utility.yul\":4541:4547   */\n      dup5\n        /* \"#utility.yul\":4537:4552   */\n      add\n        /* \"#utility.yul\":4531:4553   */\n      mload\n        /* \"#utility.yul\":4525:4528   */\n      0xe0\n        /* \"#utility.yul\":4514:4523   */\n      dup4\n        /* \"#utility.yul\":4510:4529   */\n      add\n        /* \"#utility.yul\":4503:4554   */\n      mstore\n        /* \"#utility.yul\":4609:4612   */\n      0x80\n        /* \"#utility.yul\":4601:4607   */\n      dup5\n        /* \"#utility.yul\":4597:4613   */\n      add\n        /* \"#utility.yul\":4591:4614   */\n      mload\n        /* \"#utility.yul\":4585:4588   */\n      0x0100\n        /* \"#utility.yul\":4574:4583   */\n      dup4\n        /* \"#utility.yul\":4570:4589   */\n      add\n        /* \"#utility.yul\":4563:4615   */\n      mstore\n        /* \"#utility.yul\":4670:4673   */\n      0xa0\n        /* \"#utility.yul\":4662:4668   */\n      dup5\n        /* \"#utility.yul\":4658:4674   */\n      add\n        /* \"#utility.yul\":4652:4675   */\n      mload\n        /* \"#utility.yul\":4646:4649   */\n      0x0120\n        /* \"#utility.yul\":4635:4644   */\n      dup4\n        /* \"#utility.yul\":4631:4650   */\n      add\n        /* \"#utility.yul\":4624:4676   */\n      mstore\n        /* \"#utility.yul\":4731:4734   */\n      0xc0\n        /* \"#utility.yul\":4723:4729   */\n      dup5\n        /* \"#utility.yul\":4719:4735   */\n      add\n        /* \"#utility.yul\":4713:4736   */\n      mload\n        /* \"#utility.yul\":4707:4710   */\n      0x0140\n        /* \"#utility.yul\":4696:4705   */\n      dup4\n        /* \"#utility.yul\":4692:4711   */\n      add\n        /* \"#utility.yul\":4685:4737   */\n      mstore\n        /* \"#utility.yul\":4746:4806   */\n      tag_294\n        /* \"#utility.yul\":4801:4804   */\n      0x0160\n        /* \"#utility.yul\":4790:4799   */\n      dup4\n        /* \"#utility.yul\":4786:4805   */\n      add\n        /* \"#utility.yul\":4778:4784   */\n      dup5\n        /* \"#utility.yul\":3401:3406   */\n      dup1\n        /* \"#utility.yul\":3395:3407   */\n      mload\n        /* \"#utility.yul\":3390:3393   */\n      dup3\n        /* \"#utility.yul\":3383:3408   */\n      mstore\n        /* \"#utility.yul\":3457:3461   */\n      0x20\n        /* \"#utility.yul\":3450:3455   */\n      dup2\n        /* \"#utility.yul\":3446:3462   */\n      add\n        /* \"#utility.yul\":3440:3463   */\n      mload\n        /* \"#utility.yul\":3433:3437   */\n      0x20\n        /* \"#utility.yul\":3428:3431   */\n      dup4\n        /* \"#utility.yul\":3424:3438   */\n      add\n        /* \"#utility.yul\":3417:3464   */\n      mstore\n        /* \"#utility.yul\":3513:3517   */\n      0x40\n        /* \"#utility.yul\":3506:3511   */\n      dup2\n        /* \"#utility.yul\":3502:3518   */\n      add\n        /* \"#utility.yul\":3496:3519   */\n      mload\n        /* \"#utility.yul\":3489:3493   */\n      0x40\n        /* \"#utility.yul\":3484:3487   */\n      dup4\n        /* \"#utility.yul\":3480:3494   */\n      add\n        /* \"#utility.yul\":3473:3520   */\n      mstore\n        /* \"#utility.yul\":3583:3587   */\n      0x60\n        /* \"#utility.yul\":3576:3581   */\n      dup2\n        /* \"#utility.yul\":3572:3588   */\n      add\n        /* \"#utility.yul\":3566:3589   */\n      mload\n        /* \"#utility.yul\":3559:3590   */\n      iszero\n        /* \"#utility.yul\":3552:3591   */\n      iszero\n        /* \"#utility.yul\":3545:3549   */\n      0x60\n        /* \"#utility.yul\":3540:3543   */\n      dup4\n        /* \"#utility.yul\":3536:3550   */\n      add\n        /* \"#utility.yul\":3529:3592   */\n      mstore\n        /* \"#utility.yul\":3641:3645   */\n      0x80\n        /* \"#utility.yul\":3634:3639   */\n      dup2\n        /* \"#utility.yul\":3630:3646   */\n      add\n        /* \"#utility.yul\":3624:3647   */\n      mload\n        /* \"#utility.yul\":3617:3621   */\n      0x80\n        /* \"#utility.yul\":3612:3615   */\n      dup4\n        /* \"#utility.yul\":3608:3622   */\n      add\n        /* \"#utility.yul\":3601:3648   */\n      mstore\n      pop\n      pop\n        /* \"#utility.yul\":3316:3654   */\n      jump\n        /* \"#utility.yul\":4817:5809   */\n    tag_67:\n        /* \"#utility.yul\":4930:4936   */\n      0x00\n        /* \"#utility.yul\":4938:4944   */\n      dup1\n        /* \"#utility.yul\":4946:4952   */\n      0x00\n        /* \"#utility.yul\":4954:4960   */\n      dup1\n        /* \"#utility.yul\":4962:4968   */\n      0x00\n        /* \"#utility.yul\":4970:4976   */\n      dup1\n        /* \"#utility.yul\":4978:4984   */\n      0x00\n        /* \"#utility.yul\":5031:5034   */\n      0xe0\n        /* \"#utility.yul\":5019:5028   */\n      dup9\n        /* \"#utility.yul\":5010:5017   */\n      dup11\n        /* \"#utility.yul\":5006:5029   */\n      sub\n        /* \"#utility.yul\":5002:5035   */\n      slt\n        /* \"#utility.yul\":4999:5052   */\n      iszero\n      tag_391\n      jumpi\n        /* \"#utility.yul\":5048:5049   */\n      0x00\n        /* \"#utility.yul\":5045:5046   */\n      dup1\n        /* \"#utility.yul\":5038:5050   */\n      revert\n        /* \"#utility.yul\":4999:5052   */\n    tag_391:\n        /* \"#utility.yul\":5087:5096   */\n      dup8\n        /* \"#utility.yul\":5074:5097   */\n      calldataload\n        /* \"#utility.yul\":5106:5137   */\n      tag_392\n        /* \"#utility.yul\":5131:5136   */\n      dup2\n        /* \"#utility.yul\":5106:5137   */\n      tag_362\n      jump\t// in\n    tag_392:\n        /* \"#utility.yul\":5156:5161   */\n      swap7\n      pop\n        /* \"#utility.yul\":5213:5215   */\n      0x20\n        /* \"#utility.yul\":5198:5216   */\n      dup9\n      add\n        /* \"#utility.yul\":5185:5217   */\n      calldataload\n        /* \"#utility.yul\":5226:5259   */\n      tag_393\n        /* \"#utility.yul\":5185:5217   */\n      dup2\n        /* \"#utility.yul\":5226:5259   */\n      tag_362\n      jump\t// in\n    tag_393:\n        /* \"#utility.yul\":4817:5809   */\n      swap7\n      swap10\n        /* \"#utility.yul\":5278:5285   */\n      swap7\n      swap9\n      pop\n      pop\n      pop\n      pop\n        /* \"#utility.yul\":5358:5360   */\n      0x40\n        /* \"#utility.yul\":5343:5361   */\n      dup6\n      add\n        /* \"#utility.yul\":5330:5362   */\n      calldataload\n      swap5\n        /* \"#utility.yul\":5461:5463   */\n      0x60\n        /* \"#utility.yul\":5446:5464   */\n      dup2\n      add\n        /* \"#utility.yul\":5433:5465   */\n      calldataload\n      swap5\n        /* \"#utility.yul\":5564:5567   */\n      0x80\n        /* \"#utility.yul\":5549:5568   */\n      dup3\n      add\n        /* \"#utility.yul\":5536:5569   */\n      calldataload\n      swap5\n      pop\n        /* \"#utility.yul\":5668:5671   */\n      0xa0\n        /* \"#utility.yul\":5653:5672   */\n      dup3\n      add\n        /* \"#utility.yul\":5640:5673   */\n      calldataload\n      swap4\n      pop\n        /* \"#utility.yul\":5772:5775   */\n      0xc0\n        /* \"#utility.yul\":5757:5776   */\n      swap1\n      swap2\n      add\n        /* \"#utility.yul\":5744:5777   */\n      calldataload\n      swap2\n      pop\n        /* \"#utility.yul\":4817:5809   */\n      jump\t// out\n        /* \"#utility.yul\":5814:6153   */\n    tag_77:\n        /* \"#utility.yul\":6016:6018   */\n      0x20\n        /* \"#utility.yul\":5998:6019   */\n      dup1\n      dup3\n      mstore\n        /* \"#utility.yul\":6055:6057   */\n      0x0f\n        /* \"#utility.yul\":6035:6053   */\n      swap1\n      dup3\n      add\n        /* \"#utility.yul\":6028:6058   */\n      mstore\n      shl(0x8a, 0x125b9d985b1a59081c1b185b881251)\n        /* \"#utility.yul\":6089:6091   */\n      0x40\n        /* \"#utility.yul\":6074:6092   */\n      dup3\n      add\n        /* \"#utility.yul\":6067:6112   */\n      mstore\n        /* \"#utility.yul\":6144:6146   */\n      0x60\n        /* \"#utility.yul\":6129:6147   */\n      add\n      swap1\n        /* \"#utility.yul\":5814:6153   */\n      jump\t// out\n        /* \"#utility.yul\":7224:7351   */\n    tag_364:\n        /* \"#utility.yul\":7285:7295   */\n      0x4e487b71\n        /* \"#utility.yul\":7280:7283   */\n      0xe0\n        /* \"#utility.yul\":7276:7296   */\n      shl\n        /* \"#utility.yul\":7273:7274   */\n      0x00\n        /* \"#utility.yul\":7266:7297   */\n      mstore\n        /* \"#utility.yul\":7316:7320   */\n      0x11\n        /* \"#utility.yul\":7313:7314   */\n      0x04\n        /* \"#utility.yul\":7306:7321   */\n      mstore\n        /* \"#utility.yul\":7340:7344   */\n      0x24\n        /* \"#utility.yul\":7337:7338   */\n      0x00\n        /* \"#utility.yul\":7330:7345   */\n      revert\n        /* \"#utility.yul\":7356:7491   */\n    tag_89:\n        /* \"#utility.yul\":7395:7398   */\n      0x00\n        /* \"#utility.yul\":7416:7433   */\n      0x01\n      dup3\n      add\n        /* \"#utility.yul\":7413:7456   */\n      tag_401\n      jumpi\n        /* \"#utility.yul\":7436:7454   */\n      tag_401\n      tag_364\n      jump\t// in\n    tag_401:\n      pop\n        /* \"#utility.yul\":7483:7484   */\n      0x01\n        /* \"#utility.yul\":7472:7485   */\n      add\n      swap1\n        /* \"#utility.yul\":7356:7491   */\n      jump\t// out\n        /* \"#utility.yul\":7496:7664   */\n    tag_91:\n        /* \"#utility.yul\":7569:7578   */\n      dup1\n      dup3\n      mul\n        /* \"#utility.yul\":7600:7609   */\n      dup2\n      iszero\n        /* \"#utility.yul\":7617:7632   */\n      dup3\n      dup3\n      div\n        /* \"#utility.yul\":7611:7633   */\n      dup5\n      eq\n        /* \"#utility.yul\":7597:7634   */\n      or\n        /* \"#utility.yul\":7587:7658   */\n      tag_404\n      jumpi\n        /* \"#utility.yul\":7638:7656   */\n      tag_404\n      tag_364\n      jump\t// in\n    tag_404:\n        /* \"#utility.yul\":7496:7664   */\n      swap3\n      swap2\n      pop\n      pop\n      jump\t// out\n        /* \"#utility.yul\":7669:7796   */\n    tag_365:\n        /* \"#utility.yul\":7730:7740   */\n      0x4e487b71\n        /* \"#utility.yul\":7725:7728   */\n      0xe0\n        /* \"#utility.yul\":7721:7741   */\n      shl\n        /* \"#utility.yul\":7718:7719   */\n      0x00\n        /* \"#utility.yul\":7711:7742   */\n      mstore\n        /* \"#utility.yul\":7761:7765   */\n      0x12\n        /* \"#utility.yul\":7758:7759   */\n      0x04\n        /* \"#utility.yul\":7751:7766   */\n      mstore\n        /* \"#utility.yul\":7785:7789   */\n      0x24\n        /* \"#utility.yul\":7782:7783   */\n      0x00\n        /* \"#utility.yul\":7775:7790   */\n      revert\n        /* \"#utility.yul\":7801:7921   */\n    tag_93:\n        /* \"#utility.yul\":7841:7842   */\n      0x00\n        /* \"#utility.yul\":7867:7868   */\n      dup3\n        /* \"#utility.yul\":7857:7892   */\n      tag_408\n      jumpi\n        /* \"#utility.yul\":7872:7890   */\n      tag_408\n      tag_365\n      jump\t// in\n    tag_408:\n      pop\n        /* \"#utility.yul\":7906:7915   */\n      div\n      swap1\n        /* \"#utility.yul\":7801:7921   */\n      jump\t// out\n        /* \"#utility.yul\":7926:8051   */\n    tag_95:\n        /* \"#utility.yul\":7991:8000   */\n      dup1\n      dup3\n      add\n        /* \"#utility.yul\":8012:8022   */\n      dup1\n      dup3\n      gt\n        /* \"#utility.yul\":8009:8045   */\n      iszero\n      tag_404\n      jumpi\n        /* \"#utility.yul\":8025:8043   */\n      tag_404\n      tag_364\n      jump\t// in\n        /* \"#utility.yul\":8056:8184   */\n    tag_98:\n        /* \"#utility.yul\":8123:8132   */\n      dup2\n      dup2\n      sub\n        /* \"#utility.yul\":8144:8155   */\n      dup2\n      dup2\n      gt\n        /* \"#utility.yul\":8141:8178   */\n      iszero\n      tag_404\n      jumpi\n        /* \"#utility.yul\":8158:8176   */\n      tag_404\n      tag_364\n      jump\t// in\n        /* \"#utility.yul\":10372:10623   */\n    tag_136:\n        /* \"#utility.yul\":10442:10448   */\n      0x00\n        /* \"#utility.yul\":10495:10497   */\n      0x20\n        /* \"#utility.yul\":10483:10492   */\n      dup3\n        /* \"#utility.yul\":10474:10481   */\n      dup5\n        /* \"#utility.yul\":10470:10493   */\n      sub\n        /* \"#utility.yul\":10466:10498   */\n      slt\n        /* \"#utility.yul\":10463:10515   */\n      iszero\n      tag_422\n      jumpi\n        /* \"#utility.yul\":10511:10512   */\n      0x00\n        /* \"#utility.yul\":10508:10509   */\n      dup1\n        /* \"#utility.yul\":10501:10513   */\n      revert\n        /* \"#utility.yul\":10463:10515   */\n    tag_422:\n        /* \"#utility.yul\":10543:10552   */\n      dup2\n        /* \"#utility.yul\":10537:10553   */\n      mload\n        /* \"#utility.yul\":10562:10593   */\n      tag_373\n        /* \"#utility.yul\":10587:10592   */\n      dup2\n        /* \"#utility.yul\":10562:10593   */\n      tag_362\n      jump\t// in\n        /* \"#utility.yul\":11289:11566   */\n    tag_145:\n        /* \"#utility.yul\":11356:11362   */\n      0x00\n        /* \"#utility.yul\":11409:11411   */\n      0x20\n        /* \"#utility.yul\":11397:11406   */\n      dup3\n        /* \"#utility.yul\":11388:11395   */\n      dup5\n        /* \"#utility.yul\":11384:11407   */\n      sub\n        /* \"#utility.yul\":11380:11412   */\n      slt\n        /* \"#utility.yul\":11377:11429   */\n      iszero\n      tag_427\n      jumpi\n        /* \"#utility.yul\":11425:11426   */\n      0x00\n        /* \"#utility.yul\":11422:11423   */\n      dup1\n        /* \"#utility.yul\":11415:11427   */\n      revert\n        /* \"#utility.yul\":11377:11429   */\n    tag_427:\n        /* \"#utility.yul\":11457:11466   */\n      dup2\n        /* \"#utility.yul\":11451:11467   */\n      mload\n        /* \"#utility.yul\":11510:11515   */\n      dup1\n        /* \"#utility.yul\":11503:11516   */\n      iszero\n        /* \"#utility.yul\":11496:11517   */\n      iszero\n        /* \"#utility.yul\":11489:11494   */\n      dup2\n        /* \"#utility.yul\":11486:11518   */\n      eq\n        /* \"#utility.yul\":11476:11536   */\n      tag_373\n      jumpi\n        /* \"#utility.yul\":11532:11533   */\n      0x00\n        /* \"#utility.yul\":11529:11530   */\n      dup1\n        /* \"#utility.yul\":11522:11534   */\n      revert\n        /* \"#utility.yul\":12749:13148   */\n    tag_167:\n        /* \"#utility.yul\":12951:12953   */\n      0x20\n        /* \"#utility.yul\":12933:12954   */\n      dup1\n      dup3\n      mstore\n        /* \"#utility.yul\":12990:12992   */\n      0x23\n        /* \"#utility.yul\":12970:12988   */\n      swap1\n      dup3\n      add\n        /* \"#utility.yul\":12963:12993   */\n      mstore\n        /* \"#utility.yul\":13029:13063   */\n      0x4f6e6c792073656c6c65722063616e20706572666f726d207468697320616374\n        /* \"#utility.yul\":13024:13026   */\n      0x40\n        /* \"#utility.yul\":13009:13027   */\n      dup3\n      add\n        /* \"#utility.yul\":13002:13064   */\n      mstore\n      shl(0xe9, 0x34b7b7)\n        /* \"#utility.yul\":13095:13097   */\n      0x60\n        /* \"#utility.yul\":13080:13098   */\n      dup3\n      add\n        /* \"#utility.yul\":13073:13106   */\n      mstore\n        /* \"#utility.yul\":13138:13141   */\n      0x80\n        /* \"#utility.yul\":13123:13142   */\n      add\n      swap1\n        /* \"#utility.yul\":12749:13148   */\n      jump\t// out\n        /* \"#utility.yul\":14206:14479   */\n    tag_190:\n        /* \"#utility.yul\":14391:14397   */\n      dup2\n        /* \"#utility.yul\":14383:14389   */\n      dup4\n        /* \"#utility.yul\":14378:14381   */\n      dup3\n        /* \"#utility.yul\":14365:14398   */\n      calldatacopy\n        /* \"#utility.yul\":14347:14350   */\n      0x00\n        /* \"#utility.yul\":14417:14433   */\n      swap2\n      add\n        /* \"#utility.yul\":14442:14455   */\n      swap1\n      dup2\n      mstore\n        /* \"#utility.yul\":14417:14433   */\n      swap2\n        /* \"#utility.yul\":14206:14479   */\n      swap1\n      pop\n      jump\t// out\n        /* \"#utility.yul\":15192:15972   */\n    tag_202:\n        /* \"#utility.yul\":15481:15487   */\n      dup7\n        /* \"#utility.yul\":15470:15479   */\n      dup2\n        /* \"#utility.yul\":15463:15488   */\n      mstore\n        /* \"#utility.yul\":15524:15530   */\n      dup6\n        /* \"#utility.yul\":15519:15521   */\n      0x20\n        /* \"#utility.yul\":15508:15517   */\n      dup3\n        /* \"#utility.yul\":15504:15522   */\n      add\n        /* \"#utility.yul\":15497:15531   */\n      mstore\n        /* \"#utility.yul\":15567:15573   */\n      dup5\n        /* \"#utility.yul\":15562:15564   */\n      0x40\n        /* \"#utility.yul\":15551:15560   */\n      dup3\n        /* \"#utility.yul\":15547:15565   */\n      add\n        /* \"#utility.yul\":15540:15574   */\n      mstore\n        /* \"#utility.yul\":15610:15616   */\n      dup4\n        /* \"#utility.yul\":15605:15607   */\n      0x60\n        /* \"#utility.yul\":15594:15603   */\n      dup3\n        /* \"#utility.yul\":15590:15608   */\n      add\n        /* \"#utility.yul\":15583:15617   */\n      mstore\n        /* \"#utility.yul\":15654:15660   */\n      dup3\n        /* \"#utility.yul\":15648:15651   */\n      0x80\n        /* \"#utility.yul\":15637:15646   */\n      dup3\n        /* \"#utility.yul\":15633:15652   */\n      add\n        /* \"#utility.yul\":15626:15661   */\n      mstore\n        /* \"#utility.yul\":15698:15701   */\n      0xc0\n        /* \"#utility.yul\":15692:15695   */\n      0xa0\n        /* \"#utility.yul\":15681:15690   */\n      dup3\n        /* \"#utility.yul\":15677:15696   */\n      add\n        /* \"#utility.yul\":15670:15702   */\n      mstore\n        /* \"#utility.yul\":15444:15448   */\n      0x00\n        /* \"#utility.yul\":15731:15737   */\n      dup3\n        /* \"#utility.yul\":15725:15738   */\n      mload\n        /* \"#utility.yul\":15775:15781   */\n      dup1\n        /* \"#utility.yul\":15769:15772   */\n      0xc0\n        /* \"#utility.yul\":15758:15767   */\n      dup5\n        /* \"#utility.yul\":15754:15773   */\n      add\n        /* \"#utility.yul\":15747:15782   */\n      mstore\n        /* \"#utility.yul\":15835:15841   */\n      dup1\n        /* \"#utility.yul\":15830:15832   */\n      0x20\n        /* \"#utility.yul\":15822:15828   */\n      dup6\n        /* \"#utility.yul\":15818:15833   */\n      add\n        /* \"#utility.yul\":15812:15815   */\n      0xe0\n        /* \"#utility.yul\":15801:15810   */\n      dup6\n        /* \"#utility.yul\":15797:15816   */\n      add\n        /* \"#utility.yul\":15791:15842   */\n      mcopy\n        /* \"#utility.yul\":15892:15893   */\n      0x00\n        /* \"#utility.yul\":15886:15889   */\n      0xe0\n        /* \"#utility.yul\":15877:15883   */\n      dup3\n        /* \"#utility.yul\":15866:15875   */\n      dup6\n        /* \"#utility.yul\":15862:15884   */\n      add\n        /* \"#utility.yul\":15858:15890   */\n      add\n        /* \"#utility.yul\":15851:15894   */\n      mstore\n        /* \"#utility.yul\":15962:15965   */\n      0xe0\n        /* \"#utility.yul\":15955:15957   */\n      0x1f\n        /* \"#utility.yul\":15951:15958   */\n      not\n        /* \"#utility.yul\":15946:15948   */\n      0x1f\n        /* \"#utility.yul\":15938:15944   */\n      dup4\n        /* \"#utility.yul\":15934:15949   */\n      add\n        /* \"#utility.yul\":15930:15959   */\n      and\n        /* \"#utility.yul\":15919:15928   */\n      dup5\n        /* \"#utility.yul\":15915:15960   */\n      add\n        /* \"#utility.yul\":15911:15966   */\n      add\n        /* \"#utility.yul\":15903:15966   */\n      swap2\n      pop\n      pop\n        /* \"#utility.yul\":15192:15972   */\n      swap8\n      swap7\n      pop\n      pop\n      pop\n      pop\n      pop\n      pop\n      pop\n      jump\t// out\n        /* \"#utility.yul\":18729:18865   */\n    tag_239:\n        /* \"#utility.yul\":18768:18771   */\n      0x00\n        /* \"#utility.yul\":18796:18801   */\n      dup2\n        /* \"#utility.yul\":18786:18825   */\n      tag_449\n      jumpi\n        /* \"#utility.yul\":18805:18823   */\n      tag_449\n      tag_364\n      jump\t// in\n    tag_449:\n      pop\n      not(0x00)\n        /* \"#utility.yul\":18841:18859   */\n      add\n      swap1\n        /* \"#utility.yul\":18729:18865   */\n      jump\t// out\n        /* \"#utility.yul\":19551:19763   */\n    tag_366:\n        /* \"#utility.yul\":19593:19596   */\n      0x00\n        /* \"#utility.yul\":19631:19636   */\n      dup2\n        /* \"#utility.yul\":19625:19637   */\n      mload\n        /* \"#utility.yul\":19675:19681   */\n      dup1\n        /* \"#utility.yul\":19668:19672   */\n      0x20\n        /* \"#utility.yul\":19661:19666   */\n      dup5\n        /* \"#utility.yul\":19657:19673   */\n      add\n        /* \"#utility.yul\":19652:19655   */\n      dup6\n        /* \"#utility.yul\":19646:19682   */\n      mcopy\n        /* \"#utility.yul\":19737:19738   */\n      0x00\n        /* \"#utility.yul\":19701:19717   */\n      swap4\n      add\n        /* \"#utility.yul\":19726:19739   */\n      swap3\n      dup4\n      mstore\n      pop\n        /* \"#utility.yul\":19701:19717   */\n      swap1\n      swap2\n        /* \"#utility.yul\":19551:19763   */\n      swap1\n      pop\n      jump\t// out\n        /* \"#utility.yul\":19768:19960   */\n    tag_258:\n        /* \"#utility.yul\":19899:19902   */\n      0x00\n        /* \"#utility.yul\":19924:19954   */\n      tag_373\n        /* \"#utility.yul\":19950:19953   */\n      dup3\n        /* \"#utility.yul\":19942:19948   */\n      dup5\n        /* \"#utility.yul\":19924:19954   */\n      tag_366\n      jump\t// in\n        /* \"#utility.yul\":20307:20419   */\n    tag_264:\n        /* \"#utility.yul\":20339:20340   */\n      0x00\n        /* \"#utility.yul\":20365:20366   */\n      dup3\n        /* \"#utility.yul\":20355:20390   */\n      tag_458\n      jumpi\n        /* \"#utility.yul\":20370:20388   */\n      tag_458\n      tag_365\n      jump\t// in\n    tag_458:\n      pop\n        /* \"#utility.yul\":20404:20413   */\n      mod\n      swap1\n        /* \"#utility.yul\":20307:20419   */\n      jump\t// out\n        /* \"#utility.yul\":21132:21782   */\n    tag_300:\n        /* \"#utility.yul\":21561:21564   */\n      0x00\n        /* \"#utility.yul\":21589:21619   */\n      tag_462\n        /* \"#utility.yul\":21615:21618   */\n      dup3\n        /* \"#utility.yul\":21607:21613   */\n      dup7\n        /* \"#utility.yul\":21589:21619   */\n      tag_366\n      jump\t// in\n    tag_462:\n      shl(0xfd, 0x01)\n        /* \"#utility.yul\":21635:21637   */\n      dup2\n        /* \"#utility.yul\":21628:21643   */\n      mstore\n        /* \"#utility.yul\":21662:21699   */\n      tag_463\n        /* \"#utility.yul\":21696:21697   */\n      0x01\n        /* \"#utility.yul\":21692:21694   */\n      dup3\n        /* \"#utility.yul\":21688:21698   */\n      add\n        /* \"#utility.yul\":21680:21686   */\n      dup7\n        /* \"#utility.yul\":21662:21699   */\n      tag_366\n      jump\t// in\n    tag_463:\n        /* \"#utility.yul\":21652:21699   */\n      swap1\n      pop\n      shl(0xfd, 0x01)\n        /* \"#utility.yul\":21715:21717   */\n      dup2\n        /* \"#utility.yul\":21708:21723   */\n      mstore\n        /* \"#utility.yul\":21739:21776   */\n      tag_464\n        /* \"#utility.yul\":21773:21774   */\n      0x01\n        /* \"#utility.yul\":21769:21771   */\n      dup3\n        /* \"#utility.yul\":21765:21775   */\n      add\n        /* \"#utility.yul\":21757:21763   */\n      dup6\n        /* \"#utility.yul\":21739:21776   */\n      tag_366\n      jump\t// in\n    tag_464:\n        /* \"#utility.yul\":21732:21776   */\n      swap7\n        /* \"#utility.yul\":21132:21782   */\n      swap6\n      pop\n      pop\n      pop\n      pop\n      pop\n      pop\n      jump\t// out\n        /* \"#utility.yul\":22516:22643   */\n    tag_338:\n        /* \"#utility.yul\":22577:22587   */\n      0x4e487b71\n        /* \"#utility.yul\":22572:22575   */\n      0xe0\n        /* \"#utility.yul\":22568:22588   */\n      shl\n        /* \"#utility.yul\":22565:22566   */\n      0x00\n        /* \"#utility.yul\":22558:22589   */\n      mstore\n        /* \"#utility.yul\":22608:22612   */\n      0x41\n        /* \"#utility.yul\":22605:22606   */\n      0x04\n        /* \"#utility.yul\":22598:22613   */\n      mstore\n        /* \"#utility.yul\":22632:22636   */\n      0x24\n        /* \"#utility.yul\":22629:22630   */\n      0x00\n        /* \"#utility.yul\":22622:22637   */\n      revert\n        /* \"#utility.yul\":22648:22775   */\n    tag_347:\n        /* \"#utility.yul\":22709:22719   */\n      0x4e487b71\n        /* \"#utility.yul\":22704:22707   */\n      0xe0\n        /* \"#utility.yul\":22700:22720   */\n      shl\n        /* \"#utility.yul\":22697:22698   */\n      0x00\n        /* \"#utility.yul\":22690:22721   */\n      mstore\n        /* \"#utility.yul\":22740:22744   */\n      0x32\n        /* \"#utility.yul\":22737:22738   */\n      0x04\n        /* \"#utility.yul\":22730:22745   */\n      mstore\n        /* \"#utility.yul\":22764:22768   */\n      0x24\n        /* \"#utility.yul\":22761:22762   */\n      0x00\n        /* \"#utility.yul\":22754:22769   */\n      revert\n\n    auxdata: 0xa2646970667358221220dcbb35f78c564aad059eef77377eeb359c4beec4d5bc26a5bf7c4a63b227f95d64736f6c634300081a0033\n}\n",
				"bytecode": {
					"linkReferences": {},
					"object": "60a06040526001600355348015610014575f80fd5b5060015f553360805261002561002a565b6101d4565b6001600460405161004890664a616e7561727960c81b815260070190565b908152604080519182900360200182209290925567466562727561727960c01b81526004600880830182905283519283900360289081018420600290556409ac2e4c6d60db1b845260058085018490528551948590036025908101862060039081905564105c1c9a5b60da1b87528683018690528751968790039091018620859055624d617960e81b86528501849052855194859003602301852055634a756e6560e01b845283830183905284519384900360249081018520600690819055634a756c7960e01b8652858501859052865195869003909101852060079081905565105d59dd5cdd60d21b865290850184905285519485900360260185208390556829b2b83a32b6b132b960b91b855260098086018590528651958690036029018620556627b1ba37b132b960c91b855284018390528451938490036027018420600a9055672737bb32b6b132b960c11b845283820183905284519384900381018420600b9055672232b1b2b6b132b960c11b8452908301919091529151908190039091019020600c9055565b6080516124636102235f395f818160af015281816106cc0152818161091b01528181610a0001528181610b7201528181610bf301528181610ca201528181610dce015261113301526124635ff3fe60806040526004361061009a575f3560e01c80637ee9f33e116100625780637ee9f33e1461018557806395e2bf1f146101985780639e3b67f1146101b7578063ad5abed8146101d6578063b1620616146102c0578063fa502176146103ce575f80fd5b806308551a531461009e5780633d5d62d6146100ee5780635114cb52146101275780635c6144b91461013c5780635f8d26b214610170575b5f80fd5b3480156100a9575f80fd5b506100d17f000000000000000000000000000000000000000000000000000000000000000081565b6040516001600160a01b0390911681526020015b60405180910390f35b3480156100f9575f80fd5b50610119610108366004611fd9565b60016020525f908152604090205481565b6040519081526020016100e5565b61013a610135366004611ffb565b6103ed565b005b348015610147575f80fd5b50610119610156366004611fd9565b6001600160a01b03165f9081526001602052604090205490565b34801561017b575f80fd5b5061011960035481565b61013a610193366004611ffb565b610721565b3480156101a3575f80fd5b5061013a6101b2366004612012565b610c97565b3480156101c2575f80fd5b5061013a6101d1366004612040565b610dc3565b3480156101e1575f80fd5b5061025e6101f0366004611ffb565b5f9081526002602081905260409091208054600182015492820154600483015460058401546008850154600c8601546009870154600d880154600e8901546003909901546001600160a01b039889169b98909a1699969895979496939592949193909260ff90811692911690565b604080516001600160a01b039c8d1681529b909a1660208c0152988a01979097526060890195909552608088019390935260a087019190915260c086015260e085015261010084015215156101208301521515610140820152610160016100e5565b3480156102cb575f80fd5b506103be6102da366004611ffb565b600260208181525f928352604092839020805484516060808201875260018401546001600160a01b0390811683529584015482860152600384015460ff908116151583890152875160e081018952600486015481526005860154818801526006860154818a01526007860154818401526008860154608080830191909152600987015460a080840191909152600a88015460c08401528a519081018b52600b8801548152600c88015498810198909852600d87015499880199909952600e860154909116151591860191909152600f90930154958401959095529290921692919084565b6040516100e594939291906120c3565b3480156103d9575f80fd5b506101196103e836600461217c565b611127565b6103f5611612565b5f81118015610405575060035481105b61042a5760405162461bcd60e51b8152600401610421906121d9565b60405180910390fd5b5f81815260026020526040902080546001600160a01b031633146104905760405162461bcd60e51b815260206004820181905260248201527f4f6e6c79207468652062757965722063616e206d616b65207061796d656e74736044820152606401610421565b600e81015460ff166104dd5760405162461bcd60e51b815260206004820152601660248201527527379030b1ba34bb32903830bcb6b2b73a10383630b760511b6044820152606401610421565b600881015461052e5760405162461bcd60e51b815260206004820152601960248201527f506c616e20697320616c726561647920636f6d706c65746564000000000000006044820152606401610421565b6005810154600c8201545f9042111561066457600d83018054905f61055283612216565b90915550506007830154600884015460649161056d9161222e565b610577919061225f565b90506105838183612272565b9150600383600b01600201541061066457600883015460048401545f916105a991612285565b600e8501805460ff1916905560018501546002860154604080518481526001600160a01b039093166020840152820152909150339086907ff07c0238a1bef424f264e711045c0974dfcde753e6a77836cd6a6b2ecdadfe769060600160405180910390a360405162461bcd60e51b815260206004820152602660248201527f506c616e2064656661756c746564202d207468726565207061796d656e7473206044820152651b5a5cdcd95960d21b6064820152608401610421565b813410156106b45760405162461bcd60e51b815260206004820152601b60248201527f496e73756666696369656e74207061796d656e7420616d6f756e7400000000006044820152606401610421565b6106bf843483611669565b6040516001600160a01b037f000000000000000000000000000000000000000000000000000000000000000016903480156108fc02915f818181858888f19350505050158015610711573d5f803e3d5ffd5b5050505061071e60015f55565b50565b610729611612565b5f81118015610739575060035481105b6107555760405162461bcd60e51b8152600401610421906121d9565b5f81815260026020526040902080546001600160a01b031633146107bb5760405162461bcd60e51b815260206004820181905260248201527f4f6e6c79207468652062757965722063616e206d616b65207061796d656e74736044820152606401610421565b600e81015460ff166108085760405162461bcd60e51b815260206004820152601660248201527527379030b1ba34bb32903830bcb6b2b73a10383630b760511b6044820152606401610421565b600a8101546108595760405162461bcd60e51b815260206004820152601e60248201527f446f776e207061796d656e7420616c72656164792070726f63657373656400006044820152606401610421565b600c8101546108a25760405162461bcd60e51b815260206004820152601560248201527414185e5b595b9d0819185d195cc81b9bdd081cd95d605a1b6044820152606401610421565b600a8101543410156108f65760405162461bcd60e51b815260206004820181905260248201527f496e73756666696369656e7420646f776e207061796d656e7420616d6f756e746044820152606401610421565b600181015460028201546040516331a9108f60e11b81526001600160a01b03928316927f000000000000000000000000000000000000000000000000000000000000000016918391636352211e916109549160040190815260200190565b602060405180830381865afa15801561096f573d5f803e3d5ffd5b505050506040513d601f19601f820116820180604052508101906109939190612298565b6001600160a01b0316146109e95760405162461bcd60e51b815260206004820152601b60248201527f53656c6c657220646f6573206e6f74206f776e20746865204e465400000000006044820152606401610421565b60405163e985e9c560e01b81526001600160a01b037f00000000000000000000000000000000000000000000000000000000000000008116600483015230602483015282169063e985e9c590604401602060405180830381865afa158015610a53573d5f803e3d5ffd5b505050506040513d601f19601f82011682018060405250810190610a7791906122b3565b80610afc5750600282015460405163020604bf60e21b815230916001600160a01b0384169163081812fc91610ab29160040190815260200190565b602060405180830381865afa158015610acd573d5f803e3d5ffd5b505050506040513d601f19601f82011682018060405250810190610af19190612298565b6001600160a01b0316145b610b565760405162461bcd60e51b815260206004820152602560248201527f436f6e7472616374206e6f7420617070726f76656420746f207472616e7366656044820152641c8813919560da1b6064820152608401610421565b60028201546040516323b872dd60e01b81526001600160a01b037f0000000000000000000000000000000000000000000000000000000000000000811660048301523060248301526044820192909252908216906323b872dd906064015f604051808303815f87803b158015610bca575f80fd5b505af1158015610bdc573d5f803e3d5ffd5b50505f600a85018190556040516001600160a01b037f00000000000000000000000000000000000000000000000000000000000000001693503480156108fc02935091818181858888f19350505050158015610c3a573d5f803e3d5ffd5b506009820154600883015460408051928352346020840152820152426060820152339084907f7f05815c7b52d0bff880f573cdfecaa56c4396326c1c01bed184ac277bab71109060800160405180910390a3505061071e60015f55565b336001600160a01b037f00000000000000000000000000000000000000000000000000000000000000001614610cdf5760405162461bcd60e51b8152600401610421906122d2565b5f828152600260205260409020600381015460ff1615610d415760405162461bcd60e51b815260206004820152601760248201527f4e465420616c7265616479207472616e736665727265640000000000000000006044820152606401610421565b600181015460028201546040516323b872dd60e01b81523060048201526001600160a01b03858116602483015260448201929092529116906323b872dd906064015f604051808303815f87803b158015610d99575f80fd5b505af1158015610dab573d5f803e3d5ffd5b5050506003909101805460ff19166001179055505050565b336001600160a01b037f00000000000000000000000000000000000000000000000000000000000000001614610e0b5760405162461bcd60e51b8152600401610421906122d2565b5f85118015610e1b575060035485105b610e375760405162461bcd60e51b8152600401610421906121d9565b5f858152600260205260409020600e015460ff16610e8c5760405162461bcd60e51b8152602060048201526012602482015271506c616e206973206e6f742061637469766560701b6044820152606401610421565b5f858152600260205260409020600c015415610eea5760405162461bcd60e51b815260206004820152601960248201527f5061796d656e7420646174657320616c726561647920736574000000000000006044820152606401610421565b60048383604051610efc929190612315565b9081526020016040518091039020545f03610f4e5760405162461bcd60e51b8152602060048201526012602482015271496e76616c6964206d6f6e7468206e616d6560701b6044820152606401610421565b5f610f908585858080601f0160208091040260200160405190810160405280939291908181526020018383808284375f92019190915250879250611779915050565b9050428111610fe15760405162461bcd60e51b815260206004820181905260248201527f53746172742064617465206d75737420626520696e20746865206675747572656044820152606401610421565b8460025f8881526020019081526020015f20600b015f01819055508060025f8881526020019081526020015f20600b01600101819055505f60025f8881526020019081526020015f209050806001015f015f9054906101000a90046001600160a01b03166001600160a01b0316815f015f9054906101000a90046001600160a01b03166001600160a01b0316887f6961feb63d2aacb590686ff144b8591f9fe46e85189053e1d79a2fc52d621faf8460010160010154856004015f01548660040160060154876004016001015488600401600201546111048f8f8f8080601f0160208091040260200160405190810160405280939291908181526020018383808284375f81840152601f19601f820116905080830192505050505050508e611a2a565b60405161111696959493929190612324565b60405180910390a450505050505050565b5f336001600160a01b037f000000000000000000000000000000000000000000000000000000000000000016146111705760405162461bcd60e51b8152600401610421906122d2565b5f85116111c95760405162461bcd60e51b815260206004820152602160248201527f546f74616c20636f7374206d7573742062652067726561746572207468616e206044820152600360fc1b6064820152608401610421565b5f831161122a5760405162461bcd60e51b815260206004820152602960248201527f4e756d626572206f66207061796d656e7473206d75737420626520677265617460448201526806572207468616e20360bc1b6064820152608401610421565b60648211156112855760405162461bcd60e51b815260206004820152602160248201527f50656e616c74792070657263656e74616765206d757374206265203c3d2031306044820152600360fc1b6064820152608401610421565b60648411156112e55760405162461bcd60e51b815260206004820152602660248201527f446f776e207061796d656e742070657263656e74616765206d7573742062652060448201526503c3d203130360d41b6064820152608401610421565b6001600160a01b0388165f908152600160205260409020541561134a5760405162461bcd60e51b815260206004820181905260248201527f427579657220616c72656164792068617320616e2061637469766520706c616e6044820152606401610421565b5f6064611357868861222e565b611361919061225f565b90505f61136e8288612285565b90505f61137b868361225f565b905081611388878361222e565b146113e75760405162461bcd60e51b815260206004820152602960248201527f52656d61696e696e6720616d6f756e74206d757374206265206576656e6c7920604482015268646976697369626c6560b81b6064820152608401610421565b600380545f91826113f783612216565b9190505590508060015f8e6001600160a01b03166001600160a01b031681526020019081526020015f20819055508b60025f8381526020019081526020015f205f015f6101000a8154816001600160a01b0302191690836001600160a01b0316021790555060405180606001604052808c6001600160a01b031681526020018b81526020015f151581525060025f8381526020019081526020015f206001015f820151815f015f6101000a8154816001600160a01b0302191690836001600160a01b03160217905550602082015181600101556040820151816002015f6101000a81548160ff0219169083151502179055509050506040518060e001604052808a81526020018381526020018881526020018781526020018481526020018881526020018581525060025f8381526020019081526020015f206004015f820151815f01556020820151816001015560408201518160020155606082015181600301556080820151816004015560a0820151816005015560c082015181600601559050506040518060a001604052805f81526020015f81526020015f81526020016001151581526020014281525060025f8381526020019081526020015f20600b015f820151815f015560208201518160010155604082015181600201556060820151816003015f6101000a81548160ff0219169083151502179055506080820151816004015590505080945050505050979650505050505050565b60025f54036116635760405162461bcd60e51b815260206004820152601f60248201527f5265656e7472616e637947756172643a207265656e7472616e742063616c6c006044820152606401610421565b60025f55565b5f838152600260205260408120600581015460088201805492939192909190611693908490612285565b9091555050600981018054905f6116a98361237c565b91905055506116b784611a69565b81156117015780546040518381526001600160a01b039091169085907fed7a0aea6f0340c8fd7f451ac8b492e2facd06e914d020af7d8f38321f04499a9060200160405180910390a35b80546009820154600883015460408051928352602083018790528201524260608201526001600160a01b039091169085907f7f05815c7b52d0bff880f573cdfecaa56c4396326c1c01bed184ac277bab71109060800160405180910390a360088101545f036117735761177384611b33565b50505050565b5f808411801561178a5750601f8411155b6117c45760405162461bcd60e51b815260206004820152600b60248201526a496e76616c69642064617960a81b6044820152606401610421565b6107e88210156118055760405162461bcd60e51b815260206004820152600c60248201526b24b73b30b634b2103cb2b0b960a11b6044820152606401610421565b5f60048460405161181691906123a8565b9081526020016040518091039020549050805f036118665760405162461bcd60e51b815260206004820152600d60248201526c092dcecc2d8d2c840dadedce8d609b1b6044820152606401610421565b8060020361190d575f61187a6004856123b3565b158015611890575061188d6064856123b3565b15155b806118a457506118a2610190856123b3565b155b9050806118b257601c6118b5565b601d5b60ff168611156119075760405162461bcd60e51b815260206004820152601860248201527f496e76616c69642064617920666f7220466562727561727900000000000000006044820152606401610421565b50611988565b806004148061191c5750806006145b806119275750806009145b80611932575080600b145b1561198857601e8511156119885760405162461bcd60e51b815260206004820152601a60248201527f496e76616c69642064617920666f722074686973206d6f6e74680000000000006044820152606401610421565b62015180611997600187612285565b6119a1919061222e565b620151806119b0600184612285565b6119bb90601e61222e565b6119c5919061222e565b6201518060046119d76107b188612285565b6119e1919061225f565b6119ed6107b288612285565b6119f99061016d61222e565b611a039190612272565b611a0d919061222e565b611a179190612272565b611a219190612272565b95945050505050565b6060611a3584611c98565b83611a3f84611c98565b604051602001611a51939291906123c6565b60405160208183030381529060405290509392505050565b5f81815260026020526040812090611a866201518061016d61222e565b600c830154611a95919061225f565b611aa1906107b2612272565b90505f611ab262015180601e61222e565b611ac16201518061016d61222e565b600c850154611ad091906123b3565b611ada919061225f565b611ae5906001612272565b9050611af2600182612272565b9050600c811115611b0d57506001611b0a8183612272565b91505b600b830154611b2590611b1f83611da0565b84611779565b600c90930192909255505050565b5f818152600260205260409020600e8101805460ff19169055600381015460ff16611c94576001810154815460028301546040516323b872dd60e01b81523060048201526001600160a01b03928316602482015260448101919091529116906323b872dd906064015f604051808303815f87803b158015611bb2575f80fd5b505af1925050508015611bc3575060015b611c1b5760405162461bcd60e51b8152602060048201526024808201527f4e4654207472616e73666572206661696c6564202d20636f6e74616374207365604482015263363632b960e11b6064820152608401610421565b60038101805460ff191660019081179091558101548154600283015460058401546004850154604080519384526020840192909252908201526001600160a01b03928316929091169084907f0c353ff0be67df5a5b38b51dd836480fcbb84172b535a89ae18ac96b046ac1579060600160405180910390a45b5050565b6060815f03611cbe5750506040805180820190915260018152600360fc1b602082015290565b815f5b8115611ce75780611cd181612216565b9150611ce09050600a8361225f565b9150611cc1565b5f8167ffffffffffffffff811115611d0157611d01612405565b6040519080825280601f01601f191660200182016040528015611d2b576020820181803683370190505b508593509050815b8315611d9757611d44600a856123b3565b611d4f906030612272565b60f81b82611d5c8361237c565b92508281518110611d6f57611d6f612419565b60200101906001600160f81b03191690815f1a905350611d90600a8561225f565b9350611d33565b50949350505050565b606081600103611dcd5750506040805180820190915260078152664a616e7561727960c81b602082015290565b81600203611df9575050604080518082019091526008815267466562727561727960c01b602082015290565b81600303611e2257505060408051808201909152600581526409ac2e4c6d60db1b602082015290565b81600403611e4b575050604080518082019091526005815264105c1c9a5b60da1b602082015290565b81600503611e725750506040805180820190915260038152624d617960e81b602082015290565b81600603611e9a5750506040805180820190915260048152634a756e6560e01b602082015290565b81600703611ec25750506040805180820190915260048152634a756c7960e01b602082015290565b81600803611eec575050604080518082019091526006815265105d59dd5cdd60d21b602082015290565b81600903611f1957505060408051808201909152600981526829b2b83a32b6b132b960b91b602082015290565b81600a03611f4457505060408051808201909152600781526627b1ba37b132b960c91b602082015290565b81600b03611f705750506040805180820190915260088152672737bb32b6b132b960c11b602082015290565b81600c03611f9c5750506040805180820190915260088152672232b1b2b6b132b960c11b602082015290565b505060408051808201909152600d81526c092dcecc2d8d2c8409adedce8d609b1b602082015290565b6001600160a01b038116811461071e575f80fd5b5f60208284031215611fe9575f80fd5b8135611ff481611fc5565b9392505050565b5f6020828403121561200b575f80fd5b5035919050565b5f8060408385031215612023575f80fd5b82359150602083013561203581611fc5565b809150509250929050565b5f805f805f60808688031215612054575f80fd5b8535945060208601359350604086013567ffffffffffffffff811115612078575f80fd5b8601601f81018813612088575f80fd5b803567ffffffffffffffff81111561209e575f80fd5b8860208284010111156120af575f80fd5b959894975060200195606001359392505050565b5f6102008201905060018060a01b038616825260018060a01b0385511660208301526020850151604083015260408501511515606083015283516080830152602084015160a0830152604084015160c0830152606084015160e0830152608084015161010083015260a084015161012083015260c0840151610140830152611a21610160830184805182526020810151602083015260408101516040830152606081015115156060830152608081015160808301525050565b5f805f805f805f60e0888a031215612192575f80fd5b873561219d81611fc5565b965060208801356121ad81611fc5565b96999698505050506040850135946060810135946080820135945060a0820135935060c0909101359150565b6020808252600f908201526e125b9d985b1a59081c1b185b881251608a1b604082015260600190565b634e487b7160e01b5f52601160045260245ffd5b5f6001820161222757612227612202565b5060010190565b808202811582820484141761224557612245612202565b92915050565b634e487b7160e01b5f52601260045260245ffd5b5f8261226d5761226d61224b565b500490565b8082018082111561224557612245612202565b8181038181111561224557612245612202565b5f602082840312156122a8575f80fd5b8151611ff481611fc5565b5f602082840312156122c3575f80fd5b81518015158114611ff4575f80fd5b60208082526023908201527f4f6e6c792073656c6c65722063616e20706572666f726d20746869732061637460408201526234b7b760e91b606082015260800190565b818382375f9101908152919050565b86815285602082015284604082015283606082015282608082015260c060a08201525f82518060c0840152806020850160e085015e5f60e0828501015260e0601f19601f830116840101915050979650505050505050565b5f8161238a5761238a612202565b505f190190565b5f81518060208401855e5f93019283525090919050565b5f611ff48284612391565b5f826123c1576123c161224b565b500690565b5f6123d18286612391565b600160fd1b81526123e56001820186612391565b9050600160fd1b81526123fb6001820185612391565b9695505050505050565b634e487b7160e01b5f52604160045260245ffd5b634e487b7160e01b5f52603260045260245ffdfea2646970667358221220dcbb35f78c564aad059eef77377eeb359c4beec4d5bc26a5bf7c4a63b227f95d64736f6c634300081a0033",
					"opcodes": "PUSH1 0xA0 PUSH1 0x40 MSTORE PUSH1 0x1 PUSH1 0x3 SSTORE CALLVALUE DUP1 ISZERO PUSH2 0x14 JUMPI PUSH0 DUP1 REVERT JUMPDEST POP PUSH1 0x1 PUSH0 SSTORE CALLER PUSH1 0x80 MSTORE PUSH2 0x25 PUSH2 0x2A JUMP JUMPDEST PUSH2 0x1D4 JUMP JUMPDEST PUSH1 0x1 PUSH1 0x4 PUSH1 0x40 MLOAD PUSH2 0x48 SWAP1 PUSH7 0x4A616E75617279 PUSH1 0xC8 SHL DUP2 MSTORE PUSH1 0x7 ADD SWAP1 JUMP JUMPDEST SWAP1 DUP2 MSTORE PUSH1 0x40 DUP1 MLOAD SWAP2 DUP3 SWAP1 SUB PUSH1 0x20 ADD DUP3 KECCAK256 SWAP3 SWAP1 SWAP3 SSTORE PUSH8 0x4665627275617279 PUSH1 0xC0 SHL DUP2 MSTORE PUSH1 0x4 PUSH1 0x8 DUP1 DUP4 ADD DUP3 SWAP1 MSTORE DUP4 MLOAD SWAP3 DUP4 SWAP1 SUB PUSH1 0x28 SWAP1 DUP2 ADD DUP5 KECCAK256 PUSH1 0x2 SWAP1 SSTORE PUSH5 0x9AC2E4C6D PUSH1 0xDB SHL DUP5 MSTORE PUSH1 0x5 DUP1 DUP6 ADD DUP5 SWAP1 MSTORE DUP6 MLOAD SWAP5 DUP6 SWAP1 SUB PUSH1 0x25 SWAP1 DUP2 ADD DUP7 KECCAK256 PUSH1 0x3 SWAP1 DUP2 SWAP1 SSTORE PUSH5 0x105C1C9A5B PUSH1 0xDA SHL DUP8 MSTORE DUP7 DUP4 ADD DUP7 SWAP1 MSTORE DUP8 MLOAD SWAP7 DUP8 SWAP1 SUB SWAP1 SWAP2 ADD DUP7 KECCAK256 DUP6 SWAP1 SSTORE PUSH3 0x4D6179 PUSH1 0xE8 SHL DUP7 MSTORE DUP6 ADD DUP5 SWAP1 MSTORE DUP6 MLOAD SWAP5 DUP6 SWAP1 SUB PUSH1 0x23 ADD DUP6 KECCAK256 SSTORE PUSH4 0x4A756E65 PUSH1 0xE0 SHL DUP5 MSTORE DUP4 DUP4 ADD DUP4 SWAP1 MSTORE DUP5 MLOAD SWAP4 DUP5 SWAP1 SUB PUSH1 0x24 SWAP1 DUP2 ADD DUP6 KECCAK256 PUSH1 0x6 SWAP1 DUP2 SWAP1 SSTORE PUSH4 0x4A756C79 PUSH1 0xE0 SHL DUP7 MSTORE DUP6 DUP6 ADD DUP6 SWAP1 MSTORE DUP7 MLOAD SWAP6 DUP7 SWAP1 SUB SWAP1 SWAP2 ADD DUP6 KECCAK256 PUSH1 0x7 SWAP1 DUP2 SWAP1 SSTORE PUSH6 0x105D59DD5CDD PUSH1 0xD2 SHL DUP7 MSTORE SWAP1 DUP6 ADD DUP5 SWAP1 MSTORE DUP6 MLOAD SWAP5 DUP6 SWAP1 SUB PUSH1 0x26 ADD DUP6 KECCAK256 DUP4 SWAP1 SSTORE PUSH9 0x29B2B83A32B6B132B9 PUSH1 0xB9 SHL DUP6 MSTORE PUSH1 0x9 DUP1 DUP7 ADD DUP6 SWAP1 MSTORE DUP7 MLOAD SWAP6 DUP7 SWAP1 SUB PUSH1 0x29 ADD DUP7 KECCAK256 SSTORE PUSH7 0x27B1BA37B132B9 PUSH1 0xC9 SHL DUP6 MSTORE DUP5 ADD DUP4 SWAP1 MSTORE DUP5 MLOAD SWAP4 DUP5 SWAP1 SUB PUSH1 0x27 ADD DUP5 KECCAK256 PUSH1 0xA SWAP1 SSTORE PUSH8 0x2737BB32B6B132B9 PUSH1 0xC1 SHL DUP5 MSTORE DUP4 DUP3 ADD DUP4 SWAP1 MSTORE DUP5 MLOAD SWAP4 DUP5 SWAP1 SUB DUP2 ADD DUP5 KECCAK256 PUSH1 0xB SWAP1 SSTORE PUSH8 0x2232B1B2B6B132B9 PUSH1 0xC1 SHL DUP5 MSTORE SWAP1 DUP4 ADD SWAP2 SWAP1 SWAP2 MSTORE SWAP2 MLOAD SWAP1 DUP2 SWAP1 SUB SWAP1 SWAP2 ADD SWAP1 KECCAK256 PUSH1 0xC SWAP1 SSTORE JUMP JUMPDEST PUSH1 0x80 MLOAD PUSH2 0x2463 PUSH2 0x223 PUSH0 CODECOPY PUSH0 DUP2 DUP2 PUSH1 0xAF ADD MSTORE DUP2 DUP2 PUSH2 0x6CC ADD MSTORE DUP2 DUP2 PUSH2 0x91B ADD MSTORE DUP2 DUP2 PUSH2 0xA00 ADD MSTORE DUP2 DUP2 PUSH2 0xB72 ADD MSTORE DUP2 DUP2 PUSH2 0xBF3 ADD MSTORE DUP2 DUP2 PUSH2 0xCA2 ADD MSTORE DUP2 DUP2 PUSH2 0xDCE ADD MSTORE PUSH2 0x1133 ADD MSTORE PUSH2 0x2463 PUSH0 RETURN INVALID PUSH1 0x80 PUSH1 0x40 MSTORE PUSH1 0x4 CALLDATASIZE LT PUSH2 0x9A JUMPI PUSH0 CALLDATALOAD PUSH1 0xE0 SHR DUP1 PUSH4 0x7EE9F33E GT PUSH2 0x62 JUMPI DUP1 PUSH4 0x7EE9F33E EQ PUSH2 0x185 JUMPI DUP1 PUSH4 0x95E2BF1F EQ PUSH2 0x198 JUMPI DUP1 PUSH4 0x9E3B67F1 EQ PUSH2 0x1B7 JUMPI DUP1 PUSH4 0xAD5ABED8 EQ PUSH2 0x1D6 JUMPI DUP1 PUSH4 0xB1620616 EQ PUSH2 0x2C0 JUMPI DUP1 PUSH4 0xFA502176 EQ PUSH2 0x3CE JUMPI PUSH0 DUP1 REVERT JUMPDEST DUP1 PUSH4 0x8551A53 EQ PUSH2 0x9E JUMPI DUP1 PUSH4 0x3D5D62D6 EQ PUSH2 0xEE JUMPI DUP1 PUSH4 0x5114CB52 EQ PUSH2 0x127 JUMPI DUP1 PUSH4 0x5C6144B9 EQ PUSH2 0x13C JUMPI DUP1 PUSH4 0x5F8D26B2 EQ PUSH2 0x170 JUMPI JUMPDEST PUSH0 DUP1 REVERT JUMPDEST CALLVALUE DUP1 ISZERO PUSH2 0xA9 JUMPI PUSH0 DUP1 REVERT JUMPDEST POP PUSH2 0xD1 PUSH32 0x0 DUP2 JUMP JUMPDEST PUSH1 0x40 MLOAD PUSH1 0x1 PUSH1 0x1 PUSH1 0xA0 SHL SUB SWAP1 SWAP2 AND DUP2 MSTORE PUSH1 0x20 ADD JUMPDEST PUSH1 0x40 MLOAD DUP1 SWAP2 SUB SWAP1 RETURN JUMPDEST CALLVALUE DUP1 ISZERO PUSH2 0xF9 JUMPI PUSH0 DUP1 REVERT JUMPDEST POP PUSH2 0x119 PUSH2 0x108 CALLDATASIZE PUSH1 0x4 PUSH2 0x1FD9 JUMP JUMPDEST PUSH1 0x1 PUSH1 0x20 MSTORE PUSH0 SWAP1 DUP2 MSTORE PUSH1 0x40 SWAP1 KECCAK256 SLOAD DUP2 JUMP JUMPDEST PUSH1 0x40 MLOAD SWAP1 DUP2 MSTORE PUSH1 0x20 ADD PUSH2 0xE5 JUMP JUMPDEST PUSH2 0x13A PUSH2 0x135 CALLDATASIZE PUSH1 0x4 PUSH2 0x1FFB JUMP JUMPDEST PUSH2 0x3ED JUMP JUMPDEST STOP JUMPDEST CALLVALUE DUP1 ISZERO PUSH2 0x147 JUMPI PUSH0 DUP1 REVERT JUMPDEST POP PUSH2 0x119 PUSH2 0x156 CALLDATASIZE PUSH1 0x4 PUSH2 0x1FD9 JUMP JUMPDEST PUSH1 0x1 PUSH1 0x1 PUSH1 0xA0 SHL SUB AND PUSH0 SWAP1 DUP2 MSTORE PUSH1 0x1 PUSH1 0x20 MSTORE PUSH1 0x40 SWAP1 KECCAK256 SLOAD SWAP1 JUMP JUMPDEST CALLVALUE DUP1 ISZERO PUSH2 0x17B JUMPI PUSH0 DUP1 REVERT JUMPDEST POP PUSH2 0x119 PUSH1 0x3 SLOAD DUP2 JUMP JUMPDEST PUSH2 0x13A PUSH2 0x193 CALLDATASIZE PUSH1 0x4 PUSH2 0x1FFB JUMP JUMPDEST PUSH2 0x721 JUMP JUMPDEST CALLVALUE DUP1 ISZERO PUSH2 0x1A3 JUMPI PUSH0 DUP1 REVERT JUMPDEST POP PUSH2 0x13A PUSH2 0x1B2 CALLDATASIZE PUSH1 0x4 PUSH2 0x2012 JUMP JUMPDEST PUSH2 0xC97 JUMP JUMPDEST CALLVALUE DUP1 ISZERO PUSH2 0x1C2 JUMPI PUSH0 DUP1 REVERT JUMPDEST POP PUSH2 0x13A PUSH2 0x1D1 CALLDATASIZE PUSH1 0x4 PUSH2 0x2040 JUMP JUMPDEST PUSH2 0xDC3 JUMP JUMPDEST CALLVALUE DUP1 ISZERO PUSH2 0x1E1 JUMPI PUSH0 DUP1 REVERT JUMPDEST POP PUSH2 0x25E PUSH2 0x1F0 CALLDATASIZE PUSH1 0x4 PUSH2 0x1FFB JUMP JUMPDEST PUSH0 SWAP1 DUP2 MSTORE PUSH1 0x2 PUSH1 0x20 DUP2 SWAP1 MSTORE PUSH1 0x40 SWAP1 SWAP2 KECCAK256 DUP1 SLOAD PUSH1 0x1 DUP3 ADD SLOAD SWAP3 DUP3 ADD SLOAD PUSH1 0x4 DUP4 ADD SLOAD PUSH1 0x5 DUP5 ADD SLOAD PUSH1 0x8 DUP6 ADD SLOAD PUSH1 0xC DUP7 ADD SLOAD PUSH1 0x9 DUP8 ADD SLOAD PUSH1 0xD DUP9 ADD SLOAD PUSH1 0xE DUP10 ADD SLOAD PUSH1 0x3 SWAP1 SWAP10 ADD SLOAD PUSH1 0x1 PUSH1 0x1 PUSH1 0xA0 SHL SUB SWAP9 DUP10 AND SWAP12 SWAP9 SWAP1 SWAP11 AND SWAP10 SWAP7 SWAP9 SWAP6 SWAP8 SWAP5 SWAP7 SWAP4 SWAP6 SWAP3 SWAP5 SWAP2 SWAP4 SWAP1 SWAP3 PUSH1 0xFF SWAP1 DUP2 AND SWAP3 SWAP2 AND SWAP1 JUMP JUMPDEST PUSH1 0x40 DUP1 MLOAD PUSH1 0x1 PUSH1 0x1 PUSH1 0xA0 SHL SUB SWAP13 DUP14 AND DUP2 MSTORE SWAP12 SWAP1 SWAP11 AND PUSH1 0x20 DUP13 ADD MSTORE SWAP9 DUP11 ADD SWAP8 SWAP1 SWAP8 MSTORE PUSH1 0x60 DUP10 ADD SWAP6 SWAP1 SWAP6 MSTORE PUSH1 0x80 DUP9 ADD SWAP4 SWAP1 SWAP4 MSTORE PUSH1 0xA0 DUP8 ADD SWAP2 SWAP1 SWAP2 MSTORE PUSH1 0xC0 DUP7 ADD MSTORE PUSH1 0xE0 DUP6 ADD MSTORE PUSH2 0x100 DUP5 ADD MSTORE ISZERO ISZERO PUSH2 0x120 DUP4 ADD MSTORE ISZERO ISZERO PUSH2 0x140 DUP3 ADD MSTORE PUSH2 0x160 ADD PUSH2 0xE5 JUMP JUMPDEST CALLVALUE DUP1 ISZERO PUSH2 0x2CB JUMPI PUSH0 DUP1 REVERT JUMPDEST POP PUSH2 0x3BE PUSH2 0x2DA CALLDATASIZE PUSH1 0x4 PUSH2 0x1FFB JUMP JUMPDEST PUSH1 0x2 PUSH1 0x20 DUP2 DUP2 MSTORE PUSH0 SWAP3 DUP4 MSTORE PUSH1 0x40 SWAP3 DUP4 SWAP1 KECCAK256 DUP1 SLOAD DUP5 MLOAD PUSH1 0x60 DUP1 DUP3 ADD DUP8 MSTORE PUSH1 0x1 DUP5 ADD SLOAD PUSH1 0x1 PUSH1 0x1 PUSH1 0xA0 SHL SUB SWAP1 DUP2 AND DUP4 MSTORE SWAP6 DUP5 ADD SLOAD DUP3 DUP7 ADD MSTORE PUSH1 0x3 DUP5 ADD SLOAD PUSH1 0xFF SWAP1 DUP2 AND ISZERO ISZERO DUP4 DUP10 ADD MSTORE DUP8 MLOAD PUSH1 0xE0 DUP2 ADD DUP10 MSTORE PUSH1 0x4 DUP7 ADD SLOAD DUP2 MSTORE PUSH1 0x5 DUP7 ADD SLOAD DUP2 DUP9 ADD MSTORE PUSH1 0x6 DUP7 ADD SLOAD DUP2 DUP11 ADD MSTORE PUSH1 0x7 DUP7 ADD SLOAD DUP2 DUP5 ADD MSTORE PUSH1 0x8 DUP7 ADD SLOAD PUSH1 0x80 DUP1 DUP4 ADD SWAP2 SWAP1 SWAP2 MSTORE PUSH1 0x9 DUP8 ADD SLOAD PUSH1 0xA0 DUP1 DUP5 ADD SWAP2 SWAP1 SWAP2 MSTORE PUSH1 0xA DUP9 ADD SLOAD PUSH1 0xC0 DUP5 ADD MSTORE DUP11 MLOAD SWAP1 DUP2 ADD DUP12 MSTORE PUSH1 0xB DUP9 ADD SLOAD DUP2 MSTORE PUSH1 0xC DUP9 ADD SLOAD SWAP9 DUP2 ADD SWAP9 SWAP1 SWAP9 MSTORE PUSH1 0xD DUP8 ADD SLOAD SWAP10 DUP9 ADD SWAP10 SWAP1 SWAP10 MSTORE PUSH1 0xE DUP7 ADD SLOAD SWAP1 SWAP2 AND ISZERO ISZERO SWAP2 DUP7 ADD SWAP2 SWAP1 SWAP2 MSTORE PUSH1 0xF SWAP1 SWAP4 ADD SLOAD SWAP6 DUP5 ADD SWAP6 SWAP1 SWAP6 MSTORE SWAP3 SWAP1 SWAP3 AND SWAP3 SWAP2 SWAP1 DUP5 JUMP JUMPDEST PUSH1 0x40 MLOAD PUSH2 0xE5 SWAP5 SWAP4 SWAP3 SWAP2 SWAP1 PUSH2 0x20C3 JUMP JUMPDEST CALLVALUE DUP1 ISZERO PUSH2 0x3D9 JUMPI PUSH0 DUP1 REVERT JUMPDEST POP PUSH2 0x119 PUSH2 0x3E8 CALLDATASIZE PUSH1 0x4 PUSH2 0x217C JUMP JUMPDEST PUSH2 0x1127 JUMP JUMPDEST PUSH2 0x3F5 PUSH2 0x1612 JUMP JUMPDEST PUSH0 DUP2 GT DUP1 ISZERO PUSH2 0x405 JUMPI POP PUSH1 0x3 SLOAD DUP2 LT JUMPDEST PUSH2 0x42A JUMPI PUSH1 0x40 MLOAD PUSH3 0x461BCD PUSH1 0xE5 SHL DUP2 MSTORE PUSH1 0x4 ADD PUSH2 0x421 SWAP1 PUSH2 0x21D9 JUMP JUMPDEST PUSH1 0x40 MLOAD DUP1 SWAP2 SUB SWAP1 REVERT JUMPDEST PUSH0 DUP2 DUP2 MSTORE PUSH1 0x2 PUSH1 0x20 MSTORE PUSH1 0x40 SWAP1 KECCAK256 DUP1 SLOAD PUSH1 0x1 PUSH1 0x1 PUSH1 0xA0 SHL SUB AND CALLER EQ PUSH2 0x490 JUMPI PUSH1 0x40 MLOAD PUSH3 0x461BCD PUSH1 0xE5 SHL DUP2 MSTORE PUSH1 0x20 PUSH1 0x4 DUP3 ADD DUP2 SWAP1 MSTORE PUSH1 0x24 DUP3 ADD MSTORE PUSH32 0x4F6E6C79207468652062757965722063616E206D616B65207061796D656E7473 PUSH1 0x44 DUP3 ADD MSTORE PUSH1 0x64 ADD PUSH2 0x421 JUMP JUMPDEST PUSH1 0xE DUP2 ADD SLOAD PUSH1 0xFF AND PUSH2 0x4DD JUMPI PUSH1 0x40 MLOAD PUSH3 0x461BCD PUSH1 0xE5 SHL DUP2 MSTORE PUSH1 0x20 PUSH1 0x4 DUP3 ADD MSTORE PUSH1 0x16 PUSH1 0x24 DUP3 ADD MSTORE PUSH22 0x27379030B1BA34BB32903830BCB6B2B73A10383630B7 PUSH1 0x51 SHL PUSH1 0x44 DUP3 ADD MSTORE PUSH1 0x64 ADD PUSH2 0x421 JUMP JUMPDEST PUSH1 0x8 DUP2 ADD SLOAD PUSH2 0x52E JUMPI PUSH1 0x40 MLOAD PUSH3 0x461BCD PUSH1 0xE5 SHL DUP2 MSTORE PUSH1 0x20 PUSH1 0x4 DUP3 ADD MSTORE PUSH1 0x19 PUSH1 0x24 DUP3 ADD MSTORE PUSH32 0x506C616E20697320616C726561647920636F6D706C6574656400000000000000 PUSH1 0x44 DUP3 ADD MSTORE PUSH1 0x64 ADD PUSH2 0x421 JUMP JUMPDEST PUSH1 0x5 DUP2 ADD SLOAD PUSH1 0xC DUP3 ADD SLOAD PUSH0 SWAP1 TIMESTAMP GT ISZERO PUSH2 0x664 JUMPI PUSH1 0xD DUP4 ADD DUP1 SLOAD SWAP1 PUSH0 PUSH2 0x552 DUP4 PUSH2 0x2216 JUMP JUMPDEST SWAP1 SWAP2 SSTORE POP POP PUSH1 0x7 DUP4 ADD SLOAD PUSH1 0x8 DUP5 ADD SLOAD PUSH1 0x64 SWAP2 PUSH2 0x56D SWAP2 PUSH2 0x222E JUMP JUMPDEST PUSH2 0x577 SWAP2 SWAP1 PUSH2 0x225F JUMP JUMPDEST SWAP1 POP PUSH2 0x583 DUP2 DUP4 PUSH2 0x2272 JUMP JUMPDEST SWAP2 POP PUSH1 0x3 DUP4 PUSH1 0xB ADD PUSH1 0x2 ADD SLOAD LT PUSH2 0x664 JUMPI PUSH1 0x8 DUP4 ADD SLOAD PUSH1 0x4 DUP5 ADD SLOAD PUSH0 SWAP2 PUSH2 0x5A9 SWAP2 PUSH2 0x2285 JUMP JUMPDEST PUSH1 0xE DUP6 ADD DUP1 SLOAD PUSH1 0xFF NOT AND SWAP1 SSTORE PUSH1 0x1 DUP6 ADD SLOAD PUSH1 0x2 DUP7 ADD SLOAD PUSH1 0x40 DUP1 MLOAD DUP5 DUP2 MSTORE PUSH1 0x1 PUSH1 0x1 PUSH1 0xA0 SHL SUB SWAP1 SWAP4 AND PUSH1 0x20 DUP5 ADD MSTORE DUP3 ADD MSTORE SWAP1 SWAP2 POP CALLER SWAP1 DUP7 SWAP1 PUSH32 0xF07C0238A1BEF424F264E711045C0974DFCDE753E6A77836CD6A6B2ECDADFE76 SWAP1 PUSH1 0x60 ADD PUSH1 0x40 MLOAD DUP1 SWAP2 SUB SWAP1 LOG3 PUSH1 0x40 MLOAD PUSH3 0x461BCD PUSH1 0xE5 SHL DUP2 MSTORE PUSH1 0x20 PUSH1 0x4 DUP3 ADD MSTORE PUSH1 0x26 PUSH1 0x24 DUP3 ADD MSTORE PUSH32 0x506C616E2064656661756C746564202D207468726565207061796D656E747320 PUSH1 0x44 DUP3 ADD MSTORE PUSH6 0x1B5A5CDCD959 PUSH1 0xD2 SHL PUSH1 0x64 DUP3 ADD MSTORE PUSH1 0x84 ADD PUSH2 0x421 JUMP JUMPDEST DUP2 CALLVALUE LT ISZERO PUSH2 0x6B4 JUMPI PUSH1 0x40 MLOAD PUSH3 0x461BCD PUSH1 0xE5 SHL DUP2 MSTORE PUSH1 0x20 PUSH1 0x4 DUP3 ADD MSTORE PUSH1 0x1B PUSH1 0x24 DUP3 ADD MSTORE PUSH32 0x496E73756666696369656E74207061796D656E7420616D6F756E740000000000 PUSH1 0x44 DUP3 ADD MSTORE PUSH1 0x64 ADD PUSH2 0x421 JUMP JUMPDEST PUSH2 0x6BF DUP5 CALLVALUE DUP4 PUSH2 0x1669 JUMP JUMPDEST PUSH1 0x40 MLOAD PUSH1 0x1 PUSH1 0x1 PUSH1 0xA0 SHL SUB PUSH32 0x0 AND SWAP1 CALLVALUE DUP1 ISZERO PUSH2 0x8FC MUL SWAP2 PUSH0 DUP2 DUP2 DUP2 DUP6 DUP9 DUP9 CALL SWAP4 POP POP POP POP ISZERO DUP1 ISZERO PUSH2 0x711 JUMPI RETURNDATASIZE PUSH0 DUP1 RETURNDATACOPY RETURNDATASIZE PUSH0 REVERT JUMPDEST POP POP POP POP PUSH2 0x71E PUSH1 0x1 PUSH0 SSTORE JUMP JUMPDEST POP JUMP JUMPDEST PUSH2 0x729 PUSH2 0x1612 JUMP JUMPDEST PUSH0 DUP2 GT DUP1 ISZERO PUSH2 0x739 JUMPI POP PUSH1 0x3 SLOAD DUP2 LT JUMPDEST PUSH2 0x755 JUMPI PUSH1 0x40 MLOAD PUSH3 0x461BCD PUSH1 0xE5 SHL DUP2 MSTORE PUSH1 0x4 ADD PUSH2 0x421 SWAP1 PUSH2 0x21D9 JUMP JUMPDEST PUSH0 DUP2 DUP2 MSTORE PUSH1 0x2 PUSH1 0x20 MSTORE PUSH1 0x40 SWAP1 KECCAK256 DUP1 SLOAD PUSH1 0x1 PUSH1 0x1 PUSH1 0xA0 SHL SUB AND CALLER EQ PUSH2 0x7BB JUMPI PUSH1 0x40 MLOAD PUSH3 0x461BCD PUSH1 0xE5 SHL DUP2 MSTORE PUSH1 0x20 PUSH1 0x4 DUP3 ADD DUP2 SWAP1 MSTORE PUSH1 0x24 DUP3 ADD MSTORE PUSH32 0x4F6E6C79207468652062757965722063616E206D616B65207061796D656E7473 PUSH1 0x44 DUP3 ADD MSTORE PUSH1 0x64 ADD PUSH2 0x421 JUMP JUMPDEST PUSH1 0xE DUP2 ADD SLOAD PUSH1 0xFF AND PUSH2 0x808 JUMPI PUSH1 0x40 MLOAD PUSH3 0x461BCD PUSH1 0xE5 SHL DUP2 MSTORE PUSH1 0x20 PUSH1 0x4 DUP3 ADD MSTORE PUSH1 0x16 PUSH1 0x24 DUP3 ADD MSTORE PUSH22 0x27379030B1BA34BB32903830BCB6B2B73A10383630B7 PUSH1 0x51 SHL PUSH1 0x44 DUP3 ADD MSTORE PUSH1 0x64 ADD PUSH2 0x421 JUMP JUMPDEST PUSH1 0xA DUP2 ADD SLOAD PUSH2 0x859 JUMPI PUSH1 0x40 MLOAD PUSH3 0x461BCD PUSH1 0xE5 SHL DUP2 MSTORE PUSH1 0x20 PUSH1 0x4 DUP3 ADD MSTORE PUSH1 0x1E PUSH1 0x24 DUP3 ADD MSTORE PUSH32 0x446F776E207061796D656E7420616C72656164792070726F6365737365640000 PUSH1 0x44 DUP3 ADD MSTORE PUSH1 0x64 ADD PUSH2 0x421 JUMP JUMPDEST PUSH1 0xC DUP2 ADD SLOAD PUSH2 0x8A2 JUMPI PUSH1 0x40 MLOAD PUSH3 0x461BCD PUSH1 0xE5 SHL DUP2 MSTORE PUSH1 0x20 PUSH1 0x4 DUP3 ADD MSTORE PUSH1 0x15 PUSH1 0x24 DUP3 ADD MSTORE PUSH21 0x14185E5B595B9D0819185D195CC81B9BDD081CD95D PUSH1 0x5A SHL PUSH1 0x44 DUP3 ADD MSTORE PUSH1 0x64 ADD PUSH2 0x421 JUMP JUMPDEST PUSH1 0xA DUP2 ADD SLOAD CALLVALUE LT ISZERO PUSH2 0x8F6 JUMPI PUSH1 0x40 MLOAD PUSH3 0x461BCD PUSH1 0xE5 SHL DUP2 MSTORE PUSH1 0x20 PUSH1 0x4 DUP3 ADD DUP2 SWAP1 MSTORE PUSH1 0x24 DUP3 ADD MSTORE PUSH32 0x496E73756666696369656E7420646F776E207061796D656E7420616D6F756E74 PUSH1 0x44 DUP3 ADD MSTORE PUSH1 0x64 ADD PUSH2 0x421 JUMP JUMPDEST PUSH1 0x1 DUP2 ADD SLOAD PUSH1 0x2 DUP3 ADD SLOAD PUSH1 0x40 MLOAD PUSH4 0x31A9108F PUSH1 0xE1 SHL DUP2 MSTORE PUSH1 0x1 PUSH1 0x1 PUSH1 0xA0 SHL SUB SWAP3 DUP4 AND SWAP3 PUSH32 0x0 AND SWAP2 DUP4 SWAP2 PUSH4 0x6352211E SWAP2 PUSH2 0x954 SWAP2 PUSH1 0x4 ADD SWAP1 DUP2 MSTORE PUSH1 0x20 ADD SWAP1 JUMP JUMPDEST PUSH1 0x20 PUSH1 0x40 MLOAD DUP1 DUP4 SUB DUP2 DUP7 GAS STATICCALL ISZERO DUP1 ISZERO PUSH2 0x96F JUMPI RETURNDATASIZE PUSH0 DUP1 RETURNDATACOPY RETURNDATASIZE PUSH0 REVERT JUMPDEST POP POP POP POP PUSH1 0x40 MLOAD RETURNDATASIZE PUSH1 0x1F NOT PUSH1 0x1F DUP3 ADD AND DUP3 ADD DUP1 PUSH1 0x40 MSTORE POP DUP2 ADD SWAP1 PUSH2 0x993 SWAP2 SWAP1 PUSH2 0x2298 JUMP JUMPDEST PUSH1 0x1 PUSH1 0x1 PUSH1 0xA0 SHL SUB AND EQ PUSH2 0x9E9 JUMPI PUSH1 0x40 MLOAD PUSH3 0x461BCD PUSH1 0xE5 SHL DUP2 MSTORE PUSH1 0x20 PUSH1 0x4 DUP3 ADD MSTORE PUSH1 0x1B PUSH1 0x24 DUP3 ADD MSTORE PUSH32 0x53656C6C657220646F6573206E6F74206F776E20746865204E46540000000000 PUSH1 0x44 DUP3 ADD MSTORE PUSH1 0x64 ADD PUSH2 0x421 JUMP JUMPDEST PUSH1 0x40 MLOAD PUSH4 0xE985E9C5 PUSH1 0xE0 SHL DUP2 MSTORE PUSH1 0x1 PUSH1 0x1 PUSH1 0xA0 SHL SUB PUSH32 0x0 DUP2 AND PUSH1 0x4 DUP4 ADD MSTORE ADDRESS PUSH1 0x24 DUP4 ADD MSTORE DUP3 AND SWAP1 PUSH4 0xE985E9C5 SWAP1 PUSH1 0x44 ADD PUSH1 0x20 PUSH1 0x40 MLOAD DUP1 DUP4 SUB DUP2 DUP7 GAS STATICCALL ISZERO DUP1 ISZERO PUSH2 0xA53 JUMPI RETURNDATASIZE PUSH0 DUP1 RETURNDATACOPY RETURNDATASIZE PUSH0 REVERT JUMPDEST POP POP POP POP PUSH1 0x40 MLOAD RETURNDATASIZE PUSH1 0x1F NOT PUSH1 0x1F DUP3 ADD AND DUP3 ADD DUP1 PUSH1 0x40 MSTORE POP DUP2 ADD SWAP1 PUSH2 0xA77 SWAP2 SWAP1 PUSH2 0x22B3 JUMP JUMPDEST DUP1 PUSH2 0xAFC JUMPI POP PUSH1 0x2 DUP3 ADD SLOAD PUSH1 0x40 MLOAD PUSH4 0x20604BF PUSH1 0xE2 SHL DUP2 MSTORE ADDRESS SWAP2 PUSH1 0x1 PUSH1 0x1 PUSH1 0xA0 SHL SUB DUP5 AND SWAP2 PUSH4 0x81812FC SWAP2 PUSH2 0xAB2 SWAP2 PUSH1 0x4 ADD SWAP1 DUP2 MSTORE PUSH1 0x20 ADD SWAP1 JUMP JUMPDEST PUSH1 0x20 PUSH1 0x40 MLOAD DUP1 DUP4 SUB DUP2 DUP7 GAS STATICCALL ISZERO DUP1 ISZERO PUSH2 0xACD JUMPI RETURNDATASIZE PUSH0 DUP1 RETURNDATACOPY RETURNDATASIZE PUSH0 REVERT JUMPDEST POP POP POP POP PUSH1 0x40 MLOAD RETURNDATASIZE PUSH1 0x1F NOT PUSH1 0x1F DUP3 ADD AND DUP3 ADD DUP1 PUSH1 0x40 MSTORE POP DUP2 ADD SWAP1 PUSH2 0xAF1 SWAP2 SWAP1 PUSH2 0x2298 JUMP JUMPDEST PUSH1 0x1 PUSH1 0x1 PUSH1 0xA0 SHL SUB AND EQ JUMPDEST PUSH2 0xB56 JUMPI PUSH1 0x40 MLOAD PUSH3 0x461BCD PUSH1 0xE5 SHL DUP2 MSTORE PUSH1 0x20 PUSH1 0x4 DUP3 ADD MSTORE PUSH1 0x25 PUSH1 0x24 DUP3 ADD MSTORE PUSH32 0x436F6E7472616374206E6F7420617070726F76656420746F207472616E736665 PUSH1 0x44 DUP3 ADD MSTORE PUSH5 0x1C88139195 PUSH1 0xDA SHL PUSH1 0x64 DUP3 ADD MSTORE PUSH1 0x84 ADD PUSH2 0x421 JUMP JUMPDEST PUSH1 0x2 DUP3 ADD SLOAD PUSH1 0x40 MLOAD PUSH4 0x23B872DD PUSH1 0xE0 SHL DUP2 MSTORE PUSH1 0x1 PUSH1 0x1 PUSH1 0xA0 SHL SUB PUSH32 0x0 DUP2 AND PUSH1 0x4 DUP4 ADD MSTORE ADDRESS PUSH1 0x24 DUP4 ADD MSTORE PUSH1 0x44 DUP3 ADD SWAP3 SWAP1 SWAP3 MSTORE SWAP1 DUP3 AND SWAP1 PUSH4 0x23B872DD SWAP1 PUSH1 0x64 ADD PUSH0 PUSH1 0x40 MLOAD DUP1 DUP4 SUB DUP2 PUSH0 DUP8 DUP1 EXTCODESIZE ISZERO DUP1 ISZERO PUSH2 0xBCA JUMPI PUSH0 DUP1 REVERT JUMPDEST POP GAS CALL ISZERO DUP1 ISZERO PUSH2 0xBDC JUMPI RETURNDATASIZE PUSH0 DUP1 RETURNDATACOPY RETURNDATASIZE PUSH0 REVERT JUMPDEST POP POP PUSH0 PUSH1 0xA DUP6 ADD DUP2 SWAP1 SSTORE PUSH1 0x40 MLOAD PUSH1 0x1 PUSH1 0x1 PUSH1 0xA0 SHL SUB PUSH32 0x0 AND SWAP4 POP CALLVALUE DUP1 ISZERO PUSH2 0x8FC MUL SWAP4 POP SWAP2 DUP2 DUP2 DUP2 DUP6 DUP9 DUP9 CALL SWAP4 POP POP POP POP ISZERO DUP1 ISZERO PUSH2 0xC3A JUMPI RETURNDATASIZE PUSH0 DUP1 RETURNDATACOPY RETURNDATASIZE PUSH0 REVERT JUMPDEST POP PUSH1 0x9 DUP3 ADD SLOAD PUSH1 0x8 DUP4 ADD SLOAD PUSH1 0x40 DUP1 MLOAD SWAP3 DUP4 MSTORE CALLVALUE PUSH1 0x20 DUP5 ADD MSTORE DUP3 ADD MSTORE TIMESTAMP PUSH1 0x60 DUP3 ADD MSTORE CALLER SWAP1 DUP5 SWAP1 PUSH32 0x7F05815C7B52D0BFF880F573CDFECAA56C4396326C1C01BED184AC277BAB7110 SWAP1 PUSH1 0x80 ADD PUSH1 0x40 MLOAD DUP1 SWAP2 SUB SWAP1 LOG3 POP POP PUSH2 0x71E PUSH1 0x1 PUSH0 SSTORE JUMP JUMPDEST CALLER PUSH1 0x1 PUSH1 0x1 PUSH1 0xA0 SHL SUB PUSH32 0x0 AND EQ PUSH2 0xCDF JUMPI PUSH1 0x40 MLOAD PUSH3 0x461BCD PUSH1 0xE5 SHL DUP2 MSTORE PUSH1 0x4 ADD PUSH2 0x421 SWAP1 PUSH2 0x22D2 JUMP JUMPDEST PUSH0 DUP3 DUP2 MSTORE PUSH1 0x2 PUSH1 0x20 MSTORE PUSH1 0x40 SWAP1 KECCAK256 PUSH1 0x3 DUP2 ADD SLOAD PUSH1 0xFF AND ISZERO PUSH2 0xD41 JUMPI PUSH1 0x40 MLOAD PUSH3 0x461BCD PUSH1 0xE5 SHL DUP2 MSTORE PUSH1 0x20 PUSH1 0x4 DUP3 ADD MSTORE PUSH1 0x17 PUSH1 0x24 DUP3 ADD MSTORE PUSH32 0x4E465420616C7265616479207472616E73666572726564000000000000000000 PUSH1 0x44 DUP3 ADD MSTORE PUSH1 0x64 ADD PUSH2 0x421 JUMP JUMPDEST PUSH1 0x1 DUP2 ADD SLOAD PUSH1 0x2 DUP3 ADD SLOAD PUSH1 0x40 MLOAD PUSH4 0x23B872DD PUSH1 0xE0 SHL DUP2 MSTORE ADDRESS PUSH1 0x4 DUP3 ADD MSTORE PUSH1 0x1 PUSH1 0x1 PUSH1 0xA0 SHL SUB DUP6 DUP2 AND PUSH1 0x24 DUP4 ADD MSTORE PUSH1 0x44 DUP3 ADD SWAP3 SWAP1 SWAP3 MSTORE SWAP2 AND SWAP1 PUSH4 0x23B872DD SWAP1 PUSH1 0x64 ADD PUSH0 PUSH1 0x40 MLOAD DUP1 DUP4 SUB DUP2 PUSH0 DUP8 DUP1 EXTCODESIZE ISZERO DUP1 ISZERO PUSH2 0xD99 JUMPI PUSH0 DUP1 REVERT JUMPDEST POP GAS CALL ISZERO DUP1 ISZERO PUSH2 0xDAB JUMPI RETURNDATASIZE PUSH0 DUP1 RETURNDATACOPY RETURNDATASIZE PUSH0 REVERT JUMPDEST POP POP POP PUSH1 0x3 SWAP1 SWAP2 ADD DUP1 SLOAD PUSH1 0xFF NOT AND PUSH1 0x1 OR SWAP1 SSTORE POP POP POP JUMP JUMPDEST CALLER PUSH1 0x1 PUSH1 0x1 PUSH1 0xA0 SHL SUB PUSH32 0x0 AND EQ PUSH2 0xE0B JUMPI PUSH1 0x40 MLOAD PUSH3 0x461BCD PUSH1 0xE5 SHL DUP2 MSTORE PUSH1 0x4 ADD PUSH2 0x421 SWAP1 PUSH2 0x22D2 JUMP JUMPDEST PUSH0 DUP6 GT DUP1 ISZERO PUSH2 0xE1B JUMPI POP PUSH1 0x3 SLOAD DUP6 LT JUMPDEST PUSH2 0xE37 JUMPI PUSH1 0x40 MLOAD PUSH3 0x461BCD PUSH1 0xE5 SHL DUP2 MSTORE PUSH1 0x4 ADD PUSH2 0x421 SWAP1 PUSH2 0x21D9 JUMP JUMPDEST PUSH0 DUP6 DUP2 MSTORE PUSH1 0x2 PUSH1 0x20 MSTORE PUSH1 0x40 SWAP1 KECCAK256 PUSH1 0xE ADD SLOAD PUSH1 0xFF AND PUSH2 0xE8C JUMPI PUSH1 0x40 MLOAD PUSH3 0x461BCD PUSH1 0xE5 SHL DUP2 MSTORE PUSH1 0x20 PUSH1 0x4 DUP3 ADD MSTORE PUSH1 0x12 PUSH1 0x24 DUP3 ADD MSTORE PUSH18 0x506C616E206973206E6F7420616374697665 PUSH1 0x70 SHL PUSH1 0x44 DUP3 ADD MSTORE PUSH1 0x64 ADD PUSH2 0x421 JUMP JUMPDEST PUSH0 DUP6 DUP2 MSTORE PUSH1 0x2 PUSH1 0x20 MSTORE PUSH1 0x40 SWAP1 KECCAK256 PUSH1 0xC ADD SLOAD ISZERO PUSH2 0xEEA JUMPI PUSH1 0x40 MLOAD PUSH3 0x461BCD PUSH1 0xE5 SHL DUP2 MSTORE PUSH1 0x20 PUSH1 0x4 DUP3 ADD MSTORE PUSH1 0x19 PUSH1 0x24 DUP3 ADD MSTORE PUSH32 0x5061796D656E7420646174657320616C72656164792073657400000000000000 PUSH1 0x44 DUP3 ADD MSTORE PUSH1 0x64 ADD PUSH2 0x421 JUMP JUMPDEST PUSH1 0x4 DUP4 DUP4 PUSH1 0x40 MLOAD PUSH2 0xEFC SWAP3 SWAP2 SWAP1 PUSH2 0x2315 JUMP JUMPDEST SWAP1 DUP2 MSTORE PUSH1 0x20 ADD PUSH1 0x40 MLOAD DUP1 SWAP2 SUB SWAP1 KECCAK256 SLOAD PUSH0 SUB PUSH2 0xF4E JUMPI PUSH1 0x40 MLOAD PUSH3 0x461BCD PUSH1 0xE5 SHL DUP2 MSTORE PUSH1 0x20 PUSH1 0x4 DUP3 ADD MSTORE PUSH1 0x12 PUSH1 0x24 DUP3 ADD MSTORE PUSH18 0x496E76616C6964206D6F6E7468206E616D65 PUSH1 0x70 SHL PUSH1 0x44 DUP3 ADD MSTORE PUSH1 0x64 ADD PUSH2 0x421 JUMP JUMPDEST PUSH0 PUSH2 0xF90 DUP6 DUP6 DUP6 DUP1 DUP1 PUSH1 0x1F ADD PUSH1 0x20 DUP1 SWAP2 DIV MUL PUSH1 0x20 ADD PUSH1 0x40 MLOAD SWAP1 DUP2 ADD PUSH1 0x40 MSTORE DUP1 SWAP4 SWAP3 SWAP2 SWAP1 DUP2 DUP2 MSTORE PUSH1 0x20 ADD DUP4 DUP4 DUP1 DUP3 DUP5 CALLDATACOPY PUSH0 SWAP3 ADD SWAP2 SWAP1 SWAP2 MSTORE POP DUP8 SWAP3 POP PUSH2 0x1779 SWAP2 POP POP JUMP JUMPDEST SWAP1 POP TIMESTAMP DUP2 GT PUSH2 0xFE1 JUMPI PUSH1 0x40 MLOAD PUSH3 0x461BCD PUSH1 0xE5 SHL DUP2 MSTORE PUSH1 0x20 PUSH1 0x4 DUP3 ADD DUP2 SWAP1 MSTORE PUSH1 0x24 DUP3 ADD MSTORE PUSH32 0x53746172742064617465206D75737420626520696E2074686520667574757265 PUSH1 0x44 DUP3 ADD MSTORE PUSH1 0x64 ADD PUSH2 0x421 JUMP JUMPDEST DUP5 PUSH1 0x2 PUSH0 DUP9 DUP2 MSTORE PUSH1 0x20 ADD SWAP1 DUP2 MSTORE PUSH1 0x20 ADD PUSH0 KECCAK256 PUSH1 0xB ADD PUSH0 ADD DUP2 SWAP1 SSTORE POP DUP1 PUSH1 0x2 PUSH0 DUP9 DUP2 MSTORE PUSH1 0x20 ADD SWAP1 DUP2 MSTORE PUSH1 0x20 ADD PUSH0 KECCAK256 PUSH1 0xB ADD PUSH1 0x1 ADD DUP2 SWAP1 SSTORE POP PUSH0 PUSH1 0x2 PUSH0 DUP9 DUP2 MSTORE PUSH1 0x20 ADD SWAP1 DUP2 MSTORE PUSH1 0x20 ADD PUSH0 KECCAK256 SWAP1 POP DUP1 PUSH1 0x1 ADD PUSH0 ADD PUSH0 SWAP1 SLOAD SWAP1 PUSH2 0x100 EXP SWAP1 DIV PUSH1 0x1 PUSH1 0x1 PUSH1 0xA0 SHL SUB AND PUSH1 0x1 PUSH1 0x1 PUSH1 0xA0 SHL SUB AND DUP2 PUSH0 ADD PUSH0 SWAP1 SLOAD SWAP1 PUSH2 0x100 EXP SWAP1 DIV PUSH1 0x1 PUSH1 0x1 PUSH1 0xA0 SHL SUB AND PUSH1 0x1 PUSH1 0x1 PUSH1 0xA0 SHL SUB AND DUP9 PUSH32 0x6961FEB63D2AACB590686FF144B8591F9FE46E85189053E1D79A2FC52D621FAF DUP5 PUSH1 0x1 ADD PUSH1 0x1 ADD SLOAD DUP6 PUSH1 0x4 ADD PUSH0 ADD SLOAD DUP7 PUSH1 0x4 ADD PUSH1 0x6 ADD SLOAD DUP8 PUSH1 0x4 ADD PUSH1 0x1 ADD SLOAD DUP9 PUSH1 0x4 ADD PUSH1 0x2 ADD SLOAD PUSH2 0x1104 DUP16 DUP16 DUP16 DUP1 DUP1 PUSH1 0x1F ADD PUSH1 0x20 DUP1 SWAP2 DIV MUL PUSH1 0x20 ADD PUSH1 0x40 MLOAD SWAP1 DUP2 ADD PUSH1 0x40 MSTORE DUP1 SWAP4 SWAP3 SWAP2 SWAP1 DUP2 DUP2 MSTORE PUSH1 0x20 ADD DUP4 DUP4 DUP1 DUP3 DUP5 CALLDATACOPY PUSH0 DUP2 DUP5 ADD MSTORE PUSH1 0x1F NOT PUSH1 0x1F DUP3 ADD AND SWAP1 POP DUP1 DUP4 ADD SWAP3 POP POP POP POP POP POP POP DUP15 PUSH2 0x1A2A JUMP JUMPDEST PUSH1 0x40 MLOAD PUSH2 0x1116 SWAP7 SWAP6 SWAP5 SWAP4 SWAP3 SWAP2 SWAP1 PUSH2 0x2324 JUMP JUMPDEST PUSH1 0x40 MLOAD DUP1 SWAP2 SUB SWAP1 LOG4 POP POP POP POP POP POP POP JUMP JUMPDEST PUSH0 CALLER PUSH1 0x1 PUSH1 0x1 PUSH1 0xA0 SHL SUB PUSH32 0x0 AND EQ PUSH2 0x1170 JUMPI PUSH1 0x40 MLOAD PUSH3 0x461BCD PUSH1 0xE5 SHL DUP2 MSTORE PUSH1 0x4 ADD PUSH2 0x421 SWAP1 PUSH2 0x22D2 JUMP JUMPDEST PUSH0 DUP6 GT PUSH2 0x11C9 JUMPI PUSH1 0x40 MLOAD PUSH3 0x461BCD PUSH1 0xE5 SHL DUP2 MSTORE PUSH1 0x20 PUSH1 0x4 DUP3 ADD MSTORE PUSH1 0x21 PUSH1 0x24 DUP3 ADD MSTORE PUSH32 0x546F74616C20636F7374206D7573742062652067726561746572207468616E20 PUSH1 0x44 DUP3 ADD MSTORE PUSH1 0x3 PUSH1 0xFC SHL PUSH1 0x64 DUP3 ADD MSTORE PUSH1 0x84 ADD PUSH2 0x421 JUMP JUMPDEST PUSH0 DUP4 GT PUSH2 0x122A JUMPI PUSH1 0x40 MLOAD PUSH3 0x461BCD PUSH1 0xE5 SHL DUP2 MSTORE PUSH1 0x20 PUSH1 0x4 DUP3 ADD MSTORE PUSH1 0x29 PUSH1 0x24 DUP3 ADD MSTORE PUSH32 0x4E756D626572206F66207061796D656E7473206D757374206265206772656174 PUSH1 0x44 DUP3 ADD MSTORE PUSH9 0x6572207468616E203 PUSH1 0xBC SHL PUSH1 0x64 DUP3 ADD MSTORE PUSH1 0x84 ADD PUSH2 0x421 JUMP JUMPDEST PUSH1 0x64 DUP3 GT ISZERO PUSH2 0x1285 JUMPI PUSH1 0x40 MLOAD PUSH3 0x461BCD PUSH1 0xE5 SHL DUP2 MSTORE PUSH1 0x20 PUSH1 0x4 DUP3 ADD MSTORE PUSH1 0x21 PUSH1 0x24 DUP3 ADD MSTORE PUSH32 0x50656E616C74792070657263656E74616765206D757374206265203C3D203130 PUSH1 0x44 DUP3 ADD MSTORE PUSH1 0x3 PUSH1 0xFC SHL PUSH1 0x64 DUP3 ADD MSTORE PUSH1 0x84 ADD PUSH2 0x421 JUMP JUMPDEST PUSH1 0x64 DUP5 GT ISZERO PUSH2 0x12E5 JUMPI PUSH1 0x40 MLOAD PUSH3 0x461BCD PUSH1 0xE5 SHL DUP2 MSTORE PUSH1 0x20 PUSH1 0x4 DUP3 ADD MSTORE PUSH1 0x26 PUSH1 0x24 DUP3 ADD MSTORE PUSH32 0x446F776E207061796D656E742070657263656E74616765206D75737420626520 PUSH1 0x44 DUP3 ADD MSTORE PUSH6 0x3C3D2031303 PUSH1 0xD4 SHL PUSH1 0x64 DUP3 ADD MSTORE PUSH1 0x84 ADD PUSH2 0x421 JUMP JUMPDEST PUSH1 0x1 PUSH1 0x1 PUSH1 0xA0 SHL SUB DUP9 AND PUSH0 SWAP1 DUP2 MSTORE PUSH1 0x1 PUSH1 0x20 MSTORE PUSH1 0x40 SWAP1 KECCAK256 SLOAD ISZERO PUSH2 0x134A JUMPI PUSH1 0x40 MLOAD PUSH3 0x461BCD PUSH1 0xE5 SHL DUP2 MSTORE PUSH1 0x20 PUSH1 0x4 DUP3 ADD DUP2 SWAP1 MSTORE PUSH1 0x24 DUP3 ADD MSTORE PUSH32 0x427579657220616C72656164792068617320616E2061637469766520706C616E PUSH1 0x44 DUP3 ADD MSTORE PUSH1 0x64 ADD PUSH2 0x421 JUMP JUMPDEST PUSH0 PUSH1 0x64 PUSH2 0x1357 DUP7 DUP9 PUSH2 0x222E JUMP JUMPDEST PUSH2 0x1361 SWAP2 SWAP1 PUSH2 0x225F JUMP JUMPDEST SWAP1 POP PUSH0 PUSH2 0x136E DUP3 DUP9 PUSH2 0x2285 JUMP JUMPDEST SWAP1 POP PUSH0 PUSH2 0x137B DUP7 DUP4 PUSH2 0x225F JUMP JUMPDEST SWAP1 POP DUP2 PUSH2 0x1388 DUP8 DUP4 PUSH2 0x222E JUMP JUMPDEST EQ PUSH2 0x13E7 JUMPI PUSH1 0x40 MLOAD PUSH3 0x461BCD PUSH1 0xE5 SHL DUP2 MSTORE PUSH1 0x20 PUSH1 0x4 DUP3 ADD MSTORE PUSH1 0x29 PUSH1 0x24 DUP3 ADD MSTORE PUSH32 0x52656D61696E696E6720616D6F756E74206D757374206265206576656E6C7920 PUSH1 0x44 DUP3 ADD MSTORE PUSH9 0x646976697369626C65 PUSH1 0xB8 SHL PUSH1 0x64 DUP3 ADD MSTORE PUSH1 0x84 ADD PUSH2 0x421 JUMP JUMPDEST PUSH1 0x3 DUP1 SLOAD PUSH0 SWAP2 DUP3 PUSH2 0x13F7 DUP4 PUSH2 0x2216 JUMP JUMPDEST SWAP2 SWAP1 POP SSTORE SWAP1 POP DUP1 PUSH1 0x1 PUSH0 DUP15 PUSH1 0x1 PUSH1 0x1 PUSH1 0xA0 SHL SUB AND PUSH1 0x1 PUSH1 0x1 PUSH1 0xA0 SHL SUB AND DUP2 MSTORE PUSH1 0x20 ADD SWAP1 DUP2 MSTORE PUSH1 0x20 ADD PUSH0 KECCAK256 DUP2 SWAP1 SSTORE POP DUP12 PUSH1 0x2 PUSH0 DUP4 DUP2 MSTORE PUSH1 0x20 ADD SWAP1 DUP2 MSTORE PUSH1 0x20 ADD PUSH0 KECCAK256 PUSH0 ADD PUSH0 PUSH2 0x100 EXP DUP2 SLOAD DUP2 PUSH1 0x1 PUSH1 0x1 PUSH1 0xA0 SHL SUB MUL NOT AND SWAP1 DUP4 PUSH1 0x1 PUSH1 0x1 PUSH1 0xA0 SHL SUB AND MUL OR SWAP1 SSTORE POP PUSH1 0x40 MLOAD DUP1 PUSH1 0x60 ADD PUSH1 0x40 MSTORE DUP1 DUP13 PUSH1 0x1 PUSH1 0x1 PUSH1 0xA0 SHL SUB AND DUP2 MSTORE PUSH1 0x20 ADD DUP12 DUP2 MSTORE PUSH1 0x20 ADD PUSH0 ISZERO ISZERO DUP2 MSTORE POP PUSH1 0x2 PUSH0 DUP4 DUP2 MSTORE PUSH1 0x20 ADD SWAP1 DUP2 MSTORE PUSH1 0x20 ADD PUSH0 KECCAK256 PUSH1 0x1 ADD PUSH0 DUP3 ADD MLOAD DUP2 PUSH0 ADD PUSH0 PUSH2 0x100 EXP DUP2 SLOAD DUP2 PUSH1 0x1 PUSH1 0x1 PUSH1 0xA0 SHL SUB MUL NOT AND SWAP1 DUP4 PUSH1 0x1 PUSH1 0x1 PUSH1 0xA0 SHL SUB AND MUL OR SWAP1 SSTORE POP PUSH1 0x20 DUP3 ADD MLOAD DUP2 PUSH1 0x1 ADD SSTORE PUSH1 0x40 DUP3 ADD MLOAD DUP2 PUSH1 0x2 ADD PUSH0 PUSH2 0x100 EXP DUP2 SLOAD DUP2 PUSH1 0xFF MUL NOT AND SWAP1 DUP4 ISZERO ISZERO MUL OR SWAP1 SSTORE POP SWAP1 POP POP PUSH1 0x40 MLOAD DUP1 PUSH1 0xE0 ADD PUSH1 0x40 MSTORE DUP1 DUP11 DUP2 MSTORE PUSH1 0x20 ADD DUP4 DUP2 MSTORE PUSH1 0x20 ADD DUP9 DUP2 MSTORE PUSH1 0x20 ADD DUP8 DUP2 MSTORE PUSH1 0x20 ADD DUP5 DUP2 MSTORE PUSH1 0x20 ADD DUP9 DUP2 MSTORE PUSH1 0x20 ADD DUP6 DUP2 MSTORE POP PUSH1 0x2 PUSH0 DUP4 DUP2 MSTORE PUSH1 0x20 ADD SWAP1 DUP2 MSTORE PUSH1 0x20 ADD PUSH0 KECCAK256 PUSH1 0x4 ADD PUSH0 DUP3 ADD MLOAD DUP2 PUSH0 ADD SSTORE PUSH1 0x20 DUP3 ADD MLOAD DUP2 PUSH1 0x1 ADD SSTORE PUSH1 0x40 DUP3 ADD MLOAD DUP2 PUSH1 0x2 ADD SSTORE PUSH1 0x60 DUP3 ADD MLOAD DUP2 PUSH1 0x3 ADD SSTORE PUSH1 0x80 DUP3 ADD MLOAD DUP2 PUSH1 0x4 ADD SSTORE PUSH1 0xA0 DUP3 ADD MLOAD DUP2 PUSH1 0x5 ADD SSTORE PUSH1 0xC0 DUP3 ADD MLOAD DUP2 PUSH1 0x6 ADD SSTORE SWAP1 POP POP PUSH1 0x40 MLOAD DUP1 PUSH1 0xA0 ADD PUSH1 0x40 MSTORE DUP1 PUSH0 DUP2 MSTORE PUSH1 0x20 ADD PUSH0 DUP2 MSTORE PUSH1 0x20 ADD PUSH0 DUP2 MSTORE PUSH1 0x20 ADD PUSH1 0x1 ISZERO ISZERO DUP2 MSTORE PUSH1 0x20 ADD TIMESTAMP DUP2 MSTORE POP PUSH1 0x2 PUSH0 DUP4 DUP2 MSTORE PUSH1 0x20 ADD SWAP1 DUP2 MSTORE PUSH1 0x20 ADD PUSH0 KECCAK256 PUSH1 0xB ADD PUSH0 DUP3 ADD MLOAD DUP2 PUSH0 ADD SSTORE PUSH1 0x20 DUP3 ADD MLOAD DUP2 PUSH1 0x1 ADD SSTORE PUSH1 0x40 DUP3 ADD MLOAD DUP2 PUSH1 0x2 ADD SSTORE PUSH1 0x60 DUP3 ADD MLOAD DUP2 PUSH1 0x3 ADD PUSH0 PUSH2 0x100 EXP DUP2 SLOAD DUP2 PUSH1 0xFF MUL NOT AND SWAP1 DUP4 ISZERO ISZERO MUL OR SWAP1 SSTORE POP PUSH1 0x80 DUP3 ADD MLOAD DUP2 PUSH1 0x4 ADD SSTORE SWAP1 POP POP DUP1 SWAP5 POP POP POP POP POP SWAP8 SWAP7 POP POP POP POP POP POP POP JUMP JUMPDEST PUSH1 0x2 PUSH0 SLOAD SUB PUSH2 0x1663 JUMPI PUSH1 0x40 MLOAD PUSH3 0x461BCD PUSH1 0xE5 SHL DUP2 MSTORE PUSH1 0x20 PUSH1 0x4 DUP3 ADD MSTORE PUSH1 0x1F PUSH1 0x24 DUP3 ADD MSTORE PUSH32 0x5265656E7472616E637947756172643A207265656E7472616E742063616C6C00 PUSH1 0x44 DUP3 ADD MSTORE PUSH1 0x64 ADD PUSH2 0x421 JUMP JUMPDEST PUSH1 0x2 PUSH0 SSTORE JUMP JUMPDEST PUSH0 DUP4 DUP2 MSTORE PUSH1 0x2 PUSH1 0x20 MSTORE PUSH1 0x40 DUP2 KECCAK256 PUSH1 0x5 DUP2 ADD SLOAD PUSH1 0x8 DUP3 ADD DUP1 SLOAD SWAP3 SWAP4 SWAP2 SWAP3 SWAP1 SWAP2 SWAP1 PUSH2 0x1693 SWAP1 DUP5 SWAP1 PUSH2 0x2285 JUMP JUMPDEST SWAP1 SWAP2 SSTORE POP POP PUSH1 0x9 DUP2 ADD DUP1 SLOAD SWAP1 PUSH0 PUSH2 0x16A9 DUP4 PUSH2 0x237C JUMP JUMPDEST SWAP2 SWAP1 POP SSTORE POP PUSH2 0x16B7 DUP5 PUSH2 0x1A69 JUMP JUMPDEST DUP2 ISZERO PUSH2 0x1701 JUMPI DUP1 SLOAD PUSH1 0x40 MLOAD DUP4 DUP2 MSTORE PUSH1 0x1 PUSH1 0x1 PUSH1 0xA0 SHL SUB SWAP1 SWAP2 AND SWAP1 DUP6 SWAP1 PUSH32 0xED7A0AEA6F0340C8FD7F451AC8B492E2FACD06E914D020AF7D8F38321F04499A SWAP1 PUSH1 0x20 ADD PUSH1 0x40 MLOAD DUP1 SWAP2 SUB SWAP1 LOG3 JUMPDEST DUP1 SLOAD PUSH1 0x9 DUP3 ADD SLOAD PUSH1 0x8 DUP4 ADD SLOAD PUSH1 0x40 DUP1 MLOAD SWAP3 DUP4 MSTORE PUSH1 0x20 DUP4 ADD DUP8 SWAP1 MSTORE DUP3 ADD MSTORE TIMESTAMP PUSH1 0x60 DUP3 ADD MSTORE PUSH1 0x1 PUSH1 0x1 PUSH1 0xA0 SHL SUB SWAP1 SWAP2 AND SWAP1 DUP6 SWAP1 PUSH32 0x7F05815C7B52D0BFF880F573CDFECAA56C4396326C1C01BED184AC277BAB7110 SWAP1 PUSH1 0x80 ADD PUSH1 0x40 MLOAD DUP1 SWAP2 SUB SWAP1 LOG3 PUSH1 0x8 DUP2 ADD SLOAD PUSH0 SUB PUSH2 0x1773 JUMPI PUSH2 0x1773 DUP5 PUSH2 0x1B33 JUMP JUMPDEST POP POP POP POP JUMP JUMPDEST PUSH0 DUP1 DUP5 GT DUP1 ISZERO PUSH2 0x178A JUMPI POP PUSH1 0x1F DUP5 GT ISZERO JUMPDEST PUSH2 0x17C4 JUMPI PUSH1 0x40 MLOAD PUSH3 0x461BCD PUSH1 0xE5 SHL DUP2 MSTORE PUSH1 0x20 PUSH1 0x4 DUP3 ADD MSTORE PUSH1 0xB PUSH1 0x24 DUP3 ADD MSTORE PUSH11 0x496E76616C696420646179 PUSH1 0xA8 SHL PUSH1 0x44 DUP3 ADD MSTORE PUSH1 0x64 ADD PUSH2 0x421 JUMP JUMPDEST PUSH2 0x7E8 DUP3 LT ISZERO PUSH2 0x1805 JUMPI PUSH1 0x40 MLOAD PUSH3 0x461BCD PUSH1 0xE5 SHL DUP2 MSTORE PUSH1 0x20 PUSH1 0x4 DUP3 ADD MSTORE PUSH1 0xC PUSH1 0x24 DUP3 ADD MSTORE PUSH12 0x24B73B30B634B2103CB2B0B9 PUSH1 0xA1 SHL PUSH1 0x44 DUP3 ADD MSTORE PUSH1 0x64 ADD PUSH2 0x421 JUMP JUMPDEST PUSH0 PUSH1 0x4 DUP5 PUSH1 0x40 MLOAD PUSH2 0x1816 SWAP2 SWAP1 PUSH2 0x23A8 JUMP JUMPDEST SWAP1 DUP2 MSTORE PUSH1 0x20 ADD PUSH1 0x40 MLOAD DUP1 SWAP2 SUB SWAP1 KECCAK256 SLOAD SWAP1 POP DUP1 PUSH0 SUB PUSH2 0x1866 JUMPI PUSH1 0x40 MLOAD PUSH3 0x461BCD PUSH1 0xE5 SHL DUP2 MSTORE PUSH1 0x20 PUSH1 0x4 DUP3 ADD MSTORE PUSH1 0xD PUSH1 0x24 DUP3 ADD MSTORE PUSH13 0x92DCECC2D8D2C840DADEDCE8D PUSH1 0x9B SHL PUSH1 0x44 DUP3 ADD MSTORE PUSH1 0x64 ADD PUSH2 0x421 JUMP JUMPDEST DUP1 PUSH1 0x2 SUB PUSH2 0x190D JUMPI PUSH0 PUSH2 0x187A PUSH1 0x4 DUP6 PUSH2 0x23B3 JUMP JUMPDEST ISZERO DUP1 ISZERO PUSH2 0x1890 JUMPI POP PUSH2 0x188D PUSH1 0x64 DUP6 PUSH2 0x23B3 JUMP JUMPDEST ISZERO ISZERO JUMPDEST DUP1 PUSH2 0x18A4 JUMPI POP PUSH2 0x18A2 PUSH2 0x190 DUP6 PUSH2 0x23B3 JUMP JUMPDEST ISZERO JUMPDEST SWAP1 POP DUP1 PUSH2 0x18B2 JUMPI PUSH1 0x1C PUSH2 0x18B5 JUMP JUMPDEST PUSH1 0x1D JUMPDEST PUSH1 0xFF AND DUP7 GT ISZERO PUSH2 0x1907 JUMPI PUSH1 0x40 MLOAD PUSH3 0x461BCD PUSH1 0xE5 SHL DUP2 MSTORE PUSH1 0x20 PUSH1 0x4 DUP3 ADD MSTORE PUSH1 0x18 PUSH1 0x24 DUP3 ADD MSTORE PUSH32 0x496E76616C69642064617920666F722046656272756172790000000000000000 PUSH1 0x44 DUP3 ADD MSTORE PUSH1 0x64 ADD PUSH2 0x421 JUMP JUMPDEST POP PUSH2 0x1988 JUMP JUMPDEST DUP1 PUSH1 0x4 EQ DUP1 PUSH2 0x191C JUMPI POP DUP1 PUSH1 0x6 EQ JUMPDEST DUP1 PUSH2 0x1927 JUMPI POP DUP1 PUSH1 0x9 EQ JUMPDEST DUP1 PUSH2 0x1932 JUMPI POP DUP1 PUSH1 0xB EQ JUMPDEST ISZERO PUSH2 0x1988 JUMPI PUSH1 0x1E DUP6 GT ISZERO PUSH2 0x1988 JUMPI PUSH1 0x40 MLOAD PUSH3 0x461BCD PUSH1 0xE5 SHL DUP2 MSTORE PUSH1 0x20 PUSH1 0x4 DUP3 ADD MSTORE PUSH1 0x1A PUSH1 0x24 DUP3 ADD MSTORE PUSH32 0x496E76616C69642064617920666F722074686973206D6F6E7468000000000000 PUSH1 0x44 DUP3 ADD MSTORE PUSH1 0x64 ADD PUSH2 0x421 JUMP JUMPDEST PUSH3 0x15180 PUSH2 0x1997 PUSH1 0x1 DUP8 PUSH2 0x2285 JUMP JUMPDEST PUSH2 0x19A1 SWAP2 SWAP1 PUSH2 0x222E JUMP JUMPDEST PUSH3 0x15180 PUSH2 0x19B0 PUSH1 0x1 DUP5 PUSH2 0x2285 JUMP JUMPDEST PUSH2 0x19BB SWAP1 PUSH1 0x1E PUSH2 0x222E JUMP JUMPDEST PUSH2 0x19C5 SWAP2 SWAP1 PUSH2 0x222E JUMP JUMPDEST PUSH3 0x15180 PUSH1 0x4 PUSH2 0x19D7 PUSH2 0x7B1 DUP9 PUSH2 0x2285 JUMP JUMPDEST PUSH2 0x19E1 SWAP2 SWAP1 PUSH2 0x225F JUMP JUMPDEST PUSH2 0x19ED PUSH2 0x7B2 DUP9 PUSH2 0x2285 JUMP JUMPDEST PUSH2 0x19F9 SWAP1 PUSH2 0x16D PUSH2 0x222E JUMP JUMPDEST PUSH2 0x1A03 SWAP2 SWAP1 PUSH2 0x2272 JUMP JUMPDEST PUSH2 0x1A0D SWAP2 SWAP1 PUSH2 0x222E JUMP JUMPDEST PUSH2 0x1A17 SWAP2 SWAP1 PUSH2 0x2272 JUMP JUMPDEST PUSH2 0x1A21 SWAP2 SWAP1 PUSH2 0x2272 JUMP JUMPDEST SWAP6 SWAP5 POP POP POP POP POP JUMP JUMPDEST PUSH1 0x60 PUSH2 0x1A35 DUP5 PUSH2 0x1C98 JUMP JUMPDEST DUP4 PUSH2 0x1A3F DUP5 PUSH2 0x1C98 JUMP JUMPDEST PUSH1 0x40 MLOAD PUSH1 0x20 ADD PUSH2 0x1A51 SWAP4 SWAP3 SWAP2 SWAP1 PUSH2 0x23C6 JUMP JUMPDEST PUSH1 0x40 MLOAD PUSH1 0x20 DUP2 DUP4 SUB SUB DUP2 MSTORE SWAP1 PUSH1 0x40 MSTORE SWAP1 POP SWAP4 SWAP3 POP POP POP JUMP JUMPDEST PUSH0 DUP2 DUP2 MSTORE PUSH1 0x2 PUSH1 0x20 MSTORE PUSH1 0x40 DUP2 KECCAK256 SWAP1 PUSH2 0x1A86 PUSH3 0x15180 PUSH2 0x16D PUSH2 0x222E JUMP JUMPDEST PUSH1 0xC DUP4 ADD SLOAD PUSH2 0x1A95 SWAP2 SWAP1 PUSH2 0x225F JUMP JUMPDEST PUSH2 0x1AA1 SWAP1 PUSH2 0x7B2 PUSH2 0x2272 JUMP JUMPDEST SWAP1 POP PUSH0 PUSH2 0x1AB2 PUSH3 0x15180 PUSH1 0x1E PUSH2 0x222E JUMP JUMPDEST PUSH2 0x1AC1 PUSH3 0x15180 PUSH2 0x16D PUSH2 0x222E JUMP JUMPDEST PUSH1 0xC DUP6 ADD SLOAD PUSH2 0x1AD0 SWAP2 SWAP1 PUSH2 0x23B3 JUMP JUMPDEST PUSH2 0x1ADA SWAP2 SWAP1 PUSH2 0x225F JUMP JUMPDEST PUSH2 0x1AE5 SWAP1 PUSH1 0x1 PUSH2 0x2272 JUMP JUMPDEST SWAP1 POP PUSH2 0x1AF2 PUSH1 0x1 DUP3 PUSH2 0x2272 JUMP JUMPDEST SWAP1 POP PUSH1 0xC DUP2 GT ISZERO PUSH2 0x1B0D JUMPI POP PUSH1 0x1 PUSH2 0x1B0A DUP2 DUP4 PUSH2 0x2272 JUMP JUMPDEST SWAP2 POP JUMPDEST PUSH1 0xB DUP4 ADD SLOAD PUSH2 0x1B25 SWAP1 PUSH2 0x1B1F DUP4 PUSH2 0x1DA0 JUMP JUMPDEST DUP5 PUSH2 0x1779 JUMP JUMPDEST PUSH1 0xC SWAP1 SWAP4 ADD SWAP3 SWAP1 SWAP3 SSTORE POP POP POP JUMP JUMPDEST PUSH0 DUP2 DUP2 MSTORE PUSH1 0x2 PUSH1 0x20 MSTORE PUSH1 0x40 SWAP1 KECCAK256 PUSH1 0xE DUP2 ADD DUP1 SLOAD PUSH1 0xFF NOT AND SWAP1 SSTORE PUSH1 0x3 DUP2 ADD SLOAD PUSH1 0xFF AND PUSH2 0x1C94 JUMPI PUSH1 0x1 DUP2 ADD SLOAD DUP2 SLOAD PUSH1 0x2 DUP4 ADD SLOAD PUSH1 0x40 MLOAD PUSH4 0x23B872DD PUSH1 0xE0 SHL DUP2 MSTORE ADDRESS PUSH1 0x4 DUP3 ADD MSTORE PUSH1 0x1 PUSH1 0x1 PUSH1 0xA0 SHL SUB SWAP3 DUP4 AND PUSH1 0x24 DUP3 ADD MSTORE PUSH1 0x44 DUP2 ADD SWAP2 SWAP1 SWAP2 MSTORE SWAP2 AND SWAP1 PUSH4 0x23B872DD SWAP1 PUSH1 0x64 ADD PUSH0 PUSH1 0x40 MLOAD DUP1 DUP4 SUB DUP2 PUSH0 DUP8 DUP1 EXTCODESIZE ISZERO DUP1 ISZERO PUSH2 0x1BB2 JUMPI PUSH0 DUP1 REVERT JUMPDEST POP GAS CALL SWAP3 POP POP POP DUP1 ISZERO PUSH2 0x1BC3 JUMPI POP PUSH1 0x1 JUMPDEST PUSH2 0x1C1B JUMPI PUSH1 0x40 MLOAD PUSH3 0x461BCD PUSH1 0xE5 SHL DUP2 MSTORE PUSH1 0x20 PUSH1 0x4 DUP3 ADD MSTORE PUSH1 0x24 DUP1 DUP3 ADD MSTORE PUSH32 0x4E4654207472616E73666572206661696C6564202D20636F6E74616374207365 PUSH1 0x44 DUP3 ADD MSTORE PUSH4 0x363632B9 PUSH1 0xE1 SHL PUSH1 0x64 DUP3 ADD MSTORE PUSH1 0x84 ADD PUSH2 0x421 JUMP JUMPDEST PUSH1 0x3 DUP2 ADD DUP1 SLOAD PUSH1 0xFF NOT AND PUSH1 0x1 SWAP1 DUP2 OR SWAP1 SWAP2 SSTORE DUP2 ADD SLOAD DUP2 SLOAD PUSH1 0x2 DUP4 ADD SLOAD PUSH1 0x5 DUP5 ADD SLOAD PUSH1 0x4 DUP6 ADD SLOAD PUSH1 0x40 DUP1 MLOAD SWAP4 DUP5 MSTORE PUSH1 0x20 DUP5 ADD SWAP3 SWAP1 SWAP3 MSTORE SWAP1 DUP3 ADD MSTORE PUSH1 0x1 PUSH1 0x1 PUSH1 0xA0 SHL SUB SWAP3 DUP4 AND SWAP3 SWAP1 SWAP2 AND SWAP1 DUP5 SWAP1 PUSH32 0xC353FF0BE67DF5A5B38B51DD836480FCBB84172B535A89AE18AC96B046AC157 SWAP1 PUSH1 0x60 ADD PUSH1 0x40 MLOAD DUP1 SWAP2 SUB SWAP1 LOG4 JUMPDEST POP POP JUMP JUMPDEST PUSH1 0x60 DUP2 PUSH0 SUB PUSH2 0x1CBE JUMPI POP POP PUSH1 0x40 DUP1 MLOAD DUP1 DUP3 ADD SWAP1 SWAP2 MSTORE PUSH1 0x1 DUP2 MSTORE PUSH1 0x3 PUSH1 0xFC SHL PUSH1 0x20 DUP3 ADD MSTORE SWAP1 JUMP JUMPDEST DUP2 PUSH0 JUMPDEST DUP2 ISZERO PUSH2 0x1CE7 JUMPI DUP1 PUSH2 0x1CD1 DUP2 PUSH2 0x2216 JUMP JUMPDEST SWAP2 POP PUSH2 0x1CE0 SWAP1 POP PUSH1 0xA DUP4 PUSH2 0x225F JUMP JUMPDEST SWAP2 POP PUSH2 0x1CC1 JUMP JUMPDEST PUSH0 DUP2 PUSH8 0xFFFFFFFFFFFFFFFF DUP2 GT ISZERO PUSH2 0x1D01 JUMPI PUSH2 0x1D01 PUSH2 0x2405 JUMP JUMPDEST PUSH1 0x40 MLOAD SWAP1 DUP1 DUP3 MSTORE DUP1 PUSH1 0x1F ADD PUSH1 0x1F NOT AND PUSH1 0x20 ADD DUP3 ADD PUSH1 0x40 MSTORE DUP1 ISZERO PUSH2 0x1D2B JUMPI PUSH1 0x20 DUP3 ADD DUP2 DUP1 CALLDATASIZE DUP4 CALLDATACOPY ADD SWAP1 POP JUMPDEST POP DUP6 SWAP4 POP SWAP1 POP DUP2 JUMPDEST DUP4 ISZERO PUSH2 0x1D97 JUMPI PUSH2 0x1D44 PUSH1 0xA DUP6 PUSH2 0x23B3 JUMP JUMPDEST PUSH2 0x1D4F SWAP1 PUSH1 0x30 PUSH2 0x2272 JUMP JUMPDEST PUSH1 0xF8 SHL DUP3 PUSH2 0x1D5C DUP4 PUSH2 0x237C JUMP JUMPDEST SWAP3 POP DUP3 DUP2 MLOAD DUP2 LT PUSH2 0x1D6F JUMPI PUSH2 0x1D6F PUSH2 0x2419 JUMP JUMPDEST PUSH1 0x20 ADD ADD SWAP1 PUSH1 0x1 PUSH1 0x1 PUSH1 0xF8 SHL SUB NOT AND SWAP1 DUP2 PUSH0 BYTE SWAP1 MSTORE8 POP PUSH2 0x1D90 PUSH1 0xA DUP6 PUSH2 0x225F JUMP JUMPDEST SWAP4 POP PUSH2 0x1D33 JUMP JUMPDEST POP SWAP5 SWAP4 POP POP POP POP JUMP JUMPDEST PUSH1 0x60 DUP2 PUSH1 0x1 SUB PUSH2 0x1DCD JUMPI POP POP PUSH1 0x40 DUP1 MLOAD DUP1 DUP3 ADD SWAP1 SWAP2 MSTORE PUSH1 0x7 DUP2 MSTORE PUSH7 0x4A616E75617279 PUSH1 0xC8 SHL PUSH1 0x20 DUP3 ADD MSTORE SWAP1 JUMP JUMPDEST DUP2 PUSH1 0x2 SUB PUSH2 0x1DF9 JUMPI POP POP PUSH1 0x40 DUP1 MLOAD DUP1 DUP3 ADD SWAP1 SWAP2 MSTORE PUSH1 0x8 DUP2 MSTORE PUSH8 0x4665627275617279 PUSH1 0xC0 SHL PUSH1 0x20 DUP3 ADD MSTORE SWAP1 JUMP JUMPDEST DUP2 PUSH1 0x3 SUB PUSH2 0x1E22 JUMPI POP POP PUSH1 0x40 DUP1 MLOAD DUP1 DUP3 ADD SWAP1 SWAP2 MSTORE PUSH1 0x5 DUP2 MSTORE PUSH5 0x9AC2E4C6D PUSH1 0xDB SHL PUSH1 0x20 DUP3 ADD MSTORE SWAP1 JUMP JUMPDEST DUP2 PUSH1 0x4 SUB PUSH2 0x1E4B JUMPI POP POP PUSH1 0x40 DUP1 MLOAD DUP1 DUP3 ADD SWAP1 SWAP2 MSTORE PUSH1 0x5 DUP2 MSTORE PUSH5 0x105C1C9A5B PUSH1 0xDA SHL PUSH1 0x20 DUP3 ADD MSTORE SWAP1 JUMP JUMPDEST DUP2 PUSH1 0x5 SUB PUSH2 0x1E72 JUMPI POP POP PUSH1 0x40 DUP1 MLOAD DUP1 DUP3 ADD SWAP1 SWAP2 MSTORE PUSH1 0x3 DUP2 MSTORE PUSH3 0x4D6179 PUSH1 0xE8 SHL PUSH1 0x20 DUP3 ADD MSTORE SWAP1 JUMP JUMPDEST DUP2 PUSH1 0x6 SUB PUSH2 0x1E9A JUMPI POP POP PUSH1 0x40 DUP1 MLOAD DUP1 DUP3 ADD SWAP1 SWAP2 MSTORE PUSH1 0x4 DUP2 MSTORE PUSH4 0x4A756E65 PUSH1 0xE0 SHL PUSH1 0x20 DUP3 ADD MSTORE SWAP1 JUMP JUMPDEST DUP2 PUSH1 0x7 SUB PUSH2 0x1EC2 JUMPI POP POP PUSH1 0x40 DUP1 MLOAD DUP1 DUP3 ADD SWAP1 SWAP2 MSTORE PUSH1 0x4 DUP2 MSTORE PUSH4 0x4A756C79 PUSH1 0xE0 SHL PUSH1 0x20 DUP3 ADD MSTORE SWAP1 JUMP JUMPDEST DUP2 PUSH1 0x8 SUB PUSH2 0x1EEC JUMPI POP POP PUSH1 0x40 DUP1 MLOAD DUP1 DUP3 ADD SWAP1 SWAP2 MSTORE PUSH1 0x6 DUP2 MSTORE PUSH6 0x105D59DD5CDD PUSH1 0xD2 SHL PUSH1 0x20 DUP3 ADD MSTORE SWAP1 JUMP JUMPDEST DUP2 PUSH1 0x9 SUB PUSH2 0x1F19 JUMPI POP POP PUSH1 0x40 DUP1 MLOAD DUP1 DUP3 ADD SWAP1 SWAP2 MSTORE PUSH1 0x9 DUP2 MSTORE PUSH9 0x29B2B83A32B6B132B9 PUSH1 0xB9 SHL PUSH1 0x20 DUP3 ADD MSTORE SWAP1 JUMP JUMPDEST DUP2 PUSH1 0xA SUB PUSH2 0x1F44 JUMPI POP POP PUSH1 0x40 DUP1 MLOAD DUP1 DUP3 ADD SWAP1 SWAP2 MSTORE PUSH1 0x7 DUP2 MSTORE PUSH7 0x27B1BA37B132B9 PUSH1 0xC9 SHL PUSH1 0x20 DUP3 ADD MSTORE SWAP1 JUMP JUMPDEST DUP2 PUSH1 0xB SUB PUSH2 0x1F70 JUMPI POP POP PUSH1 0x40 DUP1 MLOAD DUP1 DUP3 ADD SWAP1 SWAP2 MSTORE PUSH1 0x8 DUP2 MSTORE PUSH8 0x2737BB32B6B132B9 PUSH1 0xC1 SHL PUSH1 0x20 DUP3 ADD MSTORE SWAP1 JUMP JUMPDEST DUP2 PUSH1 0xC SUB PUSH2 0x1F9C JUMPI POP POP PUSH1 0x40 DUP1 MLOAD DUP1 DUP3 ADD SWAP1 SWAP2 MSTORE PUSH1 0x8 DUP2 MSTORE PUSH8 0x2232B1B2B6B132B9 PUSH1 0xC1 SHL PUSH1 0x20 DUP3 ADD MSTORE SWAP1 JUMP JUMPDEST POP POP PUSH1 0x40 DUP1 MLOAD DUP1 DUP3 ADD SWAP1 SWAP2 MSTORE PUSH1 0xD DUP2 MSTORE PUSH13 0x92DCECC2D8D2C8409ADEDCE8D PUSH1 0x9B SHL PUSH1 0x20 DUP3 ADD MSTORE SWAP1 JUMP JUMPDEST PUSH1 0x1 PUSH1 0x1 PUSH1 0xA0 SHL SUB DUP2 AND DUP2 EQ PUSH2 0x71E JUMPI PUSH0 DUP1 REVERT JUMPDEST PUSH0 PUSH1 0x20 DUP3 DUP5 SUB SLT ISZERO PUSH2 0x1FE9 JUMPI PUSH0 DUP1 REVERT JUMPDEST DUP2 CALLDATALOAD PUSH2 0x1FF4 DUP2 PUSH2 0x1FC5 JUMP JUMPDEST SWAP4 SWAP3 POP POP POP JUMP JUMPDEST PUSH0 PUSH1 0x20 DUP3 DUP5 SUB SLT ISZERO PUSH2 0x200B JUMPI PUSH0 DUP1 REVERT JUMPDEST POP CALLDATALOAD SWAP2 SWAP1 POP JUMP JUMPDEST PUSH0 DUP1 PUSH1 0x40 DUP4 DUP6 SUB SLT ISZERO PUSH2 0x2023 JUMPI PUSH0 DUP1 REVERT JUMPDEST DUP3 CALLDATALOAD SWAP2 POP PUSH1 0x20 DUP4 ADD CALLDATALOAD PUSH2 0x2035 DUP2 PUSH2 0x1FC5 JUMP JUMPDEST DUP1 SWAP2 POP POP SWAP3 POP SWAP3 SWAP1 POP JUMP JUMPDEST PUSH0 DUP1 PUSH0 DUP1 PUSH0 PUSH1 0x80 DUP7 DUP9 SUB SLT ISZERO PUSH2 0x2054 JUMPI PUSH0 DUP1 REVERT JUMPDEST DUP6 CALLDATALOAD SWAP5 POP PUSH1 0x20 DUP7 ADD CALLDATALOAD SWAP4 POP PUSH1 0x40 DUP7 ADD CALLDATALOAD PUSH8 0xFFFFFFFFFFFFFFFF DUP2 GT ISZERO PUSH2 0x2078 JUMPI PUSH0 DUP1 REVERT JUMPDEST DUP7 ADD PUSH1 0x1F DUP2 ADD DUP9 SGT PUSH2 0x2088 JUMPI PUSH0 DUP1 REVERT JUMPDEST DUP1 CALLDATALOAD PUSH8 0xFFFFFFFFFFFFFFFF DUP2 GT ISZERO PUSH2 0x209E JUMPI PUSH0 DUP1 REVERT JUMPDEST DUP9 PUSH1 0x20 DUP3 DUP5 ADD ADD GT ISZERO PUSH2 0x20AF JUMPI PUSH0 DUP1 REVERT JUMPDEST SWAP6 SWAP9 SWAP5 SWAP8 POP PUSH1 0x20 ADD SWAP6 PUSH1 0x60 ADD CALLDATALOAD SWAP4 SWAP3 POP POP POP JUMP JUMPDEST PUSH0 PUSH2 0x200 DUP3 ADD SWAP1 POP PUSH1 0x1 DUP1 PUSH1 0xA0 SHL SUB DUP7 AND DUP3 MSTORE PUSH1 0x1 DUP1 PUSH1 0xA0 SHL SUB DUP6 MLOAD AND PUSH1 0x20 DUP4 ADD MSTORE PUSH1 0x20 DUP6 ADD MLOAD PUSH1 0x40 DUP4 ADD MSTORE PUSH1 0x40 DUP6 ADD MLOAD ISZERO ISZERO PUSH1 0x60 DUP4 ADD MSTORE DUP4 MLOAD PUSH1 0x80 DUP4 ADD MSTORE PUSH1 0x20 DUP5 ADD MLOAD PUSH1 0xA0 DUP4 ADD MSTORE PUSH1 0x40 DUP5 ADD MLOAD PUSH1 0xC0 DUP4 ADD MSTORE PUSH1 0x60 DUP5 ADD MLOAD PUSH1 0xE0 DUP4 ADD MSTORE PUSH1 0x80 DUP5 ADD MLOAD PUSH2 0x100 DUP4 ADD MSTORE PUSH1 0xA0 DUP5 ADD MLOAD PUSH2 0x120 DUP4 ADD MSTORE PUSH1 0xC0 DUP5 ADD MLOAD PUSH2 0x140 DUP4 ADD MSTORE PUSH2 0x1A21 PUSH2 0x160 DUP4 ADD DUP5 DUP1 MLOAD DUP3 MSTORE PUSH1 0x20 DUP2 ADD MLOAD PUSH1 0x20 DUP4 ADD MSTORE PUSH1 0x40 DUP2 ADD MLOAD PUSH1 0x40 DUP4 ADD MSTORE PUSH1 0x60 DUP2 ADD MLOAD ISZERO ISZERO PUSH1 0x60 DUP4 ADD MSTORE PUSH1 0x80 DUP2 ADD MLOAD PUSH1 0x80 DUP4 ADD MSTORE POP POP JUMP JUMPDEST PUSH0 DUP1 PUSH0 DUP1 PUSH0 DUP1 PUSH0 PUSH1 0xE0 DUP9 DUP11 SUB SLT ISZERO PUSH2 0x2192 JUMPI PUSH0 DUP1 REVERT JUMPDEST DUP8 CALLDATALOAD PUSH2 0x219D DUP2 PUSH2 0x1FC5 JUMP JUMPDEST SWAP7 POP PUSH1 0x20 DUP9 ADD CALLDATALOAD PUSH2 0x21AD DUP2 PUSH2 0x1FC5 JUMP JUMPDEST SWAP7 SWAP10 SWAP7 SWAP9 POP POP POP POP PUSH1 0x40 DUP6 ADD CALLDATALOAD SWAP5 PUSH1 0x60 DUP2 ADD CALLDATALOAD SWAP5 PUSH1 0x80 DUP3 ADD CALLDATALOAD SWAP5 POP PUSH1 0xA0 DUP3 ADD CALLDATALOAD SWAP4 POP PUSH1 0xC0 SWAP1 SWAP2 ADD CALLDATALOAD SWAP2 POP JUMP JUMPDEST PUSH1 0x20 DUP1 DUP3 MSTORE PUSH1 0xF SWAP1 DUP3 ADD MSTORE PUSH15 0x125B9D985B1A59081C1B185B881251 PUSH1 0x8A SHL PUSH1 0x40 DUP3 ADD MSTORE PUSH1 0x60 ADD SWAP1 JUMP JUMPDEST PUSH4 0x4E487B71 PUSH1 0xE0 SHL PUSH0 MSTORE PUSH1 0x11 PUSH1 0x4 MSTORE PUSH1 0x24 PUSH0 REVERT JUMPDEST PUSH0 PUSH1 0x1 DUP3 ADD PUSH2 0x2227 JUMPI PUSH2 0x2227 PUSH2 0x2202 JUMP JUMPDEST POP PUSH1 0x1 ADD SWAP1 JUMP JUMPDEST DUP1 DUP3 MUL DUP2 ISZERO DUP3 DUP3 DIV DUP5 EQ OR PUSH2 0x2245 JUMPI PUSH2 0x2245 PUSH2 0x2202 JUMP JUMPDEST SWAP3 SWAP2 POP POP JUMP JUMPDEST PUSH4 0x4E487B71 PUSH1 0xE0 SHL PUSH0 MSTORE PUSH1 0x12 PUSH1 0x4 MSTORE PUSH1 0x24 PUSH0 REVERT JUMPDEST PUSH0 DUP3 PUSH2 0x226D JUMPI PUSH2 0x226D PUSH2 0x224B JUMP JUMPDEST POP DIV SWAP1 JUMP JUMPDEST DUP1 DUP3 ADD DUP1 DUP3 GT ISZERO PUSH2 0x2245 JUMPI PUSH2 0x2245 PUSH2 0x2202 JUMP JUMPDEST DUP2 DUP2 SUB DUP2 DUP2 GT ISZERO PUSH2 0x2245 JUMPI PUSH2 0x2245 PUSH2 0x2202 JUMP JUMPDEST PUSH0 PUSH1 0x20 DUP3 DUP5 SUB SLT ISZERO PUSH2 0x22A8 JUMPI PUSH0 DUP1 REVERT JUMPDEST DUP2 MLOAD PUSH2 0x1FF4 DUP2 PUSH2 0x1FC5 JUMP JUMPDEST PUSH0 PUSH1 0x20 DUP3 DUP5 SUB SLT ISZERO PUSH2 0x22C3 JUMPI PUSH0 DUP1 REVERT JUMPDEST DUP2 MLOAD DUP1 ISZERO ISZERO DUP2 EQ PUSH2 0x1FF4 JUMPI PUSH0 DUP1 REVERT JUMPDEST PUSH1 0x20 DUP1 DUP3 MSTORE PUSH1 0x23 SWAP1 DUP3 ADD MSTORE PUSH32 0x4F6E6C792073656C6C65722063616E20706572666F726D207468697320616374 PUSH1 0x40 DUP3 ADD MSTORE PUSH3 0x34B7B7 PUSH1 0xE9 SHL PUSH1 0x60 DUP3 ADD MSTORE PUSH1 0x80 ADD SWAP1 JUMP JUMPDEST DUP2 DUP4 DUP3 CALLDATACOPY PUSH0 SWAP2 ADD SWAP1 DUP2 MSTORE SWAP2 SWAP1 POP JUMP JUMPDEST DUP7 DUP2 MSTORE DUP6 PUSH1 0x20 DUP3 ADD MSTORE DUP5 PUSH1 0x40 DUP3 ADD MSTORE DUP4 PUSH1 0x60 DUP3 ADD MSTORE DUP3 PUSH1 0x80 DUP3 ADD MSTORE PUSH1 0xC0 PUSH1 0xA0 DUP3 ADD MSTORE PUSH0 DUP3 MLOAD DUP1 PUSH1 0xC0 DUP5 ADD MSTORE DUP1 PUSH1 0x20 DUP6 ADD PUSH1 0xE0 DUP6 ADD MCOPY PUSH0 PUSH1 0xE0 DUP3 DUP6 ADD ADD MSTORE PUSH1 0xE0 PUSH1 0x1F NOT PUSH1 0x1F DUP4 ADD AND DUP5 ADD ADD SWAP2 POP POP SWAP8 SWAP7 POP POP POP POP POP POP POP JUMP JUMPDEST PUSH0 DUP2 PUSH2 0x238A JUMPI PUSH2 0x238A PUSH2 0x2202 JUMP JUMPDEST POP PUSH0 NOT ADD SWAP1 JUMP JUMPDEST PUSH0 DUP2 MLOAD DUP1 PUSH1 0x20 DUP5 ADD DUP6 MCOPY PUSH0 SWAP4 ADD SWAP3 DUP4 MSTORE POP SWAP1 SWAP2 SWAP1 POP JUMP JUMPDEST PUSH0 PUSH2 0x1FF4 DUP3 DUP5 PUSH2 0x2391 JUMP JUMPDEST PUSH0 DUP3 PUSH2 0x23C1 JUMPI PUSH2 0x23C1 PUSH2 0x224B JUMP JUMPDEST POP MOD SWAP1 JUMP JUMPDEST PUSH0 PUSH2 0x23D1 DUP3 DUP7 PUSH2 0x2391 JUMP JUMPDEST PUSH1 0x1 PUSH1 0xFD SHL DUP2 MSTORE PUSH2 0x23E5 PUSH1 0x1 DUP3 ADD DUP7 PUSH2 0x2391 JUMP JUMPDEST SWAP1 POP PUSH1 0x1 PUSH1 0xFD SHL DUP2 MSTORE PUSH2 0x23FB PUSH1 0x1 DUP3 ADD DUP6 PUSH2 0x2391 JUMP JUMPDEST SWAP7 SWAP6 POP POP POP POP POP POP JUMP JUMPDEST PUSH4 0x4E487B71 PUSH1 0xE0 SHL PUSH0 MSTORE PUSH1 0x41 PUSH1 0x4 MSTORE PUSH1 0x24 PUSH0 REVERT JUMPDEST PUSH4 0x4E487B71 PUSH1 0xE0 SHL PUSH0 MSTORE PUSH1 0x32 PUSH1 0x4 MSTORE PUSH1 0x24 PUSH0 REVERT INVALID LOG2 PUSH5 0x6970667358 0x22 SLT KECCAK256 0xDC 0xBB CALLDATALOAD 0xF7 DUP13 JUMP BLOBBASEFEE 0xAD SDIV SWAP15 0xEF PUSH24 0x377EEB359C4BEEC4D5BC26A5BF7C4A63B227F95D64736F6C PUSH4 0x4300081A STOP CALLER "
				},
				"gasEstimates": {
					"creation": {
						"codeDepositCost": "1863000",
						"executionCost": "infinite",
						"totalCost": "infinite"
					},
					"external": {
						"buyerToPlanId(address)": "2533",
						"createNFTPaymentPlan(address,address,uint256,uint256,uint256,uint256,uint256)": "infinite",
						"emergencyReleaseNFT(uint256,address)": "infinite",
						"getBuyerPlanId(address)": "2595",
						"getPlanDetails(uint256)": "23945",
						"makePayment(uint256)": "infinite",
						"nextPlanId()": "2383",
						"plans(uint256)": "35099",
						"processDownPayment(uint256)": "infinite",
						"seller()": "infinite",
						"setPaymentDates(uint256,uint256,string,uint256)": "infinite"
					},
					"internal": {
						"_completePlan(uint256)": "infinite",
						"_initializeMonthMap()": "infinite",
						"_processPayment(uint256,uint256,uint256)": "infinite",
						"_updateNextPaymentDate(uint256)": "infinite",
						"calculateTimestamp(uint256,string memory,uint256)": "infinite",
						"formatDate(uint256,string memory,uint256)": "infinite",
						"monthToString(uint256)": "infinite",
						"uint2str(uint256)": "infinite"
					}
				},
				"methodIdentifiers": {
					"buyerToPlanId(address)": "3d5d62d6",
					"createNFTPaymentPlan(address,address,uint256,uint256,uint256,uint256,uint256)": "fa502176",
					"emergencyReleaseNFT(uint256,address)": "95e2bf1f",
					"getBuyerPlanId(address)": "5c6144b9",
					"getPlanDetails(uint256)": "ad5abed8",
					"makePayment(uint256)": "5114cb52",
					"nextPlanId()": "5f8d26b2",
					"plans(uint256)": "b1620616",
					"processDownPayment(uint256)": "7ee9f33e",
					"seller()": "08551a53",
					"setPaymentDates(uint256,uint256,string,uint256)": "9e3b67f1"
				}
			},
			"storageLayout": {
				"storage": [
					{
						"astId": 10,
						"contract": "NFT_Payments.sol:NFTBuyNowPayLater",
						"label": "_status",
						"offset": 0,
						"slot": "0",
						"type": "t_uint256"
					},
					{
						"astId": 248,
						"contract": "NFT_Payments.sol:NFTBuyNowPayLater",
						"label": "buyerToPlanId",
						"offset": 0,
						"slot": "1",
						"type": "t_mapping(t_address,t_uint256)"
					},
					{
						"astId": 253,
						"contract": "NFT_Payments.sol:NFTBuyNowPayLater",
						"label": "plans",
						"offset": 0,
						"slot": "2",
						"type": "t_mapping(t_uint256,t_struct(Plan)244_storage)"
					},
					{
						"astId": 256,
						"contract": "NFT_Payments.sol:NFTBuyNowPayLater",
						"label": "nextPlanId",
						"offset": 0,
						"slot": "3",
						"type": "t_uint256"
					},
					{
						"astId": 274,
						"contract": "NFT_Payments.sol:NFTBuyNowPayLater",
						"label": "monthToNumber",
						"offset": 0,
						"slot": "4",
						"type": "t_mapping(t_string_memory_ptr,t_uint256)"
					}
				],
				"types": {
					"t_address": {
						"encoding": "inplace",
						"label": "address",
						"numberOfBytes": "20"
					},
					"t_bool": {
						"encoding": "inplace",
						"label": "bool",
						"numberOfBytes": "1"
					},
					"t_mapping(t_address,t_uint256)": {
						"encoding": "mapping",
						"key": "t_address",
						"label": "mapping(address => uint256)",
						"numberOfBytes": "32",
						"value": "t_uint256"
					},
					"t_mapping(t_string_memory_ptr,t_uint256)": {
						"encoding": "mapping",
						"key": "t_string_memory_ptr",
						"label": "mapping(string => uint256)",
						"numberOfBytes": "32",
						"value": "t_uint256"
					},
					"t_mapping(t_uint256,t_struct(Plan)244_storage)": {
						"encoding": "mapping",
						"key": "t_uint256",
						"label": "mapping(uint256 => struct NFTBuyNowPayLater.Plan)",
						"numberOfBytes": "32",
						"value": "t_struct(Plan)244_storage"
					},
					"t_string_memory_ptr": {
						"encoding": "bytes",
						"label": "string",
						"numberOfBytes": "32"
					},
					"t_struct(NFTDetails)206_storage": {
						"encoding": "inplace",
						"label": "struct NFTBuyNowPayLater.NFTDetails",
						"members": [
							{
								"astId": 201,
								"contract": "NFT_Payments.sol:NFTBuyNowPayLater",
								"label": "nftContract",
								"offset": 0,
								"slot": "0",
								"type": "t_address"
							},
							{
								"astId": 203,
								"contract": "NFT_Payments.sol:NFTBuyNowPayLater",
								"label": "tokenId",
								"offset": 0,
								"slot": "1",
								"type": "t_uint256"
							},
							{
								"astId": 205,
								"contract": "NFT_Payments.sol:NFTBuyNowPayLater",
								"label": "isTransferred",
								"offset": 0,
								"slot": "2",
								"type": "t_bool"
							}
						],
						"numberOfBytes": "96"
					},
					"t_struct(PaymentStatus)232_storage": {
						"encoding": "inplace",
						"label": "struct NFTBuyNowPayLater.PaymentStatus",
						"members": [
							{
								"astId": 223,
								"contract": "NFT_Payments.sol:NFTBuyNowPayLater",
								"label": "paymentDate",
								"offset": 0,
								"slot": "0",
								"type": "t_uint256"
							},
							{
								"astId": 225,
								"contract": "NFT_Payments.sol:NFTBuyNowPayLater",
								"label": "nextPaymentDate",
								"offset": 0,
								"slot": "1",
								"type": "t_uint256"
							},
							{
								"astId": 227,
								"contract": "NFT_Payments.sol:NFTBuyNowPayLater",
								"label": "missedPayments",
								"offset": 0,
								"slot": "2",
								"type": "t_uint256"
							},
							{
								"astId": 229,
								"contract": "NFT_Payments.sol:NFTBuyNowPayLater",
								"label": "isActive",
								"offset": 0,
								"slot": "3",
								"type": "t_bool"
							},
							{
								"astId": 231,
								"contract": "NFT_Payments.sol:NFTBuyNowPayLater",
								"label": "planCreationTime",
								"offset": 0,
								"slot": "4",
								"type": "t_uint256"
							}
						],
						"numberOfBytes": "160"
					},
					"t_struct(PaymentTerms)221_storage": {
						"encoding": "inplace",
						"label": "struct NFTBuyNowPayLater.PaymentTerms",
						"members": [
							{
								"astId": 208,
								"contract": "NFT_Payments.sol:NFTBuyNowPayLater",
								"label": "totalCost",
								"offset": 0,
								"slot": "0",
								"type": "t_uint256"
							},
							{
								"astId": 210,
								"contract": "NFT_Payments.sol:NFTBuyNowPayLater",
								"label": "paymentPerMonth",
								"offset": 0,
								"slot": "1",
								"type": "t_uint256"
							},
							{
								"astId": 212,
								"contract": "NFT_Payments.sol:NFTBuyNowPayLater",
								"label": "totalPayments",
								"offset": 0,
								"slot": "2",
								"type": "t_uint256"
							},
							{
								"astId": 214,
								"contract": "NFT_Payments.sol:NFTBuyNowPayLater",
								"label": "penaltyPercent",
								"offset": 0,
								"slot": "3",
								"type": "t_uint256"
							},
							{
								"astId": 216,
								"contract": "NFT_Payments.sol:NFTBuyNowPayLater",
								"label": "remainingAmount",
								"offset": 0,
								"slot": "4",
								"type": "t_uint256"
							},
							{
								"astId": 218,
								"contract": "NFT_Payments.sol:NFTBuyNowPayLater",
								"label": "remainingPayments",
								"offset": 0,
								"slot": "5",
								"type": "t_uint256"
							},
							{
								"astId": 220,
								"contract": "NFT_Payments.sol:NFTBuyNowPayLater",
								"label": "downPaymentAmount",
								"offset": 0,
								"slot": "6",
								"type": "t_uint256"
							}
						],
						"numberOfBytes": "224"
					},
					"t_struct(Plan)244_storage": {
						"encoding": "inplace",
						"label": "struct NFTBuyNowPayLater.Plan",
						"members": [
							{
								"astId": 234,
								"contract": "NFT_Payments.sol:NFTBuyNowPayLater",
								"label": "buyer",
								"offset": 0,
								"slot": "0",
								"type": "t_address"
							},
							{
								"astId": 237,
								"contract": "NFT_Payments.sol:NFTBuyNowPayLater",
								"label": "nftDetails",
								"offset": 0,
								"slot": "1",
								"type": "t_struct(NFTDetails)206_storage"
							},
							{
								"astId": 240,
								"contract": "NFT_Payments.sol:NFTBuyNowPayLater",
								"label": "terms",
								"offset": 0,
								"slot": "4",
								"type": "t_struct(PaymentTerms)221_storage"
							},
							{
								"astId": 243,
								"contract": "NFT_Payments.sol:NFTBuyNowPayLater",
								"label": "status",
								"offset": 0,
								"slot": "11",
								"type": "t_struct(PaymentStatus)232_storage"
							}
						],
						"numberOfBytes": "512"
					},
					"t_uint256": {
						"encoding": "inplace",
						"label": "uint256",
						"numberOfBytes": "32"
					}
				}
			},
			"userdoc": {
				"kind": "user",
				"methods": {},
				"version": 1
			}
		}
	}
}