{
	"bonusallocation.sol": {
		"BonusAllocator": {
			"abi": [
				{
					"inputs": [],
					"stateMutability": "payable",
					"type": "constructor"
				},
				{
					"inputs": [
						{
							"internalType": "address",
							"name": "owner",
							"type": "address"
						}
					],
					"name": "OwnableInvalidOwner",
					"type": "error"
				},
				{
					"inputs": [
						{
							"internalType": "address",
							"name": "account",
							"type": "address"
						}
					],
					"name": "OwnableUnauthorizedAccount",
					"type": "error"
				},
				{
					"anonymous": false,
					"inputs": [
						{
							"indexed": true,
							"internalType": "address",
							"name": "addr",
							"type": "address"
						},
						{
							"indexed": false,
							"internalType": "uint256",
							"name": "bonusAmount",
							"type": "uint256"
						}
					],
					"name": "BonusAllocated",
					"type": "event"
				},
				{
					"anonymous": false,
					"inputs": [
						{
							"indexed": true,
							"internalType": "address",
							"name": "addr",
							"type": "address"
						},
						{
							"indexed": false,
							"internalType": "uint256",
							"name": "investmentAmount",
							"type": "uint256"
						}
					],
					"name": "InvestorAdded",
					"type": "event"
				},
				{
					"anonymous": false,
					"inputs": [
						{
							"indexed": true,
							"internalType": "address",
							"name": "previousOwner",
							"type": "address"
						},
						{
							"indexed": true,
							"internalType": "address",
							"name": "newOwner",
							"type": "address"
						}
					],
					"name": "OwnershipTransferred",
					"type": "event"
				},
				{
					"anonymous": false,
					"inputs": [
						{
							"indexed": true,
							"internalType": "address",
							"name": "owner",
							"type": "address"
						},
						{
							"indexed": false,
							"internalType": "uint256",
							"name": "amount",
							"type": "uint256"
						}
					],
					"name": "Withdrawal",
					"type": "event"
				},
				{
					"inputs": [],
					"name": "BASE_BONUS_PERCENTAGE",
					"outputs": [
						{
							"internalType": "uint256",
							"name": "",
							"type": "uint256"
						}
					],
					"stateMutability": "view",
					"type": "function"
				},
				{
					"inputs": [],
					"name": "BONUS_THRESHOLD",
					"outputs": [
						{
							"internalType": "uint256",
							"name": "",
							"type": "uint256"
						}
					],
					"stateMutability": "view",
					"type": "function"
				},
				{
					"inputs": [],
					"name": "HIGH_BONUS_PERCENTAGE",
					"outputs": [
						{
							"internalType": "uint256",
							"name": "",
							"type": "uint256"
						}
					],
					"stateMutability": "view",
					"type": "function"
				},
				{
					"inputs": [
						{
							"internalType": "address",
							"name": "_addr",
							"type": "address"
						},
						{
							"internalType": "uint256",
							"name": "_investmentAmount",
							"type": "uint256"
						}
					],
					"name": "addInvestor",
					"outputs": [],
					"stateMutability": "nonpayable",
					"type": "function"
				},
				{
					"inputs": [],
					"name": "allocateBonuses",
					"outputs": [],
					"stateMutability": "nonpayable",
					"type": "function"
				},
				{
					"inputs": [
						{
							"internalType": "address",
							"name": "",
							"type": "address"
						}
					],
					"name": "bonusesPaidOut",
					"outputs": [
						{
							"internalType": "bool",
							"name": "",
							"type": "bool"
						}
					],
					"stateMutability": "view",
					"type": "function"
				},
				{
					"inputs": [],
					"name": "getContractBalance",
					"outputs": [
						{
							"internalType": "uint256",
							"name": "",
							"type": "uint256"
						}
					],
					"stateMutability": "view",
					"type": "function"
				},
				{
					"inputs": [
						{
							"internalType": "uint256",
							"name": "",
							"type": "uint256"
						}
					],
					"name": "investors",
					"outputs": [
						{
							"internalType": "address",
							"name": "addr",
							"type": "address"
						},
						{
							"internalType": "uint256",
							"name": "investmentAmount",
							"type": "uint256"
						}
					],
					"stateMutability": "view",
					"type": "function"
				},
				{
					"inputs": [],
					"name": "owner",
					"outputs": [
						{
							"internalType": "address",
							"name": "",
							"type": "address"
						}
					],
					"stateMutability": "view",
					"type": "function"
				},
				{
					"inputs": [],
					"name": "renounceOwnership",
					"outputs": [],
					"stateMutability": "nonpayable",
					"type": "function"
				},
				{
					"inputs": [
						{
							"internalType": "address",
							"name": "newOwner",
							"type": "address"
						}
					],
					"name": "transferOwnership",
					"outputs": [],
					"stateMutability": "nonpayable",
					"type": "function"
				},
				{
					"inputs": [],
					"name": "withdraw",
					"outputs": [],
					"stateMutability": "nonpayable",
					"type": "function"
				},
				{
					"stateMutability": "payable",
					"type": "receive"
				}
			],
			"devdoc": {
				"errors": {
					"OwnableInvalidOwner(address)": [
						{
							"details": "The owner is not a valid owner account. (eg. `address(0)`)"
						}
					],
					"OwnableUnauthorizedAccount(address)": [
						{
							"details": "The caller account is not authorized to perform an operation."
						}
					]
				},
				"kind": "dev",
				"methods": {
					"owner()": {
						"details": "Returns the address of the current owner."
					},
					"renounceOwnership()": {
						"details": "Leaves the contract without owner. It will not be possible to call `onlyOwner` functions. Can only be called by the current owner. NOTE: Renouncing ownership will leave the contract without an owner, thereby disabling any functionality that is only available to the owner."
					},
					"transferOwnership(address)": {
						"details": "Transfers ownership of the contract to a new account (`newOwner`). Can only be called by the current owner."
					}
				},
				"version": 1
			},
			"evm": {
				"assembly": "    /* \"bonusallocation.sol\":252:3763  contract BonusAllocator is Ownable, ReentrancyGuard {... */\n  mstore(0x40, 0x80)\n    /* \"bonusallocation.sol\":1196:1206  msg.sender */\n  caller\n    /* \"@openzeppelin/contracts/access/Ownable.sol\":1297:1298  0 */\n  0x00\n    /* \"@openzeppelin/contracts/access/Ownable.sol\":1273:1299  initialOwner == address(0) */\n  0xffffffffffffffffffffffffffffffffffffffff\n  and\n    /* \"@openzeppelin/contracts/access/Ownable.sol\":1273:1285  initialOwner */\n  dup2\n    /* \"@openzeppelin/contracts/access/Ownable.sol\":1273:1299  initialOwner == address(0) */\n  0xffffffffffffffffffffffffffffffffffffffff\n  and\n  sub\n    /* \"@openzeppelin/contracts/access/Ownable.sol\":1269:1364  if (initialOwner == address(0)) {... */\n  tag_5\n  jumpi\n    /* \"@openzeppelin/contracts/access/Ownable.sol\":1350:1351  0 */\n  0x00\n    /* \"@openzeppelin/contracts/access/Ownable.sol\":1322:1353  OwnableInvalidOwner(address(0)) */\n  mload(0x40)\n  0x1e4fbdf700000000000000000000000000000000000000000000000000000000\n  dup2\n  mstore\n  0x04\n  add\n  tag_6\n  swap2\n  swap1\n  tag_7\n  jump\t// in\ntag_6:\n  mload(0x40)\n  dup1\n  swap2\n  sub\n  swap1\n  revert\n    /* \"@openzeppelin/contracts/access/Ownable.sol\":1269:1364  if (initialOwner == address(0)) {... */\ntag_5:\n    /* \"@openzeppelin/contracts/access/Ownable.sol\":1373:1405  _transferOwnership(initialOwner) */\n  tag_8\n    /* \"@openzeppelin/contracts/access/Ownable.sol\":1392:1404  initialOwner */\n  dup2\n    /* \"@openzeppelin/contracts/access/Ownable.sol\":1373:1391  _transferOwnership */\n  shl(0x20, tag_9)\n    /* \"@openzeppelin/contracts/access/Ownable.sol\":1373:1405  _transferOwnership(initialOwner) */\n  0x20\n  shr\n  jump\t// in\ntag_8:\n    /* \"@openzeppelin/contracts/access/Ownable.sol\":1225:1412  constructor(address initialOwner) {... */\n  pop\n    /* \"@openzeppelin/contracts/security/ReentrancyGuard.sol\":1716:1717  1 */\n  0x01\n    /* \"@openzeppelin/contracts/security/ReentrancyGuard.sol\":1821:1828  _status */\n  dup1\n    /* \"@openzeppelin/contracts/security/ReentrancyGuard.sol\":1821:1843  _status = _NOT_ENTERED */\n  dup2\n  swap1\n  sstore\n  pop\n    /* \"bonusallocation.sol\":252:3763  contract BonusAllocator is Ownable, ReentrancyGuard {... */\n  jump(tag_12)\n    /* \"@openzeppelin/contracts/access/Ownable.sol\":2912:3099  function _transferOwnership(address newOwner) internal virtual {... */\ntag_9:\n    /* \"@openzeppelin/contracts/access/Ownable.sol\":2985:3001  address oldOwner */\n  0x00\n    /* \"@openzeppelin/contracts/access/Ownable.sol\":3004:3010  _owner */\n  dup1\n  0x00\n  swap1\n  sload\n  swap1\n  0x0100\n  exp\n  swap1\n  div\n  0xffffffffffffffffffffffffffffffffffffffff\n  and\n    /* \"@openzeppelin/contracts/access/Ownable.sol\":2985:3010  address oldOwner = _owner */\n  swap1\n  pop\n    /* \"@openzeppelin/contracts/access/Ownable.sol\":3029:3037  newOwner */\n  dup2\n    /* \"@openzeppelin/contracts/access/Ownable.sol\":3020:3026  _owner */\n  0x00\n  dup1\n    /* \"@openzeppelin/contracts/access/Ownable.sol\":3020:3037  _owner = newOwner */\n  0x0100\n  exp\n  dup2\n  sload\n  dup2\n  0xffffffffffffffffffffffffffffffffffffffff\n  mul\n  not\n  and\n  swap1\n  dup4\n  0xffffffffffffffffffffffffffffffffffffffff\n  and\n  mul\n  or\n  swap1\n  sstore\n  pop\n    /* \"@openzeppelin/contracts/access/Ownable.sol\":3083:3091  newOwner */\n  dup2\n    /* \"@openzeppelin/contracts/access/Ownable.sol\":3052:3092  OwnershipTransferred(oldOwner, newOwner) */\n  0xffffffffffffffffffffffffffffffffffffffff\n  and\n    /* \"@openzeppelin/contracts/access/Ownable.sol\":3073:3081  oldOwner */\n  dup2\n    /* \"@openzeppelin/contracts/access/Ownable.sol\":3052:3092  OwnershipTransferred(oldOwner, newOwner) */\n  0xffffffffffffffffffffffffffffffffffffffff\n  and\n  0x8be0079c531659141344cd1fd0a4f28419497f9722a3daafe3b4186f6b6457e0\n  mload(0x40)\n  mload(0x40)\n  dup1\n  swap2\n  sub\n  swap1\n  log3\n    /* \"@openzeppelin/contracts/access/Ownable.sol\":2975:3099  {... */\n  pop\n    /* \"@openzeppelin/contracts/access/Ownable.sol\":2912:3099  function _transferOwnership(address newOwner) internal virtual {... */\n  pop\n  jump\t// out\n    /* \"#utility.yul\":7:133   */\ntag_14:\n    /* \"#utility.yul\":44:51   */\n  0x00\n    /* \"#utility.yul\":84:126   */\n  0xffffffffffffffffffffffffffffffffffffffff\n    /* \"#utility.yul\":77:82   */\n  dup3\n    /* \"#utility.yul\":73:127   */\n  and\n    /* \"#utility.yul\":62:127   */\n  swap1\n  pop\n    /* \"#utility.yul\":7:133   */\n  swap2\n  swap1\n  pop\n  jump\t// out\n    /* \"#utility.yul\":139:235   */\ntag_15:\n    /* \"#utility.yul\":176:183   */\n  0x00\n    /* \"#utility.yul\":205:229   */\n  tag_20\n    /* \"#utility.yul\":223:228   */\n  dup3\n    /* \"#utility.yul\":205:229   */\n  tag_14\n  jump\t// in\ntag_20:\n    /* \"#utility.yul\":194:229   */\n  swap1\n  pop\n    /* \"#utility.yul\":139:235   */\n  swap2\n  swap1\n  pop\n  jump\t// out\n    /* \"#utility.yul\":241:359   */\ntag_16:\n    /* \"#utility.yul\":328:352   */\n  tag_22\n    /* \"#utility.yul\":346:351   */\n  dup2\n    /* \"#utility.yul\":328:352   */\n  tag_15\n  jump\t// in\ntag_22:\n    /* \"#utility.yul\":323:326   */\n  dup3\n    /* \"#utility.yul\":316:353   */\n  mstore\n    /* \"#utility.yul\":241:359   */\n  pop\n  pop\n  jump\t// out\n    /* \"#utility.yul\":365:587   */\ntag_7:\n    /* \"#utility.yul\":458:462   */\n  0x00\n    /* \"#utility.yul\":496:498   */\n  0x20\n    /* \"#utility.yul\":485:494   */\n  dup3\n    /* \"#utility.yul\":481:499   */\n  add\n    /* \"#utility.yul\":473:499   */\n  swap1\n  pop\n    /* \"#utility.yul\":509:580   */\n  tag_24\n    /* \"#utility.yul\":577:578   */\n  0x00\n    /* \"#utility.yul\":566:575   */\n  dup4\n    /* \"#utility.yul\":562:579   */\n  add\n    /* \"#utility.yul\":553:559   */\n  dup5\n    /* \"#utility.yul\":509:580   */\n  tag_16\n  jump\t// in\ntag_24:\n    /* \"#utility.yul\":365:587   */\n  swap3\n  swap2\n  pop\n  pop\n  jump\t// out\n    /* \"bonusallocation.sol\":252:3763  contract BonusAllocator is Ownable, ReentrancyGuard {... */\ntag_12:\n  dataSize(sub_0)\n  dup1\n  dataOffset(sub_0)\n  0x00\n  codecopy\n  0x00\n  return\nstop\n\nsub_0: assembly {\n        /* \"bonusallocation.sol\":252:3763  contract BonusAllocator is Ownable, ReentrancyGuard {... */\n      mstore(0x40, 0x80)\n      jumpi(tag_1, lt(calldatasize, 0x04))\n      shr(0xe0, calldataload(0x00))\n      dup1\n      0x866ee57b\n      gt\n      tag_15\n      jumpi\n      dup1\n      0x866ee57b\n      eq\n      tag_9\n      jumpi\n      dup1\n      0x8da5cb5b\n      eq\n      tag_10\n      jumpi\n      dup1\n      0xb233f446\n      eq\n      tag_11\n      jumpi\n      dup1\n      0xc64ca1ee\n      eq\n      tag_12\n      jumpi\n      dup1\n      0xec20b457\n      eq\n      tag_13\n      jumpi\n      dup1\n      0xf2fde38b\n      eq\n      tag_14\n      jumpi\n      jump(tag_2)\n    tag_15:\n      dup1\n      0x1c7119bf\n      eq\n      tag_3\n      jumpi\n      dup1\n      0x22db4143\n      eq\n      tag_4\n      jumpi\n      dup1\n      0x3ccfd60b\n      eq\n      tag_5\n      jumpi\n      dup1\n      0x3feb5f2b\n      eq\n      tag_6\n      jumpi\n      dup1\n      0x6f9fb98a\n      eq\n      tag_7\n      jumpi\n      dup1\n      0x715018a6\n      eq\n      tag_8\n      jumpi\n      jump(tag_2)\n    tag_1:\n      jumpi(tag_2, calldatasize)\n      stop\n    tag_2:\n      0x00\n      dup1\n      revert\n        /* \"bonusallocation.sol\":635:681  uint constant public BASE_BONUS_PERCENTAGE = 5 */\n    tag_3:\n      callvalue\n      dup1\n      iszero\n      tag_18\n      jumpi\n      0x00\n      dup1\n      revert\n    tag_18:\n      pop\n      tag_19\n      tag_20\n      jump\t// in\n    tag_19:\n      mload(0x40)\n      tag_21\n      swap2\n      swap1\n      tag_22\n      jump\t// in\n    tag_21:\n      mload(0x40)\n      dup1\n      swap2\n      sub\n      swap1\n      return\n        /* \"bonusallocation.sol\":544:587  uint constant public BONUS_THRESHOLD = 1000 */\n    tag_4:\n      callvalue\n      dup1\n      iszero\n      tag_23\n      jumpi\n      0x00\n      dup1\n      revert\n    tag_23:\n      pop\n      tag_24\n      tag_25\n      jump\t// in\n    tag_24:\n      mload(0x40)\n      tag_26\n      swap2\n      swap1\n      tag_22\n      jump\t// in\n    tag_26:\n      mload(0x40)\n      dup1\n      swap2\n      sub\n      swap1\n      return\n        /* \"bonusallocation.sol\":3234:3594  function withdraw() public onlyOwner nonReentrant {... */\n    tag_5:\n      callvalue\n      dup1\n      iszero\n      tag_27\n      jumpi\n      0x00\n      dup1\n      revert\n    tag_27:\n      pop\n      tag_28\n      tag_29\n      jump\t// in\n    tag_28:\n      stop\n        /* \"bonusallocation.sol\":398:425  Investor[] public investors */\n    tag_6:\n      callvalue\n      dup1\n      iszero\n      tag_30\n      jumpi\n      0x00\n      dup1\n      revert\n    tag_30:\n      pop\n      tag_31\n      0x04\n      dup1\n      calldatasize\n      sub\n      dup2\n      add\n      swap1\n      tag_32\n      swap2\n      swap1\n      tag_33\n      jump\t// in\n    tag_32:\n      tag_34\n      jump\t// in\n    tag_31:\n      mload(0x40)\n      tag_35\n      swap3\n      swap2\n      swap1\n      tag_36\n      jump\t// in\n    tag_35:\n      mload(0x40)\n      dup1\n      swap2\n      sub\n      swap1\n      return\n        /* \"bonusallocation.sol\":3656:3760  function getContractBalance() public view returns (uint) {... */\n    tag_7:\n      callvalue\n      dup1\n      iszero\n      tag_37\n      jumpi\n      0x00\n      dup1\n      revert\n    tag_37:\n      pop\n      tag_38\n      tag_39\n      jump\t// in\n    tag_38:\n      mload(0x40)\n      tag_40\n      swap2\n      swap1\n      tag_22\n      jump\t// in\n    tag_40:\n      mload(0x40)\n      dup1\n      swap2\n      sub\n      swap1\n      return\n        /* \"@openzeppelin/contracts/access/Ownable.sol\":2293:2394  function renounceOwnership() public virtual onlyOwner {... */\n    tag_8:\n      callvalue\n      dup1\n      iszero\n      tag_41\n      jumpi\n      0x00\n      dup1\n      revert\n    tag_41:\n      pop\n      tag_42\n      tag_43\n      jump\t// in\n    tag_42:\n      stop\n        /* \"bonusallocation.sol\":434:480  mapping(address => bool) public bonusesPaidOut */\n    tag_9:\n      callvalue\n      dup1\n      iszero\n      tag_44\n      jumpi\n      0x00\n      dup1\n      revert\n    tag_44:\n      pop\n      tag_45\n      0x04\n      dup1\n      calldatasize\n      sub\n      dup2\n      add\n      swap1\n      tag_46\n      swap2\n      swap1\n      tag_47\n      jump\t// in\n    tag_46:\n      tag_48\n      jump\t// in\n    tag_45:\n      mload(0x40)\n      tag_49\n      swap2\n      swap1\n      tag_50\n      jump\t// in\n    tag_49:\n      mload(0x40)\n      dup1\n      swap2\n      sub\n      swap1\n      return\n        /* \"@openzeppelin/contracts/access/Ownable.sol\":1638:1723  function owner() public view virtual returns (address) {... */\n    tag_10:\n      callvalue\n      dup1\n      iszero\n      tag_51\n      jumpi\n      0x00\n      dup1\n      revert\n    tag_51:\n      pop\n      tag_52\n      tag_53\n      jump\t// in\n    tag_52:\n      mload(0x40)\n      tag_54\n      swap2\n      swap1\n      tag_55\n      jump\t// in\n    tag_54:\n      mload(0x40)\n      dup1\n      swap2\n      sub\n      swap1\n      return\n        /* \"bonusallocation.sol\":694:741  uint constant public HIGH_BONUS_PERCENTAGE = 10 */\n    tag_11:\n      callvalue\n      dup1\n      iszero\n      tag_56\n      jumpi\n      0x00\n      dup1\n      revert\n    tag_56:\n      pop\n      tag_57\n      tag_58\n      jump\t// in\n    tag_57:\n      mload(0x40)\n      tag_59\n      swap2\n      swap1\n      tag_22\n      jump\t// in\n    tag_59:\n      mload(0x40)\n      dup1\n      swap2\n      sub\n      swap1\n      return\n        /* \"bonusallocation.sol\":1993:3051  function allocateBonuses() public onlyOwner nonReentrant {... */\n    tag_12:\n      callvalue\n      dup1\n      iszero\n      tag_60\n      jumpi\n      0x00\n      dup1\n      revert\n    tag_60:\n      pop\n      tag_61\n      tag_62\n      jump\t// in\n    tag_61:\n      stop\n        /* \"bonusallocation.sol\":1266:1911  function addInvestor(address _addr, uint _investmentAmount) public onlyOwner {... */\n    tag_13:\n      callvalue\n      dup1\n      iszero\n      tag_63\n      jumpi\n      0x00\n      dup1\n      revert\n    tag_63:\n      pop\n      tag_64\n      0x04\n      dup1\n      calldatasize\n      sub\n      dup2\n      add\n      swap1\n      tag_65\n      swap2\n      swap1\n      tag_66\n      jump\t// in\n    tag_65:\n      tag_67\n      jump\t// in\n    tag_64:\n      stop\n        /* \"@openzeppelin/contracts/access/Ownable.sol\":2543:2758  function transferOwnership(address newOwner) public virtual onlyOwner {... */\n    tag_14:\n      callvalue\n      dup1\n      iszero\n      tag_68\n      jumpi\n      0x00\n      dup1\n      revert\n    tag_68:\n      pop\n      tag_69\n      0x04\n      dup1\n      calldatasize\n      sub\n      dup2\n      add\n      swap1\n      tag_70\n      swap2\n      swap1\n      tag_47\n      jump\t// in\n    tag_70:\n      tag_71\n      jump\t// in\n    tag_69:\n      stop\n        /* \"bonusallocation.sol\":635:681  uint constant public BASE_BONUS_PERCENTAGE = 5 */\n    tag_20:\n        /* \"bonusallocation.sol\":680:681  5 */\n      0x05\n        /* \"bonusallocation.sol\":635:681  uint constant public BASE_BONUS_PERCENTAGE = 5 */\n      dup2\n      jump\t// out\n        /* \"bonusallocation.sol\":544:587  uint constant public BONUS_THRESHOLD = 1000 */\n    tag_25:\n        /* \"bonusallocation.sol\":583:587  1000 */\n      0x03e8\n        /* \"bonusallocation.sol\":544:587  uint constant public BONUS_THRESHOLD = 1000 */\n      dup2\n      jump\t// out\n        /* \"bonusallocation.sol\":3234:3594  function withdraw() public onlyOwner nonReentrant {... */\n    tag_29:\n        /* \"@openzeppelin/contracts/access/Ownable.sol\":1531:1544  _checkOwner() */\n      tag_73\n        /* \"@openzeppelin/contracts/access/Ownable.sol\":1531:1542  _checkOwner */\n      tag_74\n        /* \"@openzeppelin/contracts/access/Ownable.sol\":1531:1544  _checkOwner() */\n      jump\t// in\n    tag_73:\n        /* \"@openzeppelin/contracts/security/ReentrancyGuard.sol\":2261:2282  _nonReentrantBefore() */\n      tag_76\n        /* \"@openzeppelin/contracts/security/ReentrancyGuard.sol\":2261:2280  _nonReentrantBefore */\n      tag_77\n        /* \"@openzeppelin/contracts/security/ReentrancyGuard.sol\":2261:2282  _nonReentrantBefore() */\n      jump\t// in\n    tag_76:\n        /* \"bonusallocation.sol\":3295:3307  uint balance */\n      0x00\n        /* \"bonusallocation.sol\":3310:3331  address(this).balance */\n      selfbalance\n        /* \"bonusallocation.sol\":3295:3331  uint balance = address(this).balance */\n      swap1\n      pop\n        /* \"bonusallocation.sol\":3360:3361  0 */\n      0x00\n        /* \"bonusallocation.sol\":3350:3357  balance */\n      dup2\n        /* \"bonusallocation.sol\":3350:3361  balance > 0 */\n      gt\n        /* \"bonusallocation.sol\":3342:3399  require(balance > 0, \"No Ether available for withdrawal\") */\n      tag_79\n      jumpi\n      mload(0x40)\n      0x08c379a000000000000000000000000000000000000000000000000000000000\n      dup2\n      mstore\n      0x04\n      add\n      tag_80\n      swap1\n      tag_81\n      jump\t// in\n    tag_80:\n      mload(0x40)\n      dup1\n      swap2\n      sub\n      swap1\n      revert\n    tag_79:\n        /* \"bonusallocation.sol\":3466:3473  owner() */\n      tag_82\n        /* \"bonusallocation.sol\":3466:3471  owner */\n      tag_53\n        /* \"bonusallocation.sol\":3466:3473  owner() */\n      jump\t// in\n    tag_82:\n        /* \"bonusallocation.sol\":3458:3483  payable(owner()).transfer */\n      0xffffffffffffffffffffffffffffffffffffffff\n      and\n        /* \"bonusallocation.sol\":3458:3492  payable(owner()).transfer(balance) */\n      0x08fc\n        /* \"bonusallocation.sol\":3484:3491  balance */\n      dup3\n        /* \"bonusallocation.sol\":3458:3492  payable(owner()).transfer(balance) */\n      swap1\n      dup2\n      iszero\n      mul\n      swap1\n      mload(0x40)\n      0x00\n      mload(0x40)\n      dup1\n      dup4\n      sub\n      dup2\n      dup6\n      dup9\n      dup9\n      call\n      swap4\n      pop\n      pop\n      pop\n      pop\n      iszero\n      dup1\n      iszero\n      tag_84\n      jumpi\n      returndatasize\n      0x00\n      dup1\n      returndatacopy\n      revert(0x00, returndatasize)\n    tag_84:\n      pop\n        /* \"bonusallocation.sol\":3569:3576  owner() */\n      tag_85\n        /* \"bonusallocation.sol\":3569:3574  owner */\n      tag_53\n        /* \"bonusallocation.sol\":3569:3576  owner() */\n      jump\t// in\n    tag_85:\n        /* \"bonusallocation.sol\":3558:3586  Withdrawal(owner(), balance) */\n      0xffffffffffffffffffffffffffffffffffffffff\n      and\n      0x7fcf532c15f0a6db0bd6d0e038bea71d30d808c7d98cb3bf7268a95bf5081b65\n        /* \"bonusallocation.sol\":3578:3585  balance */\n      dup3\n        /* \"bonusallocation.sol\":3558:3586  Withdrawal(owner(), balance) */\n      mload(0x40)\n      tag_86\n      swap2\n      swap1\n      tag_22\n      jump\t// in\n    tag_86:\n      mload(0x40)\n      dup1\n      swap2\n      sub\n      swap1\n      log2\n        /* \"bonusallocation.sol\":3284:3594  {... */\n      pop\n        /* \"@openzeppelin/contracts/security/ReentrancyGuard.sol\":2303:2323  _nonReentrantAfter() */\n      tag_87\n        /* \"@openzeppelin/contracts/security/ReentrancyGuard.sol\":2303:2321  _nonReentrantAfter */\n      tag_88\n        /* \"@openzeppelin/contracts/security/ReentrancyGuard.sol\":2303:2323  _nonReentrantAfter() */\n      jump\t// in\n    tag_87:\n        /* \"bonusallocation.sol\":3234:3594  function withdraw() public onlyOwner nonReentrant {... */\n      jump\t// out\n        /* \"bonusallocation.sol\":398:425  Investor[] public investors */\n    tag_34:\n      0x02\n      dup2\n      dup2\n      sload\n      dup2\n      lt\n      tag_89\n      jumpi\n      0x00\n      dup1\n      revert\n    tag_89:\n      swap1\n      0x00\n      mstore\n      keccak256(0x00, 0x20)\n      swap1\n      0x02\n      mul\n      add\n      0x00\n      swap2\n      pop\n      swap1\n      pop\n      dup1\n      0x00\n      add\n      0x00\n      swap1\n      sload\n      swap1\n      0x0100\n      exp\n      swap1\n      div\n      0xffffffffffffffffffffffffffffffffffffffff\n      and\n      swap1\n      dup1\n      0x01\n      add\n      sload\n      swap1\n      pop\n      dup3\n      jump\t// out\n        /* \"bonusallocation.sol\":3656:3760  function getContractBalance() public view returns (uint) {... */\n    tag_39:\n        /* \"bonusallocation.sol\":3707:3711  uint */\n      0x00\n        /* \"bonusallocation.sol\":3731:3752  address(this).balance */\n      selfbalance\n        /* \"bonusallocation.sol\":3724:3752  return address(this).balance */\n      swap1\n      pop\n        /* \"bonusallocation.sol\":3656:3760  function getContractBalance() public view returns (uint) {... */\n      swap1\n      jump\t// out\n        /* \"@openzeppelin/contracts/access/Ownable.sol\":2293:2394  function renounceOwnership() public virtual onlyOwner {... */\n    tag_43:\n        /* \"@openzeppelin/contracts/access/Ownable.sol\":1531:1544  _checkOwner() */\n      tag_93\n        /* \"@openzeppelin/contracts/access/Ownable.sol\":1531:1542  _checkOwner */\n      tag_74\n        /* \"@openzeppelin/contracts/access/Ownable.sol\":1531:1544  _checkOwner() */\n      jump\t// in\n    tag_93:\n        /* \"@openzeppelin/contracts/access/Ownable.sol\":2357:2387  _transferOwnership(address(0)) */\n      tag_95\n        /* \"@openzeppelin/contracts/access/Ownable.sol\":2384:2385  0 */\n      0x00\n        /* \"@openzeppelin/contracts/access/Ownable.sol\":2357:2375  _transferOwnership */\n      tag_96\n        /* \"@openzeppelin/contracts/access/Ownable.sol\":2357:2387  _transferOwnership(address(0)) */\n      jump\t// in\n    tag_95:\n        /* \"@openzeppelin/contracts/access/Ownable.sol\":2293:2394  function renounceOwnership() public virtual onlyOwner {... */\n      jump\t// out\n        /* \"bonusallocation.sol\":434:480  mapping(address => bool) public bonusesPaidOut */\n    tag_48:\n      mstore(0x20, 0x03)\n      dup1\n      0x00\n      mstore\n      keccak256(0x00, 0x40)\n      0x00\n      swap2\n      pop\n      sload\n      swap1\n      0x0100\n      exp\n      swap1\n      div\n      0xff\n      and\n      dup2\n      jump\t// out\n        /* \"@openzeppelin/contracts/access/Ownable.sol\":1638:1723  function owner() public view virtual returns (address) {... */\n    tag_53:\n        /* \"@openzeppelin/contracts/access/Ownable.sol\":1684:1691  address */\n      0x00\n        /* \"@openzeppelin/contracts/access/Ownable.sol\":1710:1716  _owner */\n      dup1\n      0x00\n      swap1\n      sload\n      swap1\n      0x0100\n      exp\n      swap1\n      div\n      0xffffffffffffffffffffffffffffffffffffffff\n      and\n        /* \"@openzeppelin/contracts/access/Ownable.sol\":1703:1716  return _owner */\n      swap1\n      pop\n        /* \"@openzeppelin/contracts/access/Ownable.sol\":1638:1723  function owner() public view virtual returns (address) {... */\n      swap1\n      jump\t// out\n        /* \"bonusallocation.sol\":694:741  uint constant public HIGH_BONUS_PERCENTAGE = 10 */\n    tag_58:\n        /* \"bonusallocation.sol\":739:741  10 */\n      0x0a\n        /* \"bonusallocation.sol\":694:741  uint constant public HIGH_BONUS_PERCENTAGE = 10 */\n      dup2\n      jump\t// out\n        /* \"bonusallocation.sol\":1993:3051  function allocateBonuses() public onlyOwner nonReentrant {... */\n    tag_62:\n        /* \"@openzeppelin/contracts/access/Ownable.sol\":1531:1544  _checkOwner() */\n      tag_99\n        /* \"@openzeppelin/contracts/access/Ownable.sol\":1531:1542  _checkOwner */\n      tag_74\n        /* \"@openzeppelin/contracts/access/Ownable.sol\":1531:1544  _checkOwner() */\n      jump\t// in\n    tag_99:\n        /* \"@openzeppelin/contracts/security/ReentrancyGuard.sol\":2261:2282  _nonReentrantBefore() */\n      tag_101\n        /* \"@openzeppelin/contracts/security/ReentrancyGuard.sol\":2261:2280  _nonReentrantBefore */\n      tag_77\n        /* \"@openzeppelin/contracts/security/ReentrancyGuard.sol\":2261:2282  _nonReentrantBefore() */\n      jump\t// in\n    tag_101:\n        /* \"bonusallocation.sol\":2066:2072  uint i */\n      0x00\n        /* \"bonusallocation.sol\":2061:3044  for (uint i = 0; i < investors.length; i++) {... */\n    tag_103:\n        /* \"bonusallocation.sol\":2082:2091  investors */\n      0x02\n        /* \"bonusallocation.sol\":2082:2098  investors.length */\n      dup1\n      sload\n      swap1\n      pop\n        /* \"bonusallocation.sol\":2078:2079  i */\n      dup2\n        /* \"bonusallocation.sol\":2078:2098  i < investors.length */\n      lt\n        /* \"bonusallocation.sol\":2061:3044  for (uint i = 0; i < investors.length; i++) {... */\n      iszero\n      tag_104\n      jumpi\n        /* \"bonusallocation.sol\":2120:2143  address investorAddress */\n      0x00\n        /* \"bonusallocation.sol\":2146:2155  investors */\n      0x02\n        /* \"bonusallocation.sol\":2156:2157  i */\n      dup3\n        /* \"bonusallocation.sol\":2146:2158  investors[i] */\n      dup2\n      sload\n      dup2\n      lt\n      tag_106\n      jumpi\n      tag_107\n      tag_108\n      jump\t// in\n    tag_107:\n    tag_106:\n      swap1\n      0x00\n      mstore\n      keccak256(0x00, 0x20)\n      swap1\n      0x02\n      mul\n      add\n        /* \"bonusallocation.sol\":2146:2163  investors[i].addr */\n      0x00\n      add\n      0x00\n      swap1\n      sload\n      swap1\n      0x0100\n      exp\n      swap1\n      div\n      0xffffffffffffffffffffffffffffffffffffffff\n      and\n        /* \"bonusallocation.sol\":2120:2163  address investorAddress = investors[i].addr */\n      swap1\n      pop\n        /* \"bonusallocation.sol\":2246:2260  bonusesPaidOut */\n      0x03\n        /* \"bonusallocation.sol\":2246:2277  bonusesPaidOut[investorAddress] */\n      0x00\n        /* \"bonusallocation.sol\":2261:2276  investorAddress */\n      dup3\n        /* \"bonusallocation.sol\":2246:2277  bonusesPaidOut[investorAddress] */\n      0xffffffffffffffffffffffffffffffffffffffff\n      and\n      0xffffffffffffffffffffffffffffffffffffffff\n      and\n      dup2\n      mstore\n      0x20\n      add\n      swap1\n      dup2\n      mstore\n      0x20\n      add\n      0x00\n      keccak256\n      0x00\n      swap1\n      sload\n      swap1\n      0x0100\n      exp\n      swap1\n      div\n      0xff\n      and\n        /* \"bonusallocation.sol\":2245:2277  !bonusesPaidOut[investorAddress] */\n      iszero\n        /* \"bonusallocation.sol\":2237:2300  require(!bonusesPaidOut[investorAddress], \"Bonus already paid\") */\n      tag_110\n      jumpi\n      mload(0x40)\n      0x08c379a000000000000000000000000000000000000000000000000000000000\n      dup2\n      mstore\n      0x04\n      add\n      tag_111\n      swap1\n      tag_112\n      jump\t// in\n    tag_111:\n      mload(0x40)\n      dup1\n      swap2\n      sub\n      swap1\n      revert\n    tag_110:\n        /* \"bonusallocation.sol\":2317:2337  uint bonusPercentage */\n      0x00\n        /* \"bonusallocation.sol\":680:681  5 */\n      0x05\n        /* \"bonusallocation.sol\":2317:2361  uint bonusPercentage = BASE_BONUS_PERCENTAGE */\n      swap1\n      pop\n        /* \"bonusallocation.sol\":583:587  1000 */\n      0x03e8\n        /* \"bonusallocation.sol\":2452:2461  investors */\n      0x02\n        /* \"bonusallocation.sol\":2462:2463  i */\n      dup5\n        /* \"bonusallocation.sol\":2452:2464  investors[i] */\n      dup2\n      sload\n      dup2\n      lt\n      tag_113\n      jumpi\n      tag_114\n      tag_108\n      jump\t// in\n    tag_114:\n    tag_113:\n      swap1\n      0x00\n      mstore\n      keccak256(0x00, 0x20)\n      swap1\n      0x02\n      mul\n      add\n        /* \"bonusallocation.sol\":2452:2481  investors[i].investmentAmount */\n      0x01\n      add\n      sload\n        /* \"bonusallocation.sol\":2452:2499  investors[i].investmentAmount > BONUS_THRESHOLD */\n      gt\n        /* \"bonusallocation.sol\":2448:2575  if (investors[i].investmentAmount > BONUS_THRESHOLD) {... */\n      iszero\n      tag_116\n      jumpi\n        /* \"bonusallocation.sol\":739:741  10 */\n      0x0a\n        /* \"bonusallocation.sol\":2520:2559  bonusPercentage = HIGH_BONUS_PERCENTAGE */\n      swap1\n      pop\n        /* \"bonusallocation.sol\":2448:2575  if (investors[i].investmentAmount > BONUS_THRESHOLD) {... */\n    tag_116:\n        /* \"bonusallocation.sol\":2591:2607  uint bonusAmount */\n      0x00\n        /* \"bonusallocation.sol\":2662:2665  100 */\n      0x64\n        /* \"bonusallocation.sol\":2643:2658  bonusPercentage */\n      dup3\n        /* \"bonusallocation.sol\":2611:2620  investors */\n      0x02\n        /* \"bonusallocation.sol\":2621:2622  i */\n      dup7\n        /* \"bonusallocation.sol\":2611:2623  investors[i] */\n      dup2\n      sload\n      dup2\n      lt\n      tag_117\n      jumpi\n      tag_118\n      tag_108\n      jump\t// in\n    tag_118:\n    tag_117:\n      swap1\n      0x00\n      mstore\n      keccak256(0x00, 0x20)\n      swap1\n      0x02\n      mul\n      add\n        /* \"bonusallocation.sol\":2611:2640  investors[i].investmentAmount */\n      0x01\n      add\n      sload\n        /* \"bonusallocation.sol\":2611:2658  investors[i].investmentAmount * bonusPercentage */\n      tag_120\n      swap2\n      swap1\n      tag_121\n      jump\t// in\n    tag_120:\n        /* \"bonusallocation.sol\":2610:2665  (investors[i].investmentAmount * bonusPercentage) / 100 */\n      tag_122\n      swap2\n      swap1\n      tag_123\n      jump\t// in\n    tag_122:\n        /* \"bonusallocation.sol\":2591:2665  uint bonusAmount = (investors[i].investmentAmount * bonusPercentage) / 100 */\n      swap1\n      pop\n        /* \"bonusallocation.sol\":2776:2791  investorAddress */\n      dup3\n        /* \"bonusallocation.sol\":2768:2801  payable(investorAddress).transfer */\n      0xffffffffffffffffffffffffffffffffffffffff\n      and\n        /* \"bonusallocation.sol\":2768:2814  payable(investorAddress).transfer(bonusAmount) */\n      0x08fc\n        /* \"bonusallocation.sol\":2802:2813  bonusAmount */\n      dup3\n        /* \"bonusallocation.sol\":2768:2814  payable(investorAddress).transfer(bonusAmount) */\n      swap1\n      dup2\n      iszero\n      mul\n      swap1\n      mload(0x40)\n      0x00\n      mload(0x40)\n      dup1\n      dup4\n      sub\n      dup2\n      dup6\n      dup9\n      dup9\n      call\n      swap4\n      pop\n      pop\n      pop\n      pop\n      iszero\n      dup1\n      iszero\n      tag_125\n      jumpi\n      returndatasize\n      0x00\n      dup1\n      returndatacopy\n      revert(0x00, returndatasize)\n    tag_125:\n      pop\n        /* \"bonusallocation.sol\":2904:2908  true */\n      0x01\n        /* \"bonusallocation.sol\":2870:2884  bonusesPaidOut */\n      0x03\n        /* \"bonusallocation.sol\":2870:2901  bonusesPaidOut[investorAddress] */\n      0x00\n        /* \"bonusallocation.sol\":2885:2900  investorAddress */\n      dup6\n        /* \"bonusallocation.sol\":2870:2901  bonusesPaidOut[investorAddress] */\n      0xffffffffffffffffffffffffffffffffffffffff\n      and\n      0xffffffffffffffffffffffffffffffffffffffff\n      and\n      dup2\n      mstore\n      0x20\n      add\n      swap1\n      dup2\n      mstore\n      0x20\n      add\n      0x00\n      keccak256\n      0x00\n        /* \"bonusallocation.sol\":2870:2908  bonusesPaidOut[investorAddress] = true */\n      0x0100\n      exp\n      dup2\n      sload\n      dup2\n      0xff\n      mul\n      not\n      and\n      swap1\n      dup4\n      iszero\n      iszero\n      mul\n      or\n      swap1\n      sstore\n      pop\n        /* \"bonusallocation.sol\":3003:3018  investorAddress */\n      dup3\n        /* \"bonusallocation.sol\":2988:3032  BonusAllocated(investorAddress, bonusAmount) */\n      0xffffffffffffffffffffffffffffffffffffffff\n      and\n      0x622bc185b97de1a541f53c8e1faf8c416e4a5c5eb3a75eb8c621ea7f479b9ade\n        /* \"bonusallocation.sol\":3020:3031  bonusAmount */\n      dup3\n        /* \"bonusallocation.sol\":2988:3032  BonusAllocated(investorAddress, bonusAmount) */\n      mload(0x40)\n      tag_126\n      swap2\n      swap1\n      tag_22\n      jump\t// in\n    tag_126:\n      mload(0x40)\n      dup1\n      swap2\n      sub\n      swap1\n      log2\n        /* \"bonusallocation.sol\":2105:3044  {... */\n      pop\n      pop\n      pop\n        /* \"bonusallocation.sol\":2100:2103  i++ */\n      dup1\n      dup1\n      0x01\n      add\n      swap2\n      pop\n      pop\n        /* \"bonusallocation.sol\":2061:3044  for (uint i = 0; i < investors.length; i++) {... */\n      jump(tag_103)\n    tag_104:\n      pop\n        /* \"@openzeppelin/contracts/security/ReentrancyGuard.sol\":2303:2323  _nonReentrantAfter() */\n      tag_127\n        /* \"@openzeppelin/contracts/security/ReentrancyGuard.sol\":2303:2321  _nonReentrantAfter */\n      tag_88\n        /* \"@openzeppelin/contracts/security/ReentrancyGuard.sol\":2303:2323  _nonReentrantAfter() */\n      jump\t// in\n    tag_127:\n        /* \"bonusallocation.sol\":1993:3051  function allocateBonuses() public onlyOwner nonReentrant {... */\n      jump\t// out\n        /* \"bonusallocation.sol\":1266:1911  function addInvestor(address _addr, uint _investmentAmount) public onlyOwner {... */\n    tag_67:\n        /* \"@openzeppelin/contracts/access/Ownable.sol\":1531:1544  _checkOwner() */\n      tag_129\n        /* \"@openzeppelin/contracts/access/Ownable.sol\":1531:1542  _checkOwner */\n      tag_74\n        /* \"@openzeppelin/contracts/access/Ownable.sol\":1531:1544  _checkOwner() */\n      jump\t// in\n    tag_129:\n        /* \"bonusallocation.sol\":1379:1380  0 */\n      0x00\n        /* \"bonusallocation.sol\":1362:1381  _addr != address(0) */\n      0xffffffffffffffffffffffffffffffffffffffff\n      and\n        /* \"bonusallocation.sol\":1362:1367  _addr */\n      dup3\n        /* \"bonusallocation.sol\":1362:1381  _addr != address(0) */\n      0xffffffffffffffffffffffffffffffffffffffff\n      and\n      sub\n        /* \"bonusallocation.sol\":1354:1401  require(_addr != address(0), \"Invalid address\") */\n      tag_131\n      jumpi\n      mload(0x40)\n      0x08c379a000000000000000000000000000000000000000000000000000000000\n      dup2\n      mstore\n      0x04\n      add\n      tag_132\n      swap1\n      tag_133\n      jump\t// in\n    tag_132:\n      mload(0x40)\n      dup1\n      swap2\n      sub\n      swap1\n      revert\n    tag_131:\n        /* \"bonusallocation.sol\":1440:1441  0 */\n      0x00\n        /* \"bonusallocation.sol\":1420:1437  _investmentAmount */\n      dup2\n        /* \"bonusallocation.sol\":1420:1441  _investmentAmount > 0 */\n      gt\n        /* \"bonusallocation.sol\":1412:1486  require(_investmentAmount > 0, \"Investment amount must be greater than 0\") */\n      tag_134\n      jumpi\n      mload(0x40)\n      0x08c379a000000000000000000000000000000000000000000000000000000000\n      dup2\n      mstore\n      0x04\n      add\n      tag_135\n      swap1\n      tag_136\n      jump\t// in\n    tag_135:\n      mload(0x40)\n      dup1\n      swap2\n      sub\n      swap1\n      revert\n    tag_134:\n        /* \"bonusallocation.sol\":1553:1559  uint i */\n      0x00\n        /* \"bonusallocation.sol\":1548:1681  for (uint i = 0; i < investors.length; i++) {... */\n    tag_137:\n        /* \"bonusallocation.sol\":1569:1578  investors */\n      0x02\n        /* \"bonusallocation.sol\":1569:1585  investors.length */\n      dup1\n      sload\n      swap1\n      pop\n        /* \"bonusallocation.sol\":1565:1566  i */\n      dup2\n        /* \"bonusallocation.sol\":1565:1585  i < investors.length */\n      lt\n        /* \"bonusallocation.sol\":1548:1681  for (uint i = 0; i < investors.length; i++) {... */\n      iszero\n      tag_138\n      jumpi\n        /* \"bonusallocation.sol\":1636:1641  _addr */\n      dup3\n        /* \"bonusallocation.sol\":1615:1641  investors[i].addr != _addr */\n      0xffffffffffffffffffffffffffffffffffffffff\n      and\n        /* \"bonusallocation.sol\":1615:1624  investors */\n      0x02\n        /* \"bonusallocation.sol\":1625:1626  i */\n      dup3\n        /* \"bonusallocation.sol\":1615:1627  investors[i] */\n      dup2\n      sload\n      dup2\n      lt\n      tag_140\n      jumpi\n      tag_141\n      tag_108\n      jump\t// in\n    tag_141:\n    tag_140:\n      swap1\n      0x00\n      mstore\n      keccak256(0x00, 0x20)\n      swap1\n      0x02\n      mul\n      add\n        /* \"bonusallocation.sol\":1615:1632  investors[i].addr */\n      0x00\n      add\n      0x00\n      swap1\n      sload\n      swap1\n      0x0100\n      exp\n      swap1\n      div\n      0xffffffffffffffffffffffffffffffffffffffff\n      and\n        /* \"bonusallocation.sol\":1615:1641  investors[i].addr != _addr */\n      0xffffffffffffffffffffffffffffffffffffffff\n      and\n      sub\n        /* \"bonusallocation.sol\":1607:1669  require(investors[i].addr != _addr, \"Investor already exists\") */\n      tag_143\n      jumpi\n      mload(0x40)\n      0x08c379a000000000000000000000000000000000000000000000000000000000\n      dup2\n      mstore\n      0x04\n      add\n      tag_144\n      swap1\n      tag_145\n      jump\t// in\n    tag_144:\n      mload(0x40)\n      dup1\n      swap2\n      sub\n      swap1\n      revert\n    tag_143:\n        /* \"bonusallocation.sol\":1587:1590  i++ */\n      dup1\n      dup1\n      0x01\n      add\n      swap2\n      pop\n      pop\n        /* \"bonusallocation.sol\":1548:1681  for (uint i = 0; i < investors.length; i++) {... */\n      jump(tag_137)\n    tag_138:\n      pop\n        /* \"bonusallocation.sol\":1735:1744  investors */\n      0x02\n        /* \"bonusallocation.sol\":1750:1784  Investor(_addr, _investmentAmount) */\n      mload(0x40)\n      dup1\n      0x40\n      add\n      0x40\n      mstore\n      dup1\n        /* \"bonusallocation.sol\":1759:1764  _addr */\n      dup5\n        /* \"bonusallocation.sol\":1750:1784  Investor(_addr, _investmentAmount) */\n      0xffffffffffffffffffffffffffffffffffffffff\n      and\n      dup2\n      mstore\n      0x20\n      add\n        /* \"bonusallocation.sol\":1766:1783  _investmentAmount */\n      dup4\n        /* \"bonusallocation.sol\":1750:1784  Investor(_addr, _investmentAmount) */\n      dup2\n      mstore\n      pop\n        /* \"bonusallocation.sol\":1735:1785  investors.push(Investor(_addr, _investmentAmount)) */\n      swap1\n      dup1\n      0x01\n      dup2\n      sload\n      add\n      dup1\n      dup3\n      sstore\n      dup1\n      swap2\n      pop\n      pop\n      0x01\n      swap1\n      sub\n      swap1\n      0x00\n      mstore\n      keccak256(0x00, 0x20)\n      swap1\n      0x02\n      mul\n      add\n      0x00\n      swap1\n      swap2\n      swap1\n      swap2\n      swap1\n      swap2\n      pop\n      0x00\n      dup3\n      add\n      mload\n      dup2\n      0x00\n      add\n      exp(0x0100, 0x00)\n      dup2\n      sload\n      dup2\n      0xffffffffffffffffffffffffffffffffffffffff\n      mul\n      not\n      and\n      swap1\n      dup4\n      0xffffffffffffffffffffffffffffffffffffffff\n      and\n      mul\n      or\n      swap1\n      sstore\n      pop\n      0x20\n      dup3\n      add\n      mload\n      dup2\n      0x01\n      add\n      sstore\n      pop\n      pop\n        /* \"bonusallocation.sol\":1878:1883  _addr */\n      dup2\n        /* \"bonusallocation.sol\":1864:1903  InvestorAdded(_addr, _investmentAmount) */\n      0xffffffffffffffffffffffffffffffffffffffff\n      and\n      0x65369179643f625f883e08154fa1232aefb8e808889a7622fc099ef64dcffce3\n        /* \"bonusallocation.sol\":1885:1902  _investmentAmount */\n      dup3\n        /* \"bonusallocation.sol\":1864:1903  InvestorAdded(_addr, _investmentAmount) */\n      mload(0x40)\n      tag_147\n      swap2\n      swap1\n      tag_22\n      jump\t// in\n    tag_147:\n      mload(0x40)\n      dup1\n      swap2\n      sub\n      swap1\n      log2\n        /* \"bonusallocation.sol\":1266:1911  function addInvestor(address _addr, uint _investmentAmount) public onlyOwner {... */\n      pop\n      pop\n      jump\t// out\n        /* \"@openzeppelin/contracts/access/Ownable.sol\":2543:2758  function transferOwnership(address newOwner) public virtual onlyOwner {... */\n    tag_71:\n        /* \"@openzeppelin/contracts/access/Ownable.sol\":1531:1544  _checkOwner() */\n      tag_149\n        /* \"@openzeppelin/contracts/access/Ownable.sol\":1531:1542  _checkOwner */\n      tag_74\n        /* \"@openzeppelin/contracts/access/Ownable.sol\":1531:1544  _checkOwner() */\n      jump\t// in\n    tag_149:\n        /* \"@openzeppelin/contracts/access/Ownable.sol\":2647:2648  0 */\n      0x00\n        /* \"@openzeppelin/contracts/access/Ownable.sol\":2627:2649  newOwner == address(0) */\n      0xffffffffffffffffffffffffffffffffffffffff\n      and\n        /* \"@openzeppelin/contracts/access/Ownable.sol\":2627:2635  newOwner */\n      dup2\n        /* \"@openzeppelin/contracts/access/Ownable.sol\":2627:2649  newOwner == address(0) */\n      0xffffffffffffffffffffffffffffffffffffffff\n      and\n      sub\n        /* \"@openzeppelin/contracts/access/Ownable.sol\":2623:2714  if (newOwner == address(0)) {... */\n      tag_151\n      jumpi\n        /* \"@openzeppelin/contracts/access/Ownable.sol\":2700:2701  0 */\n      0x00\n        /* \"@openzeppelin/contracts/access/Ownable.sol\":2672:2703  OwnableInvalidOwner(address(0)) */\n      mload(0x40)\n      0x1e4fbdf700000000000000000000000000000000000000000000000000000000\n      dup2\n      mstore\n      0x04\n      add\n      tag_152\n      swap2\n      swap1\n      tag_55\n      jump\t// in\n    tag_152:\n      mload(0x40)\n      dup1\n      swap2\n      sub\n      swap1\n      revert\n        /* \"@openzeppelin/contracts/access/Ownable.sol\":2623:2714  if (newOwner == address(0)) {... */\n    tag_151:\n        /* \"@openzeppelin/contracts/access/Ownable.sol\":2723:2751  _transferOwnership(newOwner) */\n      tag_153\n        /* \"@openzeppelin/contracts/access/Ownable.sol\":2742:2750  newOwner */\n      dup2\n        /* \"@openzeppelin/contracts/access/Ownable.sol\":2723:2741  _transferOwnership */\n      tag_96\n        /* \"@openzeppelin/contracts/access/Ownable.sol\":2723:2751  _transferOwnership(newOwner) */\n      jump\t// in\n    tag_153:\n        /* \"@openzeppelin/contracts/access/Ownable.sol\":2543:2758  function transferOwnership(address newOwner) public virtual onlyOwner {... */\n      pop\n      jump\t// out\n        /* \"@openzeppelin/contracts/access/Ownable.sol\":1796:1958  function _checkOwner() internal view virtual {... */\n    tag_74:\n        /* \"@openzeppelin/contracts/access/Ownable.sol\":1866:1878  _msgSender() */\n      tag_155\n        /* \"@openzeppelin/contracts/access/Ownable.sol\":1866:1876  _msgSender */\n      tag_156\n        /* \"@openzeppelin/contracts/access/Ownable.sol\":1866:1878  _msgSender() */\n      jump\t// in\n    tag_155:\n        /* \"@openzeppelin/contracts/access/Ownable.sol\":1855:1878  owner() != _msgSender() */\n      0xffffffffffffffffffffffffffffffffffffffff\n      and\n        /* \"@openzeppelin/contracts/access/Ownable.sol\":1855:1862  owner() */\n      tag_157\n        /* \"@openzeppelin/contracts/access/Ownable.sol\":1855:1860  owner */\n      tag_53\n        /* \"@openzeppelin/contracts/access/Ownable.sol\":1855:1862  owner() */\n      jump\t// in\n    tag_157:\n        /* \"@openzeppelin/contracts/access/Ownable.sol\":1855:1878  owner() != _msgSender() */\n      0xffffffffffffffffffffffffffffffffffffffff\n      and\n      eq\n        /* \"@openzeppelin/contracts/access/Ownable.sol\":1851:1952  if (owner() != _msgSender()) {... */\n      tag_158\n      jumpi\n        /* \"@openzeppelin/contracts/access/Ownable.sol\":1928:1940  _msgSender() */\n      tag_159\n        /* \"@openzeppelin/contracts/access/Ownable.sol\":1928:1938  _msgSender */\n      tag_156\n        /* \"@openzeppelin/contracts/access/Ownable.sol\":1928:1940  _msgSender() */\n      jump\t// in\n    tag_159:\n        /* \"@openzeppelin/contracts/access/Ownable.sol\":1901:1941  OwnableUnauthorizedAccount(_msgSender()) */\n      mload(0x40)\n      0x118cdaa700000000000000000000000000000000000000000000000000000000\n      dup2\n      mstore\n      0x04\n      add\n      tag_160\n      swap2\n      swap1\n      tag_55\n      jump\t// in\n    tag_160:\n      mload(0x40)\n      dup1\n      swap2\n      sub\n      swap1\n      revert\n        /* \"@openzeppelin/contracts/access/Ownable.sol\":1851:1952  if (owner() != _msgSender()) {... */\n    tag_158:\n        /* \"@openzeppelin/contracts/access/Ownable.sol\":1796:1958  function _checkOwner() internal view virtual {... */\n      jump\t// out\n        /* \"@openzeppelin/contracts/security/ReentrancyGuard.sol\":2336:2623  function _nonReentrantBefore() private {... */\n    tag_77:\n        /* \"@openzeppelin/contracts/security/ReentrancyGuard.sol\":1759:1760  2 */\n      0x02\n        /* \"@openzeppelin/contracts/security/ReentrancyGuard.sol\":2468:2475  _status */\n      sload(0x01)\n        /* \"@openzeppelin/contracts/security/ReentrancyGuard.sol\":2468:2487  _status != _ENTERED */\n      sub\n        /* \"@openzeppelin/contracts/security/ReentrancyGuard.sol\":2460:2523  require(_status != _ENTERED, \"ReentrancyGuard: reentrant call\") */\n      tag_162\n      jumpi\n      mload(0x40)\n      0x08c379a000000000000000000000000000000000000000000000000000000000\n      dup2\n      mstore\n      0x04\n      add\n      tag_163\n      swap1\n      tag_164\n      jump\t// in\n    tag_163:\n      mload(0x40)\n      dup1\n      swap2\n      sub\n      swap1\n      revert\n    tag_162:\n        /* \"@openzeppelin/contracts/security/ReentrancyGuard.sol\":1759:1760  2 */\n      0x02\n        /* \"@openzeppelin/contracts/security/ReentrancyGuard.sol\":2598:2605  _status */\n      0x01\n        /* \"@openzeppelin/contracts/security/ReentrancyGuard.sol\":2598:2616  _status = _ENTERED */\n      dup2\n      swap1\n      sstore\n      pop\n        /* \"@openzeppelin/contracts/security/ReentrancyGuard.sol\":2336:2623  function _nonReentrantBefore() private {... */\n      jump\t// out\n        /* \"@openzeppelin/contracts/security/ReentrancyGuard.sol\":2629:2838  function _nonReentrantAfter() private {... */\n    tag_88:\n        /* \"@openzeppelin/contracts/security/ReentrancyGuard.sol\":1716:1717  1 */\n      0x01\n        /* \"@openzeppelin/contracts/security/ReentrancyGuard.sol\":2809:2816  _status */\n      dup1\n        /* \"@openzeppelin/contracts/security/ReentrancyGuard.sol\":2809:2831  _status = _NOT_ENTERED */\n      dup2\n      swap1\n      sstore\n      pop\n        /* \"@openzeppelin/contracts/security/ReentrancyGuard.sol\":2629:2838  function _nonReentrantAfter() private {... */\n      jump\t// out\n        /* \"@openzeppelin/contracts/access/Ownable.sol\":2912:3099  function _transferOwnership(address newOwner) internal virtual {... */\n    tag_96:\n        /* \"@openzeppelin/contracts/access/Ownable.sol\":2985:3001  address oldOwner */\n      0x00\n        /* \"@openzeppelin/contracts/access/Ownable.sol\":3004:3010  _owner */\n      dup1\n      0x00\n      swap1\n      sload\n      swap1\n      0x0100\n      exp\n      swap1\n      div\n      0xffffffffffffffffffffffffffffffffffffffff\n      and\n        /* \"@openzeppelin/contracts/access/Ownable.sol\":2985:3010  address oldOwner = _owner */\n      swap1\n      pop\n        /* \"@openzeppelin/contracts/access/Ownable.sol\":3029:3037  newOwner */\n      dup2\n        /* \"@openzeppelin/contracts/access/Ownable.sol\":3020:3026  _owner */\n      0x00\n      dup1\n        /* \"@openzeppelin/contracts/access/Ownable.sol\":3020:3037  _owner = newOwner */\n      0x0100\n      exp\n      dup2\n      sload\n      dup2\n      0xffffffffffffffffffffffffffffffffffffffff\n      mul\n      not\n      and\n      swap1\n      dup4\n      0xffffffffffffffffffffffffffffffffffffffff\n      and\n      mul\n      or\n      swap1\n      sstore\n      pop\n        /* \"@openzeppelin/contracts/access/Ownable.sol\":3083:3091  newOwner */\n      dup2\n        /* \"@openzeppelin/contracts/access/Ownable.sol\":3052:3092  OwnershipTransferred(oldOwner, newOwner) */\n      0xffffffffffffffffffffffffffffffffffffffff\n      and\n        /* \"@openzeppelin/contracts/access/Ownable.sol\":3073:3081  oldOwner */\n      dup2\n        /* \"@openzeppelin/contracts/access/Ownable.sol\":3052:3092  OwnershipTransferred(oldOwner, newOwner) */\n      0xffffffffffffffffffffffffffffffffffffffff\n      and\n      0x8be0079c531659141344cd1fd0a4f28419497f9722a3daafe3b4186f6b6457e0\n      mload(0x40)\n      mload(0x40)\n      dup1\n      swap2\n      sub\n      swap1\n      log3\n        /* \"@openzeppelin/contracts/access/Ownable.sol\":2975:3099  {... */\n      pop\n        /* \"@openzeppelin/contracts/access/Ownable.sol\":2912:3099  function _transferOwnership(address newOwner) internal virtual {... */\n      pop\n      jump\t// out\n        /* \"@openzeppelin/contracts/utils/Context.sol\":656:752  function _msgSender() internal view virtual returns (address) {... */\n    tag_156:\n        /* \"@openzeppelin/contracts/utils/Context.sol\":709:716  address */\n      0x00\n        /* \"@openzeppelin/contracts/utils/Context.sol\":735:745  msg.sender */\n      caller\n        /* \"@openzeppelin/contracts/utils/Context.sol\":728:745  return msg.sender */\n      swap1\n      pop\n        /* \"@openzeppelin/contracts/utils/Context.sol\":656:752  function _msgSender() internal view virtual returns (address) {... */\n      swap1\n      jump\t// out\n        /* \"#utility.yul\":7:84   */\n    tag_168:\n        /* \"#utility.yul\":44:51   */\n      0x00\n        /* \"#utility.yul\":73:78   */\n      dup2\n        /* \"#utility.yul\":62:78   */\n      swap1\n      pop\n        /* \"#utility.yul\":7:84   */\n      swap2\n      swap1\n      pop\n      jump\t// out\n        /* \"#utility.yul\":90:208   */\n    tag_169:\n        /* \"#utility.yul\":177:201   */\n      tag_200\n        /* \"#utility.yul\":195:200   */\n      dup2\n        /* \"#utility.yul\":177:201   */\n      tag_168\n      jump\t// in\n    tag_200:\n        /* \"#utility.yul\":172:175   */\n      dup3\n        /* \"#utility.yul\":165:202   */\n      mstore\n        /* \"#utility.yul\":90:208   */\n      pop\n      pop\n      jump\t// out\n        /* \"#utility.yul\":214:436   */\n    tag_22:\n        /* \"#utility.yul\":307:311   */\n      0x00\n        /* \"#utility.yul\":345:347   */\n      0x20\n        /* \"#utility.yul\":334:343   */\n      dup3\n        /* \"#utility.yul\":330:348   */\n      add\n        /* \"#utility.yul\":322:348   */\n      swap1\n      pop\n        /* \"#utility.yul\":358:429   */\n      tag_202\n        /* \"#utility.yul\":426:427   */\n      0x00\n        /* \"#utility.yul\":415:424   */\n      dup4\n        /* \"#utility.yul\":411:428   */\n      add\n        /* \"#utility.yul\":402:408   */\n      dup5\n        /* \"#utility.yul\":358:429   */\n      tag_169\n      jump\t// in\n    tag_202:\n        /* \"#utility.yul\":214:436   */\n      swap3\n      swap2\n      pop\n      pop\n      jump\t// out\n        /* \"#utility.yul\":523:640   */\n    tag_171:\n        /* \"#utility.yul\":632:633   */\n      0x00\n        /* \"#utility.yul\":629:630   */\n      dup1\n        /* \"#utility.yul\":622:634   */\n      revert\n        /* \"#utility.yul\":769:891   */\n    tag_173:\n        /* \"#utility.yul\":842:866   */\n      tag_207\n        /* \"#utility.yul\":860:865   */\n      dup2\n        /* \"#utility.yul\":842:866   */\n      tag_168\n      jump\t// in\n    tag_207:\n        /* \"#utility.yul\":835:840   */\n      dup2\n        /* \"#utility.yul\":832:867   */\n      eq\n        /* \"#utility.yul\":822:885   */\n      tag_208\n      jumpi\n        /* \"#utility.yul\":881:882   */\n      0x00\n        /* \"#utility.yul\":878:879   */\n      dup1\n        /* \"#utility.yul\":871:883   */\n      revert\n        /* \"#utility.yul\":822:885   */\n    tag_208:\n        /* \"#utility.yul\":769:891   */\n      pop\n      jump\t// out\n        /* \"#utility.yul\":897:1036   */\n    tag_174:\n        /* \"#utility.yul\":943:948   */\n      0x00\n        /* \"#utility.yul\":981:987   */\n      dup2\n        /* \"#utility.yul\":968:988   */\n      calldataload\n        /* \"#utility.yul\":959:988   */\n      swap1\n      pop\n        /* \"#utility.yul\":997:1030   */\n      tag_210\n        /* \"#utility.yul\":1024:1029   */\n      dup2\n        /* \"#utility.yul\":997:1030   */\n      tag_173\n      jump\t// in\n    tag_210:\n        /* \"#utility.yul\":897:1036   */\n      swap3\n      swap2\n      pop\n      pop\n      jump\t// out\n        /* \"#utility.yul\":1042:1371   */\n    tag_33:\n        /* \"#utility.yul\":1101:1107   */\n      0x00\n        /* \"#utility.yul\":1150:1152   */\n      0x20\n        /* \"#utility.yul\":1138:1147   */\n      dup3\n        /* \"#utility.yul\":1129:1136   */\n      dup5\n        /* \"#utility.yul\":1125:1148   */\n      sub\n        /* \"#utility.yul\":1121:1153   */\n      slt\n        /* \"#utility.yul\":1118:1237   */\n      iszero\n      tag_212\n      jumpi\n        /* \"#utility.yul\":1156:1235   */\n      tag_213\n      tag_171\n      jump\t// in\n    tag_213:\n        /* \"#utility.yul\":1118:1237   */\n    tag_212:\n        /* \"#utility.yul\":1276:1277   */\n      0x00\n        /* \"#utility.yul\":1301:1354   */\n      tag_214\n        /* \"#utility.yul\":1346:1353   */\n      dup5\n        /* \"#utility.yul\":1337:1343   */\n      dup3\n        /* \"#utility.yul\":1326:1335   */\n      dup6\n        /* \"#utility.yul\":1322:1344   */\n      add\n        /* \"#utility.yul\":1301:1354   */\n      tag_174\n      jump\t// in\n    tag_214:\n        /* \"#utility.yul\":1291:1354   */\n      swap2\n      pop\n        /* \"#utility.yul\":1247:1364   */\n      pop\n        /* \"#utility.yul\":1042:1371   */\n      swap3\n      swap2\n      pop\n      pop\n      jump\t// out\n        /* \"#utility.yul\":1377:1503   */\n    tag_175:\n        /* \"#utility.yul\":1414:1421   */\n      0x00\n        /* \"#utility.yul\":1454:1496   */\n      0xffffffffffffffffffffffffffffffffffffffff\n        /* \"#utility.yul\":1447:1452   */\n      dup3\n        /* \"#utility.yul\":1443:1497   */\n      and\n        /* \"#utility.yul\":1432:1497   */\n      swap1\n      pop\n        /* \"#utility.yul\":1377:1503   */\n      swap2\n      swap1\n      pop\n      jump\t// out\n        /* \"#utility.yul\":1509:1605   */\n    tag_176:\n        /* \"#utility.yul\":1546:1553   */\n      0x00\n        /* \"#utility.yul\":1575:1599   */\n      tag_217\n        /* \"#utility.yul\":1593:1598   */\n      dup3\n        /* \"#utility.yul\":1575:1599   */\n      tag_175\n      jump\t// in\n    tag_217:\n        /* \"#utility.yul\":1564:1599   */\n      swap1\n      pop\n        /* \"#utility.yul\":1509:1605   */\n      swap2\n      swap1\n      pop\n      jump\t// out\n        /* \"#utility.yul\":1611:1729   */\n    tag_177:\n        /* \"#utility.yul\":1698:1722   */\n      tag_219\n        /* \"#utility.yul\":1716:1721   */\n      dup2\n        /* \"#utility.yul\":1698:1722   */\n      tag_176\n      jump\t// in\n    tag_219:\n        /* \"#utility.yul\":1693:1696   */\n      dup3\n        /* \"#utility.yul\":1686:1723   */\n      mstore\n        /* \"#utility.yul\":1611:1729   */\n      pop\n      pop\n      jump\t// out\n        /* \"#utility.yul\":1735:2067   */\n    tag_36:\n        /* \"#utility.yul\":1856:1860   */\n      0x00\n        /* \"#utility.yul\":1894:1896   */\n      0x40\n        /* \"#utility.yul\":1883:1892   */\n      dup3\n        /* \"#utility.yul\":1879:1897   */\n      add\n        /* \"#utility.yul\":1871:1897   */\n      swap1\n      pop\n        /* \"#utility.yul\":1907:1978   */\n      tag_221\n        /* \"#utility.yul\":1975:1976   */\n      0x00\n        /* \"#utility.yul\":1964:1973   */\n      dup4\n        /* \"#utility.yul\":1960:1977   */\n      add\n        /* \"#utility.yul\":1951:1957   */\n      dup6\n        /* \"#utility.yul\":1907:1978   */\n      tag_177\n      jump\t// in\n    tag_221:\n        /* \"#utility.yul\":1988:2060   */\n      tag_222\n        /* \"#utility.yul\":2056:2058   */\n      0x20\n        /* \"#utility.yul\":2045:2054   */\n      dup4\n        /* \"#utility.yul\":2041:2059   */\n      add\n        /* \"#utility.yul\":2032:2038   */\n      dup5\n        /* \"#utility.yul\":1988:2060   */\n      tag_169\n      jump\t// in\n    tag_222:\n        /* \"#utility.yul\":1735:2067   */\n      swap4\n      swap3\n      pop\n      pop\n      pop\n      jump\t// out\n        /* \"#utility.yul\":2073:2195   */\n    tag_178:\n        /* \"#utility.yul\":2146:2170   */\n      tag_224\n        /* \"#utility.yul\":2164:2169   */\n      dup2\n        /* \"#utility.yul\":2146:2170   */\n      tag_176\n      jump\t// in\n    tag_224:\n        /* \"#utility.yul\":2139:2144   */\n      dup2\n        /* \"#utility.yul\":2136:2171   */\n      eq\n        /* \"#utility.yul\":2126:2189   */\n      tag_225\n      jumpi\n        /* \"#utility.yul\":2185:2186   */\n      0x00\n        /* \"#utility.yul\":2182:2183   */\n      dup1\n        /* \"#utility.yul\":2175:2187   */\n      revert\n        /* \"#utility.yul\":2126:2189   */\n    tag_225:\n        /* \"#utility.yul\":2073:2195   */\n      pop\n      jump\t// out\n        /* \"#utility.yul\":2201:2340   */\n    tag_179:\n        /* \"#utility.yul\":2247:2252   */\n      0x00\n        /* \"#utility.yul\":2285:2291   */\n      dup2\n        /* \"#utility.yul\":2272:2292   */\n      calldataload\n        /* \"#utility.yul\":2263:2292   */\n      swap1\n      pop\n        /* \"#utility.yul\":2301:2334   */\n      tag_227\n        /* \"#utility.yul\":2328:2333   */\n      dup2\n        /* \"#utility.yul\":2301:2334   */\n      tag_178\n      jump\t// in\n    tag_227:\n        /* \"#utility.yul\":2201:2340   */\n      swap3\n      swap2\n      pop\n      pop\n      jump\t// out\n        /* \"#utility.yul\":2346:2675   */\n    tag_47:\n        /* \"#utility.yul\":2405:2411   */\n      0x00\n        /* \"#utility.yul\":2454:2456   */\n      0x20\n        /* \"#utility.yul\":2442:2451   */\n      dup3\n        /* \"#utility.yul\":2433:2440   */\n      dup5\n        /* \"#utility.yul\":2429:2452   */\n      sub\n        /* \"#utility.yul\":2425:2457   */\n      slt\n        /* \"#utility.yul\":2422:2541   */\n      iszero\n      tag_229\n      jumpi\n        /* \"#utility.yul\":2460:2539   */\n      tag_230\n      tag_171\n      jump\t// in\n    tag_230:\n        /* \"#utility.yul\":2422:2541   */\n    tag_229:\n        /* \"#utility.yul\":2580:2581   */\n      0x00\n        /* \"#utility.yul\":2605:2658   */\n      tag_231\n        /* \"#utility.yul\":2650:2657   */\n      dup5\n        /* \"#utility.yul\":2641:2647   */\n      dup3\n        /* \"#utility.yul\":2630:2639   */\n      dup6\n        /* \"#utility.yul\":2626:2648   */\n      add\n        /* \"#utility.yul\":2605:2658   */\n      tag_179\n      jump\t// in\n    tag_231:\n        /* \"#utility.yul\":2595:2658   */\n      swap2\n      pop\n        /* \"#utility.yul\":2551:2668   */\n      pop\n        /* \"#utility.yul\":2346:2675   */\n      swap3\n      swap2\n      pop\n      pop\n      jump\t// out\n        /* \"#utility.yul\":2681:2771   */\n    tag_180:\n        /* \"#utility.yul\":2715:2722   */\n      0x00\n        /* \"#utility.yul\":2758:2763   */\n      dup2\n        /* \"#utility.yul\":2751:2764   */\n      iszero\n        /* \"#utility.yul\":2744:2765   */\n      iszero\n        /* \"#utility.yul\":2733:2765   */\n      swap1\n      pop\n        /* \"#utility.yul\":2681:2771   */\n      swap2\n      swap1\n      pop\n      jump\t// out\n        /* \"#utility.yul\":2777:2886   */\n    tag_181:\n        /* \"#utility.yul\":2858:2879   */\n      tag_234\n        /* \"#utility.yul\":2873:2878   */\n      dup2\n        /* \"#utility.yul\":2858:2879   */\n      tag_180\n      jump\t// in\n    tag_234:\n        /* \"#utility.yul\":2853:2856   */\n      dup3\n        /* \"#utility.yul\":2846:2880   */\n      mstore\n        /* \"#utility.yul\":2777:2886   */\n      pop\n      pop\n      jump\t// out\n        /* \"#utility.yul\":2892:3102   */\n    tag_50:\n        /* \"#utility.yul\":2979:2983   */\n      0x00\n        /* \"#utility.yul\":3017:3019   */\n      0x20\n        /* \"#utility.yul\":3006:3015   */\n      dup3\n        /* \"#utility.yul\":3002:3020   */\n      add\n        /* \"#utility.yul\":2994:3020   */\n      swap1\n      pop\n        /* \"#utility.yul\":3030:3095   */\n      tag_236\n        /* \"#utility.yul\":3092:3093   */\n      0x00\n        /* \"#utility.yul\":3081:3090   */\n      dup4\n        /* \"#utility.yul\":3077:3094   */\n      add\n        /* \"#utility.yul\":3068:3074   */\n      dup5\n        /* \"#utility.yul\":3030:3095   */\n      tag_181\n      jump\t// in\n    tag_236:\n        /* \"#utility.yul\":2892:3102   */\n      swap3\n      swap2\n      pop\n      pop\n      jump\t// out\n        /* \"#utility.yul\":3108:3330   */\n    tag_55:\n        /* \"#utility.yul\":3201:3205   */\n      0x00\n        /* \"#utility.yul\":3239:3241   */\n      0x20\n        /* \"#utility.yul\":3228:3237   */\n      dup3\n        /* \"#utility.yul\":3224:3242   */\n      add\n        /* \"#utility.yul\":3216:3242   */\n      swap1\n      pop\n        /* \"#utility.yul\":3252:3323   */\n      tag_238\n        /* \"#utility.yul\":3320:3321   */\n      0x00\n        /* \"#utility.yul\":3309:3318   */\n      dup4\n        /* \"#utility.yul\":3305:3322   */\n      add\n        /* \"#utility.yul\":3296:3302   */\n      dup5\n        /* \"#utility.yul\":3252:3323   */\n      tag_177\n      jump\t// in\n    tag_238:\n        /* \"#utility.yul\":3108:3330   */\n      swap3\n      swap2\n      pop\n      pop\n      jump\t// out\n        /* \"#utility.yul\":3336:3810   */\n    tag_66:\n        /* \"#utility.yul\":3404:3410   */\n      0x00\n        /* \"#utility.yul\":3412:3418   */\n      dup1\n        /* \"#utility.yul\":3461:3463   */\n      0x40\n        /* \"#utility.yul\":3449:3458   */\n      dup4\n        /* \"#utility.yul\":3440:3447   */\n      dup6\n        /* \"#utility.yul\":3436:3459   */\n      sub\n        /* \"#utility.yul\":3432:3464   */\n      slt\n        /* \"#utility.yul\":3429:3548   */\n      iszero\n      tag_240\n      jumpi\n        /* \"#utility.yul\":3467:3546   */\n      tag_241\n      tag_171\n      jump\t// in\n    tag_241:\n        /* \"#utility.yul\":3429:3548   */\n    tag_240:\n        /* \"#utility.yul\":3587:3588   */\n      0x00\n        /* \"#utility.yul\":3612:3665   */\n      tag_242\n        /* \"#utility.yul\":3657:3664   */\n      dup6\n        /* \"#utility.yul\":3648:3654   */\n      dup3\n        /* \"#utility.yul\":3637:3646   */\n      dup7\n        /* \"#utility.yul\":3633:3655   */\n      add\n        /* \"#utility.yul\":3612:3665   */\n      tag_179\n      jump\t// in\n    tag_242:\n        /* \"#utility.yul\":3602:3665   */\n      swap3\n      pop\n        /* \"#utility.yul\":3558:3675   */\n      pop\n        /* \"#utility.yul\":3714:3716   */\n      0x20\n        /* \"#utility.yul\":3740:3793   */\n      tag_243\n        /* \"#utility.yul\":3785:3792   */\n      dup6\n        /* \"#utility.yul\":3776:3782   */\n      dup3\n        /* \"#utility.yul\":3765:3774   */\n      dup7\n        /* \"#utility.yul\":3761:3783   */\n      add\n        /* \"#utility.yul\":3740:3793   */\n      tag_174\n      jump\t// in\n    tag_243:\n        /* \"#utility.yul\":3730:3793   */\n      swap2\n      pop\n        /* \"#utility.yul\":3685:3803   */\n      pop\n        /* \"#utility.yul\":3336:3810   */\n      swap3\n      pop\n      swap3\n      swap1\n      pop\n      jump\t// out\n        /* \"#utility.yul\":3816:3985   */\n    tag_182:\n        /* \"#utility.yul\":3900:3911   */\n      0x00\n        /* \"#utility.yul\":3934:3940   */\n      dup3\n        /* \"#utility.yul\":3929:3932   */\n      dup3\n        /* \"#utility.yul\":3922:3941   */\n      mstore\n        /* \"#utility.yul\":3974:3978   */\n      0x20\n        /* \"#utility.yul\":3969:3972   */\n      dup3\n        /* \"#utility.yul\":3965:3979   */\n      add\n        /* \"#utility.yul\":3950:3979   */\n      swap1\n      pop\n        /* \"#utility.yul\":3816:3985   */\n      swap3\n      swap2\n      pop\n      pop\n      jump\t// out\n        /* \"#utility.yul\":3991:4211   */\n    tag_183:\n        /* \"#utility.yul\":4131:4165   */\n      0x4e6f20457468657220617661696c61626c6520666f7220776974686472617761\n        /* \"#utility.yul\":4127:4128   */\n      0x00\n        /* \"#utility.yul\":4119:4125   */\n      dup3\n        /* \"#utility.yul\":4115:4129   */\n      add\n        /* \"#utility.yul\":4108:4166   */\n      mstore\n        /* \"#utility.yul\":4200:4203   */\n      0x6c00000000000000000000000000000000000000000000000000000000000000\n        /* \"#utility.yul\":4195:4197   */\n      0x20\n        /* \"#utility.yul\":4187:4193   */\n      dup3\n        /* \"#utility.yul\":4183:4198   */\n      add\n        /* \"#utility.yul\":4176:4204   */\n      mstore\n        /* \"#utility.yul\":3991:4211   */\n      pop\n      jump\t// out\n        /* \"#utility.yul\":4217:4583   */\n    tag_184:\n        /* \"#utility.yul\":4359:4362   */\n      0x00\n        /* \"#utility.yul\":4380:4447   */\n      tag_247\n        /* \"#utility.yul\":4444:4446   */\n      0x21\n        /* \"#utility.yul\":4439:4442   */\n      dup4\n        /* \"#utility.yul\":4380:4447   */\n      tag_182\n      jump\t// in\n    tag_247:\n        /* \"#utility.yul\":4373:4447   */\n      swap2\n      pop\n        /* \"#utility.yul\":4456:4549   */\n      tag_248\n        /* \"#utility.yul\":4545:4548   */\n      dup3\n        /* \"#utility.yul\":4456:4549   */\n      tag_183\n      jump\t// in\n    tag_248:\n        /* \"#utility.yul\":4574:4576   */\n      0x40\n        /* \"#utility.yul\":4569:4572   */\n      dup3\n        /* \"#utility.yul\":4565:4577   */\n      add\n        /* \"#utility.yul\":4558:4577   */\n      swap1\n      pop\n        /* \"#utility.yul\":4217:4583   */\n      swap2\n      swap1\n      pop\n      jump\t// out\n        /* \"#utility.yul\":4589:5008   */\n    tag_81:\n        /* \"#utility.yul\":4755:4759   */\n      0x00\n        /* \"#utility.yul\":4793:4795   */\n      0x20\n        /* \"#utility.yul\":4782:4791   */\n      dup3\n        /* \"#utility.yul\":4778:4796   */\n      add\n        /* \"#utility.yul\":4770:4796   */\n      swap1\n      pop\n        /* \"#utility.yul\":4842:4851   */\n      dup2\n        /* \"#utility.yul\":4836:4840   */\n      dup2\n        /* \"#utility.yul\":4832:4852   */\n      sub\n        /* \"#utility.yul\":4828:4829   */\n      0x00\n        /* \"#utility.yul\":4817:4826   */\n      dup4\n        /* \"#utility.yul\":4813:4830   */\n      add\n        /* \"#utility.yul\":4806:4853   */\n      mstore\n        /* \"#utility.yul\":4870:5001   */\n      tag_250\n        /* \"#utility.yul\":4996:5000   */\n      dup2\n        /* \"#utility.yul\":4870:5001   */\n      tag_184\n      jump\t// in\n    tag_250:\n        /* \"#utility.yul\":4862:5001   */\n      swap1\n      pop\n        /* \"#utility.yul\":4589:5008   */\n      swap2\n      swap1\n      pop\n      jump\t// out\n        /* \"#utility.yul\":5014:5194   */\n    tag_108:\n        /* \"#utility.yul\":5062:5139   */\n      0x4e487b7100000000000000000000000000000000000000000000000000000000\n        /* \"#utility.yul\":5059:5060   */\n      0x00\n        /* \"#utility.yul\":5052:5140   */\n      mstore\n        /* \"#utility.yul\":5159:5163   */\n      0x32\n        /* \"#utility.yul\":5156:5157   */\n      0x04\n        /* \"#utility.yul\":5149:5164   */\n      mstore\n        /* \"#utility.yul\":5183:5187   */\n      0x24\n        /* \"#utility.yul\":5180:5181   */\n      0x00\n        /* \"#utility.yul\":5173:5188   */\n      revert\n        /* \"#utility.yul\":5200:5368   */\n    tag_185:\n        /* \"#utility.yul\":5340:5360   */\n      0x426f6e757320616c726561647920706169640000000000000000000000000000\n        /* \"#utility.yul\":5336:5337   */\n      0x00\n        /* \"#utility.yul\":5328:5334   */\n      dup3\n        /* \"#utility.yul\":5324:5338   */\n      add\n        /* \"#utility.yul\":5317:5361   */\n      mstore\n        /* \"#utility.yul\":5200:5368   */\n      pop\n      jump\t// out\n        /* \"#utility.yul\":5374:5740   */\n    tag_186:\n        /* \"#utility.yul\":5516:5519   */\n      0x00\n        /* \"#utility.yul\":5537:5604   */\n      tag_254\n        /* \"#utility.yul\":5601:5603   */\n      0x12\n        /* \"#utility.yul\":5596:5599   */\n      dup4\n        /* \"#utility.yul\":5537:5604   */\n      tag_182\n      jump\t// in\n    tag_254:\n        /* \"#utility.yul\":5530:5604   */\n      swap2\n      pop\n        /* \"#utility.yul\":5613:5706   */\n      tag_255\n        /* \"#utility.yul\":5702:5705   */\n      dup3\n        /* \"#utility.yul\":5613:5706   */\n      tag_185\n      jump\t// in\n    tag_255:\n        /* \"#utility.yul\":5731:5733   */\n      0x20\n        /* \"#utility.yul\":5726:5729   */\n      dup3\n        /* \"#utility.yul\":5722:5734   */\n      add\n        /* \"#utility.yul\":5715:5734   */\n      swap1\n      pop\n        /* \"#utility.yul\":5374:5740   */\n      swap2\n      swap1\n      pop\n      jump\t// out\n        /* \"#utility.yul\":5746:6165   */\n    tag_112:\n        /* \"#utility.yul\":5912:5916   */\n      0x00\n        /* \"#utility.yul\":5950:5952   */\n      0x20\n        /* \"#utility.yul\":5939:5948   */\n      dup3\n        /* \"#utility.yul\":5935:5953   */\n      add\n        /* \"#utility.yul\":5927:5953   */\n      swap1\n      pop\n        /* \"#utility.yul\":5999:6008   */\n      dup2\n        /* \"#utility.yul\":5993:5997   */\n      dup2\n        /* \"#utility.yul\":5989:6009   */\n      sub\n        /* \"#utility.yul\":5985:5986   */\n      0x00\n        /* \"#utility.yul\":5974:5983   */\n      dup4\n        /* \"#utility.yul\":5970:5987   */\n      add\n        /* \"#utility.yul\":5963:6010   */\n      mstore\n        /* \"#utility.yul\":6027:6158   */\n      tag_257\n        /* \"#utility.yul\":6153:6157   */\n      dup2\n        /* \"#utility.yul\":6027:6158   */\n      tag_186\n      jump\t// in\n    tag_257:\n        /* \"#utility.yul\":6019:6158   */\n      swap1\n      pop\n        /* \"#utility.yul\":5746:6165   */\n      swap2\n      swap1\n      pop\n      jump\t// out\n        /* \"#utility.yul\":6171:6351   */\n    tag_187:\n        /* \"#utility.yul\":6219:6296   */\n      0x4e487b7100000000000000000000000000000000000000000000000000000000\n        /* \"#utility.yul\":6216:6217   */\n      0x00\n        /* \"#utility.yul\":6209:6297   */\n      mstore\n        /* \"#utility.yul\":6316:6320   */\n      0x11\n        /* \"#utility.yul\":6313:6314   */\n      0x04\n        /* \"#utility.yul\":6306:6321   */\n      mstore\n        /* \"#utility.yul\":6340:6344   */\n      0x24\n        /* \"#utility.yul\":6337:6338   */\n      0x00\n        /* \"#utility.yul\":6330:6345   */\n      revert\n        /* \"#utility.yul\":6357:6767   */\n    tag_121:\n        /* \"#utility.yul\":6397:6404   */\n      0x00\n        /* \"#utility.yul\":6420:6440   */\n      tag_260\n        /* \"#utility.yul\":6438:6439   */\n      dup3\n        /* \"#utility.yul\":6420:6440   */\n      tag_168\n      jump\t// in\n    tag_260:\n        /* \"#utility.yul\":6415:6440   */\n      swap2\n      pop\n        /* \"#utility.yul\":6454:6474   */\n      tag_261\n        /* \"#utility.yul\":6472:6473   */\n      dup4\n        /* \"#utility.yul\":6454:6474   */\n      tag_168\n      jump\t// in\n    tag_261:\n        /* \"#utility.yul\":6449:6474   */\n      swap3\n      pop\n        /* \"#utility.yul\":6509:6510   */\n      dup3\n        /* \"#utility.yul\":6506:6507   */\n      dup3\n        /* \"#utility.yul\":6502:6511   */\n      mul\n        /* \"#utility.yul\":6531:6561   */\n      tag_262\n        /* \"#utility.yul\":6549:6560   */\n      dup2\n        /* \"#utility.yul\":6531:6561   */\n      tag_168\n      jump\t// in\n    tag_262:\n        /* \"#utility.yul\":6520:6561   */\n      swap2\n      pop\n        /* \"#utility.yul\":6710:6711   */\n      dup3\n        /* \"#utility.yul\":6701:6708   */\n      dup3\n        /* \"#utility.yul\":6697:6712   */\n      div\n        /* \"#utility.yul\":6694:6695   */\n      dup5\n        /* \"#utility.yul\":6691:6713   */\n      eq\n        /* \"#utility.yul\":6671:6672   */\n      dup4\n        /* \"#utility.yul\":6664:6673   */\n      iszero\n        /* \"#utility.yul\":6644:6727   */\n      or\n        /* \"#utility.yul\":6621:6760   */\n      tag_263\n      jumpi\n        /* \"#utility.yul\":6740:6758   */\n      tag_264\n      tag_187\n      jump\t// in\n    tag_264:\n        /* \"#utility.yul\":6621:6760   */\n    tag_263:\n        /* \"#utility.yul\":6405:6767   */\n      pop\n        /* \"#utility.yul\":6357:6767   */\n      swap3\n      swap2\n      pop\n      pop\n      jump\t// out\n        /* \"#utility.yul\":6773:6953   */\n    tag_188:\n        /* \"#utility.yul\":6821:6898   */\n      0x4e487b7100000000000000000000000000000000000000000000000000000000\n        /* \"#utility.yul\":6818:6819   */\n      0x00\n        /* \"#utility.yul\":6811:6899   */\n      mstore\n        /* \"#utility.yul\":6918:6922   */\n      0x12\n        /* \"#utility.yul\":6915:6916   */\n      0x04\n        /* \"#utility.yul\":6908:6923   */\n      mstore\n        /* \"#utility.yul\":6942:6946   */\n      0x24\n        /* \"#utility.yul\":6939:6940   */\n      0x00\n        /* \"#utility.yul\":6932:6947   */\n      revert\n        /* \"#utility.yul\":6959:7144   */\n    tag_123:\n        /* \"#utility.yul\":6999:7000   */\n      0x00\n        /* \"#utility.yul\":7016:7036   */\n      tag_267\n        /* \"#utility.yul\":7034:7035   */\n      dup3\n        /* \"#utility.yul\":7016:7036   */\n      tag_168\n      jump\t// in\n    tag_267:\n        /* \"#utility.yul\":7011:7036   */\n      swap2\n      pop\n        /* \"#utility.yul\":7050:7070   */\n      tag_268\n        /* \"#utility.yul\":7068:7069   */\n      dup4\n        /* \"#utility.yul\":7050:7070   */\n      tag_168\n      jump\t// in\n    tag_268:\n        /* \"#utility.yul\":7045:7070   */\n      swap3\n      pop\n        /* \"#utility.yul\":7089:7090   */\n      dup3\n        /* \"#utility.yul\":7079:7114   */\n      tag_269\n      jumpi\n        /* \"#utility.yul\":7094:7112   */\n      tag_270\n      tag_188\n      jump\t// in\n    tag_270:\n        /* \"#utility.yul\":7079:7114   */\n    tag_269:\n        /* \"#utility.yul\":7136:7137   */\n      dup3\n        /* \"#utility.yul\":7133:7134   */\n      dup3\n        /* \"#utility.yul\":7129:7138   */\n      div\n        /* \"#utility.yul\":7124:7138   */\n      swap1\n      pop\n        /* \"#utility.yul\":6959:7144   */\n      swap3\n      swap2\n      pop\n      pop\n      jump\t// out\n        /* \"#utility.yul\":7150:7315   */\n    tag_189:\n        /* \"#utility.yul\":7290:7307   */\n      0x496e76616c696420616464726573730000000000000000000000000000000000\n        /* \"#utility.yul\":7286:7287   */\n      0x00\n        /* \"#utility.yul\":7278:7284   */\n      dup3\n        /* \"#utility.yul\":7274:7288   */\n      add\n        /* \"#utility.yul\":7267:7308   */\n      mstore\n        /* \"#utility.yul\":7150:7315   */\n      pop\n      jump\t// out\n        /* \"#utility.yul\":7321:7687   */\n    tag_190:\n        /* \"#utility.yul\":7463:7466   */\n      0x00\n        /* \"#utility.yul\":7484:7551   */\n      tag_273\n        /* \"#utility.yul\":7548:7550   */\n      0x0f\n        /* \"#utility.yul\":7543:7546   */\n      dup4\n        /* \"#utility.yul\":7484:7551   */\n      tag_182\n      jump\t// in\n    tag_273:\n        /* \"#utility.yul\":7477:7551   */\n      swap2\n      pop\n        /* \"#utility.yul\":7560:7653   */\n      tag_274\n        /* \"#utility.yul\":7649:7652   */\n      dup3\n        /* \"#utility.yul\":7560:7653   */\n      tag_189\n      jump\t// in\n    tag_274:\n        /* \"#utility.yul\":7678:7680   */\n      0x20\n        /* \"#utility.yul\":7673:7676   */\n      dup3\n        /* \"#utility.yul\":7669:7681   */\n      add\n        /* \"#utility.yul\":7662:7681   */\n      swap1\n      pop\n        /* \"#utility.yul\":7321:7687   */\n      swap2\n      swap1\n      pop\n      jump\t// out\n        /* \"#utility.yul\":7693:8112   */\n    tag_133:\n        /* \"#utility.yul\":7859:7863   */\n      0x00\n        /* \"#utility.yul\":7897:7899   */\n      0x20\n        /* \"#utility.yul\":7886:7895   */\n      dup3\n        /* \"#utility.yul\":7882:7900   */\n      add\n        /* \"#utility.yul\":7874:7900   */\n      swap1\n      pop\n        /* \"#utility.yul\":7946:7955   */\n      dup2\n        /* \"#utility.yul\":7940:7944   */\n      dup2\n        /* \"#utility.yul\":7936:7956   */\n      sub\n        /* \"#utility.yul\":7932:7933   */\n      0x00\n        /* \"#utility.yul\":7921:7930   */\n      dup4\n        /* \"#utility.yul\":7917:7934   */\n      add\n        /* \"#utility.yul\":7910:7957   */\n      mstore\n        /* \"#utility.yul\":7974:8105   */\n      tag_276\n        /* \"#utility.yul\":8100:8104   */\n      dup2\n        /* \"#utility.yul\":7974:8105   */\n      tag_190\n      jump\t// in\n    tag_276:\n        /* \"#utility.yul\":7966:8105   */\n      swap1\n      pop\n        /* \"#utility.yul\":7693:8112   */\n      swap2\n      swap1\n      pop\n      jump\t// out\n        /* \"#utility.yul\":8118:8345   */\n    tag_191:\n        /* \"#utility.yul\":8258:8292   */\n      0x496e766573746d656e7420616d6f756e74206d75737420626520677265617465\n        /* \"#utility.yul\":8254:8255   */\n      0x00\n        /* \"#utility.yul\":8246:8252   */\n      dup3\n        /* \"#utility.yul\":8242:8256   */\n      add\n        /* \"#utility.yul\":8235:8293   */\n      mstore\n        /* \"#utility.yul\":8327:8337   */\n      0x72207468616e2030000000000000000000000000000000000000000000000000\n        /* \"#utility.yul\":8322:8324   */\n      0x20\n        /* \"#utility.yul\":8314:8320   */\n      dup3\n        /* \"#utility.yul\":8310:8325   */\n      add\n        /* \"#utility.yul\":8303:8338   */\n      mstore\n        /* \"#utility.yul\":8118:8345   */\n      pop\n      jump\t// out\n        /* \"#utility.yul\":8351:8717   */\n    tag_192:\n        /* \"#utility.yul\":8493:8496   */\n      0x00\n        /* \"#utility.yul\":8514:8581   */\n      tag_279\n        /* \"#utility.yul\":8578:8580   */\n      0x28\n        /* \"#utility.yul\":8573:8576   */\n      dup4\n        /* \"#utility.yul\":8514:8581   */\n      tag_182\n      jump\t// in\n    tag_279:\n        /* \"#utility.yul\":8507:8581   */\n      swap2\n      pop\n        /* \"#utility.yul\":8590:8683   */\n      tag_280\n        /* \"#utility.yul\":8679:8682   */\n      dup3\n        /* \"#utility.yul\":8590:8683   */\n      tag_191\n      jump\t// in\n    tag_280:\n        /* \"#utility.yul\":8708:8710   */\n      0x40\n        /* \"#utility.yul\":8703:8706   */\n      dup3\n        /* \"#utility.yul\":8699:8711   */\n      add\n        /* \"#utility.yul\":8692:8711   */\n      swap1\n      pop\n        /* \"#utility.yul\":8351:8717   */\n      swap2\n      swap1\n      pop\n      jump\t// out\n        /* \"#utility.yul\":8723:9142   */\n    tag_136:\n        /* \"#utility.yul\":8889:8893   */\n      0x00\n        /* \"#utility.yul\":8927:8929   */\n      0x20\n        /* \"#utility.yul\":8916:8925   */\n      dup3\n        /* \"#utility.yul\":8912:8930   */\n      add\n        /* \"#utility.yul\":8904:8930   */\n      swap1\n      pop\n        /* \"#utility.yul\":8976:8985   */\n      dup2\n        /* \"#utility.yul\":8970:8974   */\n      dup2\n        /* \"#utility.yul\":8966:8986   */\n      sub\n        /* \"#utility.yul\":8962:8963   */\n      0x00\n        /* \"#utility.yul\":8951:8960   */\n      dup4\n        /* \"#utility.yul\":8947:8964   */\n      add\n        /* \"#utility.yul\":8940:8987   */\n      mstore\n        /* \"#utility.yul\":9004:9135   */\n      tag_282\n        /* \"#utility.yul\":9130:9134   */\n      dup2\n        /* \"#utility.yul\":9004:9135   */\n      tag_192\n      jump\t// in\n    tag_282:\n        /* \"#utility.yul\":8996:9135   */\n      swap1\n      pop\n        /* \"#utility.yul\":8723:9142   */\n      swap2\n      swap1\n      pop\n      jump\t// out\n        /* \"#utility.yul\":9148:9321   */\n    tag_193:\n        /* \"#utility.yul\":9288:9313   */\n      0x496e766573746f7220616c726561647920657869737473000000000000000000\n        /* \"#utility.yul\":9284:9285   */\n      0x00\n        /* \"#utility.yul\":9276:9282   */\n      dup3\n        /* \"#utility.yul\":9272:9286   */\n      add\n        /* \"#utility.yul\":9265:9314   */\n      mstore\n        /* \"#utility.yul\":9148:9321   */\n      pop\n      jump\t// out\n        /* \"#utility.yul\":9327:9693   */\n    tag_194:\n        /* \"#utility.yul\":9469:9472   */\n      0x00\n        /* \"#utility.yul\":9490:9557   */\n      tag_285\n        /* \"#utility.yul\":9554:9556   */\n      0x17\n        /* \"#utility.yul\":9549:9552   */\n      dup4\n        /* \"#utility.yul\":9490:9557   */\n      tag_182\n      jump\t// in\n    tag_285:\n        /* \"#utility.yul\":9483:9557   */\n      swap2\n      pop\n        /* \"#utility.yul\":9566:9659   */\n      tag_286\n        /* \"#utility.yul\":9655:9658   */\n      dup3\n        /* \"#utility.yul\":9566:9659   */\n      tag_193\n      jump\t// in\n    tag_286:\n        /* \"#utility.yul\":9684:9686   */\n      0x20\n        /* \"#utility.yul\":9679:9682   */\n      dup3\n        /* \"#utility.yul\":9675:9687   */\n      add\n        /* \"#utility.yul\":9668:9687   */\n      swap1\n      pop\n        /* \"#utility.yul\":9327:9693   */\n      swap2\n      swap1\n      pop\n      jump\t// out\n        /* \"#utility.yul\":9699:10118   */\n    tag_145:\n        /* \"#utility.yul\":9865:9869   */\n      0x00\n        /* \"#utility.yul\":9903:9905   */\n      0x20\n        /* \"#utility.yul\":9892:9901   */\n      dup3\n        /* \"#utility.yul\":9888:9906   */\n      add\n        /* \"#utility.yul\":9880:9906   */\n      swap1\n      pop\n        /* \"#utility.yul\":9952:9961   */\n      dup2\n        /* \"#utility.yul\":9946:9950   */\n      dup2\n        /* \"#utility.yul\":9942:9962   */\n      sub\n        /* \"#utility.yul\":9938:9939   */\n      0x00\n        /* \"#utility.yul\":9927:9936   */\n      dup4\n        /* \"#utility.yul\":9923:9940   */\n      add\n        /* \"#utility.yul\":9916:9963   */\n      mstore\n        /* \"#utility.yul\":9980:10111   */\n      tag_288\n        /* \"#utility.yul\":10106:10110   */\n      dup2\n        /* \"#utility.yul\":9980:10111   */\n      tag_194\n      jump\t// in\n    tag_288:\n        /* \"#utility.yul\":9972:10111   */\n      swap1\n      pop\n        /* \"#utility.yul\":9699:10118   */\n      swap2\n      swap1\n      pop\n      jump\t// out\n        /* \"#utility.yul\":10124:10305   */\n    tag_195:\n        /* \"#utility.yul\":10264:10297   */\n      0x5265656e7472616e637947756172643a207265656e7472616e742063616c6c00\n        /* \"#utility.yul\":10260:10261   */\n      0x00\n        /* \"#utility.yul\":10252:10258   */\n      dup3\n        /* \"#utility.yul\":10248:10262   */\n      add\n        /* \"#utility.yul\":10241:10298   */\n      mstore\n        /* \"#utility.yul\":10124:10305   */\n      pop\n      jump\t// out\n        /* \"#utility.yul\":10311:10677   */\n    tag_196:\n        /* \"#utility.yul\":10453:10456   */\n      0x00\n        /* \"#utility.yul\":10474:10541   */\n      tag_291\n        /* \"#utility.yul\":10538:10540   */\n      0x1f\n        /* \"#utility.yul\":10533:10536   */\n      dup4\n        /* \"#utility.yul\":10474:10541   */\n      tag_182\n      jump\t// in\n    tag_291:\n        /* \"#utility.yul\":10467:10541   */\n      swap2\n      pop\n        /* \"#utility.yul\":10550:10643   */\n      tag_292\n        /* \"#utility.yul\":10639:10642   */\n      dup3\n        /* \"#utility.yul\":10550:10643   */\n      tag_195\n      jump\t// in\n    tag_292:\n        /* \"#utility.yul\":10668:10670   */\n      0x20\n        /* \"#utility.yul\":10663:10666   */\n      dup3\n        /* \"#utility.yul\":10659:10671   */\n      add\n        /* \"#utility.yul\":10652:10671   */\n      swap1\n      pop\n        /* \"#utility.yul\":10311:10677   */\n      swap2\n      swap1\n      pop\n      jump\t// out\n        /* \"#utility.yul\":10683:11102   */\n    tag_164:\n        /* \"#utility.yul\":10849:10853   */\n      0x00\n        /* \"#utility.yul\":10887:10889   */\n      0x20\n        /* \"#utility.yul\":10876:10885   */\n      dup3\n        /* \"#utility.yul\":10872:10890   */\n      add\n        /* \"#utility.yul\":10864:10890   */\n      swap1\n      pop\n        /* \"#utility.yul\":10936:10945   */\n      dup2\n        /* \"#utility.yul\":10930:10934   */\n      dup2\n        /* \"#utility.yul\":10926:10946   */\n      sub\n        /* \"#utility.yul\":10922:10923   */\n      0x00\n        /* \"#utility.yul\":10911:10920   */\n      dup4\n        /* \"#utility.yul\":10907:10924   */\n      add\n        /* \"#utility.yul\":10900:10947   */\n      mstore\n        /* \"#utility.yul\":10964:11095   */\n      tag_294\n        /* \"#utility.yul\":11090:11094   */\n      dup2\n        /* \"#utility.yul\":10964:11095   */\n      tag_196\n      jump\t// in\n    tag_294:\n        /* \"#utility.yul\":10956:11095   */\n      swap1\n      pop\n        /* \"#utility.yul\":10683:11102   */\n      swap2\n      swap1\n      pop\n      jump\t// out\n\n    auxdata: 0xa26469706673582212209cafc5b5c0d67d320e6944e3f2e72c6a8c9536b3d1ceaeb8db0700999f8c4ee064736f6c634300081a0033\n}\n",
				"bytecode": {
					"linkReferences": {},
					"object": "6080604052335f73ffffffffffffffffffffffffffffffffffffffff168173ffffffffffffffffffffffffffffffffffffffff1603610075575f6040517f1e4fbdf700000000000000000000000000000000000000000000000000000000815260040161006c9190610191565b60405180910390fd5b6100848161009160201b60201c565b50600180819055506101aa565b5f805f9054906101000a900473ffffffffffffffffffffffffffffffffffffffff169050815f806101000a81548173ffffffffffffffffffffffffffffffffffffffff021916908373ffffffffffffffffffffffffffffffffffffffff1602179055508173ffffffffffffffffffffffffffffffffffffffff168173ffffffffffffffffffffffffffffffffffffffff167f8be0079c531659141344cd1fd0a4f28419497f9722a3daafe3b4186f6b6457e060405160405180910390a35050565b5f73ffffffffffffffffffffffffffffffffffffffff82169050919050565b5f61017b82610152565b9050919050565b61018b81610171565b82525050565b5f6020820190506101a45f830184610182565b92915050565b611121806101b75f395ff3fe6080604052600436106100aa575f3560e01c8063866ee57b11610063578063866ee57b1461019c5780638da5cb5b146101d8578063b233f44614610202578063c64ca1ee1461022c578063ec20b45714610242578063f2fde38b1461026a576100b1565b80631c7119bf146100b557806322db4143146100df5780633ccfd60b146101095780633feb5f2b1461011f5780636f9fb98a1461015c578063715018a614610186576100b1565b366100b157005b5f80fd5b3480156100c0575f80fd5b506100c9610292565b6040516100d69190610b70565b60405180910390f35b3480156100ea575f80fd5b506100f3610297565b6040516101009190610b70565b60405180910390f35b348015610114575f80fd5b5061011d61029d565b005b34801561012a575f80fd5b5061014560048036038101906101409190610bb7565b61039e565b604051610153929190610c21565b60405180910390f35b348015610167575f80fd5b506101706103ec565b60405161017d9190610b70565b60405180910390f35b348015610191575f80fd5b5061019a6103f3565b005b3480156101a7575f80fd5b506101c260048036038101906101bd9190610c72565b610406565b6040516101cf9190610cb7565b60405180910390f35b3480156101e3575f80fd5b506101ec610423565b6040516101f99190610cd0565b60405180910390f35b34801561020d575f80fd5b5061021661044a565b6040516102239190610b70565b60405180910390f35b348015610237575f80fd5b5061024061044f565b005b34801561024d575f80fd5b5061026860048036038101906102639190610ce9565b6106b4565b005b348015610275575f80fd5b50610290600480360381019061028b9190610c72565b61092d565b005b600581565b6103e881565b6102a56109b1565b6102ad610a38565b5f4790505f81116102f3576040517f08c379a00000000000000000000000000000000000000000000000000000000081526004016102ea90610da7565b60405180910390fd5b6102fb610423565b73ffffffffffffffffffffffffffffffffffffffff166108fc8290811502906040515f60405180830381858888f1935050505015801561033d573d5f803e3d5ffd5b50610346610423565b73ffffffffffffffffffffffffffffffffffffffff167f7fcf532c15f0a6db0bd6d0e038bea71d30d808c7d98cb3bf7268a95bf5081b658260405161038b9190610b70565b60405180910390a25061039c610a87565b565b600281815481106103ad575f80fd5b905f5260205f2090600202015f91509050805f015f9054906101000a900473ffffffffffffffffffffffffffffffffffffffff16908060010154905082565b5f47905090565b6103fb6109b1565b6104045f610a90565b565b6003602052805f5260405f205f915054906101000a900460ff1681565b5f805f9054906101000a900473ffffffffffffffffffffffffffffffffffffffff16905090565b600a81565b6104576109b1565b61045f610a38565b5f5b6002805490508110156106a9575f6002828154811061048357610482610dc5565b5b905f5260205f2090600202015f015f9054906101000a900473ffffffffffffffffffffffffffffffffffffffff16905060035f8273ffffffffffffffffffffffffffffffffffffffff1673ffffffffffffffffffffffffffffffffffffffff1681526020019081526020015f205f9054906101000a900460ff161561053d576040517f08c379a000000000000000000000000000000000000000000000000000000000815260040161053490610e3c565b60405180910390fd5b5f600590506103e86002848154811061055957610558610dc5565b5b905f5260205f20906002020160010154111561057457600a90505b5f6064826002868154811061058c5761058b610dc5565b5b905f5260205f209060020201600101546105a69190610e87565b6105b09190610ef5565b90508273ffffffffffffffffffffffffffffffffffffffff166108fc8290811502906040515f60405180830381858888f193505050501580156105f5573d5f803e3d5ffd5b50600160035f8573ffffffffffffffffffffffffffffffffffffffff1673ffffffffffffffffffffffffffffffffffffffff1681526020019081526020015f205f6101000a81548160ff0219169083151502179055508273ffffffffffffffffffffffffffffffffffffffff167f622bc185b97de1a541f53c8e1faf8c416e4a5c5eb3a75eb8c621ea7f479b9ade826040516106919190610b70565b60405180910390a25050508080600101915050610461565b506106b2610a87565b565b6106bc6109b1565b5f73ffffffffffffffffffffffffffffffffffffffff168273ffffffffffffffffffffffffffffffffffffffff160361072a576040517f08c379a000000000000000000000000000000000000000000000000000000000815260040161072190610f6f565b60405180910390fd5b5f811161076c576040517f08c379a000000000000000000000000000000000000000000000000000000000815260040161076390610ffd565b60405180910390fd5b5f5b600280549050811015610837578273ffffffffffffffffffffffffffffffffffffffff16600282815481106107a6576107a5610dc5565b5b905f5260205f2090600202015f015f9054906101000a900473ffffffffffffffffffffffffffffffffffffffff1673ffffffffffffffffffffffffffffffffffffffff160361082a576040517f08c379a000000000000000000000000000000000000000000000000000000000815260040161082190611065565b60405180910390fd5b808060010191505061076e565b50600260405180604001604052808473ffffffffffffffffffffffffffffffffffffffff16815260200183815250908060018154018082558091505060019003905f5260205f2090600202015f909190919091505f820151815f015f6101000a81548173ffffffffffffffffffffffffffffffffffffffff021916908373ffffffffffffffffffffffffffffffffffffffff1602179055506020820151816001015550508173ffffffffffffffffffffffffffffffffffffffff167f65369179643f625f883e08154fa1232aefb8e808889a7622fc099ef64dcffce3826040516109219190610b70565b60405180910390a25050565b6109356109b1565b5f73ffffffffffffffffffffffffffffffffffffffff168173ffffffffffffffffffffffffffffffffffffffff16036109a5575f6040517f1e4fbdf700000000000000000000000000000000000000000000000000000000815260040161099c9190610cd0565b60405180910390fd5b6109ae81610a90565b50565b6109b9610b51565b73ffffffffffffffffffffffffffffffffffffffff166109d7610423565b73ffffffffffffffffffffffffffffffffffffffff1614610a36576109fa610b51565b6040517f118cdaa7000000000000000000000000000000000000000000000000000000008152600401610a2d9190610cd0565b60405180910390fd5b565b600260015403610a7d576040517f08c379a0000000000000000000000000000000000000000000000000000000008152600401610a74906110cd565b60405180910390fd5b6002600181905550565b60018081905550565b5f805f9054906101000a900473ffffffffffffffffffffffffffffffffffffffff169050815f806101000a81548173ffffffffffffffffffffffffffffffffffffffff021916908373ffffffffffffffffffffffffffffffffffffffff1602179055508173ffffffffffffffffffffffffffffffffffffffff168173ffffffffffffffffffffffffffffffffffffffff167f8be0079c531659141344cd1fd0a4f28419497f9722a3daafe3b4186f6b6457e060405160405180910390a35050565b5f33905090565b5f819050919050565b610b6a81610b58565b82525050565b5f602082019050610b835f830184610b61565b92915050565b5f80fd5b610b9681610b58565b8114610ba0575f80fd5b50565b5f81359050610bb181610b8d565b92915050565b5f60208284031215610bcc57610bcb610b89565b5b5f610bd984828501610ba3565b91505092915050565b5f73ffffffffffffffffffffffffffffffffffffffff82169050919050565b5f610c0b82610be2565b9050919050565b610c1b81610c01565b82525050565b5f604082019050610c345f830185610c12565b610c416020830184610b61565b9392505050565b610c5181610c01565b8114610c5b575f80fd5b50565b5f81359050610c6c81610c48565b92915050565b5f60208284031215610c8757610c86610b89565b5b5f610c9484828501610c5e565b91505092915050565b5f8115159050919050565b610cb181610c9d565b82525050565b5f602082019050610cca5f830184610ca8565b92915050565b5f602082019050610ce35f830184610c12565b92915050565b5f8060408385031215610cff57610cfe610b89565b5b5f610d0c85828601610c5e565b9250506020610d1d85828601610ba3565b9150509250929050565b5f82825260208201905092915050565b7f4e6f20457468657220617661696c61626c6520666f72207769746864726177615f8201527f6c00000000000000000000000000000000000000000000000000000000000000602082015250565b5f610d91602183610d27565b9150610d9c82610d37565b604082019050919050565b5f6020820190508181035f830152610dbe81610d85565b9050919050565b7f4e487b71000000000000000000000000000000000000000000000000000000005f52603260045260245ffd5b7f426f6e757320616c7265616479207061696400000000000000000000000000005f82015250565b5f610e26601283610d27565b9150610e3182610df2565b602082019050919050565b5f6020820190508181035f830152610e5381610e1a565b9050919050565b7f4e487b71000000000000000000000000000000000000000000000000000000005f52601160045260245ffd5b5f610e9182610b58565b9150610e9c83610b58565b9250828202610eaa81610b58565b91508282048414831517610ec157610ec0610e5a565b5b5092915050565b7f4e487b71000000000000000000000000000000000000000000000000000000005f52601260045260245ffd5b5f610eff82610b58565b9150610f0a83610b58565b925082610f1a57610f19610ec8565b5b828204905092915050565b7f496e76616c6964206164647265737300000000000000000000000000000000005f82015250565b5f610f59600f83610d27565b9150610f6482610f25565b602082019050919050565b5f6020820190508181035f830152610f8681610f4d565b9050919050565b7f496e766573746d656e7420616d6f756e74206d757374206265206772656174655f8201527f72207468616e2030000000000000000000000000000000000000000000000000602082015250565b5f610fe7602883610d27565b9150610ff282610f8d565b604082019050919050565b5f6020820190508181035f83015261101481610fdb565b9050919050565b7f496e766573746f7220616c7265616479206578697374730000000000000000005f82015250565b5f61104f601783610d27565b915061105a8261101b565b602082019050919050565b5f6020820190508181035f83015261107c81611043565b9050919050565b7f5265656e7472616e637947756172643a207265656e7472616e742063616c6c005f82015250565b5f6110b7601f83610d27565b91506110c282611083565b602082019050919050565b5f6020820190508181035f8301526110e4816110ab565b905091905056fea26469706673582212209cafc5b5c0d67d320e6944e3f2e72c6a8c9536b3d1ceaeb8db0700999f8c4ee064736f6c634300081a0033",
					"opcodes": "PUSH1 0x80 PUSH1 0x40 MSTORE CALLER PUSH0 PUSH20 0xFFFFFFFFFFFFFFFFFFFFFFFFFFFFFFFFFFFFFFFF AND DUP2 PUSH20 0xFFFFFFFFFFFFFFFFFFFFFFFFFFFFFFFFFFFFFFFF AND SUB PUSH2 0x75 JUMPI PUSH0 PUSH1 0x40 MLOAD PUSH32 0x1E4FBDF700000000000000000000000000000000000000000000000000000000 DUP2 MSTORE PUSH1 0x4 ADD PUSH2 0x6C SWAP2 SWAP1 PUSH2 0x191 JUMP JUMPDEST PUSH1 0x40 MLOAD DUP1 SWAP2 SUB SWAP1 REVERT JUMPDEST PUSH2 0x84 DUP2 PUSH2 0x91 PUSH1 0x20 SHL PUSH1 0x20 SHR JUMP JUMPDEST POP PUSH1 0x1 DUP1 DUP2 SWAP1 SSTORE POP PUSH2 0x1AA JUMP JUMPDEST PUSH0 DUP1 PUSH0 SWAP1 SLOAD SWAP1 PUSH2 0x100 EXP SWAP1 DIV PUSH20 0xFFFFFFFFFFFFFFFFFFFFFFFFFFFFFFFFFFFFFFFF AND SWAP1 POP DUP2 PUSH0 DUP1 PUSH2 0x100 EXP DUP2 SLOAD DUP2 PUSH20 0xFFFFFFFFFFFFFFFFFFFFFFFFFFFFFFFFFFFFFFFF MUL NOT AND SWAP1 DUP4 PUSH20 0xFFFFFFFFFFFFFFFFFFFFFFFFFFFFFFFFFFFFFFFF AND MUL OR SWAP1 SSTORE POP DUP2 PUSH20 0xFFFFFFFFFFFFFFFFFFFFFFFFFFFFFFFFFFFFFFFF AND DUP2 PUSH20 0xFFFFFFFFFFFFFFFFFFFFFFFFFFFFFFFFFFFFFFFF AND PUSH32 0x8BE0079C531659141344CD1FD0A4F28419497F9722A3DAAFE3B4186F6B6457E0 PUSH1 0x40 MLOAD PUSH1 0x40 MLOAD DUP1 SWAP2 SUB SWAP1 LOG3 POP POP JUMP JUMPDEST PUSH0 PUSH20 0xFFFFFFFFFFFFFFFFFFFFFFFFFFFFFFFFFFFFFFFF DUP3 AND SWAP1 POP SWAP2 SWAP1 POP JUMP JUMPDEST PUSH0 PUSH2 0x17B DUP3 PUSH2 0x152 JUMP JUMPDEST SWAP1 POP SWAP2 SWAP1 POP JUMP JUMPDEST PUSH2 0x18B DUP2 PUSH2 0x171 JUMP JUMPDEST DUP3 MSTORE POP POP JUMP JUMPDEST PUSH0 PUSH1 0x20 DUP3 ADD SWAP1 POP PUSH2 0x1A4 PUSH0 DUP4 ADD DUP5 PUSH2 0x182 JUMP JUMPDEST SWAP3 SWAP2 POP POP JUMP JUMPDEST PUSH2 0x1121 DUP1 PUSH2 0x1B7 PUSH0 CODECOPY PUSH0 RETURN INVALID PUSH1 0x80 PUSH1 0x40 MSTORE PUSH1 0x4 CALLDATASIZE LT PUSH2 0xAA JUMPI PUSH0 CALLDATALOAD PUSH1 0xE0 SHR DUP1 PUSH4 0x866EE57B GT PUSH2 0x63 JUMPI DUP1 PUSH4 0x866EE57B EQ PUSH2 0x19C JUMPI DUP1 PUSH4 0x8DA5CB5B EQ PUSH2 0x1D8 JUMPI DUP1 PUSH4 0xB233F446 EQ PUSH2 0x202 JUMPI DUP1 PUSH4 0xC64CA1EE EQ PUSH2 0x22C JUMPI DUP1 PUSH4 0xEC20B457 EQ PUSH2 0x242 JUMPI DUP1 PUSH4 0xF2FDE38B EQ PUSH2 0x26A JUMPI PUSH2 0xB1 JUMP JUMPDEST DUP1 PUSH4 0x1C7119BF EQ PUSH2 0xB5 JUMPI DUP1 PUSH4 0x22DB4143 EQ PUSH2 0xDF JUMPI DUP1 PUSH4 0x3CCFD60B EQ PUSH2 0x109 JUMPI DUP1 PUSH4 0x3FEB5F2B EQ PUSH2 0x11F JUMPI DUP1 PUSH4 0x6F9FB98A EQ PUSH2 0x15C JUMPI DUP1 PUSH4 0x715018A6 EQ PUSH2 0x186 JUMPI PUSH2 0xB1 JUMP JUMPDEST CALLDATASIZE PUSH2 0xB1 JUMPI STOP JUMPDEST PUSH0 DUP1 REVERT JUMPDEST CALLVALUE DUP1 ISZERO PUSH2 0xC0 JUMPI PUSH0 DUP1 REVERT JUMPDEST POP PUSH2 0xC9 PUSH2 0x292 JUMP JUMPDEST PUSH1 0x40 MLOAD PUSH2 0xD6 SWAP2 SWAP1 PUSH2 0xB70 JUMP JUMPDEST PUSH1 0x40 MLOAD DUP1 SWAP2 SUB SWAP1 RETURN JUMPDEST CALLVALUE DUP1 ISZERO PUSH2 0xEA JUMPI PUSH0 DUP1 REVERT JUMPDEST POP PUSH2 0xF3 PUSH2 0x297 JUMP JUMPDEST PUSH1 0x40 MLOAD PUSH2 0x100 SWAP2 SWAP1 PUSH2 0xB70 JUMP JUMPDEST PUSH1 0x40 MLOAD DUP1 SWAP2 SUB SWAP1 RETURN JUMPDEST CALLVALUE DUP1 ISZERO PUSH2 0x114 JUMPI PUSH0 DUP1 REVERT JUMPDEST POP PUSH2 0x11D PUSH2 0x29D JUMP JUMPDEST STOP JUMPDEST CALLVALUE DUP1 ISZERO PUSH2 0x12A JUMPI PUSH0 DUP1 REVERT JUMPDEST POP PUSH2 0x145 PUSH1 0x4 DUP1 CALLDATASIZE SUB DUP2 ADD SWAP1 PUSH2 0x140 SWAP2 SWAP1 PUSH2 0xBB7 JUMP JUMPDEST PUSH2 0x39E JUMP JUMPDEST PUSH1 0x40 MLOAD PUSH2 0x153 SWAP3 SWAP2 SWAP1 PUSH2 0xC21 JUMP JUMPDEST PUSH1 0x40 MLOAD DUP1 SWAP2 SUB SWAP1 RETURN JUMPDEST CALLVALUE DUP1 ISZERO PUSH2 0x167 JUMPI PUSH0 DUP1 REVERT JUMPDEST POP PUSH2 0x170 PUSH2 0x3EC JUMP JUMPDEST PUSH1 0x40 MLOAD PUSH2 0x17D SWAP2 SWAP1 PUSH2 0xB70 JUMP JUMPDEST PUSH1 0x40 MLOAD DUP1 SWAP2 SUB SWAP1 RETURN JUMPDEST CALLVALUE DUP1 ISZERO PUSH2 0x191 JUMPI PUSH0 DUP1 REVERT JUMPDEST POP PUSH2 0x19A PUSH2 0x3F3 JUMP JUMPDEST STOP JUMPDEST CALLVALUE DUP1 ISZERO PUSH2 0x1A7 JUMPI PUSH0 DUP1 REVERT JUMPDEST POP PUSH2 0x1C2 PUSH1 0x4 DUP1 CALLDATASIZE SUB DUP2 ADD SWAP1 PUSH2 0x1BD SWAP2 SWAP1 PUSH2 0xC72 JUMP JUMPDEST PUSH2 0x406 JUMP JUMPDEST PUSH1 0x40 MLOAD PUSH2 0x1CF SWAP2 SWAP1 PUSH2 0xCB7 JUMP JUMPDEST PUSH1 0x40 MLOAD DUP1 SWAP2 SUB SWAP1 RETURN JUMPDEST CALLVALUE DUP1 ISZERO PUSH2 0x1E3 JUMPI PUSH0 DUP1 REVERT JUMPDEST POP PUSH2 0x1EC PUSH2 0x423 JUMP JUMPDEST PUSH1 0x40 MLOAD PUSH2 0x1F9 SWAP2 SWAP1 PUSH2 0xCD0 JUMP JUMPDEST PUSH1 0x40 MLOAD DUP1 SWAP2 SUB SWAP1 RETURN JUMPDEST CALLVALUE DUP1 ISZERO PUSH2 0x20D JUMPI PUSH0 DUP1 REVERT JUMPDEST POP PUSH2 0x216 PUSH2 0x44A JUMP JUMPDEST PUSH1 0x40 MLOAD PUSH2 0x223 SWAP2 SWAP1 PUSH2 0xB70 JUMP JUMPDEST PUSH1 0x40 MLOAD DUP1 SWAP2 SUB SWAP1 RETURN JUMPDEST CALLVALUE DUP1 ISZERO PUSH2 0x237 JUMPI PUSH0 DUP1 REVERT JUMPDEST POP PUSH2 0x240 PUSH2 0x44F JUMP JUMPDEST STOP JUMPDEST CALLVALUE DUP1 ISZERO PUSH2 0x24D JUMPI PUSH0 DUP1 REVERT JUMPDEST POP PUSH2 0x268 PUSH1 0x4 DUP1 CALLDATASIZE SUB DUP2 ADD SWAP1 PUSH2 0x263 SWAP2 SWAP1 PUSH2 0xCE9 JUMP JUMPDEST PUSH2 0x6B4 JUMP JUMPDEST STOP JUMPDEST CALLVALUE DUP1 ISZERO PUSH2 0x275 JUMPI PUSH0 DUP1 REVERT JUMPDEST POP PUSH2 0x290 PUSH1 0x4 DUP1 CALLDATASIZE SUB DUP2 ADD SWAP1 PUSH2 0x28B SWAP2 SWAP1 PUSH2 0xC72 JUMP JUMPDEST PUSH2 0x92D JUMP JUMPDEST STOP JUMPDEST PUSH1 0x5 DUP2 JUMP JUMPDEST PUSH2 0x3E8 DUP2 JUMP JUMPDEST PUSH2 0x2A5 PUSH2 0x9B1 JUMP JUMPDEST PUSH2 0x2AD PUSH2 0xA38 JUMP JUMPDEST PUSH0 SELFBALANCE SWAP1 POP PUSH0 DUP2 GT PUSH2 0x2F3 JUMPI PUSH1 0x40 MLOAD PUSH32 0x8C379A000000000000000000000000000000000000000000000000000000000 DUP2 MSTORE PUSH1 0x4 ADD PUSH2 0x2EA SWAP1 PUSH2 0xDA7 JUMP JUMPDEST PUSH1 0x40 MLOAD DUP1 SWAP2 SUB SWAP1 REVERT JUMPDEST PUSH2 0x2FB PUSH2 0x423 JUMP JUMPDEST PUSH20 0xFFFFFFFFFFFFFFFFFFFFFFFFFFFFFFFFFFFFFFFF AND PUSH2 0x8FC DUP3 SWAP1 DUP2 ISZERO MUL SWAP1 PUSH1 0x40 MLOAD PUSH0 PUSH1 0x40 MLOAD DUP1 DUP4 SUB DUP2 DUP6 DUP9 DUP9 CALL SWAP4 POP POP POP POP ISZERO DUP1 ISZERO PUSH2 0x33D JUMPI RETURNDATASIZE PUSH0 DUP1 RETURNDATACOPY RETURNDATASIZE PUSH0 REVERT JUMPDEST POP PUSH2 0x346 PUSH2 0x423 JUMP JUMPDEST PUSH20 0xFFFFFFFFFFFFFFFFFFFFFFFFFFFFFFFFFFFFFFFF AND PUSH32 0x7FCF532C15F0A6DB0BD6D0E038BEA71D30D808C7D98CB3BF7268A95BF5081B65 DUP3 PUSH1 0x40 MLOAD PUSH2 0x38B SWAP2 SWAP1 PUSH2 0xB70 JUMP JUMPDEST PUSH1 0x40 MLOAD DUP1 SWAP2 SUB SWAP1 LOG2 POP PUSH2 0x39C PUSH2 0xA87 JUMP JUMPDEST JUMP JUMPDEST PUSH1 0x2 DUP2 DUP2 SLOAD DUP2 LT PUSH2 0x3AD JUMPI PUSH0 DUP1 REVERT JUMPDEST SWAP1 PUSH0 MSTORE PUSH1 0x20 PUSH0 KECCAK256 SWAP1 PUSH1 0x2 MUL ADD PUSH0 SWAP2 POP SWAP1 POP DUP1 PUSH0 ADD PUSH0 SWAP1 SLOAD SWAP1 PUSH2 0x100 EXP SWAP1 DIV PUSH20 0xFFFFFFFFFFFFFFFFFFFFFFFFFFFFFFFFFFFFFFFF AND SWAP1 DUP1 PUSH1 0x1 ADD SLOAD SWAP1 POP DUP3 JUMP JUMPDEST PUSH0 SELFBALANCE SWAP1 POP SWAP1 JUMP JUMPDEST PUSH2 0x3FB PUSH2 0x9B1 JUMP JUMPDEST PUSH2 0x404 PUSH0 PUSH2 0xA90 JUMP JUMPDEST JUMP JUMPDEST PUSH1 0x3 PUSH1 0x20 MSTORE DUP1 PUSH0 MSTORE PUSH1 0x40 PUSH0 KECCAK256 PUSH0 SWAP2 POP SLOAD SWAP1 PUSH2 0x100 EXP SWAP1 DIV PUSH1 0xFF AND DUP2 JUMP JUMPDEST PUSH0 DUP1 PUSH0 SWAP1 SLOAD SWAP1 PUSH2 0x100 EXP SWAP1 DIV PUSH20 0xFFFFFFFFFFFFFFFFFFFFFFFFFFFFFFFFFFFFFFFF AND SWAP1 POP SWAP1 JUMP JUMPDEST PUSH1 0xA DUP2 JUMP JUMPDEST PUSH2 0x457 PUSH2 0x9B1 JUMP JUMPDEST PUSH2 0x45F PUSH2 0xA38 JUMP JUMPDEST PUSH0 JUMPDEST PUSH1 0x2 DUP1 SLOAD SWAP1 POP DUP2 LT ISZERO PUSH2 0x6A9 JUMPI PUSH0 PUSH1 0x2 DUP3 DUP2 SLOAD DUP2 LT PUSH2 0x483 JUMPI PUSH2 0x482 PUSH2 0xDC5 JUMP JUMPDEST JUMPDEST SWAP1 PUSH0 MSTORE PUSH1 0x20 PUSH0 KECCAK256 SWAP1 PUSH1 0x2 MUL ADD PUSH0 ADD PUSH0 SWAP1 SLOAD SWAP1 PUSH2 0x100 EXP SWAP1 DIV PUSH20 0xFFFFFFFFFFFFFFFFFFFFFFFFFFFFFFFFFFFFFFFF AND SWAP1 POP PUSH1 0x3 PUSH0 DUP3 PUSH20 0xFFFFFFFFFFFFFFFFFFFFFFFFFFFFFFFFFFFFFFFF AND PUSH20 0xFFFFFFFFFFFFFFFFFFFFFFFFFFFFFFFFFFFFFFFF AND DUP2 MSTORE PUSH1 0x20 ADD SWAP1 DUP2 MSTORE PUSH1 0x20 ADD PUSH0 KECCAK256 PUSH0 SWAP1 SLOAD SWAP1 PUSH2 0x100 EXP SWAP1 DIV PUSH1 0xFF AND ISZERO PUSH2 0x53D JUMPI PUSH1 0x40 MLOAD PUSH32 0x8C379A000000000000000000000000000000000000000000000000000000000 DUP2 MSTORE PUSH1 0x4 ADD PUSH2 0x534 SWAP1 PUSH2 0xE3C JUMP JUMPDEST PUSH1 0x40 MLOAD DUP1 SWAP2 SUB SWAP1 REVERT JUMPDEST PUSH0 PUSH1 0x5 SWAP1 POP PUSH2 0x3E8 PUSH1 0x2 DUP5 DUP2 SLOAD DUP2 LT PUSH2 0x559 JUMPI PUSH2 0x558 PUSH2 0xDC5 JUMP JUMPDEST JUMPDEST SWAP1 PUSH0 MSTORE PUSH1 0x20 PUSH0 KECCAK256 SWAP1 PUSH1 0x2 MUL ADD PUSH1 0x1 ADD SLOAD GT ISZERO PUSH2 0x574 JUMPI PUSH1 0xA SWAP1 POP JUMPDEST PUSH0 PUSH1 0x64 DUP3 PUSH1 0x2 DUP7 DUP2 SLOAD DUP2 LT PUSH2 0x58C JUMPI PUSH2 0x58B PUSH2 0xDC5 JUMP JUMPDEST JUMPDEST SWAP1 PUSH0 MSTORE PUSH1 0x20 PUSH0 KECCAK256 SWAP1 PUSH1 0x2 MUL ADD PUSH1 0x1 ADD SLOAD PUSH2 0x5A6 SWAP2 SWAP1 PUSH2 0xE87 JUMP JUMPDEST PUSH2 0x5B0 SWAP2 SWAP1 PUSH2 0xEF5 JUMP JUMPDEST SWAP1 POP DUP3 PUSH20 0xFFFFFFFFFFFFFFFFFFFFFFFFFFFFFFFFFFFFFFFF AND PUSH2 0x8FC DUP3 SWAP1 DUP2 ISZERO MUL SWAP1 PUSH1 0x40 MLOAD PUSH0 PUSH1 0x40 MLOAD DUP1 DUP4 SUB DUP2 DUP6 DUP9 DUP9 CALL SWAP4 POP POP POP POP ISZERO DUP1 ISZERO PUSH2 0x5F5 JUMPI RETURNDATASIZE PUSH0 DUP1 RETURNDATACOPY RETURNDATASIZE PUSH0 REVERT JUMPDEST POP PUSH1 0x1 PUSH1 0x3 PUSH0 DUP6 PUSH20 0xFFFFFFFFFFFFFFFFFFFFFFFFFFFFFFFFFFFFFFFF AND PUSH20 0xFFFFFFFFFFFFFFFFFFFFFFFFFFFFFFFFFFFFFFFF AND DUP2 MSTORE PUSH1 0x20 ADD SWAP1 DUP2 MSTORE PUSH1 0x20 ADD PUSH0 KECCAK256 PUSH0 PUSH2 0x100 EXP DUP2 SLOAD DUP2 PUSH1 0xFF MUL NOT AND SWAP1 DUP4 ISZERO ISZERO MUL OR SWAP1 SSTORE POP DUP3 PUSH20 0xFFFFFFFFFFFFFFFFFFFFFFFFFFFFFFFFFFFFFFFF AND PUSH32 0x622BC185B97DE1A541F53C8E1FAF8C416E4A5C5EB3A75EB8C621EA7F479B9ADE DUP3 PUSH1 0x40 MLOAD PUSH2 0x691 SWAP2 SWAP1 PUSH2 0xB70 JUMP JUMPDEST PUSH1 0x40 MLOAD DUP1 SWAP2 SUB SWAP1 LOG2 POP POP POP DUP1 DUP1 PUSH1 0x1 ADD SWAP2 POP POP PUSH2 0x461 JUMP JUMPDEST POP PUSH2 0x6B2 PUSH2 0xA87 JUMP JUMPDEST JUMP JUMPDEST PUSH2 0x6BC PUSH2 0x9B1 JUMP JUMPDEST PUSH0 PUSH20 0xFFFFFFFFFFFFFFFFFFFFFFFFFFFFFFFFFFFFFFFF AND DUP3 PUSH20 0xFFFFFFFFFFFFFFFFFFFFFFFFFFFFFFFFFFFFFFFF AND SUB PUSH2 0x72A JUMPI PUSH1 0x40 MLOAD PUSH32 0x8C379A000000000000000000000000000000000000000000000000000000000 DUP2 MSTORE PUSH1 0x4 ADD PUSH2 0x721 SWAP1 PUSH2 0xF6F JUMP JUMPDEST PUSH1 0x40 MLOAD DUP1 SWAP2 SUB SWAP1 REVERT JUMPDEST PUSH0 DUP2 GT PUSH2 0x76C JUMPI PUSH1 0x40 MLOAD PUSH32 0x8C379A000000000000000000000000000000000000000000000000000000000 DUP2 MSTORE PUSH1 0x4 ADD PUSH2 0x763 SWAP1 PUSH2 0xFFD JUMP JUMPDEST PUSH1 0x40 MLOAD DUP1 SWAP2 SUB SWAP1 REVERT JUMPDEST PUSH0 JUMPDEST PUSH1 0x2 DUP1 SLOAD SWAP1 POP DUP2 LT ISZERO PUSH2 0x837 JUMPI DUP3 PUSH20 0xFFFFFFFFFFFFFFFFFFFFFFFFFFFFFFFFFFFFFFFF AND PUSH1 0x2 DUP3 DUP2 SLOAD DUP2 LT PUSH2 0x7A6 JUMPI PUSH2 0x7A5 PUSH2 0xDC5 JUMP JUMPDEST JUMPDEST SWAP1 PUSH0 MSTORE PUSH1 0x20 PUSH0 KECCAK256 SWAP1 PUSH1 0x2 MUL ADD PUSH0 ADD PUSH0 SWAP1 SLOAD SWAP1 PUSH2 0x100 EXP SWAP1 DIV PUSH20 0xFFFFFFFFFFFFFFFFFFFFFFFFFFFFFFFFFFFFFFFF AND PUSH20 0xFFFFFFFFFFFFFFFFFFFFFFFFFFFFFFFFFFFFFFFF AND SUB PUSH2 0x82A JUMPI PUSH1 0x40 MLOAD PUSH32 0x8C379A000000000000000000000000000000000000000000000000000000000 DUP2 MSTORE PUSH1 0x4 ADD PUSH2 0x821 SWAP1 PUSH2 0x1065 JUMP JUMPDEST PUSH1 0x40 MLOAD DUP1 SWAP2 SUB SWAP1 REVERT JUMPDEST DUP1 DUP1 PUSH1 0x1 ADD SWAP2 POP POP PUSH2 0x76E JUMP JUMPDEST POP PUSH1 0x2 PUSH1 0x40 MLOAD DUP1 PUSH1 0x40 ADD PUSH1 0x40 MSTORE DUP1 DUP5 PUSH20 0xFFFFFFFFFFFFFFFFFFFFFFFFFFFFFFFFFFFFFFFF AND DUP2 MSTORE PUSH1 0x20 ADD DUP4 DUP2 MSTORE POP SWAP1 DUP1 PUSH1 0x1 DUP2 SLOAD ADD DUP1 DUP3 SSTORE DUP1 SWAP2 POP POP PUSH1 0x1 SWAP1 SUB SWAP1 PUSH0 MSTORE PUSH1 0x20 PUSH0 KECCAK256 SWAP1 PUSH1 0x2 MUL ADD PUSH0 SWAP1 SWAP2 SWAP1 SWAP2 SWAP1 SWAP2 POP PUSH0 DUP3 ADD MLOAD DUP2 PUSH0 ADD PUSH0 PUSH2 0x100 EXP DUP2 SLOAD DUP2 PUSH20 0xFFFFFFFFFFFFFFFFFFFFFFFFFFFFFFFFFFFFFFFF MUL NOT AND SWAP1 DUP4 PUSH20 0xFFFFFFFFFFFFFFFFFFFFFFFFFFFFFFFFFFFFFFFF AND MUL OR SWAP1 SSTORE POP PUSH1 0x20 DUP3 ADD MLOAD DUP2 PUSH1 0x1 ADD SSTORE POP POP DUP2 PUSH20 0xFFFFFFFFFFFFFFFFFFFFFFFFFFFFFFFFFFFFFFFF AND PUSH32 0x65369179643F625F883E08154FA1232AEFB8E808889A7622FC099EF64DCFFCE3 DUP3 PUSH1 0x40 MLOAD PUSH2 0x921 SWAP2 SWAP1 PUSH2 0xB70 JUMP JUMPDEST PUSH1 0x40 MLOAD DUP1 SWAP2 SUB SWAP1 LOG2 POP POP JUMP JUMPDEST PUSH2 0x935 PUSH2 0x9B1 JUMP JUMPDEST PUSH0 PUSH20 0xFFFFFFFFFFFFFFFFFFFFFFFFFFFFFFFFFFFFFFFF AND DUP2 PUSH20 0xFFFFFFFFFFFFFFFFFFFFFFFFFFFFFFFFFFFFFFFF AND SUB PUSH2 0x9A5 JUMPI PUSH0 PUSH1 0x40 MLOAD PUSH32 0x1E4FBDF700000000000000000000000000000000000000000000000000000000 DUP2 MSTORE PUSH1 0x4 ADD PUSH2 0x99C SWAP2 SWAP1 PUSH2 0xCD0 JUMP JUMPDEST PUSH1 0x40 MLOAD DUP1 SWAP2 SUB SWAP1 REVERT JUMPDEST PUSH2 0x9AE DUP2 PUSH2 0xA90 JUMP JUMPDEST POP JUMP JUMPDEST PUSH2 0x9B9 PUSH2 0xB51 JUMP JUMPDEST PUSH20 0xFFFFFFFFFFFFFFFFFFFFFFFFFFFFFFFFFFFFFFFF AND PUSH2 0x9D7 PUSH2 0x423 JUMP JUMPDEST PUSH20 0xFFFFFFFFFFFFFFFFFFFFFFFFFFFFFFFFFFFFFFFF AND EQ PUSH2 0xA36 JUMPI PUSH2 0x9FA PUSH2 0xB51 JUMP JUMPDEST PUSH1 0x40 MLOAD PUSH32 0x118CDAA700000000000000000000000000000000000000000000000000000000 DUP2 MSTORE PUSH1 0x4 ADD PUSH2 0xA2D SWAP2 SWAP1 PUSH2 0xCD0 JUMP JUMPDEST PUSH1 0x40 MLOAD DUP1 SWAP2 SUB SWAP1 REVERT JUMPDEST JUMP JUMPDEST PUSH1 0x2 PUSH1 0x1 SLOAD SUB PUSH2 0xA7D JUMPI PUSH1 0x40 MLOAD PUSH32 0x8C379A000000000000000000000000000000000000000000000000000000000 DUP2 MSTORE PUSH1 0x4 ADD PUSH2 0xA74 SWAP1 PUSH2 0x10CD JUMP JUMPDEST PUSH1 0x40 MLOAD DUP1 SWAP2 SUB SWAP1 REVERT JUMPDEST PUSH1 0x2 PUSH1 0x1 DUP2 SWAP1 SSTORE POP JUMP JUMPDEST PUSH1 0x1 DUP1 DUP2 SWAP1 SSTORE POP JUMP JUMPDEST PUSH0 DUP1 PUSH0 SWAP1 SLOAD SWAP1 PUSH2 0x100 EXP SWAP1 DIV PUSH20 0xFFFFFFFFFFFFFFFFFFFFFFFFFFFFFFFFFFFFFFFF AND SWAP1 POP DUP2 PUSH0 DUP1 PUSH2 0x100 EXP DUP2 SLOAD DUP2 PUSH20 0xFFFFFFFFFFFFFFFFFFFFFFFFFFFFFFFFFFFFFFFF MUL NOT AND SWAP1 DUP4 PUSH20 0xFFFFFFFFFFFFFFFFFFFFFFFFFFFFFFFFFFFFFFFF AND MUL OR SWAP1 SSTORE POP DUP2 PUSH20 0xFFFFFFFFFFFFFFFFFFFFFFFFFFFFFFFFFFFFFFFF AND DUP2 PUSH20 0xFFFFFFFFFFFFFFFFFFFFFFFFFFFFFFFFFFFFFFFF AND PUSH32 0x8BE0079C531659141344CD1FD0A4F28419497F9722A3DAAFE3B4186F6B6457E0 PUSH1 0x40 MLOAD PUSH1 0x40 MLOAD DUP1 SWAP2 SUB SWAP1 LOG3 POP POP JUMP JUMPDEST PUSH0 CALLER SWAP1 POP SWAP1 JUMP JUMPDEST PUSH0 DUP2 SWAP1 POP SWAP2 SWAP1 POP JUMP JUMPDEST PUSH2 0xB6A DUP2 PUSH2 0xB58 JUMP JUMPDEST DUP3 MSTORE POP POP JUMP JUMPDEST PUSH0 PUSH1 0x20 DUP3 ADD SWAP1 POP PUSH2 0xB83 PUSH0 DUP4 ADD DUP5 PUSH2 0xB61 JUMP JUMPDEST SWAP3 SWAP2 POP POP JUMP JUMPDEST PUSH0 DUP1 REVERT JUMPDEST PUSH2 0xB96 DUP2 PUSH2 0xB58 JUMP JUMPDEST DUP2 EQ PUSH2 0xBA0 JUMPI PUSH0 DUP1 REVERT JUMPDEST POP JUMP JUMPDEST PUSH0 DUP2 CALLDATALOAD SWAP1 POP PUSH2 0xBB1 DUP2 PUSH2 0xB8D JUMP JUMPDEST SWAP3 SWAP2 POP POP JUMP JUMPDEST PUSH0 PUSH1 0x20 DUP3 DUP5 SUB SLT ISZERO PUSH2 0xBCC JUMPI PUSH2 0xBCB PUSH2 0xB89 JUMP JUMPDEST JUMPDEST PUSH0 PUSH2 0xBD9 DUP5 DUP3 DUP6 ADD PUSH2 0xBA3 JUMP JUMPDEST SWAP2 POP POP SWAP3 SWAP2 POP POP JUMP JUMPDEST PUSH0 PUSH20 0xFFFFFFFFFFFFFFFFFFFFFFFFFFFFFFFFFFFFFFFF DUP3 AND SWAP1 POP SWAP2 SWAP1 POP JUMP JUMPDEST PUSH0 PUSH2 0xC0B DUP3 PUSH2 0xBE2 JUMP JUMPDEST SWAP1 POP SWAP2 SWAP1 POP JUMP JUMPDEST PUSH2 0xC1B DUP2 PUSH2 0xC01 JUMP JUMPDEST DUP3 MSTORE POP POP JUMP JUMPDEST PUSH0 PUSH1 0x40 DUP3 ADD SWAP1 POP PUSH2 0xC34 PUSH0 DUP4 ADD DUP6 PUSH2 0xC12 JUMP JUMPDEST PUSH2 0xC41 PUSH1 0x20 DUP4 ADD DUP5 PUSH2 0xB61 JUMP JUMPDEST SWAP4 SWAP3 POP POP POP JUMP JUMPDEST PUSH2 0xC51 DUP2 PUSH2 0xC01 JUMP JUMPDEST DUP2 EQ PUSH2 0xC5B JUMPI PUSH0 DUP1 REVERT JUMPDEST POP JUMP JUMPDEST PUSH0 DUP2 CALLDATALOAD SWAP1 POP PUSH2 0xC6C DUP2 PUSH2 0xC48 JUMP JUMPDEST SWAP3 SWAP2 POP POP JUMP JUMPDEST PUSH0 PUSH1 0x20 DUP3 DUP5 SUB SLT ISZERO PUSH2 0xC87 JUMPI PUSH2 0xC86 PUSH2 0xB89 JUMP JUMPDEST JUMPDEST PUSH0 PUSH2 0xC94 DUP5 DUP3 DUP6 ADD PUSH2 0xC5E JUMP JUMPDEST SWAP2 POP POP SWAP3 SWAP2 POP POP JUMP JUMPDEST PUSH0 DUP2 ISZERO ISZERO SWAP1 POP SWAP2 SWAP1 POP JUMP JUMPDEST PUSH2 0xCB1 DUP2 PUSH2 0xC9D JUMP JUMPDEST DUP3 MSTORE POP POP JUMP JUMPDEST PUSH0 PUSH1 0x20 DUP3 ADD SWAP1 POP PUSH2 0xCCA PUSH0 DUP4 ADD DUP5 PUSH2 0xCA8 JUMP JUMPDEST SWAP3 SWAP2 POP POP JUMP JUMPDEST PUSH0 PUSH1 0x20 DUP3 ADD SWAP1 POP PUSH2 0xCE3 PUSH0 DUP4 ADD DUP5 PUSH2 0xC12 JUMP JUMPDEST SWAP3 SWAP2 POP POP JUMP JUMPDEST PUSH0 DUP1 PUSH1 0x40 DUP4 DUP6 SUB SLT ISZERO PUSH2 0xCFF JUMPI PUSH2 0xCFE PUSH2 0xB89 JUMP JUMPDEST JUMPDEST PUSH0 PUSH2 0xD0C DUP6 DUP3 DUP7 ADD PUSH2 0xC5E JUMP JUMPDEST SWAP3 POP POP PUSH1 0x20 PUSH2 0xD1D DUP6 DUP3 DUP7 ADD PUSH2 0xBA3 JUMP JUMPDEST SWAP2 POP POP SWAP3 POP SWAP3 SWAP1 POP JUMP JUMPDEST PUSH0 DUP3 DUP3 MSTORE PUSH1 0x20 DUP3 ADD SWAP1 POP SWAP3 SWAP2 POP POP JUMP JUMPDEST PUSH32 0x4E6F20457468657220617661696C61626C6520666F7220776974686472617761 PUSH0 DUP3 ADD MSTORE PUSH32 0x6C00000000000000000000000000000000000000000000000000000000000000 PUSH1 0x20 DUP3 ADD MSTORE POP JUMP JUMPDEST PUSH0 PUSH2 0xD91 PUSH1 0x21 DUP4 PUSH2 0xD27 JUMP JUMPDEST SWAP2 POP PUSH2 0xD9C DUP3 PUSH2 0xD37 JUMP JUMPDEST PUSH1 0x40 DUP3 ADD SWAP1 POP SWAP2 SWAP1 POP JUMP JUMPDEST PUSH0 PUSH1 0x20 DUP3 ADD SWAP1 POP DUP2 DUP2 SUB PUSH0 DUP4 ADD MSTORE PUSH2 0xDBE DUP2 PUSH2 0xD85 JUMP JUMPDEST SWAP1 POP SWAP2 SWAP1 POP JUMP JUMPDEST PUSH32 0x4E487B7100000000000000000000000000000000000000000000000000000000 PUSH0 MSTORE PUSH1 0x32 PUSH1 0x4 MSTORE PUSH1 0x24 PUSH0 REVERT JUMPDEST PUSH32 0x426F6E757320616C726561647920706169640000000000000000000000000000 PUSH0 DUP3 ADD MSTORE POP JUMP JUMPDEST PUSH0 PUSH2 0xE26 PUSH1 0x12 DUP4 PUSH2 0xD27 JUMP JUMPDEST SWAP2 POP PUSH2 0xE31 DUP3 PUSH2 0xDF2 JUMP JUMPDEST PUSH1 0x20 DUP3 ADD SWAP1 POP SWAP2 SWAP1 POP JUMP JUMPDEST PUSH0 PUSH1 0x20 DUP3 ADD SWAP1 POP DUP2 DUP2 SUB PUSH0 DUP4 ADD MSTORE PUSH2 0xE53 DUP2 PUSH2 0xE1A JUMP JUMPDEST SWAP1 POP SWAP2 SWAP1 POP JUMP JUMPDEST PUSH32 0x4E487B7100000000000000000000000000000000000000000000000000000000 PUSH0 MSTORE PUSH1 0x11 PUSH1 0x4 MSTORE PUSH1 0x24 PUSH0 REVERT JUMPDEST PUSH0 PUSH2 0xE91 DUP3 PUSH2 0xB58 JUMP JUMPDEST SWAP2 POP PUSH2 0xE9C DUP4 PUSH2 0xB58 JUMP JUMPDEST SWAP3 POP DUP3 DUP3 MUL PUSH2 0xEAA DUP2 PUSH2 0xB58 JUMP JUMPDEST SWAP2 POP DUP3 DUP3 DIV DUP5 EQ DUP4 ISZERO OR PUSH2 0xEC1 JUMPI PUSH2 0xEC0 PUSH2 0xE5A JUMP JUMPDEST JUMPDEST POP SWAP3 SWAP2 POP POP JUMP JUMPDEST PUSH32 0x4E487B7100000000000000000000000000000000000000000000000000000000 PUSH0 MSTORE PUSH1 0x12 PUSH1 0x4 MSTORE PUSH1 0x24 PUSH0 REVERT JUMPDEST PUSH0 PUSH2 0xEFF DUP3 PUSH2 0xB58 JUMP JUMPDEST SWAP2 POP PUSH2 0xF0A DUP4 PUSH2 0xB58 JUMP JUMPDEST SWAP3 POP DUP3 PUSH2 0xF1A JUMPI PUSH2 0xF19 PUSH2 0xEC8 JUMP JUMPDEST JUMPDEST DUP3 DUP3 DIV SWAP1 POP SWAP3 SWAP2 POP POP JUMP JUMPDEST PUSH32 0x496E76616C696420616464726573730000000000000000000000000000000000 PUSH0 DUP3 ADD MSTORE POP JUMP JUMPDEST PUSH0 PUSH2 0xF59 PUSH1 0xF DUP4 PUSH2 0xD27 JUMP JUMPDEST SWAP2 POP PUSH2 0xF64 DUP3 PUSH2 0xF25 JUMP JUMPDEST PUSH1 0x20 DUP3 ADD SWAP1 POP SWAP2 SWAP1 POP JUMP JUMPDEST PUSH0 PUSH1 0x20 DUP3 ADD SWAP1 POP DUP2 DUP2 SUB PUSH0 DUP4 ADD MSTORE PUSH2 0xF86 DUP2 PUSH2 0xF4D JUMP JUMPDEST SWAP1 POP SWAP2 SWAP1 POP JUMP JUMPDEST PUSH32 0x496E766573746D656E7420616D6F756E74206D75737420626520677265617465 PUSH0 DUP3 ADD MSTORE PUSH32 0x72207468616E2030000000000000000000000000000000000000000000000000 PUSH1 0x20 DUP3 ADD MSTORE POP JUMP JUMPDEST PUSH0 PUSH2 0xFE7 PUSH1 0x28 DUP4 PUSH2 0xD27 JUMP JUMPDEST SWAP2 POP PUSH2 0xFF2 DUP3 PUSH2 0xF8D JUMP JUMPDEST PUSH1 0x40 DUP3 ADD SWAP1 POP SWAP2 SWAP1 POP JUMP JUMPDEST PUSH0 PUSH1 0x20 DUP3 ADD SWAP1 POP DUP2 DUP2 SUB PUSH0 DUP4 ADD MSTORE PUSH2 0x1014 DUP2 PUSH2 0xFDB JUMP JUMPDEST SWAP1 POP SWAP2 SWAP1 POP JUMP JUMPDEST PUSH32 0x496E766573746F7220616C726561647920657869737473000000000000000000 PUSH0 DUP3 ADD MSTORE POP JUMP JUMPDEST PUSH0 PUSH2 0x104F PUSH1 0x17 DUP4 PUSH2 0xD27 JUMP JUMPDEST SWAP2 POP PUSH2 0x105A DUP3 PUSH2 0x101B JUMP JUMPDEST PUSH1 0x20 DUP3 ADD SWAP1 POP SWAP2 SWAP1 POP JUMP JUMPDEST PUSH0 PUSH1 0x20 DUP3 ADD SWAP1 POP DUP2 DUP2 SUB PUSH0 DUP4 ADD MSTORE PUSH2 0x107C DUP2 PUSH2 0x1043 JUMP JUMPDEST SWAP1 POP SWAP2 SWAP1 POP JUMP JUMPDEST PUSH32 0x5265656E7472616E637947756172643A207265656E7472616E742063616C6C00 PUSH0 DUP3 ADD MSTORE POP JUMP JUMPDEST PUSH0 PUSH2 0x10B7 PUSH1 0x1F DUP4 PUSH2 0xD27 JUMP JUMPDEST SWAP2 POP PUSH2 0x10C2 DUP3 PUSH2 0x1083 JUMP JUMPDEST PUSH1 0x20 DUP3 ADD SWAP1 POP SWAP2 SWAP1 POP JUMP JUMPDEST PUSH0 PUSH1 0x20 DUP3 ADD SWAP1 POP DUP2 DUP2 SUB PUSH0 DUP4 ADD MSTORE PUSH2 0x10E4 DUP2 PUSH2 0x10AB JUMP JUMPDEST SWAP1 POP SWAP2 SWAP1 POP JUMP INVALID LOG2 PUSH5 0x6970667358 0x22 SLT KECCAK256 SWAP13 0xAF 0xC5 0xB5 0xC0 0xD6 PUSH30 0x320E6944E3F2E72C6A8C9536B3D1CEAEB8DB0700999F8C4EE064736F6C63 NUMBER STOP ADDMOD BYTE STOP CALLER "
				},
				"gasEstimates": {
					"creation": {
						"codeDepositCost": "877000",
						"executionCost": "infinite",
						"totalCost": "infinite"
					},
					"external": {
						"BASE_BONUS_PERCENTAGE()": "326",
						"BONUS_THRESHOLD()": "348",
						"HIGH_BONUS_PERCENTAGE()": "369",
						"addInvestor(address,uint256)": "infinite",
						"allocateBonuses()": "infinite",
						"bonusesPaidOut(address)": "2833",
						"getContractBalance()": "423",
						"investors(uint256)": "infinite",
						"owner()": "2537",
						"renounceOwnership()": "infinite",
						"transferOwnership(address)": "infinite",
						"withdraw()": "infinite"
					}
				},
				"methodIdentifiers": {
					"BASE_BONUS_PERCENTAGE()": "1c7119bf",
					"BONUS_THRESHOLD()": "22db4143",
					"HIGH_BONUS_PERCENTAGE()": "b233f446",
					"addInvestor(address,uint256)": "ec20b457",
					"allocateBonuses()": "c64ca1ee",
					"bonusesPaidOut(address)": "866ee57b",
					"getContractBalance()": "6f9fb98a",
					"investors(uint256)": "3feb5f2b",
					"owner()": "8da5cb5b",
					"renounceOwnership()": "715018a6",
					"transferOwnership(address)": "f2fde38b",
					"withdraw()": "3ccfd60b"
				}
			},
			"storageLayout": {
				"storage": [
					{
						"astId": 8,
						"contract": "bonusallocation.sol:BonusAllocator",
						"label": "_owner",
						"offset": 0,
						"slot": "0",
						"type": "t_address"
					},
					{
						"astId": 158,
						"contract": "bonusallocation.sol:BonusAllocator",
						"label": "_status",
						"offset": 0,
						"slot": "1",
						"type": "t_uint256"
					},
					{
						"astId": 259,
						"contract": "bonusallocation.sol:BonusAllocator",
						"label": "investors",
						"offset": 0,
						"slot": "2",
						"type": "t_array(t_struct(Investor)255_storage)dyn_storage"
					},
					{
						"astId": 263,
						"contract": "bonusallocation.sol:BonusAllocator",
						"label": "bonusesPaidOut",
						"offset": 0,
						"slot": "3",
						"type": "t_mapping(t_address,t_bool)"
					}
				],
				"types": {
					"t_address": {
						"encoding": "inplace",
						"label": "address",
						"numberOfBytes": "20"
					},
					"t_array(t_struct(Investor)255_storage)dyn_storage": {
						"base": "t_struct(Investor)255_storage",
						"encoding": "dynamic_array",
						"label": "struct BonusAllocator.Investor[]",
						"numberOfBytes": "32"
					},
					"t_bool": {
						"encoding": "inplace",
						"label": "bool",
						"numberOfBytes": "1"
					},
					"t_mapping(t_address,t_bool)": {
						"encoding": "mapping",
						"key": "t_address",
						"label": "mapping(address => bool)",
						"numberOfBytes": "32",
						"value": "t_bool"
					},
					"t_struct(Investor)255_storage": {
						"encoding": "inplace",
						"label": "struct BonusAllocator.Investor",
						"members": [
							{
								"astId": 252,
								"contract": "bonusallocation.sol:BonusAllocator",
								"label": "addr",
								"offset": 0,
								"slot": "0",
								"type": "t_address"
							},
							{
								"astId": 254,
								"contract": "bonusallocation.sol:BonusAllocator",
								"label": "investmentAmount",
								"offset": 0,
								"slot": "1",
								"type": "t_uint256"
							}
						],
						"numberOfBytes": "64"
					},
					"t_uint256": {
						"encoding": "inplace",
						"label": "uint256",
						"numberOfBytes": "32"
					}
				}
			},
			"userdoc": {
				"kind": "user",
				"methods": {},
				"version": 1
			}
		}
	}
}