{
	"data": {
		"bytecode": {
			"linkReferences": {},
			"object": "60a06040526001600355348015610014575f80fd5b5060015f553360805261002561002a565b6101d4565b6001600460405161004890664a616e7561727960c81b815260070190565b908152604080519182900360200182209290925567466562727561727960c01b81526004600880830182905283519283900360289081018420600290556409ac2e4c6d60db1b845260058085018490528551948590036025908101862060039081905564105c1c9a5b60da1b87528683018690528751968790039091018620859055624d617960e81b86528501849052855194859003602301852055634a756e6560e01b845283830183905284519384900360249081018520600690819055634a756c7960e01b8652858501859052865195869003909101852060079081905565105d59dd5cdd60d21b865290850184905285519485900360260185208390556829b2b83a32b6b132b960b91b855260098086018590528651958690036029018620556627b1ba37b132b960c91b855284018390528451938490036027018420600a9055672737bb32b6b132b960c11b845283820183905284519384900381018420600b9055672232b1b2b6b132b960c11b8452908301919091529151908190039091019020600c9055565b6080516124636102235f395f818160af015281816106cc0152818161091b01528181610a0001528181610b7201528181610bf301528181610ca201528181610dce015261113301526124635ff3fe60806040526004361061009a575f3560e01c80637ee9f33e116100625780637ee9f33e1461018557806395e2bf1f146101985780639e3b67f1146101b7578063ad5abed8146101d6578063b1620616146102c0578063fa502176146103ce575f80fd5b806308551a531461009e5780633d5d62d6146100ee5780635114cb52146101275780635c6144b91461013c5780635f8d26b214610170575b5f80fd5b3480156100a9575f80fd5b506100d17f000000000000000000000000000000000000000000000000000000000000000081565b6040516001600160a01b0390911681526020015b60405180910390f35b3480156100f9575f80fd5b50610119610108366004611fd9565b60016020525f908152604090205481565b6040519081526020016100e5565b61013a610135366004611ffb565b6103ed565b005b348015610147575f80fd5b50610119610156366004611fd9565b6001600160a01b03165f9081526001602052604090205490565b34801561017b575f80fd5b5061011960035481565b61013a610193366004611ffb565b610721565b3480156101a3575f80fd5b5061013a6101b2366004612012565b610c97565b3480156101c2575f80fd5b5061013a6101d1366004612040565b610dc3565b3480156101e1575f80fd5b5061025e6101f0366004611ffb565b5f9081526002602081905260409091208054600182015492820154600483015460058401546008850154600c8601546009870154600d880154600e8901546003909901546001600160a01b039889169b98909a1699969895979496939592949193909260ff90811692911690565b604080516001600160a01b039c8d1681529b909a1660208c0152988a01979097526060890195909552608088019390935260a087019190915260c086015260e085015261010084015215156101208301521515610140820152610160016100e5565b3480156102cb575f80fd5b506103be6102da366004611ffb565b600260208181525f928352604092839020805484516060808201875260018401546001600160a01b0390811683529584015482860152600384015460ff908116151583890152875160e081018952600486015481526005860154818801526006860154818a01526007860154818401526008860154608080830191909152600987015460a080840191909152600a88015460c08401528a519081018b52600b8801548152600c88015498810198909852600d87015499880199909952600e860154909116151591860191909152600f90930154958401959095529290921692919084565b6040516100e594939291906120c3565b3480156103d9575f80fd5b506101196103e836600461217c565b611127565b6103f5611612565b5f81118015610405575060035481105b61042a5760405162461bcd60e51b8152600401610421906121d9565b60405180910390fd5b5f81815260026020526040902080546001600160a01b031633146104905760405162461bcd60e51b815260206004820181905260248201527f4f6e6c79207468652062757965722063616e206d616b65207061796d656e74736044820152606401610421565b600e81015460ff166104dd5760405162461bcd60e51b815260206004820152601660248201527527379030b1ba34bb32903830bcb6b2b73a10383630b760511b6044820152606401610421565b600881015461052e5760405162461bcd60e51b815260206004820152601960248201527f506c616e20697320616c726561647920636f6d706c65746564000000000000006044820152606401610421565b6005810154600c8201545f9042111561066457600d83018054905f61055283612216565b90915550506007830154600884015460649161056d9161222e565b610577919061225f565b90506105838183612272565b9150600383600b01600201541061066457600883015460048401545f916105a991612285565b600e8501805460ff1916905560018501546002860154604080518481526001600160a01b039093166020840152820152909150339086907ff07c0238a1bef424f264e711045c0974dfcde753e6a77836cd6a6b2ecdadfe769060600160405180910390a360405162461bcd60e51b815260206004820152602660248201527f506c616e2064656661756c746564202d207468726565207061796d656e7473206044820152651b5a5cdcd95960d21b6064820152608401610421565b813410156106b45760405162461bcd60e51b815260206004820152601b60248201527f496e73756666696369656e74207061796d656e7420616d6f756e7400000000006044820152606401610421565b6106bf843483611669565b6040516001600160a01b037f000000000000000000000000000000000000000000000000000000000000000016903480156108fc02915f818181858888f19350505050158015610711573d5f803e3d5ffd5b5050505061071e60015f55565b50565b610729611612565b5f81118015610739575060035481105b6107555760405162461bcd60e51b8152600401610421906121d9565b5f81815260026020526040902080546001600160a01b031633146107bb5760405162461bcd60e51b815260206004820181905260248201527f4f6e6c79207468652062757965722063616e206d616b65207061796d656e74736044820152606401610421565b600e81015460ff166108085760405162461bcd60e51b815260206004820152601660248201527527379030b1ba34bb32903830bcb6b2b73a10383630b760511b6044820152606401610421565b600a8101546108595760405162461bcd60e51b815260206004820152601e60248201527f446f776e207061796d656e7420616c72656164792070726f63657373656400006044820152606401610421565b600c8101546108a25760405162461bcd60e51b815260206004820152601560248201527414185e5b595b9d0819185d195cc81b9bdd081cd95d605a1b6044820152606401610421565b600a8101543410156108f65760405162461bcd60e51b815260206004820181905260248201527f496e73756666696369656e7420646f776e207061796d656e7420616d6f756e746044820152606401610421565b600181015460028201546040516331a9108f60e11b81526001600160a01b03928316927f000000000000000000000000000000000000000000000000000000000000000016918391636352211e916109549160040190815260200190565b602060405180830381865afa15801561096f573d5f803e3d5ffd5b505050506040513d601f19601f820116820180604052508101906109939190612298565b6001600160a01b0316146109e95760405162461bcd60e51b815260206004820152601b60248201527f53656c6c657220646f6573206e6f74206f776e20746865204e465400000000006044820152606401610421565b60405163e985e9c560e01b81526001600160a01b037f00000000000000000000000000000000000000000000000000000000000000008116600483015230602483015282169063e985e9c590604401602060405180830381865afa158015610a53573d5f803e3d5ffd5b505050506040513d601f19601f82011682018060405250810190610a7791906122b3565b80610afc5750600282015460405163020604bf60e21b815230916001600160a01b0384169163081812fc91610ab29160040190815260200190565b602060405180830381865afa158015610acd573d5f803e3d5ffd5b505050506040513d601f19601f82011682018060405250810190610af19190612298565b6001600160a01b0316145b610b565760405162461bcd60e51b815260206004820152602560248201527f436f6e7472616374206e6f7420617070726f76656420746f207472616e7366656044820152641c8813919560da1b6064820152608401610421565b60028201546040516323b872dd60e01b81526001600160a01b037f0000000000000000000000000000000000000000000000000000000000000000811660048301523060248301526044820192909252908216906323b872dd906064015f604051808303815f87803b158015610bca575f80fd5b505af1158015610bdc573d5f803e3d5ffd5b50505f600a85018190556040516001600160a01b037f00000000000000000000000000000000000000000000000000000000000000001693503480156108fc02935091818181858888f19350505050158015610c3a573d5f803e3d5ffd5b506009820154600883015460408051928352346020840152820152426060820152339084907f7f05815c7b52d0bff880f573cdfecaa56c4396326c1c01bed184ac277bab71109060800160405180910390a3505061071e60015f55565b336001600160a01b037f00000000000000000000000000000000000000000000000000000000000000001614610cdf5760405162461bcd60e51b8152600401610421906122d2565b5f828152600260205260409020600381015460ff1615610d415760405162461bcd60e51b815260206004820152601760248201527f4e465420616c7265616479207472616e736665727265640000000000000000006044820152606401610421565b600181015460028201546040516323b872dd60e01b81523060048201526001600160a01b03858116602483015260448201929092529116906323b872dd906064015f604051808303815f87803b158015610d99575f80fd5b505af1158015610dab573d5f803e3d5ffd5b5050506003909101805460ff19166001179055505050565b336001600160a01b037f00000000000000000000000000000000000000000000000000000000000000001614610e0b5760405162461bcd60e51b8152600401610421906122d2565b5f85118015610e1b575060035485105b610e375760405162461bcd60e51b8152600401610421906121d9565b5f858152600260205260409020600e015460ff16610e8c5760405162461bcd60e51b8152602060048201526012602482015271506c616e206973206e6f742061637469766560701b6044820152606401610421565b5f858152600260205260409020600c015415610eea5760405162461bcd60e51b815260206004820152601960248201527f5061796d656e7420646174657320616c726561647920736574000000000000006044820152606401610421565b60048383604051610efc929190612315565b9081526020016040518091039020545f03610f4e5760405162461bcd60e51b8152602060048201526012602482015271496e76616c6964206d6f6e7468206e616d6560701b6044820152606401610421565b5f610f908585858080601f0160208091040260200160405190810160405280939291908181526020018383808284375f92019190915250879250611779915050565b9050428111610fe15760405162461bcd60e51b815260206004820181905260248201527f53746172742064617465206d75737420626520696e20746865206675747572656044820152606401610421565b8460025f8881526020019081526020015f20600b015f01819055508060025f8881526020019081526020015f20600b01600101819055505f60025f8881526020019081526020015f209050806001015f015f9054906101000a90046001600160a01b03166001600160a01b0316815f015f9054906101000a90046001600160a01b03166001600160a01b0316887f6961feb63d2aacb590686ff144b8591f9fe46e85189053e1d79a2fc52d621faf8460010160010154856004015f01548660040160060154876004016001015488600401600201546111048f8f8f8080601f0160208091040260200160405190810160405280939291908181526020018383808284375f81840152601f19601f820116905080830192505050505050508e611a2a565b60405161111696959493929190612324565b60405180910390a450505050505050565b5f336001600160a01b037f000000000000000000000000000000000000000000000000000000000000000016146111705760405162461bcd60e51b8152600401610421906122d2565b5f85116111c95760405162461bcd60e51b815260206004820152602160248201527f546f74616c20636f7374206d7573742062652067726561746572207468616e206044820152600360fc1b6064820152608401610421565b5f831161122a5760405162461bcd60e51b815260206004820152602960248201527f4e756d626572206f66207061796d656e7473206d75737420626520677265617460448201526806572207468616e20360bc1b6064820152608401610421565b60648211156112855760405162461bcd60e51b815260206004820152602160248201527f50656e616c74792070657263656e74616765206d757374206265203c3d2031306044820152600360fc1b6064820152608401610421565b60648411156112e55760405162461bcd60e51b815260206004820152602660248201527f446f776e207061796d656e742070657263656e74616765206d7573742062652060448201526503c3d203130360d41b6064820152608401610421565b6001600160a01b0388165f908152600160205260409020541561134a5760405162461bcd60e51b815260206004820181905260248201527f427579657220616c72656164792068617320616e2061637469766520706c616e6044820152606401610421565b5f6064611357868861222e565b611361919061225f565b90505f61136e8288612285565b90505f61137b868361225f565b905081611388878361222e565b146113e75760405162461bcd60e51b815260206004820152602960248201527f52656d61696e696e6720616d6f756e74206d757374206265206576656e6c7920604482015268646976697369626c6560b81b6064820152608401610421565b600380545f91826113f783612216565b9190505590508060015f8e6001600160a01b03166001600160a01b031681526020019081526020015f20819055508b60025f8381526020019081526020015f205f015f6101000a8154816001600160a01b0302191690836001600160a01b0316021790555060405180606001604052808c6001600160a01b031681526020018b81526020015f151581525060025f8381526020019081526020015f206001015f820151815f015f6101000a8154816001600160a01b0302191690836001600160a01b03160217905550602082015181600101556040820151816002015f6101000a81548160ff0219169083151502179055509050506040518060e001604052808a81526020018381526020018881526020018781526020018481526020018881526020018581525060025f8381526020019081526020015f206004015f820151815f01556020820151816001015560408201518160020155606082015181600301556080820151816004015560a0820151816005015560c082015181600601559050506040518060a001604052805f81526020015f81526020015f81526020016001151581526020014281525060025f8381526020019081526020015f20600b015f820151815f015560208201518160010155604082015181600201556060820151816003015f6101000a81548160ff0219169083151502179055506080820151816004015590505080945050505050979650505050505050565b60025f54036116635760405162461bcd60e51b815260206004820152601f60248201527f5265656e7472616e637947756172643a207265656e7472616e742063616c6c006044820152606401610421565b60025f55565b5f838152600260205260408120600581015460088201805492939192909190611693908490612285565b9091555050600981018054905f6116a98361237c565b91905055506116b784611a69565b81156117015780546040518381526001600160a01b039091169085907fed7a0aea6f0340c8fd7f451ac8b492e2facd06e914d020af7d8f38321f04499a9060200160405180910390a35b80546009820154600883015460408051928352602083018790528201524260608201526001600160a01b039091169085907f7f05815c7b52d0bff880f573cdfecaa56c4396326c1c01bed184ac277bab71109060800160405180910390a360088101545f036117735761177384611b33565b50505050565b5f808411801561178a5750601f8411155b6117c45760405162461bcd60e51b815260206004820152600b60248201526a496e76616c69642064617960a81b6044820152606401610421565b6107e88210156118055760405162461bcd60e51b815260206004820152600c60248201526b24b73b30b634b2103cb2b0b960a11b6044820152606401610421565b5f60048460405161181691906123a8565b9081526020016040518091039020549050805f036118665760405162461bcd60e51b815260206004820152600d60248201526c092dcecc2d8d2c840dadedce8d609b1b6044820152606401610421565b8060020361190d575f61187a6004856123b3565b158015611890575061188d6064856123b3565b15155b806118a457506118a2610190856123b3565b155b9050806118b257601c6118b5565b601d5b60ff168611156119075760405162461bcd60e51b815260206004820152601860248201527f496e76616c69642064617920666f7220466562727561727900000000000000006044820152606401610421565b50611988565b806004148061191c5750806006145b806119275750806009145b80611932575080600b145b1561198857601e8511156119885760405162461bcd60e51b815260206004820152601a60248201527f496e76616c69642064617920666f722074686973206d6f6e74680000000000006044820152606401610421565b62015180611997600187612285565b6119a1919061222e565b620151806119b0600184612285565b6119bb90601e61222e565b6119c5919061222e565b6201518060046119d76107b188612285565b6119e1919061225f565b6119ed6107b288612285565b6119f99061016d61222e565b611a039190612272565b611a0d919061222e565b611a179190612272565b611a219190612272565b95945050505050565b6060611a3584611c98565b83611a3f84611c98565b604051602001611a51939291906123c6565b60405160208183030381529060405290509392505050565b5f81815260026020526040812090611a866201518061016d61222e565b600c830154611a95919061225f565b611aa1906107b2612272565b90505f611ab262015180601e61222e565b611ac16201518061016d61222e565b600c850154611ad091906123b3565b611ada919061225f565b611ae5906001612272565b9050611af2600182612272565b9050600c811115611b0d57506001611b0a8183612272565b91505b600b830154611b2590611b1f83611da0565b84611779565b600c90930192909255505050565b5f818152600260205260409020600e8101805460ff19169055600381015460ff16611c94576001810154815460028301546040516323b872dd60e01b81523060048201526001600160a01b03928316602482015260448101919091529116906323b872dd906064015f604051808303815f87803b158015611bb2575f80fd5b505af1925050508015611bc3575060015b611c1b5760405162461bcd60e51b8152602060048201526024808201527f4e4654207472616e73666572206661696c6564202d20636f6e74616374207365604482015263363632b960e11b6064820152608401610421565b60038101805460ff191660019081179091558101548154600283015460058401546004850154604080519384526020840192909252908201526001600160a01b03928316929091169084907f0c353ff0be67df5a5b38b51dd836480fcbb84172b535a89ae18ac96b046ac1579060600160405180910390a45b5050565b6060815f03611cbe5750506040805180820190915260018152600360fc1b602082015290565b815f5b8115611ce75780611cd181612216565b9150611ce09050600a8361225f565b9150611cc1565b5f8167ffffffffffffffff811115611d0157611d01612405565b6040519080825280601f01601f191660200182016040528015611d2b576020820181803683370190505b508593509050815b8315611d9757611d44600a856123b3565b611d4f906030612272565b60f81b82611d5c8361237c565b92508281518110611d6f57611d6f612419565b60200101906001600160f81b03191690815f1a905350611d90600a8561225f565b9350611d33565b50949350505050565b606081600103611dcd5750506040805180820190915260078152664a616e7561727960c81b602082015290565b81600203611df9575050604080518082019091526008815267466562727561727960c01b602082015290565b81600303611e2257505060408051808201909152600581526409ac2e4c6d60db1b602082015290565b81600403611e4b575050604080518082019091526005815264105c1c9a5b60da1b602082015290565b81600503611e725750506040805180820190915260038152624d617960e81b602082015290565b81600603611e9a5750506040805180820190915260048152634a756e6560e01b602082015290565b81600703611ec25750506040805180820190915260048152634a756c7960e01b602082015290565b81600803611eec575050604080518082019091526006815265105d59dd5cdd60d21b602082015290565b81600903611f1957505060408051808201909152600981526829b2b83a32b6b132b960b91b602082015290565b81600a03611f4457505060408051808201909152600781526627b1ba37b132b960c91b602082015290565b81600b03611f705750506040805180820190915260088152672737bb32b6b132b960c11b602082015290565b81600c03611f9c5750506040805180820190915260088152672232b1b2b6b132b960c11b602082015290565b505060408051808201909152600d81526c092dcecc2d8d2c8409adedce8d609b1b602082015290565b6001600160a01b038116811461071e575f80fd5b5f60208284031215611fe9575f80fd5b8135611ff481611fc5565b9392505050565b5f6020828403121561200b575f80fd5b5035919050565b5f8060408385031215612023575f80fd5b82359150602083013561203581611fc5565b809150509250929050565b5f805f805f60808688031215612054575f80fd5b8535945060208601359350604086013567ffffffffffffffff811115612078575f80fd5b8601601f81018813612088575f80fd5b803567ffffffffffffffff81111561209e575f80fd5b8860208284010111156120af575f80fd5b959894975060200195606001359392505050565b5f6102008201905060018060a01b038616825260018060a01b0385511660208301526020850151604083015260408501511515606083015283516080830152602084015160a0830152604084015160c0830152606084015160e0830152608084015161010083015260a084015161012083015260c0840151610140830152611a21610160830184805182526020810151602083015260408101516040830152606081015115156060830152608081015160808301525050565b5f805f805f805f60e0888a031215612192575f80fd5b873561219d81611fc5565b965060208801356121ad81611fc5565b96999698505050506040850135946060810135946080820135945060a0820135935060c0909101359150565b6020808252600f908201526e125b9d985b1a59081c1b185b881251608a1b604082015260600190565b634e487b7160e01b5f52601160045260245ffd5b5f6001820161222757612227612202565b5060010190565b808202811582820484141761224557612245612202565b92915050565b634e487b7160e01b5f52601260045260245ffd5b5f8261226d5761226d61224b565b500490565b8082018082111561224557612245612202565b8181038181111561224557612245612202565b5f602082840312156122a8575f80fd5b8151611ff481611fc5565b5f602082840312156122c3575f80fd5b81518015158114611ff4575f80fd5b60208082526023908201527f4f6e6c792073656c6c65722063616e20706572666f726d20746869732061637460408201526234b7b760e91b606082015260800190565b818382375f9101908152919050565b86815285602082015284604082015283606082015282608082015260c060a08201525f82518060c0840152806020850160e085015e5f60e0828501015260e0601f19601f830116840101915050979650505050505050565b5f8161238a5761238a612202565b505f190190565b5f81518060208401855e5f93019283525090919050565b5f611ff48284612391565b5f826123c1576123c161224b565b500690565b5f6123d18286612391565b600160fd1b81526123e56001820186612391565b9050600160fd1b81526123fb6001820185612391565b9695505050505050565b634e487b7160e01b5f52604160045260245ffd5b634e487b7160e01b5f52603260045260245ffdfea2646970667358221220dcbb35f78c564aad059eef77377eeb359c4beec4d5bc26a5bf7c4a63b227f95d64736f6c634300081a0033",
			"opcodes": "PUSH1 0xA0 PUSH1 0x40 MSTORE PUSH1 0x1 PUSH1 0x3 SSTORE CALLVALUE DUP1 ISZERO PUSH2 0x14 JUMPI PUSH0 DUP1 REVERT JUMPDEST POP PUSH1 0x1 PUSH0 SSTORE CALLER PUSH1 0x80 MSTORE PUSH2 0x25 PUSH2 0x2A JUMP JUMPDEST PUSH2 0x1D4 JUMP JUMPDEST PUSH1 0x1 PUSH1 0x4 PUSH1 0x40 MLOAD PUSH2 0x48 SWAP1 PUSH7 0x4A616E75617279 PUSH1 0xC8 SHL DUP2 MSTORE PUSH1 0x7 ADD SWAP1 JUMP JUMPDEST SWAP1 DUP2 MSTORE PUSH1 0x40 DUP1 MLOAD SWAP2 DUP3 SWAP1 SUB PUSH1 0x20 ADD DUP3 KECCAK256 SWAP3 SWAP1 SWAP3 SSTORE PUSH8 0x4665627275617279 PUSH1 0xC0 SHL DUP2 MSTORE PUSH1 0x4 PUSH1 0x8 DUP1 DUP4 ADD DUP3 SWAP1 MSTORE DUP4 MLOAD SWAP3 DUP4 SWAP1 SUB PUSH1 0x28 SWAP1 DUP2 ADD DUP5 KECCAK256 PUSH1 0x2 SWAP1 SSTORE PUSH5 0x9AC2E4C6D PUSH1 0xDB SHL DUP5 MSTORE PUSH1 0x5 DUP1 DUP6 ADD DUP5 SWAP1 MSTORE DUP6 MLOAD SWAP5 DUP6 SWAP1 SUB PUSH1 0x25 SWAP1 DUP2 ADD DUP7 KECCAK256 PUSH1 0x3 SWAP1 DUP2 SWAP1 SSTORE PUSH5 0x105C1C9A5B PUSH1 0xDA SHL DUP8 MSTORE DUP7 DUP4 ADD DUP7 SWAP1 MSTORE DUP8 MLOAD SWAP7 DUP8 SWAP1 SUB SWAP1 SWAP2 ADD DUP7 KECCAK256 DUP6 SWAP1 SSTORE PUSH3 0x4D6179 PUSH1 0xE8 SHL DUP7 MSTORE DUP6 ADD DUP5 SWAP1 MSTORE DUP6 MLOAD SWAP5 DUP6 SWAP1 SUB PUSH1 0x23 ADD DUP6 KECCAK256 SSTORE PUSH4 0x4A756E65 PUSH1 0xE0 SHL DUP5 MSTORE DUP4 DUP4 ADD DUP4 SWAP1 MSTORE DUP5 MLOAD SWAP4 DUP5 SWAP1 SUB PUSH1 0x24 SWAP1 DUP2 ADD DUP6 KECCAK256 PUSH1 0x6 SWAP1 DUP2 SWAP1 SSTORE PUSH4 0x4A756C79 PUSH1 0xE0 SHL DUP7 MSTORE DUP6 DUP6 ADD DUP6 SWAP1 MSTORE DUP7 MLOAD SWAP6 DUP7 SWAP1 SUB SWAP1 SWAP2 ADD DUP6 KECCAK256 PUSH1 0x7 SWAP1 DUP2 SWAP1 SSTORE PUSH6 0x105D59DD5CDD PUSH1 0xD2 SHL DUP7 MSTORE SWAP1 DUP6 ADD DUP5 SWAP1 MSTORE DUP6 MLOAD SWAP5 DUP6 SWAP1 SUB PUSH1 0x26 ADD DUP6 KECCAK256 DUP4 SWAP1 SSTORE PUSH9 0x29B2B83A32B6B132B9 PUSH1 0xB9 SHL DUP6 MSTORE PUSH1 0x9 DUP1 DUP7 ADD DUP6 SWAP1 MSTORE DUP7 MLOAD SWAP6 DUP7 SWAP1 SUB PUSH1 0x29 ADD DUP7 KECCAK256 SSTORE PUSH7 0x27B1BA37B132B9 PUSH1 0xC9 SHL DUP6 MSTORE DUP5 ADD DUP4 SWAP1 MSTORE DUP5 MLOAD SWAP4 DUP5 SWAP1 SUB PUSH1 0x27 ADD DUP5 KECCAK256 PUSH1 0xA SWAP1 SSTORE PUSH8 0x2737BB32B6B132B9 PUSH1 0xC1 SHL DUP5 MSTORE DUP4 DUP3 ADD DUP4 SWAP1 MSTORE DUP5 MLOAD SWAP4 DUP5 SWAP1 SUB DUP2 ADD DUP5 KECCAK256 PUSH1 0xB SWAP1 SSTORE PUSH8 0x2232B1B2B6B132B9 PUSH1 0xC1 SHL DUP5 MSTORE SWAP1 DUP4 ADD SWAP2 SWAP1 SWAP2 MSTORE SWAP2 MLOAD SWAP1 DUP2 SWAP1 SUB SWAP1 SWAP2 ADD SWAP1 KECCAK256 PUSH1 0xC SWAP1 SSTORE JUMP JUMPDEST PUSH1 0x80 MLOAD PUSH2 0x2463 PUSH2 0x223 PUSH0 CODECOPY PUSH0 DUP2 DUP2 PUSH1 0xAF ADD MSTORE DUP2 DUP2 PUSH2 0x6CC ADD MSTORE DUP2 DUP2 PUSH2 0x91B ADD MSTORE DUP2 DUP2 PUSH2 0xA00 ADD MSTORE DUP2 DUP2 PUSH2 0xB72 ADD MSTORE DUP2 DUP2 PUSH2 0xBF3 ADD MSTORE DUP2 DUP2 PUSH2 0xCA2 ADD MSTORE DUP2 DUP2 PUSH2 0xDCE ADD MSTORE PUSH2 0x1133 ADD MSTORE PUSH2 0x2463 PUSH0 RETURN INVALID PUSH1 0x80 PUSH1 0x40 MSTORE PUSH1 0x4 CALLDATASIZE LT PUSH2 0x9A JUMPI PUSH0 CALLDATALOAD PUSH1 0xE0 SHR DUP1 PUSH4 0x7EE9F33E GT PUSH2 0x62 JUMPI DUP1 PUSH4 0x7EE9F33E EQ PUSH2 0x185 JUMPI DUP1 PUSH4 0x95E2BF1F EQ PUSH2 0x198 JUMPI DUP1 PUSH4 0x9E3B67F1 EQ PUSH2 0x1B7 JUMPI DUP1 PUSH4 0xAD5ABED8 EQ PUSH2 0x1D6 JUMPI DUP1 PUSH4 0xB1620616 EQ PUSH2 0x2C0 JUMPI DUP1 PUSH4 0xFA502176 EQ PUSH2 0x3CE JUMPI PUSH0 DUP1 REVERT JUMPDEST DUP1 PUSH4 0x8551A53 EQ PUSH2 0x9E JUMPI DUP1 PUSH4 0x3D5D62D6 EQ PUSH2 0xEE JUMPI DUP1 PUSH4 0x5114CB52 EQ PUSH2 0x127 JUMPI DUP1 PUSH4 0x5C6144B9 EQ PUSH2 0x13C JUMPI DUP1 PUSH4 0x5F8D26B2 EQ PUSH2 0x170 JUMPI JUMPDEST PUSH0 DUP1 REVERT JUMPDEST CALLVALUE DUP1 ISZERO PUSH2 0xA9 JUMPI PUSH0 DUP1 REVERT JUMPDEST POP PUSH2 0xD1 PUSH32 0x0 DUP2 JUMP JUMPDEST PUSH1 0x40 MLOAD PUSH1 0x1 PUSH1 0x1 PUSH1 0xA0 SHL SUB SWAP1 SWAP2 AND DUP2 MSTORE PUSH1 0x20 ADD JUMPDEST PUSH1 0x40 MLOAD DUP1 SWAP2 SUB SWAP1 RETURN JUMPDEST CALLVALUE DUP1 ISZERO PUSH2 0xF9 JUMPI PUSH0 DUP1 REVERT JUMPDEST POP PUSH2 0x119 PUSH2 0x108 CALLDATASIZE PUSH1 0x4 PUSH2 0x1FD9 JUMP JUMPDEST PUSH1 0x1 PUSH1 0x20 MSTORE PUSH0 SWAP1 DUP2 MSTORE PUSH1 0x40 SWAP1 KECCAK256 SLOAD DUP2 JUMP JUMPDEST PUSH1 0x40 MLOAD SWAP1 DUP2 MSTORE PUSH1 0x20 ADD PUSH2 0xE5 JUMP JUMPDEST PUSH2 0x13A PUSH2 0x135 CALLDATASIZE PUSH1 0x4 PUSH2 0x1FFB JUMP JUMPDEST PUSH2 0x3ED JUMP JUMPDEST STOP JUMPDEST CALLVALUE DUP1 ISZERO PUSH2 0x147 JUMPI PUSH0 DUP1 REVERT JUMPDEST POP PUSH2 0x119 PUSH2 0x156 CALLDATASIZE PUSH1 0x4 PUSH2 0x1FD9 JUMP JUMPDEST PUSH1 0x1 PUSH1 0x1 PUSH1 0xA0 SHL SUB AND PUSH0 SWAP1 DUP2 MSTORE PUSH1 0x1 PUSH1 0x20 MSTORE PUSH1 0x40 SWAP1 KECCAK256 SLOAD SWAP1 JUMP JUMPDEST CALLVALUE DUP1 ISZERO PUSH2 0x17B JUMPI PUSH0 DUP1 REVERT JUMPDEST POP PUSH2 0x119 PUSH1 0x3 SLOAD DUP2 JUMP JUMPDEST PUSH2 0x13A PUSH2 0x193 CALLDATASIZE PUSH1 0x4 PUSH2 0x1FFB JUMP JUMPDEST PUSH2 0x721 JUMP JUMPDEST CALLVALUE DUP1 ISZERO PUSH2 0x1A3 JUMPI PUSH0 DUP1 REVERT JUMPDEST POP PUSH2 0x13A PUSH2 0x1B2 CALLDATASIZE PUSH1 0x4 PUSH2 0x2012 JUMP JUMPDEST PUSH2 0xC97 JUMP JUMPDEST CALLVALUE DUP1 ISZERO PUSH2 0x1C2 JUMPI PUSH0 DUP1 REVERT JUMPDEST POP PUSH2 0x13A PUSH2 0x1D1 CALLDATASIZE PUSH1 0x4 PUSH2 0x2040 JUMP JUMPDEST PUSH2 0xDC3 JUMP JUMPDEST CALLVALUE DUP1 ISZERO PUSH2 0x1E1 JUMPI PUSH0 DUP1 REVERT JUMPDEST POP PUSH2 0x25E PUSH2 0x1F0 CALLDATASIZE PUSH1 0x4 PUSH2 0x1FFB JUMP JUMPDEST PUSH0 SWAP1 DUP2 MSTORE PUSH1 0x2 PUSH1 0x20 DUP2 SWAP1 MSTORE PUSH1 0x40 SWAP1 SWAP2 KECCAK256 DUP1 SLOAD PUSH1 0x1 DUP3 ADD SLOAD SWAP3 DUP3 ADD SLOAD PUSH1 0x4 DUP4 ADD SLOAD PUSH1 0x5 DUP5 ADD SLOAD PUSH1 0x8 DUP6 ADD SLOAD PUSH1 0xC DUP7 ADD SLOAD PUSH1 0x9 DUP8 ADD SLOAD PUSH1 0xD DUP9 ADD SLOAD PUSH1 0xE DUP10 ADD SLOAD PUSH1 0x3 SWAP1 SWAP10 ADD SLOAD PUSH1 0x1 PUSH1 0x1 PUSH1 0xA0 SHL SUB SWAP9 DUP10 AND SWAP12 SWAP9 SWAP1 SWAP11 AND SWAP10 SWAP7 SWAP9 SWAP6 SWAP8 SWAP5 SWAP7 SWAP4 SWAP6 SWAP3 SWAP5 SWAP2 SWAP4 SWAP1 SWAP3 PUSH1 0xFF SWAP1 DUP2 AND SWAP3 SWAP2 AND SWAP1 JUMP JUMPDEST PUSH1 0x40 DUP1 MLOAD PUSH1 0x1 PUSH1 0x1 PUSH1 0xA0 SHL SUB SWAP13 DUP14 AND DUP2 MSTORE SWAP12 SWAP1 SWAP11 AND PUSH1 0x20 DUP13 ADD MSTORE SWAP9 DUP11 ADD SWAP8 SWAP1 SWAP8 MSTORE PUSH1 0x60 DUP10 ADD SWAP6 SWAP1 SWAP6 MSTORE PUSH1 0x80 DUP9 ADD SWAP4 SWAP1 SWAP4 MSTORE PUSH1 0xA0 DUP8 ADD SWAP2 SWAP1 SWAP2 MSTORE PUSH1 0xC0 DUP7 ADD MSTORE PUSH1 0xE0 DUP6 ADD MSTORE PUSH2 0x100 DUP5 ADD MSTORE ISZERO ISZERO PUSH2 0x120 DUP4 ADD MSTORE ISZERO ISZERO PUSH2 0x140 DUP3 ADD MSTORE PUSH2 0x160 ADD PUSH2 0xE5 JUMP JUMPDEST CALLVALUE DUP1 ISZERO PUSH2 0x2CB JUMPI PUSH0 DUP1 REVERT JUMPDEST POP PUSH2 0x3BE PUSH2 0x2DA CALLDATASIZE PUSH1 0x4 PUSH2 0x1FFB JUMP JUMPDEST PUSH1 0x2 PUSH1 0x20 DUP2 DUP2 MSTORE PUSH0 SWAP3 DUP4 MSTORE PUSH1 0x40 SWAP3 DUP4 SWAP1 KECCAK256 DUP1 SLOAD DUP5 MLOAD PUSH1 0x60 DUP1 DUP3 ADD DUP8 MSTORE PUSH1 0x1 DUP5 ADD SLOAD PUSH1 0x1 PUSH1 0x1 PUSH1 0xA0 SHL SUB SWAP1 DUP2 AND DUP4 MSTORE SWAP6 DUP5 ADD SLOAD DUP3 DUP7 ADD MSTORE PUSH1 0x3 DUP5 ADD SLOAD PUSH1 0xFF SWAP1 DUP2 AND ISZERO ISZERO DUP4 DUP10 ADD MSTORE DUP8 MLOAD PUSH1 0xE0 DUP2 ADD DUP10 MSTORE PUSH1 0x4 DUP7 ADD SLOAD DUP2 MSTORE PUSH1 0x5 DUP7 ADD SLOAD DUP2 DUP9 ADD MSTORE PUSH1 0x6 DUP7 ADD SLOAD DUP2 DUP11 ADD MSTORE PUSH1 0x7 DUP7 ADD SLOAD DUP2 DUP5 ADD MSTORE PUSH1 0x8 DUP7 ADD SLOAD PUSH1 0x80 DUP1 DUP4 ADD SWAP2 SWAP1 SWAP2 MSTORE PUSH1 0x9 DUP8 ADD SLOAD PUSH1 0xA0 DUP1 DUP5 ADD SWAP2 SWAP1 SWAP2 MSTORE PUSH1 0xA DUP9 ADD SLOAD PUSH1 0xC0 DUP5 ADD MSTORE DUP11 MLOAD SWAP1 DUP2 ADD DUP12 MSTORE PUSH1 0xB DUP9 ADD SLOAD DUP2 MSTORE PUSH1 0xC DUP9 ADD SLOAD SWAP9 DUP2 ADD SWAP9 SWAP1 SWAP9 MSTORE PUSH1 0xD DUP8 ADD SLOAD SWAP10 DUP9 ADD SWAP10 SWAP1 SWAP10 MSTORE PUSH1 0xE DUP7 ADD SLOAD SWAP1 SWAP2 AND ISZERO ISZERO SWAP2 DUP7 ADD SWAP2 SWAP1 SWAP2 MSTORE PUSH1 0xF SWAP1 SWAP4 ADD SLOAD SWAP6 DUP5 ADD SWAP6 SWAP1 SWAP6 MSTORE SWAP3 SWAP1 SWAP3 AND SWAP3 SWAP2 SWAP1 DUP5 JUMP JUMPDEST PUSH1 0x40 MLOAD PUSH2 0xE5 SWAP5 SWAP4 SWAP3 SWAP2 SWAP1 PUSH2 0x20C3 JUMP JUMPDEST CALLVALUE DUP1 ISZERO PUSH2 0x3D9 JUMPI PUSH0 DUP1 REVERT JUMPDEST POP PUSH2 0x119 PUSH2 0x3E8 CALLDATASIZE PUSH1 0x4 PUSH2 0x217C JUMP JUMPDEST PUSH2 0x1127 JUMP JUMPDEST PUSH2 0x3F5 PUSH2 0x1612 JUMP JUMPDEST PUSH0 DUP2 GT DUP1 ISZERO PUSH2 0x405 JUMPI POP PUSH1 0x3 SLOAD DUP2 LT JUMPDEST PUSH2 0x42A JUMPI PUSH1 0x40 MLOAD PUSH3 0x461BCD PUSH1 0xE5 SHL DUP2 MSTORE PUSH1 0x4 ADD PUSH2 0x421 SWAP1 PUSH2 0x21D9 JUMP JUMPDEST PUSH1 0x40 MLOAD DUP1 SWAP2 SUB SWAP1 REVERT JUMPDEST PUSH0 DUP2 DUP2 MSTORE PUSH1 0x2 PUSH1 0x20 MSTORE PUSH1 0x40 SWAP1 KECCAK256 DUP1 SLOAD PUSH1 0x1 PUSH1 0x1 PUSH1 0xA0 SHL SUB AND CALLER EQ PUSH2 0x490 JUMPI PUSH1 0x40 MLOAD PUSH3 0x461BCD PUSH1 0xE5 SHL DUP2 MSTORE PUSH1 0x20 PUSH1 0x4 DUP3 ADD DUP2 SWAP1 MSTORE PUSH1 0x24 DUP3 ADD MSTORE PUSH32 0x4F6E6C79207468652062757965722063616E206D616B65207061796D656E7473 PUSH1 0x44 DUP3 ADD MSTORE PUSH1 0x64 ADD PUSH2 0x421 JUMP JUMPDEST PUSH1 0xE DUP2 ADD SLOAD PUSH1 0xFF AND PUSH2 0x4DD JUMPI PUSH1 0x40 MLOAD PUSH3 0x461BCD PUSH1 0xE5 SHL DUP2 MSTORE PUSH1 0x20 PUSH1 0x4 DUP3 ADD MSTORE PUSH1 0x16 PUSH1 0x24 DUP3 ADD MSTORE PUSH22 0x27379030B1BA34BB32903830BCB6B2B73A10383630B7 PUSH1 0x51 SHL PUSH1 0x44 DUP3 ADD MSTORE PUSH1 0x64 ADD PUSH2 0x421 JUMP JUMPDEST PUSH1 0x8 DUP2 ADD SLOAD PUSH2 0x52E JUMPI PUSH1 0x40 MLOAD PUSH3 0x461BCD PUSH1 0xE5 SHL DUP2 MSTORE PUSH1 0x20 PUSH1 0x4 DUP3 ADD MSTORE PUSH1 0x19 PUSH1 0x24 DUP3 ADD MSTORE PUSH32 0x506C616E20697320616C726561647920636F6D706C6574656400000000000000 PUSH1 0x44 DUP3 ADD MSTORE PUSH1 0x64 ADD PUSH2 0x421 JUMP JUMPDEST PUSH1 0x5 DUP2 ADD SLOAD PUSH1 0xC DUP3 ADD SLOAD PUSH0 SWAP1 TIMESTAMP GT ISZERO PUSH2 0x664 JUMPI PUSH1 0xD DUP4 ADD DUP1 SLOAD SWAP1 PUSH0 PUSH2 0x552 DUP4 PUSH2 0x2216 JUMP JUMPDEST SWAP1 SWAP2 SSTORE POP POP PUSH1 0x7 DUP4 ADD SLOAD PUSH1 0x8 DUP5 ADD SLOAD PUSH1 0x64 SWAP2 PUSH2 0x56D SWAP2 PUSH2 0x222E JUMP JUMPDEST PUSH2 0x577 SWAP2 SWAP1 PUSH2 0x225F JUMP JUMPDEST SWAP1 POP PUSH2 0x583 DUP2 DUP4 PUSH2 0x2272 JUMP JUMPDEST SWAP2 POP PUSH1 0x3 DUP4 PUSH1 0xB ADD PUSH1 0x2 ADD SLOAD LT PUSH2 0x664 JUMPI PUSH1 0x8 DUP4 ADD SLOAD PUSH1 0x4 DUP5 ADD SLOAD PUSH0 SWAP2 PUSH2 0x5A9 SWAP2 PUSH2 0x2285 JUMP JUMPDEST PUSH1 0xE DUP6 ADD DUP1 SLOAD PUSH1 0xFF NOT AND SWAP1 SSTORE PUSH1 0x1 DUP6 ADD SLOAD PUSH1 0x2 DUP7 ADD SLOAD PUSH1 0x40 DUP1 MLOAD DUP5 DUP2 MSTORE PUSH1 0x1 PUSH1 0x1 PUSH1 0xA0 SHL SUB SWAP1 SWAP4 AND PUSH1 0x20 DUP5 ADD MSTORE DUP3 ADD MSTORE SWAP1 SWAP2 POP CALLER SWAP1 DUP7 SWAP1 PUSH32 0xF07C0238A1BEF424F264E711045C0974DFCDE753E6A77836CD6A6B2ECDADFE76 SWAP1 PUSH1 0x60 ADD PUSH1 0x40 MLOAD DUP1 SWAP2 SUB SWAP1 LOG3 PUSH1 0x40 MLOAD PUSH3 0x461BCD PUSH1 0xE5 SHL DUP2 MSTORE PUSH1 0x20 PUSH1 0x4 DUP3 ADD MSTORE PUSH1 0x26 PUSH1 0x24 DUP3 ADD MSTORE PUSH32 0x506C616E2064656661756C746564202D207468726565207061796D656E747320 PUSH1 0x44 DUP3 ADD MSTORE PUSH6 0x1B5A5CDCD959 PUSH1 0xD2 SHL PUSH1 0x64 DUP3 ADD MSTORE PUSH1 0x84 ADD PUSH2 0x421 JUMP JUMPDEST DUP2 CALLVALUE LT ISZERO PUSH2 0x6B4 JUMPI PUSH1 0x40 MLOAD PUSH3 0x461BCD PUSH1 0xE5 SHL DUP2 MSTORE PUSH1 0x20 PUSH1 0x4 DUP3 ADD MSTORE PUSH1 0x1B PUSH1 0x24 DUP3 ADD MSTORE PUSH32 0x496E73756666696369656E74207061796D656E7420616D6F756E740000000000 PUSH1 0x44 DUP3 ADD MSTORE PUSH1 0x64 ADD PUSH2 0x421 JUMP JUMPDEST PUSH2 0x6BF DUP5 CALLVALUE DUP4 PUSH2 0x1669 JUMP JUMPDEST PUSH1 0x40 MLOAD PUSH1 0x1 PUSH1 0x1 PUSH1 0xA0 SHL SUB PUSH32 0x0 AND SWAP1 CALLVALUE DUP1 ISZERO PUSH2 0x8FC MUL SWAP2 PUSH0 DUP2 DUP2 DUP2 DUP6 DUP9 DUP9 CALL SWAP4 POP POP POP POP ISZERO DUP1 ISZERO PUSH2 0x711 JUMPI RETURNDATASIZE PUSH0 DUP1 RETURNDATACOPY RETURNDATASIZE PUSH0 REVERT JUMPDEST POP POP POP POP PUSH2 0x71E PUSH1 0x1 PUSH0 SSTORE JUMP JUMPDEST POP JUMP JUMPDEST PUSH2 0x729 PUSH2 0x1612 JUMP JUMPDEST PUSH0 DUP2 GT DUP1 ISZERO PUSH2 0x739 JUMPI POP PUSH1 0x3 SLOAD DUP2 LT JUMPDEST PUSH2 0x755 JUMPI PUSH1 0x40 MLOAD PUSH3 0x461BCD PUSH1 0xE5 SHL DUP2 MSTORE PUSH1 0x4 ADD PUSH2 0x421 SWAP1 PUSH2 0x21D9 JUMP JUMPDEST PUSH0 DUP2 DUP2 MSTORE PUSH1 0x2 PUSH1 0x20 MSTORE PUSH1 0x40 SWAP1 KECCAK256 DUP1 SLOAD PUSH1 0x1 PUSH1 0x1 PUSH1 0xA0 SHL SUB AND CALLER EQ PUSH2 0x7BB JUMPI PUSH1 0x40 MLOAD PUSH3 0x461BCD PUSH1 0xE5 SHL DUP2 MSTORE PUSH1 0x20 PUSH1 0x4 DUP3 ADD DUP2 SWAP1 MSTORE PUSH1 0x24 DUP3 ADD MSTORE PUSH32 0x4F6E6C79207468652062757965722063616E206D616B65207061796D656E7473 PUSH1 0x44 DUP3 ADD MSTORE PUSH1 0x64 ADD PUSH2 0x421 JUMP JUMPDEST PUSH1 0xE DUP2 ADD SLOAD PUSH1 0xFF AND PUSH2 0x808 JUMPI PUSH1 0x40 MLOAD PUSH3 0x461BCD PUSH1 0xE5 SHL DUP2 MSTORE PUSH1 0x20 PUSH1 0x4 DUP3 ADD MSTORE PUSH1 0x16 PUSH1 0x24 DUP3 ADD MSTORE PUSH22 0x27379030B1BA34BB32903830BCB6B2B73A10383630B7 PUSH1 0x51 SHL PUSH1 0x44 DUP3 ADD MSTORE PUSH1 0x64 ADD PUSH2 0x421 JUMP JUMPDEST PUSH1 0xA DUP2 ADD SLOAD PUSH2 0x859 JUMPI PUSH1 0x40 MLOAD PUSH3 0x461BCD PUSH1 0xE5 SHL DUP2 MSTORE PUSH1 0x20 PUSH1 0x4 DUP3 ADD MSTORE PUSH1 0x1E PUSH1 0x24 DUP3 ADD MSTORE PUSH32 0x446F776E207061796D656E7420616C72656164792070726F6365737365640000 PUSH1 0x44 DUP3 ADD MSTORE PUSH1 0x64 ADD PUSH2 0x421 JUMP JUMPDEST PUSH1 0xC DUP2 ADD SLOAD PUSH2 0x8A2 JUMPI PUSH1 0x40 MLOAD PUSH3 0x461BCD PUSH1 0xE5 SHL DUP2 MSTORE PUSH1 0x20 PUSH1 0x4 DUP3 ADD MSTORE PUSH1 0x15 PUSH1 0x24 DUP3 ADD MSTORE PUSH21 0x14185E5B595B9D0819185D195CC81B9BDD081CD95D PUSH1 0x5A SHL PUSH1 0x44 DUP3 ADD MSTORE PUSH1 0x64 ADD PUSH2 0x421 JUMP JUMPDEST PUSH1 0xA DUP2 ADD SLOAD CALLVALUE LT ISZERO PUSH2 0x8F6 JUMPI PUSH1 0x40 MLOAD PUSH3 0x461BCD PUSH1 0xE5 SHL DUP2 MSTORE PUSH1 0x20 PUSH1 0x4 DUP3 ADD DUP2 SWAP1 MSTORE PUSH1 0x24 DUP3 ADD MSTORE PUSH32 0x496E73756666696369656E7420646F776E207061796D656E7420616D6F756E74 PUSH1 0x44 DUP3 ADD MSTORE PUSH1 0x64 ADD PUSH2 0x421 JUMP JUMPDEST PUSH1 0x1 DUP2 ADD SLOAD PUSH1 0x2 DUP3 ADD SLOAD PUSH1 0x40 MLOAD PUSH4 0x31A9108F PUSH1 0xE1 SHL DUP2 MSTORE PUSH1 0x1 PUSH1 0x1 PUSH1 0xA0 SHL SUB SWAP3 DUP4 AND SWAP3 PUSH32 0x0 AND SWAP2 DUP4 SWAP2 PUSH4 0x6352211E SWAP2 PUSH2 0x954 SWAP2 PUSH1 0x4 ADD SWAP1 DUP2 MSTORE PUSH1 0x20 ADD SWAP1 JUMP JUMPDEST PUSH1 0x20 PUSH1 0x40 MLOAD DUP1 DUP4 SUB DUP2 DUP7 GAS STATICCALL ISZERO DUP1 ISZERO PUSH2 0x96F JUMPI RETURNDATASIZE PUSH0 DUP1 RETURNDATACOPY RETURNDATASIZE PUSH0 REVERT JUMPDEST POP POP POP POP PUSH1 0x40 MLOAD RETURNDATASIZE PUSH1 0x1F NOT PUSH1 0x1F DUP3 ADD AND DUP3 ADD DUP1 PUSH1 0x40 MSTORE POP DUP2 ADD SWAP1 PUSH2 0x993 SWAP2 SWAP1 PUSH2 0x2298 JUMP JUMPDEST PUSH1 0x1 PUSH1 0x1 PUSH1 0xA0 SHL SUB AND EQ PUSH2 0x9E9 JUMPI PUSH1 0x40 MLOAD PUSH3 0x461BCD PUSH1 0xE5 SHL DUP2 MSTORE PUSH1 0x20 PUSH1 0x4 DUP3 ADD MSTORE PUSH1 0x1B PUSH1 0x24 DUP3 ADD MSTORE PUSH32 0x53656C6C657220646F6573206E6F74206F776E20746865204E46540000000000 PUSH1 0x44 DUP3 ADD MSTORE PUSH1 0x64 ADD PUSH2 0x421 JUMP JUMPDEST PUSH1 0x40 MLOAD PUSH4 0xE985E9C5 PUSH1 0xE0 SHL DUP2 MSTORE PUSH1 0x1 PUSH1 0x1 PUSH1 0xA0 SHL SUB PUSH32 0x0 DUP2 AND PUSH1 0x4 DUP4 ADD MSTORE ADDRESS PUSH1 0x24 DUP4 ADD MSTORE DUP3 AND SWAP1 PUSH4 0xE985E9C5 SWAP1 PUSH1 0x44 ADD PUSH1 0x20 PUSH1 0x40 MLOAD DUP1 DUP4 SUB DUP2 DUP7 GAS STATICCALL ISZERO DUP1 ISZERO PUSH2 0xA53 JUMPI RETURNDATASIZE PUSH0 DUP1 RETURNDATACOPY RETURNDATASIZE PUSH0 REVERT JUMPDEST POP POP POP POP PUSH1 0x40 MLOAD RETURNDATASIZE PUSH1 0x1F NOT PUSH1 0x1F DUP3 ADD AND DUP3 ADD DUP1 PUSH1 0x40 MSTORE POP DUP2 ADD SWAP1 PUSH2 0xA77 SWAP2 SWAP1 PUSH2 0x22B3 JUMP JUMPDEST DUP1 PUSH2 0xAFC JUMPI POP PUSH1 0x2 DUP3 ADD SLOAD PUSH1 0x40 MLOAD PUSH4 0x20604BF PUSH1 0xE2 SHL DUP2 MSTORE ADDRESS SWAP2 PUSH1 0x1 PUSH1 0x1 PUSH1 0xA0 SHL SUB DUP5 AND SWAP2 PUSH4 0x81812FC SWAP2 PUSH2 0xAB2 SWAP2 PUSH1 0x4 ADD SWAP1 DUP2 MSTORE PUSH1 0x20 ADD SWAP1 JUMP JUMPDEST PUSH1 0x20 PUSH1 0x40 MLOAD DUP1 DUP4 SUB DUP2 DUP7 GAS STATICCALL ISZERO DUP1 ISZERO PUSH2 0xACD JUMPI RETURNDATASIZE PUSH0 DUP1 RETURNDATACOPY RETURNDATASIZE PUSH0 REVERT JUMPDEST POP POP POP POP PUSH1 0x40 MLOAD RETURNDATASIZE PUSH1 0x1F NOT PUSH1 0x1F DUP3 ADD AND DUP3 ADD DUP1 PUSH1 0x40 MSTORE POP DUP2 ADD SWAP1 PUSH2 0xAF1 SWAP2 SWAP1 PUSH2 0x2298 JUMP JUMPDEST PUSH1 0x1 PUSH1 0x1 PUSH1 0xA0 SHL SUB AND EQ JUMPDEST PUSH2 0xB56 JUMPI PUSH1 0x40 MLOAD PUSH3 0x461BCD PUSH1 0xE5 SHL DUP2 MSTORE PUSH1 0x20 PUSH1 0x4 DUP3 ADD MSTORE PUSH1 0x25 PUSH1 0x24 DUP3 ADD MSTORE PUSH32 0x436F6E7472616374206E6F7420617070726F76656420746F207472616E736665 PUSH1 0x44 DUP3 ADD MSTORE PUSH5 0x1C88139195 PUSH1 0xDA SHL PUSH1 0x64 DUP3 ADD MSTORE PUSH1 0x84 ADD PUSH2 0x421 JUMP JUMPDEST PUSH1 0x2 DUP3 ADD SLOAD PUSH1 0x40 MLOAD PUSH4 0x23B872DD PUSH1 0xE0 SHL DUP2 MSTORE PUSH1 0x1 PUSH1 0x1 PUSH1 0xA0 SHL SUB PUSH32 0x0 DUP2 AND PUSH1 0x4 DUP4 ADD MSTORE ADDRESS PUSH1 0x24 DUP4 ADD MSTORE PUSH1 0x44 DUP3 ADD SWAP3 SWAP1 SWAP3 MSTORE SWAP1 DUP3 AND SWAP1 PUSH4 0x23B872DD SWAP1 PUSH1 0x64 ADD PUSH0 PUSH1 0x40 MLOAD DUP1 DUP4 SUB DUP2 PUSH0 DUP8 DUP1 EXTCODESIZE ISZERO DUP1 ISZERO PUSH2 0xBCA JUMPI PUSH0 DUP1 REVERT JUMPDEST POP GAS CALL ISZERO DUP1 ISZERO PUSH2 0xBDC JUMPI RETURNDATASIZE PUSH0 DUP1 RETURNDATACOPY RETURNDATASIZE PUSH0 REVERT JUMPDEST POP POP PUSH0 PUSH1 0xA DUP6 ADD DUP2 SWAP1 SSTORE PUSH1 0x40 MLOAD PUSH1 0x1 PUSH1 0x1 PUSH1 0xA0 SHL SUB PUSH32 0x0 AND SWAP4 POP CALLVALUE DUP1 ISZERO PUSH2 0x8FC MUL SWAP4 POP SWAP2 DUP2 DUP2 DUP2 DUP6 DUP9 DUP9 CALL SWAP4 POP POP POP POP ISZERO DUP1 ISZERO PUSH2 0xC3A JUMPI RETURNDATASIZE PUSH0 DUP1 RETURNDATACOPY RETURNDATASIZE PUSH0 REVERT JUMPDEST POP PUSH1 0x9 DUP3 ADD SLOAD PUSH1 0x8 DUP4 ADD SLOAD PUSH1 0x40 DUP1 MLOAD SWAP3 DUP4 MSTORE CALLVALUE PUSH1 0x20 DUP5 ADD MSTORE DUP3 ADD MSTORE TIMESTAMP PUSH1 0x60 DUP3 ADD MSTORE CALLER SWAP1 DUP5 SWAP1 PUSH32 0x7F05815C7B52D0BFF880F573CDFECAA56C4396326C1C01BED184AC277BAB7110 SWAP1 PUSH1 0x80 ADD PUSH1 0x40 MLOAD DUP1 SWAP2 SUB SWAP1 LOG3 POP POP PUSH2 0x71E PUSH1 0x1 PUSH0 SSTORE JUMP JUMPDEST CALLER PUSH1 0x1 PUSH1 0x1 PUSH1 0xA0 SHL SUB PUSH32 0x0 AND EQ PUSH2 0xCDF JUMPI PUSH1 0x40 MLOAD PUSH3 0x461BCD PUSH1 0xE5 SHL DUP2 MSTORE PUSH1 0x4 ADD PUSH2 0x421 SWAP1 PUSH2 0x22D2 JUMP JUMPDEST PUSH0 DUP3 DUP2 MSTORE PUSH1 0x2 PUSH1 0x20 MSTORE PUSH1 0x40 SWAP1 KECCAK256 PUSH1 0x3 DUP2 ADD SLOAD PUSH1 0xFF AND ISZERO PUSH2 0xD41 JUMPI PUSH1 0x40 MLOAD PUSH3 0x461BCD PUSH1 0xE5 SHL DUP2 MSTORE PUSH1 0x20 PUSH1 0x4 DUP3 ADD MSTORE PUSH1 0x17 PUSH1 0x24 DUP3 ADD MSTORE PUSH32 0x4E465420616C7265616479207472616E73666572726564000000000000000000 PUSH1 0x44 DUP3 ADD MSTORE PUSH1 0x64 ADD PUSH2 0x421 JUMP JUMPDEST PUSH1 0x1 DUP2 ADD SLOAD PUSH1 0x2 DUP3 ADD SLOAD PUSH1 0x40 MLOAD PUSH4 0x23B872DD PUSH1 0xE0 SHL DUP2 MSTORE ADDRESS PUSH1 0x4 DUP3 ADD MSTORE PUSH1 0x1 PUSH1 0x1 PUSH1 0xA0 SHL SUB DUP6 DUP2 AND PUSH1 0x24 DUP4 ADD MSTORE PUSH1 0x44 DUP3 ADD SWAP3 SWAP1 SWAP3 MSTORE SWAP2 AND SWAP1 PUSH4 0x23B872DD SWAP1 PUSH1 0x64 ADD PUSH0 PUSH1 0x40 MLOAD DUP1 DUP4 SUB DUP2 PUSH0 DUP8 DUP1 EXTCODESIZE ISZERO DUP1 ISZERO PUSH2 0xD99 JUMPI PUSH0 DUP1 REVERT JUMPDEST POP GAS CALL ISZERO DUP1 ISZERO PUSH2 0xDAB JUMPI RETURNDATASIZE PUSH0 DUP1 RETURNDATACOPY RETURNDATASIZE PUSH0 REVERT JUMPDEST POP POP POP PUSH1 0x3 SWAP1 SWAP2 ADD DUP1 SLOAD PUSH1 0xFF NOT AND PUSH1 0x1 OR SWAP1 SSTORE POP POP POP JUMP JUMPDEST CALLER PUSH1 0x1 PUSH1 0x1 PUSH1 0xA0 SHL SUB PUSH32 0x0 AND EQ PUSH2 0xE0B JUMPI PUSH1 0x40 MLOAD PUSH3 0x461BCD PUSH1 0xE5 SHL DUP2 MSTORE PUSH1 0x4 ADD PUSH2 0x421 SWAP1 PUSH2 0x22D2 JUMP JUMPDEST PUSH0 DUP6 GT DUP1 ISZERO PUSH2 0xE1B JUMPI POP PUSH1 0x3 SLOAD DUP6 LT JUMPDEST PUSH2 0xE37 JUMPI PUSH1 0x40 MLOAD PUSH3 0x461BCD PUSH1 0xE5 SHL DUP2 MSTORE PUSH1 0x4 ADD PUSH2 0x421 SWAP1 PUSH2 0x21D9 JUMP JUMPDEST PUSH0 DUP6 DUP2 MSTORE PUSH1 0x2 PUSH1 0x20 MSTORE PUSH1 0x40 SWAP1 KECCAK256 PUSH1 0xE ADD SLOAD PUSH1 0xFF AND PUSH2 0xE8C JUMPI PUSH1 0x40 MLOAD PUSH3 0x461BCD PUSH1 0xE5 SHL DUP2 MSTORE PUSH1 0x20 PUSH1 0x4 DUP3 ADD MSTORE PUSH1 0x12 PUSH1 0x24 DUP3 ADD MSTORE PUSH18 0x506C616E206973206E6F7420616374697665 PUSH1 0x70 SHL PUSH1 0x44 DUP3 ADD MSTORE PUSH1 0x64 ADD PUSH2 0x421 JUMP JUMPDEST PUSH0 DUP6 DUP2 MSTORE PUSH1 0x2 PUSH1 0x20 MSTORE PUSH1 0x40 SWAP1 KECCAK256 PUSH1 0xC ADD SLOAD ISZERO PUSH2 0xEEA JUMPI PUSH1 0x40 MLOAD PUSH3 0x461BCD PUSH1 0xE5 SHL DUP2 MSTORE PUSH1 0x20 PUSH1 0x4 DUP3 ADD MSTORE PUSH1 0x19 PUSH1 0x24 DUP3 ADD MSTORE PUSH32 0x5061796D656E7420646174657320616C72656164792073657400000000000000 PUSH1 0x44 DUP3 ADD MSTORE PUSH1 0x64 ADD PUSH2 0x421 JUMP JUMPDEST PUSH1 0x4 DUP4 DUP4 PUSH1 0x40 MLOAD PUSH2 0xEFC SWAP3 SWAP2 SWAP1 PUSH2 0x2315 JUMP JUMPDEST SWAP1 DUP2 MSTORE PUSH1 0x20 ADD PUSH1 0x40 MLOAD DUP1 SWAP2 SUB SWAP1 KECCAK256 SLOAD PUSH0 SUB PUSH2 0xF4E JUMPI PUSH1 0x40 MLOAD PUSH3 0x461BCD PUSH1 0xE5 SHL DUP2 MSTORE PUSH1 0x20 PUSH1 0x4 DUP3 ADD MSTORE PUSH1 0x12 PUSH1 0x24 DUP3 ADD MSTORE PUSH18 0x496E76616C6964206D6F6E7468206E616D65 PUSH1 0x70 SHL PUSH1 0x44 DUP3 ADD MSTORE PUSH1 0x64 ADD PUSH2 0x421 JUMP JUMPDEST PUSH0 PUSH2 0xF90 DUP6 DUP6 DUP6 DUP1 DUP1 PUSH1 0x1F ADD PUSH1 0x20 DUP1 SWAP2 DIV MUL PUSH1 0x20 ADD PUSH1 0x40 MLOAD SWAP1 DUP2 ADD PUSH1 0x40 MSTORE DUP1 SWAP4 SWAP3 SWAP2 SWAP1 DUP2 DUP2 MSTORE PUSH1 0x20 ADD DUP4 DUP4 DUP1 DUP3 DUP5 CALLDATACOPY PUSH0 SWAP3 ADD SWAP2 SWAP1 SWAP2 MSTORE POP DUP8 SWAP3 POP PUSH2 0x1779 SWAP2 POP POP JUMP JUMPDEST SWAP1 POP TIMESTAMP DUP2 GT PUSH2 0xFE1 JUMPI PUSH1 0x40 MLOAD PUSH3 0x461BCD PUSH1 0xE5 SHL DUP2 MSTORE PUSH1 0x20 PUSH1 0x4 DUP3 ADD DUP2 SWAP1 MSTORE PUSH1 0x24 DUP3 ADD MSTORE PUSH32 0x53746172742064617465206D75737420626520696E2074686520667574757265 PUSH1 0x44 DUP3 ADD MSTORE PUSH1 0x64 ADD PUSH2 0x421 JUMP JUMPDEST DUP5 PUSH1 0x2 PUSH0 DUP9 DUP2 MSTORE PUSH1 0x20 ADD SWAP1 DUP2 MSTORE PUSH1 0x20 ADD PUSH0 KECCAK256 PUSH1 0xB ADD PUSH0 ADD DUP2 SWAP1 SSTORE POP DUP1 PUSH1 0x2 PUSH0 DUP9 DUP2 MSTORE PUSH1 0x20 ADD SWAP1 DUP2 MSTORE PUSH1 0x20 ADD PUSH0 KECCAK256 PUSH1 0xB ADD PUSH1 0x1 ADD DUP2 SWAP1 SSTORE POP PUSH0 PUSH1 0x2 PUSH0 DUP9 DUP2 MSTORE PUSH1 0x20 ADD SWAP1 DUP2 MSTORE PUSH1 0x20 ADD PUSH0 KECCAK256 SWAP1 POP DUP1 PUSH1 0x1 ADD PUSH0 ADD PUSH0 SWAP1 SLOAD SWAP1 PUSH2 0x100 EXP SWAP1 DIV PUSH1 0x1 PUSH1 0x1 PUSH1 0xA0 SHL SUB AND PUSH1 0x1 PUSH1 0x1 PUSH1 0xA0 SHL SUB AND DUP2 PUSH0 ADD PUSH0 SWAP1 SLOAD SWAP1 PUSH2 0x100 EXP SWAP1 DIV PUSH1 0x1 PUSH1 0x1 PUSH1 0xA0 SHL SUB AND PUSH1 0x1 PUSH1 0x1 PUSH1 0xA0 SHL SUB AND DUP9 PUSH32 0x6961FEB63D2AACB590686FF144B8591F9FE46E85189053E1D79A2FC52D621FAF DUP5 PUSH1 0x1 ADD PUSH1 0x1 ADD SLOAD DUP6 PUSH1 0x4 ADD PUSH0 ADD SLOAD DUP7 PUSH1 0x4 ADD PUSH1 0x6 ADD SLOAD DUP8 PUSH1 0x4 ADD PUSH1 0x1 ADD SLOAD DUP9 PUSH1 0x4 ADD PUSH1 0x2 ADD SLOAD PUSH2 0x1104 DUP16 DUP16 DUP16 DUP1 DUP1 PUSH1 0x1F ADD PUSH1 0x20 DUP1 SWAP2 DIV MUL PUSH1 0x20 ADD PUSH1 0x40 MLOAD SWAP1 DUP2 ADD PUSH1 0x40 MSTORE DUP1 SWAP4 SWAP3 SWAP2 SWAP1 DUP2 DUP2 MSTORE PUSH1 0x20 ADD DUP4 DUP4 DUP1 DUP3 DUP5 CALLDATACOPY PUSH0 DUP2 DUP5 ADD MSTORE PUSH1 0x1F NOT PUSH1 0x1F DUP3 ADD AND SWAP1 POP DUP1 DUP4 ADD SWAP3 POP POP POP POP POP POP POP DUP15 PUSH2 0x1A2A JUMP JUMPDEST PUSH1 0x40 MLOAD PUSH2 0x1116 SWAP7 SWAP6 SWAP5 SWAP4 SWAP3 SWAP2 SWAP1 PUSH2 0x2324 JUMP JUMPDEST PUSH1 0x40 MLOAD DUP1 SWAP2 SUB SWAP1 LOG4 POP POP POP POP POP POP POP JUMP JUMPDEST PUSH0 CALLER PUSH1 0x1 PUSH1 0x1 PUSH1 0xA0 SHL SUB PUSH32 0x0 AND EQ PUSH2 0x1170 JUMPI PUSH1 0x40 MLOAD PUSH3 0x461BCD PUSH1 0xE5 SHL DUP2 MSTORE PUSH1 0x4 ADD PUSH2 0x421 SWAP1 PUSH2 0x22D2 JUMP JUMPDEST PUSH0 DUP6 GT PUSH2 0x11C9 JUMPI PUSH1 0x40 MLOAD PUSH3 0x461BCD PUSH1 0xE5 SHL DUP2 MSTORE PUSH1 0x20 PUSH1 0x4 DUP3 ADD MSTORE PUSH1 0x21 PUSH1 0x24 DUP3 ADD MSTORE PUSH32 0x546F74616C20636F7374206D7573742062652067726561746572207468616E20 PUSH1 0x44 DUP3 ADD MSTORE PUSH1 0x3 PUSH1 0xFC SHL PUSH1 0x64 DUP3 ADD MSTORE PUSH1 0x84 ADD PUSH2 0x421 JUMP JUMPDEST PUSH0 DUP4 GT PUSH2 0x122A JUMPI PUSH1 0x40 MLOAD PUSH3 0x461BCD PUSH1 0xE5 SHL DUP2 MSTORE PUSH1 0x20 PUSH1 0x4 DUP3 ADD MSTORE PUSH1 0x29 PUSH1 0x24 DUP3 ADD MSTORE PUSH32 0x4E756D626572206F66207061796D656E7473206D757374206265206772656174 PUSH1 0x44 DUP3 ADD MSTORE PUSH9 0x6572207468616E203 PUSH1 0xBC SHL PUSH1 0x64 DUP3 ADD MSTORE PUSH1 0x84 ADD PUSH2 0x421 JUMP JUMPDEST PUSH1 0x64 DUP3 GT ISZERO PUSH2 0x1285 JUMPI PUSH1 0x40 MLOAD PUSH3 0x461BCD PUSH1 0xE5 SHL DUP2 MSTORE PUSH1 0x20 PUSH1 0x4 DUP3 ADD MSTORE PUSH1 0x21 PUSH1 0x24 DUP3 ADD MSTORE PUSH32 0x50656E616C74792070657263656E74616765206D757374206265203C3D203130 PUSH1 0x44 DUP3 ADD MSTORE PUSH1 0x3 PUSH1 0xFC SHL PUSH1 0x64 DUP3 ADD MSTORE PUSH1 0x84 ADD PUSH2 0x421 JUMP JUMPDEST PUSH1 0x64 DUP5 GT ISZERO PUSH2 0x12E5 JUMPI PUSH1 0x40 MLOAD PUSH3 0x461BCD PUSH1 0xE5 SHL DUP2 MSTORE PUSH1 0x20 PUSH1 0x4 DUP3 ADD MSTORE PUSH1 0x26 PUSH1 0x24 DUP3 ADD MSTORE PUSH32 0x446F776E207061796D656E742070657263656E74616765206D75737420626520 PUSH1 0x44 DUP3 ADD MSTORE PUSH6 0x3C3D2031303 PUSH1 0xD4 SHL PUSH1 0x64 DUP3 ADD MSTORE PUSH1 0x84 ADD PUSH2 0x421 JUMP JUMPDEST PUSH1 0x1 PUSH1 0x1 PUSH1 0xA0 SHL SUB DUP9 AND PUSH0 SWAP1 DUP2 MSTORE PUSH1 0x1 PUSH1 0x20 MSTORE PUSH1 0x40 SWAP1 KECCAK256 SLOAD ISZERO PUSH2 0x134A JUMPI PUSH1 0x40 MLOAD PUSH3 0x461BCD PUSH1 0xE5 SHL DUP2 MSTORE PUSH1 0x20 PUSH1 0x4 DUP3 ADD DUP2 SWAP1 MSTORE PUSH1 0x24 DUP3 ADD MSTORE PUSH32 0x427579657220616C72656164792068617320616E2061637469766520706C616E PUSH1 0x44 DUP3 ADD MSTORE PUSH1 0x64 ADD PUSH2 0x421 JUMP JUMPDEST PUSH0 PUSH1 0x64 PUSH2 0x1357 DUP7 DUP9 PUSH2 0x222E JUMP JUMPDEST PUSH2 0x1361 SWAP2 SWAP1 PUSH2 0x225F JUMP JUMPDEST SWAP1 POP PUSH0 PUSH2 0x136E DUP3 DUP9 PUSH2 0x2285 JUMP JUMPDEST SWAP1 POP PUSH0 PUSH2 0x137B DUP7 DUP4 PUSH2 0x225F JUMP JUMPDEST SWAP1 POP DUP2 PUSH2 0x1388 DUP8 DUP4 PUSH2 0x222E JUMP JUMPDEST EQ PUSH2 0x13E7 JUMPI PUSH1 0x40 MLOAD PUSH3 0x461BCD PUSH1 0xE5 SHL DUP2 MSTORE PUSH1 0x20 PUSH1 0x4 DUP3 ADD MSTORE PUSH1 0x29 PUSH1 0x24 DUP3 ADD MSTORE PUSH32 0x52656D61696E696E6720616D6F756E74206D757374206265206576656E6C7920 PUSH1 0x44 DUP3 ADD MSTORE PUSH9 0x646976697369626C65 PUSH1 0xB8 SHL PUSH1 0x64 DUP3 ADD MSTORE PUSH1 0x84 ADD PUSH2 0x421 JUMP JUMPDEST PUSH1 0x3 DUP1 SLOAD PUSH0 SWAP2 DUP3 PUSH2 0x13F7 DUP4 PUSH2 0x2216 JUMP JUMPDEST SWAP2 SWAP1 POP SSTORE SWAP1 POP DUP1 PUSH1 0x1 PUSH0 DUP15 PUSH1 0x1 PUSH1 0x1 PUSH1 0xA0 SHL SUB AND PUSH1 0x1 PUSH1 0x1 PUSH1 0xA0 SHL SUB AND DUP2 MSTORE PUSH1 0x20 ADD SWAP1 DUP2 MSTORE PUSH1 0x20 ADD PUSH0 KECCAK256 DUP2 SWAP1 SSTORE POP DUP12 PUSH1 0x2 PUSH0 DUP4 DUP2 MSTORE PUSH1 0x20 ADD SWAP1 DUP2 MSTORE PUSH1 0x20 ADD PUSH0 KECCAK256 PUSH0 ADD PUSH0 PUSH2 0x100 EXP DUP2 SLOAD DUP2 PUSH1 0x1 PUSH1 0x1 PUSH1 0xA0 SHL SUB MUL NOT AND SWAP1 DUP4 PUSH1 0x1 PUSH1 0x1 PUSH1 0xA0 SHL SUB AND MUL OR SWAP1 SSTORE POP PUSH1 0x40 MLOAD DUP1 PUSH1 0x60 ADD PUSH1 0x40 MSTORE DUP1 DUP13 PUSH1 0x1 PUSH1 0x1 PUSH1 0xA0 SHL SUB AND DUP2 MSTORE PUSH1 0x20 ADD DUP12 DUP2 MSTORE PUSH1 0x20 ADD PUSH0 ISZERO ISZERO DUP2 MSTORE POP PUSH1 0x2 PUSH0 DUP4 DUP2 MSTORE PUSH1 0x20 ADD SWAP1 DUP2 MSTORE PUSH1 0x20 ADD PUSH0 KECCAK256 PUSH1 0x1 ADD PUSH0 DUP3 ADD MLOAD DUP2 PUSH0 ADD PUSH0 PUSH2 0x100 EXP DUP2 SLOAD DUP2 PUSH1 0x1 PUSH1 0x1 PUSH1 0xA0 SHL SUB MUL NOT AND SWAP1 DUP4 PUSH1 0x1 PUSH1 0x1 PUSH1 0xA0 SHL SUB AND MUL OR SWAP1 SSTORE POP PUSH1 0x20 DUP3 ADD MLOAD DUP2 PUSH1 0x1 ADD SSTORE PUSH1 0x40 DUP3 ADD MLOAD DUP2 PUSH1 0x2 ADD PUSH0 PUSH2 0x100 EXP DUP2 SLOAD DUP2 PUSH1 0xFF MUL NOT AND SWAP1 DUP4 ISZERO ISZERO MUL OR SWAP1 SSTORE POP SWAP1 POP POP PUSH1 0x40 MLOAD DUP1 PUSH1 0xE0 ADD PUSH1 0x40 MSTORE DUP1 DUP11 DUP2 MSTORE PUSH1 0x20 ADD DUP4 DUP2 MSTORE PUSH1 0x20 ADD DUP9 DUP2 MSTORE PUSH1 0x20 ADD DUP8 DUP2 MSTORE PUSH1 0x20 ADD DUP5 DUP2 MSTORE PUSH1 0x20 ADD DUP9 DUP2 MSTORE PUSH1 0x20 ADD DUP6 DUP2 MSTORE POP PUSH1 0x2 PUSH0 DUP4 DUP2 MSTORE PUSH1 0x20 ADD SWAP1 DUP2 MSTORE PUSH1 0x20 ADD PUSH0 KECCAK256 PUSH1 0x4 ADD PUSH0 DUP3 ADD MLOAD DUP2 PUSH0 ADD SSTORE PUSH1 0x20 DUP3 ADD MLOAD DUP2 PUSH1 0x1 ADD SSTORE PUSH1 0x40 DUP3 ADD MLOAD DUP2 PUSH1 0x2 ADD SSTORE PUSH1 0x60 DUP3 ADD MLOAD DUP2 PUSH1 0x3 ADD SSTORE PUSH1 0x80 DUP3 ADD MLOAD DUP2 PUSH1 0x4 ADD SSTORE PUSH1 0xA0 DUP3 ADD MLOAD DUP2 PUSH1 0x5 ADD SSTORE PUSH1 0xC0 DUP3 ADD MLOAD DUP2 PUSH1 0x6 ADD SSTORE SWAP1 POP POP PUSH1 0x40 MLOAD DUP1 PUSH1 0xA0 ADD PUSH1 0x40 MSTORE DUP1 PUSH0 DUP2 MSTORE PUSH1 0x20 ADD PUSH0 DUP2 MSTORE PUSH1 0x20 ADD PUSH0 DUP2 MSTORE PUSH1 0x20 ADD PUSH1 0x1 ISZERO ISZERO DUP2 MSTORE PUSH1 0x20 ADD TIMESTAMP DUP2 MSTORE POP PUSH1 0x2 PUSH0 DUP4 DUP2 MSTORE PUSH1 0x20 ADD SWAP1 DUP2 MSTORE PUSH1 0x20 ADD PUSH0 KECCAK256 PUSH1 0xB ADD PUSH0 DUP3 ADD MLOAD DUP2 PUSH0 ADD SSTORE PUSH1 0x20 DUP3 ADD MLOAD DUP2 PUSH1 0x1 ADD SSTORE PUSH1 0x40 DUP3 ADD MLOAD DUP2 PUSH1 0x2 ADD SSTORE PUSH1 0x60 DUP3 ADD MLOAD DUP2 PUSH1 0x3 ADD PUSH0 PUSH2 0x100 EXP DUP2 SLOAD DUP2 PUSH1 0xFF MUL NOT AND SWAP1 DUP4 ISZERO ISZERO MUL OR SWAP1 SSTORE POP PUSH1 0x80 DUP3 ADD MLOAD DUP2 PUSH1 0x4 ADD SSTORE SWAP1 POP POP DUP1 SWAP5 POP POP POP POP POP SWAP8 SWAP7 POP POP POP POP POP POP POP JUMP JUMPDEST PUSH1 0x2 PUSH0 SLOAD SUB PUSH2 0x1663 JUMPI PUSH1 0x40 MLOAD PUSH3 0x461BCD PUSH1 0xE5 SHL DUP2 MSTORE PUSH1 0x20 PUSH1 0x4 DUP3 ADD MSTORE PUSH1 0x1F PUSH1 0x24 DUP3 ADD MSTORE PUSH32 0x5265656E7472616E637947756172643A207265656E7472616E742063616C6C00 PUSH1 0x44 DUP3 ADD MSTORE PUSH1 0x64 ADD PUSH2 0x421 JUMP JUMPDEST PUSH1 0x2 PUSH0 SSTORE JUMP JUMPDEST PUSH0 DUP4 DUP2 MSTORE PUSH1 0x2 PUSH1 0x20 MSTORE PUSH1 0x40 DUP2 KECCAK256 PUSH1 0x5 DUP2 ADD SLOAD PUSH1 0x8 DUP3 ADD DUP1 SLOAD SWAP3 SWAP4 SWAP2 SWAP3 SWAP1 SWAP2 SWAP1 PUSH2 0x1693 SWAP1 DUP5 SWAP1 PUSH2 0x2285 JUMP JUMPDEST SWAP1 SWAP2 SSTORE POP POP PUSH1 0x9 DUP2 ADD DUP1 SLOAD SWAP1 PUSH0 PUSH2 0x16A9 DUP4 PUSH2 0x237C JUMP JUMPDEST SWAP2 SWAP1 POP SSTORE POP PUSH2 0x16B7 DUP5 PUSH2 0x1A69 JUMP JUMPDEST DUP2 ISZERO PUSH2 0x1701 JUMPI DUP1 SLOAD PUSH1 0x40 MLOAD DUP4 DUP2 MSTORE PUSH1 0x1 PUSH1 0x1 PUSH1 0xA0 SHL SUB SWAP1 SWAP2 AND SWAP1 DUP6 SWAP1 PUSH32 0xED7A0AEA6F0340C8FD7F451AC8B492E2FACD06E914D020AF7D8F38321F04499A SWAP1 PUSH1 0x20 ADD PUSH1 0x40 MLOAD DUP1 SWAP2 SUB SWAP1 LOG3 JUMPDEST DUP1 SLOAD PUSH1 0x9 DUP3 ADD SLOAD PUSH1 0x8 DUP4 ADD SLOAD PUSH1 0x40 DUP1 MLOAD SWAP3 DUP4 MSTORE PUSH1 0x20 DUP4 ADD DUP8 SWAP1 MSTORE DUP3 ADD MSTORE TIMESTAMP PUSH1 0x60 DUP3 ADD MSTORE PUSH1 0x1 PUSH1 0x1 PUSH1 0xA0 SHL SUB SWAP1 SWAP2 AND SWAP1 DUP6 SWAP1 PUSH32 0x7F05815C7B52D0BFF880F573CDFECAA56C4396326C1C01BED184AC277BAB7110 SWAP1 PUSH1 0x80 ADD PUSH1 0x40 MLOAD DUP1 SWAP2 SUB SWAP1 LOG3 PUSH1 0x8 DUP2 ADD SLOAD PUSH0 SUB PUSH2 0x1773 JUMPI PUSH2 0x1773 DUP5 PUSH2 0x1B33 JUMP JUMPDEST POP POP POP POP JUMP JUMPDEST PUSH0 DUP1 DUP5 GT DUP1 ISZERO PUSH2 0x178A JUMPI POP PUSH1 0x1F DUP5 GT ISZERO JUMPDEST PUSH2 0x17C4 JUMPI PUSH1 0x40 MLOAD PUSH3 0x461BCD PUSH1 0xE5 SHL DUP2 MSTORE PUSH1 0x20 PUSH1 0x4 DUP3 ADD MSTORE PUSH1 0xB PUSH1 0x24 DUP3 ADD MSTORE PUSH11 0x496E76616C696420646179 PUSH1 0xA8 SHL PUSH1 0x44 DUP3 ADD MSTORE PUSH1 0x64 ADD PUSH2 0x421 JUMP JUMPDEST PUSH2 0x7E8 DUP3 LT ISZERO PUSH2 0x1805 JUMPI PUSH1 0x40 MLOAD PUSH3 0x461BCD PUSH1 0xE5 SHL DUP2 MSTORE PUSH1 0x20 PUSH1 0x4 DUP3 ADD MSTORE PUSH1 0xC PUSH1 0x24 DUP3 ADD MSTORE PUSH12 0x24B73B30B634B2103CB2B0B9 PUSH1 0xA1 SHL PUSH1 0x44 DUP3 ADD MSTORE PUSH1 0x64 ADD PUSH2 0x421 JUMP JUMPDEST PUSH0 PUSH1 0x4 DUP5 PUSH1 0x40 MLOAD PUSH2 0x1816 SWAP2 SWAP1 PUSH2 0x23A8 JUMP JUMPDEST SWAP1 DUP2 MSTORE PUSH1 0x20 ADD PUSH1 0x40 MLOAD DUP1 SWAP2 SUB SWAP1 KECCAK256 SLOAD SWAP1 POP DUP1 PUSH0 SUB PUSH2 0x1866 JUMPI PUSH1 0x40 MLOAD PUSH3 0x461BCD PUSH1 0xE5 SHL DUP2 MSTORE PUSH1 0x20 PUSH1 0x4 DUP3 ADD MSTORE PUSH1 0xD PUSH1 0x24 DUP3 ADD MSTORE PUSH13 0x92DCECC2D8D2C840DADEDCE8D PUSH1 0x9B SHL PUSH1 0x44 DUP3 ADD MSTORE PUSH1 0x64 ADD PUSH2 0x421 JUMP JUMPDEST DUP1 PUSH1 0x2 SUB PUSH2 0x190D JUMPI PUSH0 PUSH2 0x187A PUSH1 0x4 DUP6 PUSH2 0x23B3 JUMP JUMPDEST ISZERO DUP1 ISZERO PUSH2 0x1890 JUMPI POP PUSH2 0x188D PUSH1 0x64 DUP6 PUSH2 0x23B3 JUMP JUMPDEST ISZERO ISZERO JUMPDEST DUP1 PUSH2 0x18A4 JUMPI POP PUSH2 0x18A2 PUSH2 0x190 DUP6 PUSH2 0x23B3 JUMP JUMPDEST ISZERO JUMPDEST SWAP1 POP DUP1 PUSH2 0x18B2 JUMPI PUSH1 0x1C PUSH2 0x18B5 JUMP JUMPDEST PUSH1 0x1D JUMPDEST PUSH1 0xFF AND DUP7 GT ISZERO PUSH2 0x1907 JUMPI PUSH1 0x40 MLOAD PUSH3 0x461BCD PUSH1 0xE5 SHL DUP2 MSTORE PUSH1 0x20 PUSH1 0x4 DUP3 ADD MSTORE PUSH1 0x18 PUSH1 0x24 DUP3 ADD MSTORE PUSH32 0x496E76616C69642064617920666F722046656272756172790000000000000000 PUSH1 0x44 DUP3 ADD MSTORE PUSH1 0x64 ADD PUSH2 0x421 JUMP JUMPDEST POP PUSH2 0x1988 JUMP JUMPDEST DUP1 PUSH1 0x4 EQ DUP1 PUSH2 0x191C JUMPI POP DUP1 PUSH1 0x6 EQ JUMPDEST DUP1 PUSH2 0x1927 JUMPI POP DUP1 PUSH1 0x9 EQ JUMPDEST DUP1 PUSH2 0x1932 JUMPI POP DUP1 PUSH1 0xB EQ JUMPDEST ISZERO PUSH2 0x1988 JUMPI PUSH1 0x1E DUP6 GT ISZERO PUSH2 0x1988 JUMPI PUSH1 0x40 MLOAD PUSH3 0x461BCD PUSH1 0xE5 SHL DUP2 MSTORE PUSH1 0x20 PUSH1 0x4 DUP3 ADD MSTORE PUSH1 0x1A PUSH1 0x24 DUP3 ADD MSTORE PUSH32 0x496E76616C69642064617920666F722074686973206D6F6E7468000000000000 PUSH1 0x44 DUP3 ADD MSTORE PUSH1 0x64 ADD PUSH2 0x421 JUMP JUMPDEST PUSH3 0x15180 PUSH2 0x1997 PUSH1 0x1 DUP8 PUSH2 0x2285 JUMP JUMPDEST PUSH2 0x19A1 SWAP2 SWAP1 PUSH2 0x222E JUMP JUMPDEST PUSH3 0x15180 PUSH2 0x19B0 PUSH1 0x1 DUP5 PUSH2 0x2285 JUMP JUMPDEST PUSH2 0x19BB SWAP1 PUSH1 0x1E PUSH2 0x222E JUMP JUMPDEST PUSH2 0x19C5 SWAP2 SWAP1 PUSH2 0x222E JUMP JUMPDEST PUSH3 0x15180 PUSH1 0x4 PUSH2 0x19D7 PUSH2 0x7B1 DUP9 PUSH2 0x2285 JUMP JUMPDEST PUSH2 0x19E1 SWAP2 SWAP1 PUSH2 0x225F JUMP JUMPDEST PUSH2 0x19ED PUSH2 0x7B2 DUP9 PUSH2 0x2285 JUMP JUMPDEST PUSH2 0x19F9 SWAP1 PUSH2 0x16D PUSH2 0x222E JUMP JUMPDEST PUSH2 0x1A03 SWAP2 SWAP1 PUSH2 0x2272 JUMP JUMPDEST PUSH2 0x1A0D SWAP2 SWAP1 PUSH2 0x222E JUMP JUMPDEST PUSH2 0x1A17 SWAP2 SWAP1 PUSH2 0x2272 JUMP JUMPDEST PUSH2 0x1A21 SWAP2 SWAP1 PUSH2 0x2272 JUMP JUMPDEST SWAP6 SWAP5 POP POP POP POP POP JUMP JUMPDEST PUSH1 0x60 PUSH2 0x1A35 DUP5 PUSH2 0x1C98 JUMP JUMPDEST DUP4 PUSH2 0x1A3F DUP5 PUSH2 0x1C98 JUMP JUMPDEST PUSH1 0x40 MLOAD PUSH1 0x20 ADD PUSH2 0x1A51 SWAP4 SWAP3 SWAP2 SWAP1 PUSH2 0x23C6 JUMP JUMPDEST PUSH1 0x40 MLOAD PUSH1 0x20 DUP2 DUP4 SUB SUB DUP2 MSTORE SWAP1 PUSH1 0x40 MSTORE SWAP1 POP SWAP4 SWAP3 POP POP POP JUMP JUMPDEST PUSH0 DUP2 DUP2 MSTORE PUSH1 0x2 PUSH1 0x20 MSTORE PUSH1 0x40 DUP2 KECCAK256 SWAP1 PUSH2 0x1A86 PUSH3 0x15180 PUSH2 0x16D PUSH2 0x222E JUMP JUMPDEST PUSH1 0xC DUP4 ADD SLOAD PUSH2 0x1A95 SWAP2 SWAP1 PUSH2 0x225F JUMP JUMPDEST PUSH2 0x1AA1 SWAP1 PUSH2 0x7B2 PUSH2 0x2272 JUMP JUMPDEST SWAP1 POP PUSH0 PUSH2 0x1AB2 PUSH3 0x15180 PUSH1 0x1E PUSH2 0x222E JUMP JUMPDEST PUSH2 0x1AC1 PUSH3 0x15180 PUSH2 0x16D PUSH2 0x222E JUMP JUMPDEST PUSH1 0xC DUP6 ADD SLOAD PUSH2 0x1AD0 SWAP2 SWAP1 PUSH2 0x23B3 JUMP JUMPDEST PUSH2 0x1ADA SWAP2 SWAP1 PUSH2 0x225F JUMP JUMPDEST PUSH2 0x1AE5 SWAP1 PUSH1 0x1 PUSH2 0x2272 JUMP JUMPDEST SWAP1 POP PUSH2 0x1AF2 PUSH1 0x1 DUP3 PUSH2 0x2272 JUMP JUMPDEST SWAP1 POP PUSH1 0xC DUP2 GT ISZERO PUSH2 0x1B0D JUMPI POP PUSH1 0x1 PUSH2 0x1B0A DUP2 DUP4 PUSH2 0x2272 JUMP JUMPDEST SWAP2 POP JUMPDEST PUSH1 0xB DUP4 ADD SLOAD PUSH2 0x1B25 SWAP1 PUSH2 0x1B1F DUP4 PUSH2 0x1DA0 JUMP JUMPDEST DUP5 PUSH2 0x1779 JUMP JUMPDEST PUSH1 0xC SWAP1 SWAP4 ADD SWAP3 SWAP1 SWAP3 SSTORE POP POP POP JUMP JUMPDEST PUSH0 DUP2 DUP2 MSTORE PUSH1 0x2 PUSH1 0x20 MSTORE PUSH1 0x40 SWAP1 KECCAK256 PUSH1 0xE DUP2 ADD DUP1 SLOAD PUSH1 0xFF NOT AND SWAP1 SSTORE PUSH1 0x3 DUP2 ADD SLOAD PUSH1 0xFF AND PUSH2 0x1C94 JUMPI PUSH1 0x1 DUP2 ADD SLOAD DUP2 SLOAD PUSH1 0x2 DUP4 ADD SLOAD PUSH1 0x40 MLOAD PUSH4 0x23B872DD PUSH1 0xE0 SHL DUP2 MSTORE ADDRESS PUSH1 0x4 DUP3 ADD MSTORE PUSH1 0x1 PUSH1 0x1 PUSH1 0xA0 SHL SUB SWAP3 DUP4 AND PUSH1 0x24 DUP3 ADD MSTORE PUSH1 0x44 DUP2 ADD SWAP2 SWAP1 SWAP2 MSTORE SWAP2 AND SWAP1 PUSH4 0x23B872DD SWAP1 PUSH1 0x64 ADD PUSH0 PUSH1 0x40 MLOAD DUP1 DUP4 SUB DUP2 PUSH0 DUP8 DUP1 EXTCODESIZE ISZERO DUP1 ISZERO PUSH2 0x1BB2 JUMPI PUSH0 DUP1 REVERT JUMPDEST POP GAS CALL SWAP3 POP POP POP DUP1 ISZERO PUSH2 0x1BC3 JUMPI POP PUSH1 0x1 JUMPDEST PUSH2 0x1C1B JUMPI PUSH1 0x40 MLOAD PUSH3 0x461BCD PUSH1 0xE5 SHL DUP2 MSTORE PUSH1 0x20 PUSH1 0x4 DUP3 ADD MSTORE PUSH1 0x24 DUP1 DUP3 ADD MSTORE PUSH32 0x4E4654207472616E73666572206661696C6564202D20636F6E74616374207365 PUSH1 0x44 DUP3 ADD MSTORE PUSH4 0x363632B9 PUSH1 0xE1 SHL PUSH1 0x64 DUP3 ADD MSTORE PUSH1 0x84 ADD PUSH2 0x421 JUMP JUMPDEST PUSH1 0x3 DUP2 ADD DUP1 SLOAD PUSH1 0xFF NOT AND PUSH1 0x1 SWAP1 DUP2 OR SWAP1 SWAP2 SSTORE DUP2 ADD SLOAD DUP2 SLOAD PUSH1 0x2 DUP4 ADD SLOAD PUSH1 0x5 DUP5 ADD SLOAD PUSH1 0x4 DUP6 ADD SLOAD PUSH1 0x40 DUP1 MLOAD SWAP4 DUP5 MSTORE PUSH1 0x20 DUP5 ADD SWAP3 SWAP1 SWAP3 MSTORE SWAP1 DUP3 ADD MSTORE PUSH1 0x1 PUSH1 0x1 PUSH1 0xA0 SHL SUB SWAP3 DUP4 AND SWAP3 SWAP1 SWAP2 AND SWAP1 DUP5 SWAP1 PUSH32 0xC353FF0BE67DF5A5B38B51DD836480FCBB84172B535A89AE18AC96B046AC157 SWAP1 PUSH1 0x60 ADD PUSH1 0x40 MLOAD DUP1 SWAP2 SUB SWAP1 LOG4 JUMPDEST POP POP JUMP JUMPDEST PUSH1 0x60 DUP2 PUSH0 SUB PUSH2 0x1CBE JUMPI POP POP PUSH1 0x40 DUP1 MLOAD DUP1 DUP3 ADD SWAP1 SWAP2 MSTORE PUSH1 0x1 DUP2 MSTORE PUSH1 0x3 PUSH1 0xFC SHL PUSH1 0x20 DUP3 ADD MSTORE SWAP1 JUMP JUMPDEST DUP2 PUSH0 JUMPDEST DUP2 ISZERO PUSH2 0x1CE7 JUMPI DUP1 PUSH2 0x1CD1 DUP2 PUSH2 0x2216 JUMP JUMPDEST SWAP2 POP PUSH2 0x1CE0 SWAP1 POP PUSH1 0xA DUP4 PUSH2 0x225F JUMP JUMPDEST SWAP2 POP PUSH2 0x1CC1 JUMP JUMPDEST PUSH0 DUP2 PUSH8 0xFFFFFFFFFFFFFFFF DUP2 GT ISZERO PUSH2 0x1D01 JUMPI PUSH2 0x1D01 PUSH2 0x2405 JUMP JUMPDEST PUSH1 0x40 MLOAD SWAP1 DUP1 DUP3 MSTORE DUP1 PUSH1 0x1F ADD PUSH1 0x1F NOT AND PUSH1 0x20 ADD DUP3 ADD PUSH1 0x40 MSTORE DUP1 ISZERO PUSH2 0x1D2B JUMPI PUSH1 0x20 DUP3 ADD DUP2 DUP1 CALLDATASIZE DUP4 CALLDATACOPY ADD SWAP1 POP JUMPDEST POP DUP6 SWAP4 POP SWAP1 POP DUP2 JUMPDEST DUP4 ISZERO PUSH2 0x1D97 JUMPI PUSH2 0x1D44 PUSH1 0xA DUP6 PUSH2 0x23B3 JUMP JUMPDEST PUSH2 0x1D4F SWAP1 PUSH1 0x30 PUSH2 0x2272 JUMP JUMPDEST PUSH1 0xF8 SHL DUP3 PUSH2 0x1D5C DUP4 PUSH2 0x237C JUMP JUMPDEST SWAP3 POP DUP3 DUP2 MLOAD DUP2 LT PUSH2 0x1D6F JUMPI PUSH2 0x1D6F PUSH2 0x2419 JUMP JUMPDEST PUSH1 0x20 ADD ADD SWAP1 PUSH1 0x1 PUSH1 0x1 PUSH1 0xF8 SHL SUB NOT AND SWAP1 DUP2 PUSH0 BYTE SWAP1 MSTORE8 POP PUSH2 0x1D90 PUSH1 0xA DUP6 PUSH2 0x225F JUMP JUMPDEST SWAP4 POP PUSH2 0x1D33 JUMP JUMPDEST POP SWAP5 SWAP4 POP POP POP POP JUMP JUMPDEST PUSH1 0x60 DUP2 PUSH1 0x1 SUB PUSH2 0x1DCD JUMPI POP POP PUSH1 0x40 DUP1 MLOAD DUP1 DUP3 ADD SWAP1 SWAP2 MSTORE PUSH1 0x7 DUP2 MSTORE PUSH7 0x4A616E75617279 PUSH1 0xC8 SHL PUSH1 0x20 DUP3 ADD MSTORE SWAP1 JUMP JUMPDEST DUP2 PUSH1 0x2 SUB PUSH2 0x1DF9 JUMPI POP POP PUSH1 0x40 DUP1 MLOAD DUP1 DUP3 ADD SWAP1 SWAP2 MSTORE PUSH1 0x8 DUP2 MSTORE PUSH8 0x4665627275617279 PUSH1 0xC0 SHL PUSH1 0x20 DUP3 ADD MSTORE SWAP1 JUMP JUMPDEST DUP2 PUSH1 0x3 SUB PUSH2 0x1E22 JUMPI POP POP PUSH1 0x40 DUP1 MLOAD DUP1 DUP3 ADD SWAP1 SWAP2 MSTORE PUSH1 0x5 DUP2 MSTORE PUSH5 0x9AC2E4C6D PUSH1 0xDB SHL PUSH1 0x20 DUP3 ADD MSTORE SWAP1 JUMP JUMPDEST DUP2 PUSH1 0x4 SUB PUSH2 0x1E4B JUMPI POP POP PUSH1 0x40 DUP1 MLOAD DUP1 DUP3 ADD SWAP1 SWAP2 MSTORE PUSH1 0x5 DUP2 MSTORE PUSH5 0x105C1C9A5B PUSH1 0xDA SHL PUSH1 0x20 DUP3 ADD MSTORE SWAP1 JUMP JUMPDEST DUP2 PUSH1 0x5 SUB PUSH2 0x1E72 JUMPI POP POP PUSH1 0x40 DUP1 MLOAD DUP1 DUP3 ADD SWAP1 SWAP2 MSTORE PUSH1 0x3 DUP2 MSTORE PUSH3 0x4D6179 PUSH1 0xE8 SHL PUSH1 0x20 DUP3 ADD MSTORE SWAP1 JUMP JUMPDEST DUP2 PUSH1 0x6 SUB PUSH2 0x1E9A JUMPI POP POP PUSH1 0x40 DUP1 MLOAD DUP1 DUP3 ADD SWAP1 SWAP2 MSTORE PUSH1 0x4 DUP2 MSTORE PUSH4 0x4A756E65 PUSH1 0xE0 SHL PUSH1 0x20 DUP3 ADD MSTORE SWAP1 JUMP JUMPDEST DUP2 PUSH1 0x7 SUB PUSH2 0x1EC2 JUMPI POP POP PUSH1 0x40 DUP1 MLOAD DUP1 DUP3 ADD SWAP1 SWAP2 MSTORE PUSH1 0x4 DUP2 MSTORE PUSH4 0x4A756C79 PUSH1 0xE0 SHL PUSH1 0x20 DUP3 ADD MSTORE SWAP1 JUMP JUMPDEST DUP2 PUSH1 0x8 SUB PUSH2 0x1EEC JUMPI POP POP PUSH1 0x40 DUP1 MLOAD DUP1 DUP3 ADD SWAP1 SWAP2 MSTORE PUSH1 0x6 DUP2 MSTORE PUSH6 0x105D59DD5CDD PUSH1 0xD2 SHL PUSH1 0x20 DUP3 ADD MSTORE SWAP1 JUMP JUMPDEST DUP2 PUSH1 0x9 SUB PUSH2 0x1F19 JUMPI POP POP PUSH1 0x40 DUP1 MLOAD DUP1 DUP3 ADD SWAP1 SWAP2 MSTORE PUSH1 0x9 DUP2 MSTORE PUSH9 0x29B2B83A32B6B132B9 PUSH1 0xB9 SHL PUSH1 0x20 DUP3 ADD MSTORE SWAP1 JUMP JUMPDEST DUP2 PUSH1 0xA SUB PUSH2 0x1F44 JUMPI POP POP PUSH1 0x40 DUP1 MLOAD DUP1 DUP3 ADD SWAP1 SWAP2 MSTORE PUSH1 0x7 DUP2 MSTORE PUSH7 0x27B1BA37B132B9 PUSH1 0xC9 SHL PUSH1 0x20 DUP3 ADD MSTORE SWAP1 JUMP JUMPDEST DUP2 PUSH1 0xB SUB PUSH2 0x1F70 JUMPI POP POP PUSH1 0x40 DUP1 MLOAD DUP1 DUP3 ADD SWAP1 SWAP2 MSTORE PUSH1 0x8 DUP2 MSTORE PUSH8 0x2737BB32B6B132B9 PUSH1 0xC1 SHL PUSH1 0x20 DUP3 ADD MSTORE SWAP1 JUMP JUMPDEST DUP2 PUSH1 0xC SUB PUSH2 0x1F9C JUMPI POP POP PUSH1 0x40 DUP1 MLOAD DUP1 DUP3 ADD SWAP1 SWAP2 MSTORE PUSH1 0x8 DUP2 MSTORE PUSH8 0x2232B1B2B6B132B9 PUSH1 0xC1 SHL PUSH1 0x20 DUP3 ADD MSTORE SWAP1 JUMP JUMPDEST POP POP PUSH1 0x40 DUP1 MLOAD DUP1 DUP3 ADD SWAP1 SWAP2 MSTORE PUSH1 0xD DUP2 MSTORE PUSH13 0x92DCECC2D8D2C8409ADEDCE8D PUSH1 0x9B SHL PUSH1 0x20 DUP3 ADD MSTORE SWAP1 JUMP JUMPDEST PUSH1 0x1 PUSH1 0x1 PUSH1 0xA0 SHL SUB DUP2 AND DUP2 EQ PUSH2 0x71E JUMPI PUSH0 DUP1 REVERT JUMPDEST PUSH0 PUSH1 0x20 DUP3 DUP5 SUB SLT ISZERO PUSH2 0x1FE9 JUMPI PUSH0 DUP1 REVERT JUMPDEST DUP2 CALLDATALOAD PUSH2 0x1FF4 DUP2 PUSH2 0x1FC5 JUMP JUMPDEST SWAP4 SWAP3 POP POP POP JUMP JUMPDEST PUSH0 PUSH1 0x20 DUP3 DUP5 SUB SLT ISZERO PUSH2 0x200B JUMPI PUSH0 DUP1 REVERT JUMPDEST POP CALLDATALOAD SWAP2 SWAP1 POP JUMP JUMPDEST PUSH0 DUP1 PUSH1 0x40 DUP4 DUP6 SUB SLT ISZERO PUSH2 0x2023 JUMPI PUSH0 DUP1 REVERT JUMPDEST DUP3 CALLDATALOAD SWAP2 POP PUSH1 0x20 DUP4 ADD CALLDATALOAD PUSH2 0x2035 DUP2 PUSH2 0x1FC5 JUMP JUMPDEST DUP1 SWAP2 POP POP SWAP3 POP SWAP3 SWAP1 POP JUMP JUMPDEST PUSH0 DUP1 PUSH0 DUP1 PUSH0 PUSH1 0x80 DUP7 DUP9 SUB SLT ISZERO PUSH2 0x2054 JUMPI PUSH0 DUP1 REVERT JUMPDEST DUP6 CALLDATALOAD SWAP5 POP PUSH1 0x20 DUP7 ADD CALLDATALOAD SWAP4 POP PUSH1 0x40 DUP7 ADD CALLDATALOAD PUSH8 0xFFFFFFFFFFFFFFFF DUP2 GT ISZERO PUSH2 0x2078 JUMPI PUSH0 DUP1 REVERT JUMPDEST DUP7 ADD PUSH1 0x1F DUP2 ADD DUP9 SGT PUSH2 0x2088 JUMPI PUSH0 DUP1 REVERT JUMPDEST DUP1 CALLDATALOAD PUSH8 0xFFFFFFFFFFFFFFFF DUP2 GT ISZERO PUSH2 0x209E JUMPI PUSH0 DUP1 REVERT JUMPDEST DUP9 PUSH1 0x20 DUP3 DUP5 ADD ADD GT ISZERO PUSH2 0x20AF JUMPI PUSH0 DUP1 REVERT JUMPDEST SWAP6 SWAP9 SWAP5 SWAP8 POP PUSH1 0x20 ADD SWAP6 PUSH1 0x60 ADD CALLDATALOAD SWAP4 SWAP3 POP POP POP JUMP JUMPDEST PUSH0 PUSH2 0x200 DUP3 ADD SWAP1 POP PUSH1 0x1 DUP1 PUSH1 0xA0 SHL SUB DUP7 AND DUP3 MSTORE PUSH1 0x1 DUP1 PUSH1 0xA0 SHL SUB DUP6 MLOAD AND PUSH1 0x20 DUP4 ADD MSTORE PUSH1 0x20 DUP6 ADD MLOAD PUSH1 0x40 DUP4 ADD MSTORE PUSH1 0x40 DUP6 ADD MLOAD ISZERO ISZERO PUSH1 0x60 DUP4 ADD MSTORE DUP4 MLOAD PUSH1 0x80 DUP4 ADD MSTORE PUSH1 0x20 DUP5 ADD MLOAD PUSH1 0xA0 DUP4 ADD MSTORE PUSH1 0x40 DUP5 ADD MLOAD PUSH1 0xC0 DUP4 ADD MSTORE PUSH1 0x60 DUP5 ADD MLOAD PUSH1 0xE0 DUP4 ADD MSTORE PUSH1 0x80 DUP5 ADD MLOAD PUSH2 0x100 DUP4 ADD MSTORE PUSH1 0xA0 DUP5 ADD MLOAD PUSH2 0x120 DUP4 ADD MSTORE PUSH1 0xC0 DUP5 ADD MLOAD PUSH2 0x140 DUP4 ADD MSTORE PUSH2 0x1A21 PUSH2 0x160 DUP4 ADD DUP5 DUP1 MLOAD DUP3 MSTORE PUSH1 0x20 DUP2 ADD MLOAD PUSH1 0x20 DUP4 ADD MSTORE PUSH1 0x40 DUP2 ADD MLOAD PUSH1 0x40 DUP4 ADD MSTORE PUSH1 0x60 DUP2 ADD MLOAD ISZERO ISZERO PUSH1 0x60 DUP4 ADD MSTORE PUSH1 0x80 DUP2 ADD MLOAD PUSH1 0x80 DUP4 ADD MSTORE POP POP JUMP JUMPDEST PUSH0 DUP1 PUSH0 DUP1 PUSH0 DUP1 PUSH0 PUSH1 0xE0 DUP9 DUP11 SUB SLT ISZERO PUSH2 0x2192 JUMPI PUSH0 DUP1 REVERT JUMPDEST DUP8 CALLDATALOAD PUSH2 0x219D DUP2 PUSH2 0x1FC5 JUMP JUMPDEST SWAP7 POP PUSH1 0x20 DUP9 ADD CALLDATALOAD PUSH2 0x21AD DUP2 PUSH2 0x1FC5 JUMP JUMPDEST SWAP7 SWAP10 SWAP7 SWAP9 POP POP POP POP PUSH1 0x40 DUP6 ADD CALLDATALOAD SWAP5 PUSH1 0x60 DUP2 ADD CALLDATALOAD SWAP5 PUSH1 0x80 DUP3 ADD CALLDATALOAD SWAP5 POP PUSH1 0xA0 DUP3 ADD CALLDATALOAD SWAP4 POP PUSH1 0xC0 SWAP1 SWAP2 ADD CALLDATALOAD SWAP2 POP JUMP JUMPDEST PUSH1 0x20 DUP1 DUP3 MSTORE PUSH1 0xF SWAP1 DUP3 ADD MSTORE PUSH15 0x125B9D985B1A59081C1B185B881251 PUSH1 0x8A SHL PUSH1 0x40 DUP3 ADD MSTORE PUSH1 0x60 ADD SWAP1 JUMP JUMPDEST PUSH4 0x4E487B71 PUSH1 0xE0 SHL PUSH0 MSTORE PUSH1 0x11 PUSH1 0x4 MSTORE PUSH1 0x24 PUSH0 REVERT JUMPDEST PUSH0 PUSH1 0x1 DUP3 ADD PUSH2 0x2227 JUMPI PUSH2 0x2227 PUSH2 0x2202 JUMP JUMPDEST POP PUSH1 0x1 ADD SWAP1 JUMP JUMPDEST DUP1 DUP3 MUL DUP2 ISZERO DUP3 DUP3 DIV DUP5 EQ OR PUSH2 0x2245 JUMPI PUSH2 0x2245 PUSH2 0x2202 JUMP JUMPDEST SWAP3 SWAP2 POP POP JUMP JUMPDEST PUSH4 0x4E487B71 PUSH1 0xE0 SHL PUSH0 MSTORE PUSH1 0x12 PUSH1 0x4 MSTORE PUSH1 0x24 PUSH0 REVERT JUMPDEST PUSH0 DUP3 PUSH2 0x226D JUMPI PUSH2 0x226D PUSH2 0x224B JUMP JUMPDEST POP DIV SWAP1 JUMP JUMPDEST DUP1 DUP3 ADD DUP1 DUP3 GT ISZERO PUSH2 0x2245 JUMPI PUSH2 0x2245 PUSH2 0x2202 JUMP JUMPDEST DUP2 DUP2 SUB DUP2 DUP2 GT ISZERO PUSH2 0x2245 JUMPI PUSH2 0x2245 PUSH2 0x2202 JUMP JUMPDEST PUSH0 PUSH1 0x20 DUP3 DUP5 SUB SLT ISZERO PUSH2 0x22A8 JUMPI PUSH0 DUP1 REVERT JUMPDEST DUP2 MLOAD PUSH2 0x1FF4 DUP2 PUSH2 0x1FC5 JUMP JUMPDEST PUSH0 PUSH1 0x20 DUP3 DUP5 SUB SLT ISZERO PUSH2 0x22C3 JUMPI PUSH0 DUP1 REVERT JUMPDEST DUP2 MLOAD DUP1 ISZERO ISZERO DUP2 EQ PUSH2 0x1FF4 JUMPI PUSH0 DUP1 REVERT JUMPDEST PUSH1 0x20 DUP1 DUP3 MSTORE PUSH1 0x23 SWAP1 DUP3 ADD MSTORE PUSH32 0x4F6E6C792073656C6C65722063616E20706572666F726D207468697320616374 PUSH1 0x40 DUP3 ADD MSTORE PUSH3 0x34B7B7 PUSH1 0xE9 SHL PUSH1 0x60 DUP3 ADD MSTORE PUSH1 0x80 ADD SWAP1 JUMP JUMPDEST DUP2 DUP4 DUP3 CALLDATACOPY PUSH0 SWAP2 ADD SWAP1 DUP2 MSTORE SWAP2 SWAP1 POP JUMP JUMPDEST DUP7 DUP2 MSTORE DUP6 PUSH1 0x20 DUP3 ADD MSTORE DUP5 PUSH1 0x40 DUP3 ADD MSTORE DUP4 PUSH1 0x60 DUP3 ADD MSTORE DUP3 PUSH1 0x80 DUP3 ADD MSTORE PUSH1 0xC0 PUSH1 0xA0 DUP3 ADD MSTORE PUSH0 DUP3 MLOAD DUP1 PUSH1 0xC0 DUP5 ADD MSTORE DUP1 PUSH1 0x20 DUP6 ADD PUSH1 0xE0 DUP6 ADD MCOPY PUSH0 PUSH1 0xE0 DUP3 DUP6 ADD ADD MSTORE PUSH1 0xE0 PUSH1 0x1F NOT PUSH1 0x1F DUP4 ADD AND DUP5 ADD ADD SWAP2 POP POP SWAP8 SWAP7 POP POP POP POP POP POP POP JUMP JUMPDEST PUSH0 DUP2 PUSH2 0x238A JUMPI PUSH2 0x238A PUSH2 0x2202 JUMP JUMPDEST POP PUSH0 NOT ADD SWAP1 JUMP JUMPDEST PUSH0 DUP2 MLOAD DUP1 PUSH1 0x20 DUP5 ADD DUP6 MCOPY PUSH0 SWAP4 ADD SWAP3 DUP4 MSTORE POP SWAP1 SWAP2 SWAP1 POP JUMP JUMPDEST PUSH0 PUSH2 0x1FF4 DUP3 DUP5 PUSH2 0x2391 JUMP JUMPDEST PUSH0 DUP3 PUSH2 0x23C1 JUMPI PUSH2 0x23C1 PUSH2 0x224B JUMP JUMPDEST POP MOD SWAP1 JUMP JUMPDEST PUSH0 PUSH2 0x23D1 DUP3 DUP7 PUSH2 0x2391 JUMP JUMPDEST PUSH1 0x1 PUSH1 0xFD SHL DUP2 MSTORE PUSH2 0x23E5 PUSH1 0x1 DUP3 ADD DUP7 PUSH2 0x2391 JUMP JUMPDEST SWAP1 POP PUSH1 0x1 PUSH1 0xFD SHL DUP2 MSTORE PUSH2 0x23FB PUSH1 0x1 DUP3 ADD DUP6 PUSH2 0x2391 JUMP JUMPDEST SWAP7 SWAP6 POP POP POP POP POP POP JUMP JUMPDEST PUSH4 0x4E487B71 PUSH1 0xE0 SHL PUSH0 MSTORE PUSH1 0x41 PUSH1 0x4 MSTORE PUSH1 0x24 PUSH0 REVERT JUMPDEST PUSH4 0x4E487B71 PUSH1 0xE0 SHL PUSH0 MSTORE PUSH1 0x32 PUSH1 0x4 MSTORE PUSH1 0x24 PUSH0 REVERT INVALID LOG2 PUSH5 0x6970667358 0x22 SLT KECCAK256 0xDC 0xBB CALLDATALOAD 0xF7 DUP13 JUMP BLOBBASEFEE 0xAD SDIV SWAP15 0xEF PUSH24 0x377EEB359C4BEEC4D5BC26A5BF7C4A63B227F95D64736F6C PUSH4 0x4300081A STOP CALLER "
		},
		"gasEstimates": {
			"creation": {
				"codeDepositCost": "1863000",
				"executionCost": "infinite",
				"totalCost": "infinite"
			},
			"external": {
				"buyerToPlanId(address)": "2533",
				"createNFTPaymentPlan(address,address,uint256,uint256,uint256,uint256,uint256)": "infinite",
				"emergencyReleaseNFT(uint256,address)": "infinite",
				"getBuyerPlanId(address)": "2595",
				"getPlanDetails(uint256)": "23945",
				"makePayment(uint256)": "infinite",
				"nextPlanId()": "2383",
				"plans(uint256)": "35099",
				"processDownPayment(uint256)": "infinite",
				"seller()": "infinite",
				"setPaymentDates(uint256,uint256,string,uint256)": "infinite"
			},
			"internal": {
				"_completePlan(uint256)": "infinite",
				"_initializeMonthMap()": "infinite",
				"_processPayment(uint256,uint256,uint256)": "infinite",
				"_updateNextPaymentDate(uint256)": "infinite",
				"calculateTimestamp(uint256,string memory,uint256)": "infinite",
				"formatDate(uint256,string memory,uint256)": "infinite",
				"monthToString(uint256)": "infinite",
				"uint2str(uint256)": "infinite"
			}
		},
		"methodIdentifiers": {
			"buyerToPlanId(address)": "3d5d62d6",
			"createNFTPaymentPlan(address,address,uint256,uint256,uint256,uint256,uint256)": "fa502176",
			"emergencyReleaseNFT(uint256,address)": "95e2bf1f",
			"getBuyerPlanId(address)": "5c6144b9",
			"getPlanDetails(uint256)": "ad5abed8",
			"makePayment(uint256)": "5114cb52",
			"nextPlanId()": "5f8d26b2",
			"plans(uint256)": "b1620616",
			"processDownPayment(uint256)": "7ee9f33e",
			"seller()": "08551a53",
			"setPaymentDates(uint256,uint256,string,uint256)": "9e3b67f1"
		}
	},
	"abi": [
		{
			"inputs": [],
			"stateMutability": "nonpayable",
			"type": "constructor"
		},
		{
			"anonymous": false,
			"inputs": [
				{
					"indexed": true,
					"internalType": "uint256",
					"name": "planId",
					"type": "uint256"
				},
				{
					"indexed": true,
					"internalType": "address",
					"name": "buyer",
					"type": "address"
				},
				{
					"indexed": true,
					"internalType": "address",
					"name": "nftContract",
					"type": "address"
				},
				{
					"indexed": false,
					"internalType": "uint256",
					"name": "tokenId",
					"type": "uint256"
				},
				{
					"indexed": false,
					"internalType": "uint256",
					"name": "finalPaymentAmount",
					"type": "uint256"
				},
				{
					"indexed": false,
					"internalType": "uint256",
					"name": "totalPaid",
					"type": "uint256"
				}
			],
			"name": "NFTPurchaseCompleted",
			"type": "event"
		},
		{
			"anonymous": false,
			"inputs": [
				{
					"indexed": true,
					"internalType": "uint256",
					"name": "planId",
					"type": "uint256"
				},
				{
					"indexed": true,
					"internalType": "address",
					"name": "buyer",
					"type": "address"
				},
				{
					"indexed": false,
					"internalType": "uint256",
					"name": "remainingPayments",
					"type": "uint256"
				},
				{
					"indexed": false,
					"internalType": "uint256",
					"name": "amountPaid",
					"type": "uint256"
				},
				{
					"indexed": false,
					"internalType": "uint256",
					"name": "remainingAmount",
					"type": "uint256"
				},
				{
					"indexed": false,
					"internalType": "uint256",
					"name": "timestamp",
					"type": "uint256"
				}
			],
			"name": "PaymentMade",
			"type": "event"
		},
		{
			"anonymous": false,
			"inputs": [
				{
					"indexed": true,
					"internalType": "uint256",
					"name": "planId",
					"type": "uint256"
				},
				{
					"indexed": true,
					"internalType": "address",
					"name": "buyer",
					"type": "address"
				},
				{
					"indexed": false,
					"internalType": "uint256",
					"name": "penaltyAmount",
					"type": "uint256"
				}
			],
			"name": "PenaltyApplied",
			"type": "event"
		},
		{
			"anonymous": false,
			"inputs": [
				{
					"indexed": true,
					"internalType": "uint256",
					"name": "planId",
					"type": "uint256"
				},
				{
					"indexed": true,
					"internalType": "address",
					"name": "buyer",
					"type": "address"
				},
				{
					"indexed": true,
					"internalType": "address",
					"name": "nftContract",
					"type": "address"
				},
				{
					"indexed": false,
					"internalType": "uint256",
					"name": "tokenId",
					"type": "uint256"
				},
				{
					"indexed": false,
					"internalType": "uint256",
					"name": "totalCost",
					"type": "uint256"
				},
				{
					"indexed": false,
					"internalType": "uint256",
					"name": "downPayment",
					"type": "uint256"
				},
				{
					"indexed": false,
					"internalType": "uint256",
					"name": "monthlyPayment",
					"type": "uint256"
				},
				{
					"indexed": false,
					"internalType": "uint256",
					"name": "totalPayments",
					"type": "uint256"
				},
				{
					"indexed": false,
					"internalType": "string",
					"name": "startDate",
					"type": "string"
				}
			],
			"name": "PlanCreated",
			"type": "event"
		},
		{
			"anonymous": false,
			"inputs": [
				{
					"indexed": true,
					"internalType": "uint256",
					"name": "planId",
					"type": "uint256"
				},
				{
					"indexed": true,
					"internalType": "address",
					"name": "buyer",
					"type": "address"
				},
				{
					"indexed": false,
					"internalType": "uint256",
					"name": "amountForfeited",
					"type": "uint256"
				},
				{
					"indexed": false,
					"internalType": "address",
					"name": "nftContract",
					"type": "address"
				},
				{
					"indexed": false,
					"internalType": "uint256",
					"name": "tokenId",
					"type": "uint256"
				}
			],
			"name": "PlanDefaulted",
			"type": "event"
		},
		{
			"inputs": [
				{
					"internalType": "address",
					"name": "",
					"type": "address"
				}
			],
			"name": "buyerToPlanId",
			"outputs": [
				{
					"internalType": "uint256",
					"name": "",
					"type": "uint256"
				}
			],
			"stateMutability": "view",
			"type": "function"
		},
		{
			"inputs": [
				{
					"internalType": "address",
					"name": "buyer",
					"type": "address"
				},
				{
					"internalType": "address",
					"name": "_nftContract",
					"type": "address"
				},
				{
					"internalType": "uint256",
					"name": "_tokenId",
					"type": "uint256"
				},
				{
					"internalType": "uint256",
					"name": "_totalCost",
					"type": "uint256"
				},
				{
					"internalType": "uint256",
					"name": "_downPaymentPercent",
					"type": "uint256"
				},
				{
					"internalType": "uint256",
					"name": "_totalPayments",
					"type": "uint256"
				},
				{
					"internalType": "uint256",
					"name": "_penaltyPercent",
					"type": "uint256"
				}
			],
			"name": "createNFTPaymentPlan",
			"outputs": [
				{
					"internalType": "uint256",
					"name": "",
					"type": "uint256"
				}
			],
			"stateMutability": "nonpayable",
			"type": "function"
		},
		{
			"inputs": [
				{
					"internalType": "uint256",
					"name": "planId",
					"type": "uint256"
				},
				{
					"internalType": "address",
					"name": "to",
					"type": "address"
				}
			],
			"name": "emergencyReleaseNFT",
			"outputs": [],
			"stateMutability": "nonpayable",
			"type": "function"
		},
		{
			"inputs": [
				{
					"internalType": "address",
					"name": "buyer",
					"type": "address"
				}
			],
			"name": "getBuyerPlanId",
			"outputs": [
				{
					"internalType": "uint256",
					"name": "",
					"type": "uint256"
				}
			],
			"stateMutability": "view",
			"type": "function"
		},
		{
			"inputs": [
				{
					"internalType": "uint256",
					"name": "planId",
					"type": "uint256"
				}
			],
			"name": "getPlanDetails",
			"outputs": [
				{
					"internalType": "address",
					"name": "buyer",
					"type": "address"
				},
				{
					"internalType": "address",
					"name": "nftContract",
					"type": "address"
				},
				{
					"internalType": "uint256",
					"name": "tokenId",
					"type": "uint256"
				},
				{
					"internalType": "uint256",
					"name": "totalCost",
					"type": "uint256"
				},
				{
					"internalType": "uint256",
					"name": "monthlyPayment",
					"type": "uint256"
				},
				{
					"internalType": "uint256",
					"name": "remainingAmount",
					"type": "uint256"
				},
				{
					"internalType": "uint256",
					"name": "nextPaymentDueTimestamp",
					"type": "uint256"
				},
				{
					"internalType": "uint256",
					"name": "remainingPayments",
					"type": "uint256"
				},
				{
					"internalType": "uint256",
					"name": "missedPayments",
					"type": "uint256"
				},
				{
					"internalType": "bool",
					"name": "isActive",
					"type": "bool"
				},
				{
					"internalType": "bool",
					"name": "isNFTTransferred",
					"type": "bool"
				}
			],
			"stateMutability": "view",
			"type": "function"
		},
		{
			"inputs": [
				{
					"internalType": "uint256",
					"name": "planId",
					"type": "uint256"
				}
			],
			"name": "makePayment",
			"outputs": [],
			"stateMutability": "payable",
			"type": "function"
		},
		{
			"inputs": [],
			"name": "nextPlanId",
			"outputs": [
				{
					"internalType": "uint256",
					"name": "",
					"type": "uint256"
				}
			],
			"stateMutability": "view",
			"type": "function"
		},
		{
			"inputs": [
				{
					"internalType": "uint256",
					"name": "",
					"type": "uint256"
				}
			],
			"name": "plans",
			"outputs": [
				{
					"internalType": "address",
					"name": "buyer",
					"type": "address"
				},
				{
					"components": [
						{
							"internalType": "address",
							"name": "nftContract",
							"type": "address"
						},
						{
							"internalType": "uint256",
							"name": "tokenId",
							"type": "uint256"
						},
						{
							"internalType": "bool",
							"name": "isTransferred",
							"type": "bool"
						}
					],
					"internalType": "struct NFTBuyNowPayLater.NFTDetails",
					"name": "nftDetails",
					"type": "tuple"
				},
				{
					"components": [
						{
							"internalType": "uint256",
							"name": "totalCost",
							"type": "uint256"
						},
						{
							"internalType": "uint256",
							"name": "paymentPerMonth",
							"type": "uint256"
						},
						{
							"internalType": "uint256",
							"name": "totalPayments",
							"type": "uint256"
						},
						{
							"internalType": "uint256",
							"name": "penaltyPercent",
							"type": "uint256"
						},
						{
							"internalType": "uint256",
							"name": "remainingAmount",
							"type": "uint256"
						},
						{
							"internalType": "uint256",
							"name": "remainingPayments",
							"type": "uint256"
						},
						{
							"internalType": "uint256",
							"name": "downPaymentAmount",
							"type": "uint256"
						}
					],
					"internalType": "struct NFTBuyNowPayLater.PaymentTerms",
					"name": "terms",
					"type": "tuple"
				},
				{
					"components": [
						{
							"internalType": "uint256",
							"name": "paymentDate",
							"type": "uint256"
						},
						{
							"internalType": "uint256",
							"name": "nextPaymentDate",
							"type": "uint256"
						},
						{
							"internalType": "uint256",
							"name": "missedPayments",
							"type": "uint256"
						},
						{
							"internalType": "bool",
							"name": "isActive",
							"type": "bool"
						},
						{
							"internalType": "uint256",
							"name": "planCreationTime",
							"type": "uint256"
						}
					],
					"internalType": "struct NFTBuyNowPayLater.PaymentStatus",
					"name": "status",
					"type": "tuple"
				}
			],
			"stateMutability": "view",
			"type": "function"
		},
		{
			"inputs": [
				{
					"internalType": "uint256",
					"name": "planId",
					"type": "uint256"
				}
			],
			"name": "processDownPayment",
			"outputs": [],
			"stateMutability": "payable",
			"type": "function"
		},
		{
			"inputs": [],
			"name": "seller",
			"outputs": [
				{
					"internalType": "address",
					"name": "",
					"type": "address"
				}
			],
			"stateMutability": "view",
			"type": "function"
		},
		{
			"inputs": [
				{
					"internalType": "uint256",
					"name": "_planId",
					"type": "uint256"
				},
				{
					"internalType": "uint256",
					"name": "_startDay",
					"type": "uint256"
				},
				{
					"internalType": "string",
					"name": "_startMonth",
					"type": "string"
				},
				{
					"internalType": "uint256",
					"name": "_startYear",
					"type": "uint256"
				}
			],
			"name": "setPaymentDates",
			"outputs": [],
			"stateMutability": "nonpayable",
			"type": "function"
		}
	]
}