{
	"data": {
		"bytecode": {
			"linkReferences": {},
			"object": "60a060405234801561000f575f80fd5b503373ffffffffffffffffffffffffffffffffffffffff1660808173ffffffffffffffffffffffffffffffffffffffff168152505060018060405161005390610234565b9081526020016040518091039020819055506002600160405161007590610292565b90815260200160405180910390208190555060036001604051610097906102f0565b908152602001604051809103902081905550600460016040516100b99061034e565b908152602001604051809103902081905550600560016040516100db906103ac565b908152602001604051809103902081905550600660016040516100fd9061040a565b9081526020016040518091039020819055506007600160405161011f90610468565b90815260200160405180910390208190555060086001604051610141906104c6565b9081526020016040518091039020819055506009600160405161016390610524565b908152602001604051809103902081905550600a600160405161018590610582565b908152602001604051809103902081905550600b60016040516101a7906105e0565b908152602001604051809103902081905550600c60016040516101c99061063e565b908152602001604051809103902081905550610652565b5f81905092915050565b7f4a616e75617279000000000000000000000000000000000000000000000000005f82015250565b5f61021e6007836101e0565b9150610229826101ea565b600782019050919050565b5f61023e82610212565b9150819050919050565b7f46656272756172790000000000000000000000000000000000000000000000005f82015250565b5f61027c6008836101e0565b915061028782610248565b600882019050919050565b5f61029c82610270565b9150819050919050565b7f4d617263680000000000000000000000000000000000000000000000000000005f82015250565b5f6102da6005836101e0565b91506102e5826102a6565b600582019050919050565b5f6102fa826102ce565b9150819050919050565b7f417072696c0000000000000000000000000000000000000000000000000000005f82015250565b5f6103386005836101e0565b915061034382610304565b600582019050919050565b5f6103588261032c565b9150819050919050565b7f4d617900000000000000000000000000000000000000000000000000000000005f82015250565b5f6103966003836101e0565b91506103a182610362565b600382019050919050565b5f6103b68261038a565b9150819050919050565b7f4a756e65000000000000000000000000000000000000000000000000000000005f82015250565b5f6103f46004836101e0565b91506103ff826103c0565b600482019050919050565b5f610414826103e8565b9150819050919050565b7f4a756c79000000000000000000000000000000000000000000000000000000005f82015250565b5f6104526004836101e0565b915061045d8261041e565b600482019050919050565b5f61047282610446565b9150819050919050565b7f41756775737400000000000000000000000000000000000000000000000000005f82015250565b5f6104b06006836101e0565b91506104bb8261047c565b600682019050919050565b5f6104d0826104a4565b9150819050919050565b7f53657074656d62657200000000000000000000000000000000000000000000005f82015250565b5f61050e6009836101e0565b9150610519826104da565b600982019050919050565b5f61052e82610502565b9150819050919050565b7f4f63746f626572000000000000000000000000000000000000000000000000005f82015250565b5f61056c6007836101e0565b915061057782610538565b600782019050919050565b5f61058c82610560565b9150819050919050565b7f4e6f76656d6265720000000000000000000000000000000000000000000000005f82015250565b5f6105ca6008836101e0565b91506105d582610596565b600882019050919050565b5f6105ea826105be565b9150819050919050565b7f446563656d6265720000000000000000000000000000000000000000000000005f82015250565b5f6106286008836101e0565b9150610633826105f4565b600882019050919050565b5f6106488261061c565b9150819050919050565b60805161271a6106785f395f8181610132015281816101560152610a4e015261271a5ff3fe608060405260043610610049575f3560e01c806308551a531461004d5780630eb874a71461007757806344fe27fa1461009f578063d8d79700146100e4578063f6d1cd25146100ee575b5f80fd5b348015610058575f80fd5b50610061610130565b60405161006e91906117ab565b60405180910390f35b348015610082575f80fd5b5061009d6004803603810190610098919061188a565b610154565b005b3480156100aa575f80fd5b506100c560048036038101906100c09190611947565b610620565b6040516100db9a9998979695949392919061199b565b60405180910390f35b6100ec61067b565b005b3480156100f9575f80fd5b50610114600480360381019061010f9190611947565b610ab7565b6040516101279796959493929190611aa5565b60405180910390f35b7f000000000000000000000000000000000000000000000000000000000000000081565b7f000000000000000000000000000000000000000000000000000000000000000073ffffffffffffffffffffffffffffffffffffffff163373ffffffffffffffffffffffffffffffffffffffff16146101e2576040517f08c379a00000000000000000000000000000000000000000000000000000000081526004016101d990611b89565b60405180910390fd5b5f8711610224576040517f08c379a000000000000000000000000000000000000000000000000000000000815260040161021b90611c17565b60405180910390fd5b5f8611610266576040517f08c379a000000000000000000000000000000000000000000000000000000000815260040161025d90611ca5565b60405180910390fd5b60648511156102aa576040517f08c379a00000000000000000000000000000000000000000000000000000000081526004016102a190611d33565b60405180910390fd5b5f808973ffffffffffffffffffffffffffffffffffffffff1673ffffffffffffffffffffffffffffffffffffffff1681526020019081526020015f206009015f9054906101000a900460ff1615610336576040517f08c379a000000000000000000000000000000000000000000000000000000000815260040161032d90611d9b565b60405180910390fd5b5f60018484604051610349929190611df5565b90815260200160405180910390205403610398576040517f08c379a000000000000000000000000000000000000000000000000000000000815260040161038f90611e57565b60405180910390fd5b5f86886103a59190611ecf565b90508787826103b49190611eff565b146103f4576040517f08c379a00000000000000000000000000000000000000000000000000000000081526004016103eb90611fb0565b60405180910390fd5b5f6104438686868080601f0160208091040260200160405190810160405280939291908181526020018383808284375f81840152601f19601f8201169050808301925050505050505085610bd3565b9050428111610487576040517f08c379a000000000000000000000000000000000000000000000000000000000815260040161047e90612018565b60405180910390fd5b6040518061014001604052808a81526020018381526020018981526020018881526020018781526020018281526020018a81526020018981526020015f8152602001600115158152505f808c73ffffffffffffffffffffffffffffffffffffffff1673ffffffffffffffffffffffffffffffffffffffff1681526020019081526020015f205f820151815f01556020820151816001015560408201518160020155606082015181600301556080820151816004015560a0820151816005015560c0820151816006015560e082015181600701556101008201518160080155610120820151816009015f6101000a81548160ff0219169083151502179055509050507ff53d727a402d62df6bbfb212a7d9508c13dbfac209e4473acfb6ee07e026e9bd8a8a848b6105fb8b8b8b8080601f0160208091040260200160405190810160405280939291908181526020018383808284375f81840152601f19601f820116905080830192505050505050508a611253565b60405161060c959493929190612036565b60405180910390a150505050505050505050565b5f602052805f5260405f205f91509050805f015490806001015490806002015490806003015490806004015490806005015490806006015490806007015490806008015490806009015f9054906101000a900460ff1690508a565b5f805f3373ffffffffffffffffffffffffffffffffffffffff1673ffffffffffffffffffffffffffffffffffffffff1681526020019081526020015f209050806009015f9054906101000a900460ff1661070a576040517f08c379a0000000000000000000000000000000000000000000000000000000008152600401610701906120d8565b60405180910390fd5b5f816006015411610750576040517f08c379a000000000000000000000000000000000000000000000000000000000815260040161074790612140565b60405180910390fd5b5f816001015490505f826005015442111561086057826008015f8154809291906107799061215e565b91905055506064836003015484600601546107949190611eff565b61079e9190611ecf565b905080826107ac91906121a5565b9150600383600801541061085f575f8360060154845f01546107ce91906121d8565b90505f846009015f6101000a81548160ff0219169083151502179055507f3352263f4ec66915f8f0d5ac61d11ac62dcf156d45afda15eca475ddce951ae1338260405161081c92919061220b565b60405180910390a16040517f08c379a0000000000000000000000000000000000000000000000000000000008152600401610856906122a2565b60405180910390fd5b5b813410156108a3576040517f08c379a000000000000000000000000000000000000000000000000000000000815260040161089a9061230a565b60405180910390fd5b8260010154836006015f8282546108ba91906121d8565b925050819055505f6107b26201518061016d6108d69190611eff565b85600501546108e59190611ecf565b6108ef91906121a5565b90505f600162015180601e6109049190611eff565b6201518061016d6109159190611eff565b87600501546109249190612328565b61092e9190611ecf565b61093891906121a5565b905060018161094791906121a5565b9050600c811115610966576001905060018261096391906121a5565b91505b61097d856004015461097783611292565b84610bd3565b8560050181905550846007015f81548092919061099990612358565b91905055505f8311156109e0577f4b28c7dc138644f27518388387393ecbd08ef8d180a4a6799c954be166a37ab333846040516109d792919061220b565b60405180910390a15b7f8e4aa0897527f9d5629d6daf3255e753bfdd9862c1b9803c200a8bd12d5b8625338660070154348860060154604051610a1d949392919061237f565b60405180910390a15f856006015403610a4c575f856009015f6101000a81548160ff0219169083151502179055505b7f000000000000000000000000000000000000000000000000000000000000000073ffffffffffffffffffffffffffffffffffffffff166108fc3490811502906040515f60405180830381858888f19350505050158015610aaf573d5f803e3d5ffd5b505050505050565b5f805f60605f805f805f808a73ffffffffffffffffffffffffffffffffffffffff1673ffffffffffffffffffffffffffffffffffffffff1681526020019081526020015f2090505f6107b26201518061016d610b139190611eff565b8360050154610b229190611ecf565b610b2c91906121a5565b90505f600162015180601e610b419190611eff565b6201518061016d610b529190611eff565b8560050154610b619190612328565b610b6b9190611ecf565b610b7591906121a5565b9050825f015483600101548460060154610b9c8660040154610b9686611292565b87611253565b86600701548760080154886009015f9054906101000a900460ff169950995099509950995099509950505050919395979092949650565b5f8084118015610be45750601f8411155b610c23576040517f08c379a0000000000000000000000000000000000000000000000000000000008152600401610c1a9061240c565b60405180910390fd5b6107e8821015610c68576040517f08c379a0000000000000000000000000000000000000000000000000000000008152600401610c5f90612474565b60405180910390fd5b5f6040518060400160405280600781526020017f4a616e756172790000000000000000000000000000000000000000000000000081525080519060200120848051906020012003610cbc5760019050611093565b6040518060400160405280600881526020017f466562727561727900000000000000000000000000000000000000000000000081525080519060200120848051906020012003610d0f5760029050611092565b6040518060400160405280600581526020017f4d6172636800000000000000000000000000000000000000000000000000000081525080519060200120848051906020012003610d625760039050611091565b6040518060400160405280600581526020017f417072696c00000000000000000000000000000000000000000000000000000081525080519060200120848051906020012003610db55760049050611090565b6040518060400160405280600381526020017f4d6179000000000000000000000000000000000000000000000000000000000081525080519060200120848051906020012003610e08576005905061108f565b6040518060400160405280600481526020017f4a756e650000000000000000000000000000000000000000000000000000000081525080519060200120848051906020012003610e5b576006905061108e565b6040518060400160405280600481526020017f4a756c790000000000000000000000000000000000000000000000000000000081525080519060200120848051906020012003610eae576007905061108d565b6040518060400160405280600681526020017f417567757374000000000000000000000000000000000000000000000000000081525080519060200120848051906020012003610f01576008905061108c565b6040518060400160405280600981526020017f53657074656d626572000000000000000000000000000000000000000000000081525080519060200120848051906020012003610f54576009905061108b565b6040518060400160405280600781526020017f4f63746f6265720000000000000000000000000000000000000000000000000081525080519060200120848051906020012003610fa757600a905061108a565b6040518060400160405280600881526020017f4e6f76656d62657200000000000000000000000000000000000000000000000081525080519060200120848051906020012003610ffa57600b9050611089565b6040518060400160405280600881526020017f446563656d6265720000000000000000000000000000000000000000000000008152508051906020012084805190602001200361104d57600c9050611088565b6040517f08c379a000000000000000000000000000000000000000000000000000000000815260040161107f906124dc565b60405180910390fd5b5b5b5b5b5b5b5b5b5b5b5b60028103611136575f806004856110aa9190612328565b1480156110c357505f6064856110c09190612328565b14155b806110da57505f610190856110d89190612328565b145b9050806110e857601c6110eb565b601d5b60ff16861115611130576040517f08c379a000000000000000000000000000000000000000000000000000000000815260040161112790612544565b60405180910390fd5b506111a6565b60048114806111455750600681145b806111505750600981145b8061115b5750600b81145b156111a557601e8511156111a4576040517f08c379a000000000000000000000000000000000000000000000000000000000815260040161119b906125ac565b60405180910390fd5b5b5b620151806001866111b791906121d8565b6111c19190611eff565b62015180601e6001846111d491906121d8565b6111de9190611eff565b6111e89190611eff565b6201518060046107b1876111fc91906121d8565b6112069190611ecf565b61016d6107b28861121791906121d8565b6112219190611eff565b61122b91906121a5565b6112359190611eff565b61123f91906121a5565b61124991906121a5565b9150509392505050565b606061125e8461160e565b836112688461160e565b60405160200161127a93929190612644565b60405160208183030381529060405290509392505050565b6060600182036112d9576040518060400160405280600781526020017f4a616e75617279000000000000000000000000000000000000000000000000008152509050611609565b6002820361131e576040518060400160405280600881526020017f46656272756172790000000000000000000000000000000000000000000000008152509050611609565b60038203611363576040518060400160405280600581526020017f4d617263680000000000000000000000000000000000000000000000000000008152509050611609565b600482036113a8576040518060400160405280600581526020017f417072696c0000000000000000000000000000000000000000000000000000008152509050611609565b600582036113ed576040518060400160405280600381526020017f4d617900000000000000000000000000000000000000000000000000000000008152509050611609565b60068203611432576040518060400160405280600481526020017f4a756e65000000000000000000000000000000000000000000000000000000008152509050611609565b60078203611477576040518060400160405280600481526020017f4a756c79000000000000000000000000000000000000000000000000000000008152509050611609565b600882036114bc576040518060400160405280600681526020017f41756775737400000000000000000000000000000000000000000000000000008152509050611609565b60098203611501576040518060400160405280600981526020017f53657074656d62657200000000000000000000000000000000000000000000008152509050611609565b600a8203611546576040518060400160405280600781526020017f4f63746f626572000000000000000000000000000000000000000000000000008152509050611609565b600b820361158b576040518060400160405280600881526020017f4e6f76656d6265720000000000000000000000000000000000000000000000008152509050611609565b600c82036115d0576040518060400160405280600881526020017f446563656d6265720000000000000000000000000000000000000000000000008152509050611609565b6040518060400160405280600d81526020017f496e76616c6964204d6f6e74680000000000000000000000000000000000000081525090505b919050565b60605f8203611654576040518060400160405280600181526020017f30000000000000000000000000000000000000000000000000000000000000008152509050611767565b5f8290505f5b5f821461168357808061166c9061215e565b915050600a8261167c9190611ecf565b915061165a565b5f8167ffffffffffffffff81111561169e5761169d61268a565b5b6040519080825280601f01601f1916602001820160405280156116d05781602001600182028036833780820191505090505b5090505f8290508593505b5f841461175f57600a846116ef9190612328565b60306116fb91906121a5565b60f81b828261170990612358565b9250828151811061171d5761171c6126b7565b5b60200101907effffffffffffffffffffffffffffffffffffffffffffffffffffffffffffff191690815f1a905350600a846117589190611ecf565b93506116db565b819450505050505b919050565b5f73ffffffffffffffffffffffffffffffffffffffff82169050919050565b5f6117958261176c565b9050919050565b6117a58161178b565b82525050565b5f6020820190506117be5f83018461179c565b92915050565b5f80fd5b5f80fd5b6117d58161178b565b81146117df575f80fd5b50565b5f813590506117f0816117cc565b92915050565b5f819050919050565b611808816117f6565b8114611812575f80fd5b50565b5f81359050611823816117ff565b92915050565b5f80fd5b5f80fd5b5f80fd5b5f8083601f84011261184a57611849611829565b5b8235905067ffffffffffffffff8111156118675761186661182d565b5b60208301915083600182028301111561188357611882611831565b5b9250929050565b5f805f805f805f8060e0898b0312156118a6576118a56117c4565b5b5f6118b38b828c016117e2565b98505060206118c48b828c01611815565b97505060406118d58b828c01611815565b96505060606118e68b828c01611815565b95505060806118f78b828c01611815565b94505060a089013567ffffffffffffffff811115611918576119176117c8565b5b6119248b828c01611835565b935093505060c06119378b828c01611815565b9150509295985092959890939650565b5f6020828403121561195c5761195b6117c4565b5b5f611969848285016117e2565b91505092915050565b61197b816117f6565b82525050565b5f8115159050919050565b61199581611981565b82525050565b5f610140820190506119af5f83018d611972565b6119bc602083018c611972565b6119c9604083018b611972565b6119d6606083018a611972565b6119e36080830189611972565b6119f060a0830188611972565b6119fd60c0830187611972565b611a0a60e0830186611972565b611a18610100830185611972565b611a2661012083018461198c565b9b9a5050505050505050505050565b5f81519050919050565b5f82825260208201905092915050565b8281835e5f83830152505050565b5f601f19601f8301169050919050565b5f611a7782611a35565b611a818185611a3f565b9350611a91818560208601611a4f565b611a9a81611a5d565b840191505092915050565b5f60e082019050611ab85f83018a611972565b611ac56020830189611972565b611ad26040830188611972565b8181036060830152611ae48187611a6d565b9050611af36080830186611972565b611b0060a0830185611972565b611b0d60c083018461198c565b98975050505050505050565b7f4f6e6c792073656c6c65722063616e20706572666f726d2074686973206163745f8201527f696f6e0000000000000000000000000000000000000000000000000000000000602082015250565b5f611b73602383611a3f565b9150611b7e82611b19565b604082019050919050565b5f6020820190508181035f830152611ba081611b67565b9050919050565b7f546f74616c20636f7374206d7573742062652067726561746572207468616e205f8201527f3000000000000000000000000000000000000000000000000000000000000000602082015250565b5f611c01602183611a3f565b9150611c0c82611ba7565b604082019050919050565b5f6020820190508181035f830152611c2e81611bf5565b9050919050565b7f4e756d626572206f66207061796d656e7473206d7573742062652067726561745f8201527f6572207468616e20300000000000000000000000000000000000000000000000602082015250565b5f611c8f602983611a3f565b9150611c9a82611c35565b604082019050919050565b5f6020820190508181035f830152611cbc81611c83565b9050919050565b7f50656e616c74792070657263656e74616765206d757374206265203c3d2031305f8201527f3000000000000000000000000000000000000000000000000000000000000000602082015250565b5f611d1d602183611a3f565b9150611d2882611cc3565b604082019050919050565b5f6020820190508181035f830152611d4a81611d11565b9050919050565b7f427579657220616c72656164792068617320616e2061637469766520706c616e5f82015250565b5f611d85602083611a3f565b9150611d9082611d51565b602082019050919050565b5f6020820190508181035f830152611db281611d79565b9050919050565b5f81905092915050565b828183375f83830152505050565b5f611ddc8385611db9565b9350611de9838584611dc3565b82840190509392505050565b5f611e01828486611dd1565b91508190509392505050565b7f496e76616c6964206d6f6e7468206e616d6500000000000000000000000000005f82015250565b5f611e41601283611a3f565b9150611e4c82611e0d565b602082019050919050565b5f6020820190508181035f830152611e6e81611e35565b9050919050565b7f4e487b71000000000000000000000000000000000000000000000000000000005f52601260045260245ffd5b7f4e487b71000000000000000000000000000000000000000000000000000000005f52601160045260245ffd5b5f611ed9826117f6565b9150611ee4836117f6565b925082611ef457611ef3611e75565b5b828204905092915050565b5f611f09826117f6565b9150611f14836117f6565b9250828202611f22816117f6565b91508282048414831517611f3957611f38611ea2565b5b5092915050565b7f546f74616c20636f7374206d757374206265206576656e6c79206469766973695f8201527f626c65206279206e756d626572206f66207061796d656e747300000000000000602082015250565b5f611f9a603983611a3f565b9150611fa582611f40565b604082019050919050565b5f6020820190508181035f830152611fc781611f8e565b9050919050565b7f53746172742064617465206d75737420626520696e20746865206675747572655f82015250565b5f612002602083611a3f565b915061200d82611fce565b602082019050919050565b5f6020820190508181035f83015261202f81611ff6565b9050919050565b5f60a0820190506120495f83018861179c565b6120566020830187611972565b6120636040830186611972565b6120706060830185611972565b81810360808301526120828184611a6d565b90509695505050505050565b7f4e6f20616374697665207061796d656e7420706c616e000000000000000000005f82015250565b5f6120c2601683611a3f565b91506120cd8261208e565b602082019050919050565b5f6020820190508181035f8301526120ef816120b6565b9050919050565b7f506c616e20697320616c726561647920636f6d706c65746564000000000000005f82015250565b5f61212a601983611a3f565b9150612135826120f6565b602082019050919050565b5f6020820190508181035f8301526121578161211e565b9050919050565b5f612168826117f6565b91507fffffffffffffffffffffffffffffffffffffffffffffffffffffffffffffffff820361219a57612199611ea2565b5b600182019050919050565b5f6121af826117f6565b91506121ba836117f6565b92508282019050808211156121d2576121d1611ea2565b5b92915050565b5f6121e2826117f6565b91506121ed836117f6565b925082820390508181111561220557612204611ea2565b5b92915050565b5f60408201905061221e5f83018561179c565b61222b6020830184611972565b9392505050565b7f506c616e2064656661756c746564202d207468726565207061796d656e7473205f8201527f6d69737365640000000000000000000000000000000000000000000000000000602082015250565b5f61228c602683611a3f565b915061229782612232565b604082019050919050565b5f6020820190508181035f8301526122b981612280565b9050919050565b7f496e73756666696369656e74207061796d656e7420616d6f756e7400000000005f82015250565b5f6122f4601b83611a3f565b91506122ff826122c0565b602082019050919050565b5f6020820190508181035f830152612321816122e8565b9050919050565b5f612332826117f6565b915061233d836117f6565b92508261234d5761234c611e75565b5b828206905092915050565b5f612362826117f6565b91505f820361237457612373611ea2565b5b600182039050919050565b5f6080820190506123925f83018761179c565b61239f6020830186611972565b6123ac6040830185611972565b6123b96060830184611972565b95945050505050565b7f496e76616c6964206461790000000000000000000000000000000000000000005f82015250565b5f6123f6600b83611a3f565b9150612401826123c2565b602082019050919050565b5f6020820190508181035f830152612423816123ea565b9050919050565b7f496e76616c6964207965617200000000000000000000000000000000000000005f82015250565b5f61245e600c83611a3f565b91506124698261242a565b602082019050919050565b5f6020820190508181035f83015261248b81612452565b9050919050565b7f496e76616c6964206d6f6e7468000000000000000000000000000000000000005f82015250565b5f6124c6600d83611a3f565b91506124d182612492565b602082019050919050565b5f6020820190508181035f8301526124f3816124ba565b9050919050565b7f496e76616c69642064617920666f7220466562727561727900000000000000005f82015250565b5f61252e601883611a3f565b9150612539826124fa565b602082019050919050565b5f6020820190508181035f83015261255b81612522565b9050919050565b7f496e76616c69642064617920666f722074686973206d6f6e74680000000000005f82015250565b5f612596601a83611a3f565b91506125a182612562565b602082019050919050565b5f6020820190508181035f8301526125c38161258a565b9050919050565b5f6125d482611a35565b6125de8185611db9565b93506125ee818560208601611a4f565b80840191505092915050565b7f20000000000000000000000000000000000000000000000000000000000000005f82015250565b5f61262e600183611db9565b9150612639826125fa565b600182019050919050565b5f61264f82866125ca565b915061265a82612622565b915061266682856125ca565b915061267182612622565b915061267d82846125ca565b9150819050949350505050565b7f4e487b71000000000000000000000000000000000000000000000000000000005f52604160045260245ffd5b7f4e487b71000000000000000000000000000000000000000000000000000000005f52603260045260245ffdfea264697066735822122007fc96fde9476e98fbff3b94bddfccfc98421952fea432c099cc031e21e9fa2764736f6c634300081a0033",
			"opcodes": "PUSH1 0xA0 PUSH1 0x40 MSTORE CALLVALUE DUP1 ISZERO PUSH2 0xF JUMPI PUSH0 DUP1 REVERT JUMPDEST POP CALLER PUSH20 0xFFFFFFFFFFFFFFFFFFFFFFFFFFFFFFFFFFFFFFFF AND PUSH1 0x80 DUP2 PUSH20 0xFFFFFFFFFFFFFFFFFFFFFFFFFFFFFFFFFFFFFFFF AND DUP2 MSTORE POP POP PUSH1 0x1 DUP1 PUSH1 0x40 MLOAD PUSH2 0x53 SWAP1 PUSH2 0x234 JUMP JUMPDEST SWAP1 DUP2 MSTORE PUSH1 0x20 ADD PUSH1 0x40 MLOAD DUP1 SWAP2 SUB SWAP1 KECCAK256 DUP2 SWAP1 SSTORE POP PUSH1 0x2 PUSH1 0x1 PUSH1 0x40 MLOAD PUSH2 0x75 SWAP1 PUSH2 0x292 JUMP JUMPDEST SWAP1 DUP2 MSTORE PUSH1 0x20 ADD PUSH1 0x40 MLOAD DUP1 SWAP2 SUB SWAP1 KECCAK256 DUP2 SWAP1 SSTORE POP PUSH1 0x3 PUSH1 0x1 PUSH1 0x40 MLOAD PUSH2 0x97 SWAP1 PUSH2 0x2F0 JUMP JUMPDEST SWAP1 DUP2 MSTORE PUSH1 0x20 ADD PUSH1 0x40 MLOAD DUP1 SWAP2 SUB SWAP1 KECCAK256 DUP2 SWAP1 SSTORE POP PUSH1 0x4 PUSH1 0x1 PUSH1 0x40 MLOAD PUSH2 0xB9 SWAP1 PUSH2 0x34E JUMP JUMPDEST SWAP1 DUP2 MSTORE PUSH1 0x20 ADD PUSH1 0x40 MLOAD DUP1 SWAP2 SUB SWAP1 KECCAK256 DUP2 SWAP1 SSTORE POP PUSH1 0x5 PUSH1 0x1 PUSH1 0x40 MLOAD PUSH2 0xDB SWAP1 PUSH2 0x3AC JUMP JUMPDEST SWAP1 DUP2 MSTORE PUSH1 0x20 ADD PUSH1 0x40 MLOAD DUP1 SWAP2 SUB SWAP1 KECCAK256 DUP2 SWAP1 SSTORE POP PUSH1 0x6 PUSH1 0x1 PUSH1 0x40 MLOAD PUSH2 0xFD SWAP1 PUSH2 0x40A JUMP JUMPDEST SWAP1 DUP2 MSTORE PUSH1 0x20 ADD PUSH1 0x40 MLOAD DUP1 SWAP2 SUB SWAP1 KECCAK256 DUP2 SWAP1 SSTORE POP PUSH1 0x7 PUSH1 0x1 PUSH1 0x40 MLOAD PUSH2 0x11F SWAP1 PUSH2 0x468 JUMP JUMPDEST SWAP1 DUP2 MSTORE PUSH1 0x20 ADD PUSH1 0x40 MLOAD DUP1 SWAP2 SUB SWAP1 KECCAK256 DUP2 SWAP1 SSTORE POP PUSH1 0x8 PUSH1 0x1 PUSH1 0x40 MLOAD PUSH2 0x141 SWAP1 PUSH2 0x4C6 JUMP JUMPDEST SWAP1 DUP2 MSTORE PUSH1 0x20 ADD PUSH1 0x40 MLOAD DUP1 SWAP2 SUB SWAP1 KECCAK256 DUP2 SWAP1 SSTORE POP PUSH1 0x9 PUSH1 0x1 PUSH1 0x40 MLOAD PUSH2 0x163 SWAP1 PUSH2 0x524 JUMP JUMPDEST SWAP1 DUP2 MSTORE PUSH1 0x20 ADD PUSH1 0x40 MLOAD DUP1 SWAP2 SUB SWAP1 KECCAK256 DUP2 SWAP1 SSTORE POP PUSH1 0xA PUSH1 0x1 PUSH1 0x40 MLOAD PUSH2 0x185 SWAP1 PUSH2 0x582 JUMP JUMPDEST SWAP1 DUP2 MSTORE PUSH1 0x20 ADD PUSH1 0x40 MLOAD DUP1 SWAP2 SUB SWAP1 KECCAK256 DUP2 SWAP1 SSTORE POP PUSH1 0xB PUSH1 0x1 PUSH1 0x40 MLOAD PUSH2 0x1A7 SWAP1 PUSH2 0x5E0 JUMP JUMPDEST SWAP1 DUP2 MSTORE PUSH1 0x20 ADD PUSH1 0x40 MLOAD DUP1 SWAP2 SUB SWAP1 KECCAK256 DUP2 SWAP1 SSTORE POP PUSH1 0xC PUSH1 0x1 PUSH1 0x40 MLOAD PUSH2 0x1C9 SWAP1 PUSH2 0x63E JUMP JUMPDEST SWAP1 DUP2 MSTORE PUSH1 0x20 ADD PUSH1 0x40 MLOAD DUP1 SWAP2 SUB SWAP1 KECCAK256 DUP2 SWAP1 SSTORE POP PUSH2 0x652 JUMP JUMPDEST PUSH0 DUP2 SWAP1 POP SWAP3 SWAP2 POP POP JUMP JUMPDEST PUSH32 0x4A616E7561727900000000000000000000000000000000000000000000000000 PUSH0 DUP3 ADD MSTORE POP JUMP JUMPDEST PUSH0 PUSH2 0x21E PUSH1 0x7 DUP4 PUSH2 0x1E0 JUMP JUMPDEST SWAP2 POP PUSH2 0x229 DUP3 PUSH2 0x1EA JUMP JUMPDEST PUSH1 0x7 DUP3 ADD SWAP1 POP SWAP2 SWAP1 POP JUMP JUMPDEST PUSH0 PUSH2 0x23E DUP3 PUSH2 0x212 JUMP JUMPDEST SWAP2 POP DUP2 SWAP1 POP SWAP2 SWAP1 POP JUMP JUMPDEST PUSH32 0x4665627275617279000000000000000000000000000000000000000000000000 PUSH0 DUP3 ADD MSTORE POP JUMP JUMPDEST PUSH0 PUSH2 0x27C PUSH1 0x8 DUP4 PUSH2 0x1E0 JUMP JUMPDEST SWAP2 POP PUSH2 0x287 DUP3 PUSH2 0x248 JUMP JUMPDEST PUSH1 0x8 DUP3 ADD SWAP1 POP SWAP2 SWAP1 POP JUMP JUMPDEST PUSH0 PUSH2 0x29C DUP3 PUSH2 0x270 JUMP JUMPDEST SWAP2 POP DUP2 SWAP1 POP SWAP2 SWAP1 POP JUMP JUMPDEST PUSH32 0x4D61726368000000000000000000000000000000000000000000000000000000 PUSH0 DUP3 ADD MSTORE POP JUMP JUMPDEST PUSH0 PUSH2 0x2DA PUSH1 0x5 DUP4 PUSH2 0x1E0 JUMP JUMPDEST SWAP2 POP PUSH2 0x2E5 DUP3 PUSH2 0x2A6 JUMP JUMPDEST PUSH1 0x5 DUP3 ADD SWAP1 POP SWAP2 SWAP1 POP JUMP JUMPDEST PUSH0 PUSH2 0x2FA DUP3 PUSH2 0x2CE JUMP JUMPDEST SWAP2 POP DUP2 SWAP1 POP SWAP2 SWAP1 POP JUMP JUMPDEST PUSH32 0x417072696C000000000000000000000000000000000000000000000000000000 PUSH0 DUP3 ADD MSTORE POP JUMP JUMPDEST PUSH0 PUSH2 0x338 PUSH1 0x5 DUP4 PUSH2 0x1E0 JUMP JUMPDEST SWAP2 POP PUSH2 0x343 DUP3 PUSH2 0x304 JUMP JUMPDEST PUSH1 0x5 DUP3 ADD SWAP1 POP SWAP2 SWAP1 POP JUMP JUMPDEST PUSH0 PUSH2 0x358 DUP3 PUSH2 0x32C JUMP JUMPDEST SWAP2 POP DUP2 SWAP1 POP SWAP2 SWAP1 POP JUMP JUMPDEST PUSH32 0x4D61790000000000000000000000000000000000000000000000000000000000 PUSH0 DUP3 ADD MSTORE POP JUMP JUMPDEST PUSH0 PUSH2 0x396 PUSH1 0x3 DUP4 PUSH2 0x1E0 JUMP JUMPDEST SWAP2 POP PUSH2 0x3A1 DUP3 PUSH2 0x362 JUMP JUMPDEST PUSH1 0x3 DUP3 ADD SWAP1 POP SWAP2 SWAP1 POP JUMP JUMPDEST PUSH0 PUSH2 0x3B6 DUP3 PUSH2 0x38A JUMP JUMPDEST SWAP2 POP DUP2 SWAP1 POP SWAP2 SWAP1 POP JUMP JUMPDEST PUSH32 0x4A756E6500000000000000000000000000000000000000000000000000000000 PUSH0 DUP3 ADD MSTORE POP JUMP JUMPDEST PUSH0 PUSH2 0x3F4 PUSH1 0x4 DUP4 PUSH2 0x1E0 JUMP JUMPDEST SWAP2 POP PUSH2 0x3FF DUP3 PUSH2 0x3C0 JUMP JUMPDEST PUSH1 0x4 DUP3 ADD SWAP1 POP SWAP2 SWAP1 POP JUMP JUMPDEST PUSH0 PUSH2 0x414 DUP3 PUSH2 0x3E8 JUMP JUMPDEST SWAP2 POP DUP2 SWAP1 POP SWAP2 SWAP1 POP JUMP JUMPDEST PUSH32 0x4A756C7900000000000000000000000000000000000000000000000000000000 PUSH0 DUP3 ADD MSTORE POP JUMP JUMPDEST PUSH0 PUSH2 0x452 PUSH1 0x4 DUP4 PUSH2 0x1E0 JUMP JUMPDEST SWAP2 POP PUSH2 0x45D DUP3 PUSH2 0x41E JUMP JUMPDEST PUSH1 0x4 DUP3 ADD SWAP1 POP SWAP2 SWAP1 POP JUMP JUMPDEST PUSH0 PUSH2 0x472 DUP3 PUSH2 0x446 JUMP JUMPDEST SWAP2 POP DUP2 SWAP1 POP SWAP2 SWAP1 POP JUMP JUMPDEST PUSH32 0x4175677573740000000000000000000000000000000000000000000000000000 PUSH0 DUP3 ADD MSTORE POP JUMP JUMPDEST PUSH0 PUSH2 0x4B0 PUSH1 0x6 DUP4 PUSH2 0x1E0 JUMP JUMPDEST SWAP2 POP PUSH2 0x4BB DUP3 PUSH2 0x47C JUMP JUMPDEST PUSH1 0x6 DUP3 ADD SWAP1 POP SWAP2 SWAP1 POP JUMP JUMPDEST PUSH0 PUSH2 0x4D0 DUP3 PUSH2 0x4A4 JUMP JUMPDEST SWAP2 POP DUP2 SWAP1 POP SWAP2 SWAP1 POP JUMP JUMPDEST PUSH32 0x53657074656D6265720000000000000000000000000000000000000000000000 PUSH0 DUP3 ADD MSTORE POP JUMP JUMPDEST PUSH0 PUSH2 0x50E PUSH1 0x9 DUP4 PUSH2 0x1E0 JUMP JUMPDEST SWAP2 POP PUSH2 0x519 DUP3 PUSH2 0x4DA JUMP JUMPDEST PUSH1 0x9 DUP3 ADD SWAP1 POP SWAP2 SWAP1 POP JUMP JUMPDEST PUSH0 PUSH2 0x52E DUP3 PUSH2 0x502 JUMP JUMPDEST SWAP2 POP DUP2 SWAP1 POP SWAP2 SWAP1 POP JUMP JUMPDEST PUSH32 0x4F63746F62657200000000000000000000000000000000000000000000000000 PUSH0 DUP3 ADD MSTORE POP JUMP JUMPDEST PUSH0 PUSH2 0x56C PUSH1 0x7 DUP4 PUSH2 0x1E0 JUMP JUMPDEST SWAP2 POP PUSH2 0x577 DUP3 PUSH2 0x538 JUMP JUMPDEST PUSH1 0x7 DUP3 ADD SWAP1 POP SWAP2 SWAP1 POP JUMP JUMPDEST PUSH0 PUSH2 0x58C DUP3 PUSH2 0x560 JUMP JUMPDEST SWAP2 POP DUP2 SWAP1 POP SWAP2 SWAP1 POP JUMP JUMPDEST PUSH32 0x4E6F76656D626572000000000000000000000000000000000000000000000000 PUSH0 DUP3 ADD MSTORE POP JUMP JUMPDEST PUSH0 PUSH2 0x5CA PUSH1 0x8 DUP4 PUSH2 0x1E0 JUMP JUMPDEST SWAP2 POP PUSH2 0x5D5 DUP3 PUSH2 0x596 JUMP JUMPDEST PUSH1 0x8 DUP3 ADD SWAP1 POP SWAP2 SWAP1 POP JUMP JUMPDEST PUSH0 PUSH2 0x5EA DUP3 PUSH2 0x5BE JUMP JUMPDEST SWAP2 POP DUP2 SWAP1 POP SWAP2 SWAP1 POP JUMP JUMPDEST PUSH32 0x446563656D626572000000000000000000000000000000000000000000000000 PUSH0 DUP3 ADD MSTORE POP JUMP JUMPDEST PUSH0 PUSH2 0x628 PUSH1 0x8 DUP4 PUSH2 0x1E0 JUMP JUMPDEST SWAP2 POP PUSH2 0x633 DUP3 PUSH2 0x5F4 JUMP JUMPDEST PUSH1 0x8 DUP3 ADD SWAP1 POP SWAP2 SWAP1 POP JUMP JUMPDEST PUSH0 PUSH2 0x648 DUP3 PUSH2 0x61C JUMP JUMPDEST SWAP2 POP DUP2 SWAP1 POP SWAP2 SWAP1 POP JUMP JUMPDEST PUSH1 0x80 MLOAD PUSH2 0x271A PUSH2 0x678 PUSH0 CODECOPY PUSH0 DUP2 DUP2 PUSH2 0x132 ADD MSTORE DUP2 DUP2 PUSH2 0x156 ADD MSTORE PUSH2 0xA4E ADD MSTORE PUSH2 0x271A PUSH0 RETURN INVALID PUSH1 0x80 PUSH1 0x40 MSTORE PUSH1 0x4 CALLDATASIZE LT PUSH2 0x49 JUMPI PUSH0 CALLDATALOAD PUSH1 0xE0 SHR DUP1 PUSH4 0x8551A53 EQ PUSH2 0x4D JUMPI DUP1 PUSH4 0xEB874A7 EQ PUSH2 0x77 JUMPI DUP1 PUSH4 0x44FE27FA EQ PUSH2 0x9F JUMPI DUP1 PUSH4 0xD8D79700 EQ PUSH2 0xE4 JUMPI DUP1 PUSH4 0xF6D1CD25 EQ PUSH2 0xEE JUMPI JUMPDEST PUSH0 DUP1 REVERT JUMPDEST CALLVALUE DUP1 ISZERO PUSH2 0x58 JUMPI PUSH0 DUP1 REVERT JUMPDEST POP PUSH2 0x61 PUSH2 0x130 JUMP JUMPDEST PUSH1 0x40 MLOAD PUSH2 0x6E SWAP2 SWAP1 PUSH2 0x17AB JUMP JUMPDEST PUSH1 0x40 MLOAD DUP1 SWAP2 SUB SWAP1 RETURN JUMPDEST CALLVALUE DUP1 ISZERO PUSH2 0x82 JUMPI PUSH0 DUP1 REVERT JUMPDEST POP PUSH2 0x9D PUSH1 0x4 DUP1 CALLDATASIZE SUB DUP2 ADD SWAP1 PUSH2 0x98 SWAP2 SWAP1 PUSH2 0x188A JUMP JUMPDEST PUSH2 0x154 JUMP JUMPDEST STOP JUMPDEST CALLVALUE DUP1 ISZERO PUSH2 0xAA JUMPI PUSH0 DUP1 REVERT JUMPDEST POP PUSH2 0xC5 PUSH1 0x4 DUP1 CALLDATASIZE SUB DUP2 ADD SWAP1 PUSH2 0xC0 SWAP2 SWAP1 PUSH2 0x1947 JUMP JUMPDEST PUSH2 0x620 JUMP JUMPDEST PUSH1 0x40 MLOAD PUSH2 0xDB SWAP11 SWAP10 SWAP9 SWAP8 SWAP7 SWAP6 SWAP5 SWAP4 SWAP3 SWAP2 SWAP1 PUSH2 0x199B JUMP JUMPDEST PUSH1 0x40 MLOAD DUP1 SWAP2 SUB SWAP1 RETURN JUMPDEST PUSH2 0xEC PUSH2 0x67B JUMP JUMPDEST STOP JUMPDEST CALLVALUE DUP1 ISZERO PUSH2 0xF9 JUMPI PUSH0 DUP1 REVERT JUMPDEST POP PUSH2 0x114 PUSH1 0x4 DUP1 CALLDATASIZE SUB DUP2 ADD SWAP1 PUSH2 0x10F SWAP2 SWAP1 PUSH2 0x1947 JUMP JUMPDEST PUSH2 0xAB7 JUMP JUMPDEST PUSH1 0x40 MLOAD PUSH2 0x127 SWAP8 SWAP7 SWAP6 SWAP5 SWAP4 SWAP3 SWAP2 SWAP1 PUSH2 0x1AA5 JUMP JUMPDEST PUSH1 0x40 MLOAD DUP1 SWAP2 SUB SWAP1 RETURN JUMPDEST PUSH32 0x0 DUP2 JUMP JUMPDEST PUSH32 0x0 PUSH20 0xFFFFFFFFFFFFFFFFFFFFFFFFFFFFFFFFFFFFFFFF AND CALLER PUSH20 0xFFFFFFFFFFFFFFFFFFFFFFFFFFFFFFFFFFFFFFFF AND EQ PUSH2 0x1E2 JUMPI PUSH1 0x40 MLOAD PUSH32 0x8C379A000000000000000000000000000000000000000000000000000000000 DUP2 MSTORE PUSH1 0x4 ADD PUSH2 0x1D9 SWAP1 PUSH2 0x1B89 JUMP JUMPDEST PUSH1 0x40 MLOAD DUP1 SWAP2 SUB SWAP1 REVERT JUMPDEST PUSH0 DUP8 GT PUSH2 0x224 JUMPI PUSH1 0x40 MLOAD PUSH32 0x8C379A000000000000000000000000000000000000000000000000000000000 DUP2 MSTORE PUSH1 0x4 ADD PUSH2 0x21B SWAP1 PUSH2 0x1C17 JUMP JUMPDEST PUSH1 0x40 MLOAD DUP1 SWAP2 SUB SWAP1 REVERT JUMPDEST PUSH0 DUP7 GT PUSH2 0x266 JUMPI PUSH1 0x40 MLOAD PUSH32 0x8C379A000000000000000000000000000000000000000000000000000000000 DUP2 MSTORE PUSH1 0x4 ADD PUSH2 0x25D SWAP1 PUSH2 0x1CA5 JUMP JUMPDEST PUSH1 0x40 MLOAD DUP1 SWAP2 SUB SWAP1 REVERT JUMPDEST PUSH1 0x64 DUP6 GT ISZERO PUSH2 0x2AA JUMPI PUSH1 0x40 MLOAD PUSH32 0x8C379A000000000000000000000000000000000000000000000000000000000 DUP2 MSTORE PUSH1 0x4 ADD PUSH2 0x2A1 SWAP1 PUSH2 0x1D33 JUMP JUMPDEST PUSH1 0x40 MLOAD DUP1 SWAP2 SUB SWAP1 REVERT JUMPDEST PUSH0 DUP1 DUP10 PUSH20 0xFFFFFFFFFFFFFFFFFFFFFFFFFFFFFFFFFFFFFFFF AND PUSH20 0xFFFFFFFFFFFFFFFFFFFFFFFFFFFFFFFFFFFFFFFF AND DUP2 MSTORE PUSH1 0x20 ADD SWAP1 DUP2 MSTORE PUSH1 0x20 ADD PUSH0 KECCAK256 PUSH1 0x9 ADD PUSH0 SWAP1 SLOAD SWAP1 PUSH2 0x100 EXP SWAP1 DIV PUSH1 0xFF AND ISZERO PUSH2 0x336 JUMPI PUSH1 0x40 MLOAD PUSH32 0x8C379A000000000000000000000000000000000000000000000000000000000 DUP2 MSTORE PUSH1 0x4 ADD PUSH2 0x32D SWAP1 PUSH2 0x1D9B JUMP JUMPDEST PUSH1 0x40 MLOAD DUP1 SWAP2 SUB SWAP1 REVERT JUMPDEST PUSH0 PUSH1 0x1 DUP5 DUP5 PUSH1 0x40 MLOAD PUSH2 0x349 SWAP3 SWAP2 SWAP1 PUSH2 0x1DF5 JUMP JUMPDEST SWAP1 DUP2 MSTORE PUSH1 0x20 ADD PUSH1 0x40 MLOAD DUP1 SWAP2 SUB SWAP1 KECCAK256 SLOAD SUB PUSH2 0x398 JUMPI PUSH1 0x40 MLOAD PUSH32 0x8C379A000000000000000000000000000000000000000000000000000000000 DUP2 MSTORE PUSH1 0x4 ADD PUSH2 0x38F SWAP1 PUSH2 0x1E57 JUMP JUMPDEST PUSH1 0x40 MLOAD DUP1 SWAP2 SUB SWAP1 REVERT JUMPDEST PUSH0 DUP7 DUP9 PUSH2 0x3A5 SWAP2 SWAP1 PUSH2 0x1ECF JUMP JUMPDEST SWAP1 POP DUP8 DUP8 DUP3 PUSH2 0x3B4 SWAP2 SWAP1 PUSH2 0x1EFF JUMP JUMPDEST EQ PUSH2 0x3F4 JUMPI PUSH1 0x40 MLOAD PUSH32 0x8C379A000000000000000000000000000000000000000000000000000000000 DUP2 MSTORE PUSH1 0x4 ADD PUSH2 0x3EB SWAP1 PUSH2 0x1FB0 JUMP JUMPDEST PUSH1 0x40 MLOAD DUP1 SWAP2 SUB SWAP1 REVERT JUMPDEST PUSH0 PUSH2 0x443 DUP7 DUP7 DUP7 DUP1 DUP1 PUSH1 0x1F ADD PUSH1 0x20 DUP1 SWAP2 DIV MUL PUSH1 0x20 ADD PUSH1 0x40 MLOAD SWAP1 DUP2 ADD PUSH1 0x40 MSTORE DUP1 SWAP4 SWAP3 SWAP2 SWAP1 DUP2 DUP2 MSTORE PUSH1 0x20 ADD DUP4 DUP4 DUP1 DUP3 DUP5 CALLDATACOPY PUSH0 DUP2 DUP5 ADD MSTORE PUSH1 0x1F NOT PUSH1 0x1F DUP3 ADD AND SWAP1 POP DUP1 DUP4 ADD SWAP3 POP POP POP POP POP POP POP DUP6 PUSH2 0xBD3 JUMP JUMPDEST SWAP1 POP TIMESTAMP DUP2 GT PUSH2 0x487 JUMPI PUSH1 0x40 MLOAD PUSH32 0x8C379A000000000000000000000000000000000000000000000000000000000 DUP2 MSTORE PUSH1 0x4 ADD PUSH2 0x47E SWAP1 PUSH2 0x2018 JUMP JUMPDEST PUSH1 0x40 MLOAD DUP1 SWAP2 SUB SWAP1 REVERT JUMPDEST PUSH1 0x40 MLOAD DUP1 PUSH2 0x140 ADD PUSH1 0x40 MSTORE DUP1 DUP11 DUP2 MSTORE PUSH1 0x20 ADD DUP4 DUP2 MSTORE PUSH1 0x20 ADD DUP10 DUP2 MSTORE PUSH1 0x20 ADD DUP9 DUP2 MSTORE PUSH1 0x20 ADD DUP8 DUP2 MSTORE PUSH1 0x20 ADD DUP3 DUP2 MSTORE PUSH1 0x20 ADD DUP11 DUP2 MSTORE PUSH1 0x20 ADD DUP10 DUP2 MSTORE PUSH1 0x20 ADD PUSH0 DUP2 MSTORE PUSH1 0x20 ADD PUSH1 0x1 ISZERO ISZERO DUP2 MSTORE POP PUSH0 DUP1 DUP13 PUSH20 0xFFFFFFFFFFFFFFFFFFFFFFFFFFFFFFFFFFFFFFFF AND PUSH20 0xFFFFFFFFFFFFFFFFFFFFFFFFFFFFFFFFFFFFFFFF AND DUP2 MSTORE PUSH1 0x20 ADD SWAP1 DUP2 MSTORE PUSH1 0x20 ADD PUSH0 KECCAK256 PUSH0 DUP3 ADD MLOAD DUP2 PUSH0 ADD SSTORE PUSH1 0x20 DUP3 ADD MLOAD DUP2 PUSH1 0x1 ADD SSTORE PUSH1 0x40 DUP3 ADD MLOAD DUP2 PUSH1 0x2 ADD SSTORE PUSH1 0x60 DUP3 ADD MLOAD DUP2 PUSH1 0x3 ADD SSTORE PUSH1 0x80 DUP3 ADD MLOAD DUP2 PUSH1 0x4 ADD SSTORE PUSH1 0xA0 DUP3 ADD MLOAD DUP2 PUSH1 0x5 ADD SSTORE PUSH1 0xC0 DUP3 ADD MLOAD DUP2 PUSH1 0x6 ADD SSTORE PUSH1 0xE0 DUP3 ADD MLOAD DUP2 PUSH1 0x7 ADD SSTORE PUSH2 0x100 DUP3 ADD MLOAD DUP2 PUSH1 0x8 ADD SSTORE PUSH2 0x120 DUP3 ADD MLOAD DUP2 PUSH1 0x9 ADD PUSH0 PUSH2 0x100 EXP DUP2 SLOAD DUP2 PUSH1 0xFF MUL NOT AND SWAP1 DUP4 ISZERO ISZERO MUL OR SWAP1 SSTORE POP SWAP1 POP POP PUSH32 0xF53D727A402D62DF6BBFB212A7D9508C13DBFAC209E4473ACFB6EE07E026E9BD DUP11 DUP11 DUP5 DUP12 PUSH2 0x5FB DUP12 DUP12 DUP12 DUP1 DUP1 PUSH1 0x1F ADD PUSH1 0x20 DUP1 SWAP2 DIV MUL PUSH1 0x20 ADD PUSH1 0x40 MLOAD SWAP1 DUP2 ADD PUSH1 0x40 MSTORE DUP1 SWAP4 SWAP3 SWAP2 SWAP1 DUP2 DUP2 MSTORE PUSH1 0x20 ADD DUP4 DUP4 DUP1 DUP3 DUP5 CALLDATACOPY PUSH0 DUP2 DUP5 ADD MSTORE PUSH1 0x1F NOT PUSH1 0x1F DUP3 ADD AND SWAP1 POP DUP1 DUP4 ADD SWAP3 POP POP POP POP POP POP POP DUP11 PUSH2 0x1253 JUMP JUMPDEST PUSH1 0x40 MLOAD PUSH2 0x60C SWAP6 SWAP5 SWAP4 SWAP3 SWAP2 SWAP1 PUSH2 0x2036 JUMP JUMPDEST PUSH1 0x40 MLOAD DUP1 SWAP2 SUB SWAP1 LOG1 POP POP POP POP POP POP POP POP POP POP JUMP JUMPDEST PUSH0 PUSH1 0x20 MSTORE DUP1 PUSH0 MSTORE PUSH1 0x40 PUSH0 KECCAK256 PUSH0 SWAP2 POP SWAP1 POP DUP1 PUSH0 ADD SLOAD SWAP1 DUP1 PUSH1 0x1 ADD SLOAD SWAP1 DUP1 PUSH1 0x2 ADD SLOAD SWAP1 DUP1 PUSH1 0x3 ADD SLOAD SWAP1 DUP1 PUSH1 0x4 ADD SLOAD SWAP1 DUP1 PUSH1 0x5 ADD SLOAD SWAP1 DUP1 PUSH1 0x6 ADD SLOAD SWAP1 DUP1 PUSH1 0x7 ADD SLOAD SWAP1 DUP1 PUSH1 0x8 ADD SLOAD SWAP1 DUP1 PUSH1 0x9 ADD PUSH0 SWAP1 SLOAD SWAP1 PUSH2 0x100 EXP SWAP1 DIV PUSH1 0xFF AND SWAP1 POP DUP11 JUMP JUMPDEST PUSH0 DUP1 PUSH0 CALLER PUSH20 0xFFFFFFFFFFFFFFFFFFFFFFFFFFFFFFFFFFFFFFFF AND PUSH20 0xFFFFFFFFFFFFFFFFFFFFFFFFFFFFFFFFFFFFFFFF AND DUP2 MSTORE PUSH1 0x20 ADD SWAP1 DUP2 MSTORE PUSH1 0x20 ADD PUSH0 KECCAK256 SWAP1 POP DUP1 PUSH1 0x9 ADD PUSH0 SWAP1 SLOAD SWAP1 PUSH2 0x100 EXP SWAP1 DIV PUSH1 0xFF AND PUSH2 0x70A JUMPI PUSH1 0x40 MLOAD PUSH32 0x8C379A000000000000000000000000000000000000000000000000000000000 DUP2 MSTORE PUSH1 0x4 ADD PUSH2 0x701 SWAP1 PUSH2 0x20D8 JUMP JUMPDEST PUSH1 0x40 MLOAD DUP1 SWAP2 SUB SWAP1 REVERT JUMPDEST PUSH0 DUP2 PUSH1 0x6 ADD SLOAD GT PUSH2 0x750 JUMPI PUSH1 0x40 MLOAD PUSH32 0x8C379A000000000000000000000000000000000000000000000000000000000 DUP2 MSTORE PUSH1 0x4 ADD PUSH2 0x747 SWAP1 PUSH2 0x2140 JUMP JUMPDEST PUSH1 0x40 MLOAD DUP1 SWAP2 SUB SWAP1 REVERT JUMPDEST PUSH0 DUP2 PUSH1 0x1 ADD SLOAD SWAP1 POP PUSH0 DUP3 PUSH1 0x5 ADD SLOAD TIMESTAMP GT ISZERO PUSH2 0x860 JUMPI DUP3 PUSH1 0x8 ADD PUSH0 DUP2 SLOAD DUP1 SWAP3 SWAP2 SWAP1 PUSH2 0x779 SWAP1 PUSH2 0x215E JUMP JUMPDEST SWAP2 SWAP1 POP SSTORE POP PUSH1 0x64 DUP4 PUSH1 0x3 ADD SLOAD DUP5 PUSH1 0x6 ADD SLOAD PUSH2 0x794 SWAP2 SWAP1 PUSH2 0x1EFF JUMP JUMPDEST PUSH2 0x79E SWAP2 SWAP1 PUSH2 0x1ECF JUMP JUMPDEST SWAP1 POP DUP1 DUP3 PUSH2 0x7AC SWAP2 SWAP1 PUSH2 0x21A5 JUMP JUMPDEST SWAP2 POP PUSH1 0x3 DUP4 PUSH1 0x8 ADD SLOAD LT PUSH2 0x85F JUMPI PUSH0 DUP4 PUSH1 0x6 ADD SLOAD DUP5 PUSH0 ADD SLOAD PUSH2 0x7CE SWAP2 SWAP1 PUSH2 0x21D8 JUMP JUMPDEST SWAP1 POP PUSH0 DUP5 PUSH1 0x9 ADD PUSH0 PUSH2 0x100 EXP DUP2 SLOAD DUP2 PUSH1 0xFF MUL NOT AND SWAP1 DUP4 ISZERO ISZERO MUL OR SWAP1 SSTORE POP PUSH32 0x3352263F4EC66915F8F0D5AC61D11AC62DCF156D45AFDA15ECA475DDCE951AE1 CALLER DUP3 PUSH1 0x40 MLOAD PUSH2 0x81C SWAP3 SWAP2 SWAP1 PUSH2 0x220B JUMP JUMPDEST PUSH1 0x40 MLOAD DUP1 SWAP2 SUB SWAP1 LOG1 PUSH1 0x40 MLOAD PUSH32 0x8C379A000000000000000000000000000000000000000000000000000000000 DUP2 MSTORE PUSH1 0x4 ADD PUSH2 0x856 SWAP1 PUSH2 0x22A2 JUMP JUMPDEST PUSH1 0x40 MLOAD DUP1 SWAP2 SUB SWAP1 REVERT JUMPDEST JUMPDEST DUP2 CALLVALUE LT ISZERO PUSH2 0x8A3 JUMPI PUSH1 0x40 MLOAD PUSH32 0x8C379A000000000000000000000000000000000000000000000000000000000 DUP2 MSTORE PUSH1 0x4 ADD PUSH2 0x89A SWAP1 PUSH2 0x230A JUMP JUMPDEST PUSH1 0x40 MLOAD DUP1 SWAP2 SUB SWAP1 REVERT JUMPDEST DUP3 PUSH1 0x1 ADD SLOAD DUP4 PUSH1 0x6 ADD PUSH0 DUP3 DUP3 SLOAD PUSH2 0x8BA SWAP2 SWAP1 PUSH2 0x21D8 JUMP JUMPDEST SWAP3 POP POP DUP2 SWAP1 SSTORE POP PUSH0 PUSH2 0x7B2 PUSH3 0x15180 PUSH2 0x16D PUSH2 0x8D6 SWAP2 SWAP1 PUSH2 0x1EFF JUMP JUMPDEST DUP6 PUSH1 0x5 ADD SLOAD PUSH2 0x8E5 SWAP2 SWAP1 PUSH2 0x1ECF JUMP JUMPDEST PUSH2 0x8EF SWAP2 SWAP1 PUSH2 0x21A5 JUMP JUMPDEST SWAP1 POP PUSH0 PUSH1 0x1 PUSH3 0x15180 PUSH1 0x1E PUSH2 0x904 SWAP2 SWAP1 PUSH2 0x1EFF JUMP JUMPDEST PUSH3 0x15180 PUSH2 0x16D PUSH2 0x915 SWAP2 SWAP1 PUSH2 0x1EFF JUMP JUMPDEST DUP8 PUSH1 0x5 ADD SLOAD PUSH2 0x924 SWAP2 SWAP1 PUSH2 0x2328 JUMP JUMPDEST PUSH2 0x92E SWAP2 SWAP1 PUSH2 0x1ECF JUMP JUMPDEST PUSH2 0x938 SWAP2 SWAP1 PUSH2 0x21A5 JUMP JUMPDEST SWAP1 POP PUSH1 0x1 DUP2 PUSH2 0x947 SWAP2 SWAP1 PUSH2 0x21A5 JUMP JUMPDEST SWAP1 POP PUSH1 0xC DUP2 GT ISZERO PUSH2 0x966 JUMPI PUSH1 0x1 SWAP1 POP PUSH1 0x1 DUP3 PUSH2 0x963 SWAP2 SWAP1 PUSH2 0x21A5 JUMP JUMPDEST SWAP2 POP JUMPDEST PUSH2 0x97D DUP6 PUSH1 0x4 ADD SLOAD PUSH2 0x977 DUP4 PUSH2 0x1292 JUMP JUMPDEST DUP5 PUSH2 0xBD3 JUMP JUMPDEST DUP6 PUSH1 0x5 ADD DUP2 SWAP1 SSTORE POP DUP5 PUSH1 0x7 ADD PUSH0 DUP2 SLOAD DUP1 SWAP3 SWAP2 SWAP1 PUSH2 0x999 SWAP1 PUSH2 0x2358 JUMP JUMPDEST SWAP2 SWAP1 POP SSTORE POP PUSH0 DUP4 GT ISZERO PUSH2 0x9E0 JUMPI PUSH32 0x4B28C7DC138644F27518388387393ECBD08EF8D180A4A6799C954BE166A37AB3 CALLER DUP5 PUSH1 0x40 MLOAD PUSH2 0x9D7 SWAP3 SWAP2 SWAP1 PUSH2 0x220B JUMP JUMPDEST PUSH1 0x40 MLOAD DUP1 SWAP2 SUB SWAP1 LOG1 JUMPDEST PUSH32 0x8E4AA0897527F9D5629D6DAF3255E753BFDD9862C1B9803C200A8BD12D5B8625 CALLER DUP7 PUSH1 0x7 ADD SLOAD CALLVALUE DUP9 PUSH1 0x6 ADD SLOAD PUSH1 0x40 MLOAD PUSH2 0xA1D SWAP5 SWAP4 SWAP3 SWAP2 SWAP1 PUSH2 0x237F JUMP JUMPDEST PUSH1 0x40 MLOAD DUP1 SWAP2 SUB SWAP1 LOG1 PUSH0 DUP6 PUSH1 0x6 ADD SLOAD SUB PUSH2 0xA4C JUMPI PUSH0 DUP6 PUSH1 0x9 ADD PUSH0 PUSH2 0x100 EXP DUP2 SLOAD DUP2 PUSH1 0xFF MUL NOT AND SWAP1 DUP4 ISZERO ISZERO MUL OR SWAP1 SSTORE POP JUMPDEST PUSH32 0x0 PUSH20 0xFFFFFFFFFFFFFFFFFFFFFFFFFFFFFFFFFFFFFFFF AND PUSH2 0x8FC CALLVALUE SWAP1 DUP2 ISZERO MUL SWAP1 PUSH1 0x40 MLOAD PUSH0 PUSH1 0x40 MLOAD DUP1 DUP4 SUB DUP2 DUP6 DUP9 DUP9 CALL SWAP4 POP POP POP POP ISZERO DUP1 ISZERO PUSH2 0xAAF JUMPI RETURNDATASIZE PUSH0 DUP1 RETURNDATACOPY RETURNDATASIZE PUSH0 REVERT JUMPDEST POP POP POP POP POP POP JUMP JUMPDEST PUSH0 DUP1 PUSH0 PUSH1 0x60 PUSH0 DUP1 PUSH0 DUP1 PUSH0 DUP1 DUP11 PUSH20 0xFFFFFFFFFFFFFFFFFFFFFFFFFFFFFFFFFFFFFFFF AND PUSH20 0xFFFFFFFFFFFFFFFFFFFFFFFFFFFFFFFFFFFFFFFF AND DUP2 MSTORE PUSH1 0x20 ADD SWAP1 DUP2 MSTORE PUSH1 0x20 ADD PUSH0 KECCAK256 SWAP1 POP PUSH0 PUSH2 0x7B2 PUSH3 0x15180 PUSH2 0x16D PUSH2 0xB13 SWAP2 SWAP1 PUSH2 0x1EFF JUMP JUMPDEST DUP4 PUSH1 0x5 ADD SLOAD PUSH2 0xB22 SWAP2 SWAP1 PUSH2 0x1ECF JUMP JUMPDEST PUSH2 0xB2C SWAP2 SWAP1 PUSH2 0x21A5 JUMP JUMPDEST SWAP1 POP PUSH0 PUSH1 0x1 PUSH3 0x15180 PUSH1 0x1E PUSH2 0xB41 SWAP2 SWAP1 PUSH2 0x1EFF JUMP JUMPDEST PUSH3 0x15180 PUSH2 0x16D PUSH2 0xB52 SWAP2 SWAP1 PUSH2 0x1EFF JUMP JUMPDEST DUP6 PUSH1 0x5 ADD SLOAD PUSH2 0xB61 SWAP2 SWAP1 PUSH2 0x2328 JUMP JUMPDEST PUSH2 0xB6B SWAP2 SWAP1 PUSH2 0x1ECF JUMP JUMPDEST PUSH2 0xB75 SWAP2 SWAP1 PUSH2 0x21A5 JUMP JUMPDEST SWAP1 POP DUP3 PUSH0 ADD SLOAD DUP4 PUSH1 0x1 ADD SLOAD DUP5 PUSH1 0x6 ADD SLOAD PUSH2 0xB9C DUP7 PUSH1 0x4 ADD SLOAD PUSH2 0xB96 DUP7 PUSH2 0x1292 JUMP JUMPDEST DUP8 PUSH2 0x1253 JUMP JUMPDEST DUP7 PUSH1 0x7 ADD SLOAD DUP8 PUSH1 0x8 ADD SLOAD DUP9 PUSH1 0x9 ADD PUSH0 SWAP1 SLOAD SWAP1 PUSH2 0x100 EXP SWAP1 DIV PUSH1 0xFF AND SWAP10 POP SWAP10 POP SWAP10 POP SWAP10 POP SWAP10 POP SWAP10 POP SWAP10 POP POP POP POP SWAP2 SWAP4 SWAP6 SWAP8 SWAP1 SWAP3 SWAP5 SWAP7 POP JUMP JUMPDEST PUSH0 DUP1 DUP5 GT DUP1 ISZERO PUSH2 0xBE4 JUMPI POP PUSH1 0x1F DUP5 GT ISZERO JUMPDEST PUSH2 0xC23 JUMPI PUSH1 0x40 MLOAD PUSH32 0x8C379A000000000000000000000000000000000000000000000000000000000 DUP2 MSTORE PUSH1 0x4 ADD PUSH2 0xC1A SWAP1 PUSH2 0x240C JUMP JUMPDEST PUSH1 0x40 MLOAD DUP1 SWAP2 SUB SWAP1 REVERT JUMPDEST PUSH2 0x7E8 DUP3 LT ISZERO PUSH2 0xC68 JUMPI PUSH1 0x40 MLOAD PUSH32 0x8C379A000000000000000000000000000000000000000000000000000000000 DUP2 MSTORE PUSH1 0x4 ADD PUSH2 0xC5F SWAP1 PUSH2 0x2474 JUMP JUMPDEST PUSH1 0x40 MLOAD DUP1 SWAP2 SUB SWAP1 REVERT JUMPDEST PUSH0 PUSH1 0x40 MLOAD DUP1 PUSH1 0x40 ADD PUSH1 0x40 MSTORE DUP1 PUSH1 0x7 DUP2 MSTORE PUSH1 0x20 ADD PUSH32 0x4A616E7561727900000000000000000000000000000000000000000000000000 DUP2 MSTORE POP DUP1 MLOAD SWAP1 PUSH1 0x20 ADD KECCAK256 DUP5 DUP1 MLOAD SWAP1 PUSH1 0x20 ADD KECCAK256 SUB PUSH2 0xCBC JUMPI PUSH1 0x1 SWAP1 POP PUSH2 0x1093 JUMP JUMPDEST PUSH1 0x40 MLOAD DUP1 PUSH1 0x40 ADD PUSH1 0x40 MSTORE DUP1 PUSH1 0x8 DUP2 MSTORE PUSH1 0x20 ADD PUSH32 0x4665627275617279000000000000000000000000000000000000000000000000 DUP2 MSTORE POP DUP1 MLOAD SWAP1 PUSH1 0x20 ADD KECCAK256 DUP5 DUP1 MLOAD SWAP1 PUSH1 0x20 ADD KECCAK256 SUB PUSH2 0xD0F JUMPI PUSH1 0x2 SWAP1 POP PUSH2 0x1092 JUMP JUMPDEST PUSH1 0x40 MLOAD DUP1 PUSH1 0x40 ADD PUSH1 0x40 MSTORE DUP1 PUSH1 0x5 DUP2 MSTORE PUSH1 0x20 ADD PUSH32 0x4D61726368000000000000000000000000000000000000000000000000000000 DUP2 MSTORE POP DUP1 MLOAD SWAP1 PUSH1 0x20 ADD KECCAK256 DUP5 DUP1 MLOAD SWAP1 PUSH1 0x20 ADD KECCAK256 SUB PUSH2 0xD62 JUMPI PUSH1 0x3 SWAP1 POP PUSH2 0x1091 JUMP JUMPDEST PUSH1 0x40 MLOAD DUP1 PUSH1 0x40 ADD PUSH1 0x40 MSTORE DUP1 PUSH1 0x5 DUP2 MSTORE PUSH1 0x20 ADD PUSH32 0x417072696C000000000000000000000000000000000000000000000000000000 DUP2 MSTORE POP DUP1 MLOAD SWAP1 PUSH1 0x20 ADD KECCAK256 DUP5 DUP1 MLOAD SWAP1 PUSH1 0x20 ADD KECCAK256 SUB PUSH2 0xDB5 JUMPI PUSH1 0x4 SWAP1 POP PUSH2 0x1090 JUMP JUMPDEST PUSH1 0x40 MLOAD DUP1 PUSH1 0x40 ADD PUSH1 0x40 MSTORE DUP1 PUSH1 0x3 DUP2 MSTORE PUSH1 0x20 ADD PUSH32 0x4D61790000000000000000000000000000000000000000000000000000000000 DUP2 MSTORE POP DUP1 MLOAD SWAP1 PUSH1 0x20 ADD KECCAK256 DUP5 DUP1 MLOAD SWAP1 PUSH1 0x20 ADD KECCAK256 SUB PUSH2 0xE08 JUMPI PUSH1 0x5 SWAP1 POP PUSH2 0x108F JUMP JUMPDEST PUSH1 0x40 MLOAD DUP1 PUSH1 0x40 ADD PUSH1 0x40 MSTORE DUP1 PUSH1 0x4 DUP2 MSTORE PUSH1 0x20 ADD PUSH32 0x4A756E6500000000000000000000000000000000000000000000000000000000 DUP2 MSTORE POP DUP1 MLOAD SWAP1 PUSH1 0x20 ADD KECCAK256 DUP5 DUP1 MLOAD SWAP1 PUSH1 0x20 ADD KECCAK256 SUB PUSH2 0xE5B JUMPI PUSH1 0x6 SWAP1 POP PUSH2 0x108E JUMP JUMPDEST PUSH1 0x40 MLOAD DUP1 PUSH1 0x40 ADD PUSH1 0x40 MSTORE DUP1 PUSH1 0x4 DUP2 MSTORE PUSH1 0x20 ADD PUSH32 0x4A756C7900000000000000000000000000000000000000000000000000000000 DUP2 MSTORE POP DUP1 MLOAD SWAP1 PUSH1 0x20 ADD KECCAK256 DUP5 DUP1 MLOAD SWAP1 PUSH1 0x20 ADD KECCAK256 SUB PUSH2 0xEAE JUMPI PUSH1 0x7 SWAP1 POP PUSH2 0x108D JUMP JUMPDEST PUSH1 0x40 MLOAD DUP1 PUSH1 0x40 ADD PUSH1 0x40 MSTORE DUP1 PUSH1 0x6 DUP2 MSTORE PUSH1 0x20 ADD PUSH32 0x4175677573740000000000000000000000000000000000000000000000000000 DUP2 MSTORE POP DUP1 MLOAD SWAP1 PUSH1 0x20 ADD KECCAK256 DUP5 DUP1 MLOAD SWAP1 PUSH1 0x20 ADD KECCAK256 SUB PUSH2 0xF01 JUMPI PUSH1 0x8 SWAP1 POP PUSH2 0x108C JUMP JUMPDEST PUSH1 0x40 MLOAD DUP1 PUSH1 0x40 ADD PUSH1 0x40 MSTORE DUP1 PUSH1 0x9 DUP2 MSTORE PUSH1 0x20 ADD PUSH32 0x53657074656D6265720000000000000000000000000000000000000000000000 DUP2 MSTORE POP DUP1 MLOAD SWAP1 PUSH1 0x20 ADD KECCAK256 DUP5 DUP1 MLOAD SWAP1 PUSH1 0x20 ADD KECCAK256 SUB PUSH2 0xF54 JUMPI PUSH1 0x9 SWAP1 POP PUSH2 0x108B JUMP JUMPDEST PUSH1 0x40 MLOAD DUP1 PUSH1 0x40 ADD PUSH1 0x40 MSTORE DUP1 PUSH1 0x7 DUP2 MSTORE PUSH1 0x20 ADD PUSH32 0x4F63746F62657200000000000000000000000000000000000000000000000000 DUP2 MSTORE POP DUP1 MLOAD SWAP1 PUSH1 0x20 ADD KECCAK256 DUP5 DUP1 MLOAD SWAP1 PUSH1 0x20 ADD KECCAK256 SUB PUSH2 0xFA7 JUMPI PUSH1 0xA SWAP1 POP PUSH2 0x108A JUMP JUMPDEST PUSH1 0x40 MLOAD DUP1 PUSH1 0x40 ADD PUSH1 0x40 MSTORE DUP1 PUSH1 0x8 DUP2 MSTORE PUSH1 0x20 ADD PUSH32 0x4E6F76656D626572000000000000000000000000000000000000000000000000 DUP2 MSTORE POP DUP1 MLOAD SWAP1 PUSH1 0x20 ADD KECCAK256 DUP5 DUP1 MLOAD SWAP1 PUSH1 0x20 ADD KECCAK256 SUB PUSH2 0xFFA JUMPI PUSH1 0xB SWAP1 POP PUSH2 0x1089 JUMP JUMPDEST PUSH1 0x40 MLOAD DUP1 PUSH1 0x40 ADD PUSH1 0x40 MSTORE DUP1 PUSH1 0x8 DUP2 MSTORE PUSH1 0x20 ADD PUSH32 0x446563656D626572000000000000000000000000000000000000000000000000 DUP2 MSTORE POP DUP1 MLOAD SWAP1 PUSH1 0x20 ADD KECCAK256 DUP5 DUP1 MLOAD SWAP1 PUSH1 0x20 ADD KECCAK256 SUB PUSH2 0x104D JUMPI PUSH1 0xC SWAP1 POP PUSH2 0x1088 JUMP JUMPDEST PUSH1 0x40 MLOAD PUSH32 0x8C379A000000000000000000000000000000000000000000000000000000000 DUP2 MSTORE PUSH1 0x4 ADD PUSH2 0x107F SWAP1 PUSH2 0x24DC JUMP JUMPDEST PUSH1 0x40 MLOAD DUP1 SWAP2 SUB SWAP1 REVERT JUMPDEST JUMPDEST JUMPDEST JUMPDEST JUMPDEST JUMPDEST JUMPDEST JUMPDEST JUMPDEST JUMPDEST JUMPDEST JUMPDEST PUSH1 0x2 DUP2 SUB PUSH2 0x1136 JUMPI PUSH0 DUP1 PUSH1 0x4 DUP6 PUSH2 0x10AA SWAP2 SWAP1 PUSH2 0x2328 JUMP JUMPDEST EQ DUP1 ISZERO PUSH2 0x10C3 JUMPI POP PUSH0 PUSH1 0x64 DUP6 PUSH2 0x10C0 SWAP2 SWAP1 PUSH2 0x2328 JUMP JUMPDEST EQ ISZERO JUMPDEST DUP1 PUSH2 0x10DA JUMPI POP PUSH0 PUSH2 0x190 DUP6 PUSH2 0x10D8 SWAP2 SWAP1 PUSH2 0x2328 JUMP JUMPDEST EQ JUMPDEST SWAP1 POP DUP1 PUSH2 0x10E8 JUMPI PUSH1 0x1C PUSH2 0x10EB JUMP JUMPDEST PUSH1 0x1D JUMPDEST PUSH1 0xFF AND DUP7 GT ISZERO PUSH2 0x1130 JUMPI PUSH1 0x40 MLOAD PUSH32 0x8C379A000000000000000000000000000000000000000000000000000000000 DUP2 MSTORE PUSH1 0x4 ADD PUSH2 0x1127 SWAP1 PUSH2 0x2544 JUMP JUMPDEST PUSH1 0x40 MLOAD DUP1 SWAP2 SUB SWAP1 REVERT JUMPDEST POP PUSH2 0x11A6 JUMP JUMPDEST PUSH1 0x4 DUP2 EQ DUP1 PUSH2 0x1145 JUMPI POP PUSH1 0x6 DUP2 EQ JUMPDEST DUP1 PUSH2 0x1150 JUMPI POP PUSH1 0x9 DUP2 EQ JUMPDEST DUP1 PUSH2 0x115B JUMPI POP PUSH1 0xB DUP2 EQ JUMPDEST ISZERO PUSH2 0x11A5 JUMPI PUSH1 0x1E DUP6 GT ISZERO PUSH2 0x11A4 JUMPI PUSH1 0x40 MLOAD PUSH32 0x8C379A000000000000000000000000000000000000000000000000000000000 DUP2 MSTORE PUSH1 0x4 ADD PUSH2 0x119B SWAP1 PUSH2 0x25AC JUMP JUMPDEST PUSH1 0x40 MLOAD DUP1 SWAP2 SUB SWAP1 REVERT JUMPDEST JUMPDEST JUMPDEST PUSH3 0x15180 PUSH1 0x1 DUP7 PUSH2 0x11B7 SWAP2 SWAP1 PUSH2 0x21D8 JUMP JUMPDEST PUSH2 0x11C1 SWAP2 SWAP1 PUSH2 0x1EFF JUMP JUMPDEST PUSH3 0x15180 PUSH1 0x1E PUSH1 0x1 DUP5 PUSH2 0x11D4 SWAP2 SWAP1 PUSH2 0x21D8 JUMP JUMPDEST PUSH2 0x11DE SWAP2 SWAP1 PUSH2 0x1EFF JUMP JUMPDEST PUSH2 0x11E8 SWAP2 SWAP1 PUSH2 0x1EFF JUMP JUMPDEST PUSH3 0x15180 PUSH1 0x4 PUSH2 0x7B1 DUP8 PUSH2 0x11FC SWAP2 SWAP1 PUSH2 0x21D8 JUMP JUMPDEST PUSH2 0x1206 SWAP2 SWAP1 PUSH2 0x1ECF JUMP JUMPDEST PUSH2 0x16D PUSH2 0x7B2 DUP9 PUSH2 0x1217 SWAP2 SWAP1 PUSH2 0x21D8 JUMP JUMPDEST PUSH2 0x1221 SWAP2 SWAP1 PUSH2 0x1EFF JUMP JUMPDEST PUSH2 0x122B SWAP2 SWAP1 PUSH2 0x21A5 JUMP JUMPDEST PUSH2 0x1235 SWAP2 SWAP1 PUSH2 0x1EFF JUMP JUMPDEST PUSH2 0x123F SWAP2 SWAP1 PUSH2 0x21A5 JUMP JUMPDEST PUSH2 0x1249 SWAP2 SWAP1 PUSH2 0x21A5 JUMP JUMPDEST SWAP2 POP POP SWAP4 SWAP3 POP POP POP JUMP JUMPDEST PUSH1 0x60 PUSH2 0x125E DUP5 PUSH2 0x160E JUMP JUMPDEST DUP4 PUSH2 0x1268 DUP5 PUSH2 0x160E JUMP JUMPDEST PUSH1 0x40 MLOAD PUSH1 0x20 ADD PUSH2 0x127A SWAP4 SWAP3 SWAP2 SWAP1 PUSH2 0x2644 JUMP JUMPDEST PUSH1 0x40 MLOAD PUSH1 0x20 DUP2 DUP4 SUB SUB DUP2 MSTORE SWAP1 PUSH1 0x40 MSTORE SWAP1 POP SWAP4 SWAP3 POP POP POP JUMP JUMPDEST PUSH1 0x60 PUSH1 0x1 DUP3 SUB PUSH2 0x12D9 JUMPI PUSH1 0x40 MLOAD DUP1 PUSH1 0x40 ADD PUSH1 0x40 MSTORE DUP1 PUSH1 0x7 DUP2 MSTORE PUSH1 0x20 ADD PUSH32 0x4A616E7561727900000000000000000000000000000000000000000000000000 DUP2 MSTORE POP SWAP1 POP PUSH2 0x1609 JUMP JUMPDEST PUSH1 0x2 DUP3 SUB PUSH2 0x131E JUMPI PUSH1 0x40 MLOAD DUP1 PUSH1 0x40 ADD PUSH1 0x40 MSTORE DUP1 PUSH1 0x8 DUP2 MSTORE PUSH1 0x20 ADD PUSH32 0x4665627275617279000000000000000000000000000000000000000000000000 DUP2 MSTORE POP SWAP1 POP PUSH2 0x1609 JUMP JUMPDEST PUSH1 0x3 DUP3 SUB PUSH2 0x1363 JUMPI PUSH1 0x40 MLOAD DUP1 PUSH1 0x40 ADD PUSH1 0x40 MSTORE DUP1 PUSH1 0x5 DUP2 MSTORE PUSH1 0x20 ADD PUSH32 0x4D61726368000000000000000000000000000000000000000000000000000000 DUP2 MSTORE POP SWAP1 POP PUSH2 0x1609 JUMP JUMPDEST PUSH1 0x4 DUP3 SUB PUSH2 0x13A8 JUMPI PUSH1 0x40 MLOAD DUP1 PUSH1 0x40 ADD PUSH1 0x40 MSTORE DUP1 PUSH1 0x5 DUP2 MSTORE PUSH1 0x20 ADD PUSH32 0x417072696C000000000000000000000000000000000000000000000000000000 DUP2 MSTORE POP SWAP1 POP PUSH2 0x1609 JUMP JUMPDEST PUSH1 0x5 DUP3 SUB PUSH2 0x13ED JUMPI PUSH1 0x40 MLOAD DUP1 PUSH1 0x40 ADD PUSH1 0x40 MSTORE DUP1 PUSH1 0x3 DUP2 MSTORE PUSH1 0x20 ADD PUSH32 0x4D61790000000000000000000000000000000000000000000000000000000000 DUP2 MSTORE POP SWAP1 POP PUSH2 0x1609 JUMP JUMPDEST PUSH1 0x6 DUP3 SUB PUSH2 0x1432 JUMPI PUSH1 0x40 MLOAD DUP1 PUSH1 0x40 ADD PUSH1 0x40 MSTORE DUP1 PUSH1 0x4 DUP2 MSTORE PUSH1 0x20 ADD PUSH32 0x4A756E6500000000000000000000000000000000000000000000000000000000 DUP2 MSTORE POP SWAP1 POP PUSH2 0x1609 JUMP JUMPDEST PUSH1 0x7 DUP3 SUB PUSH2 0x1477 JUMPI PUSH1 0x40 MLOAD DUP1 PUSH1 0x40 ADD PUSH1 0x40 MSTORE DUP1 PUSH1 0x4 DUP2 MSTORE PUSH1 0x20 ADD PUSH32 0x4A756C7900000000000000000000000000000000000000000000000000000000 DUP2 MSTORE POP SWAP1 POP PUSH2 0x1609 JUMP JUMPDEST PUSH1 0x8 DUP3 SUB PUSH2 0x14BC JUMPI PUSH1 0x40 MLOAD DUP1 PUSH1 0x40 ADD PUSH1 0x40 MSTORE DUP1 PUSH1 0x6 DUP2 MSTORE PUSH1 0x20 ADD PUSH32 0x4175677573740000000000000000000000000000000000000000000000000000 DUP2 MSTORE POP SWAP1 POP PUSH2 0x1609 JUMP JUMPDEST PUSH1 0x9 DUP3 SUB PUSH2 0x1501 JUMPI PUSH1 0x40 MLOAD DUP1 PUSH1 0x40 ADD PUSH1 0x40 MSTORE DUP1 PUSH1 0x9 DUP2 MSTORE PUSH1 0x20 ADD PUSH32 0x53657074656D6265720000000000000000000000000000000000000000000000 DUP2 MSTORE POP SWAP1 POP PUSH2 0x1609 JUMP JUMPDEST PUSH1 0xA DUP3 SUB PUSH2 0x1546 JUMPI PUSH1 0x40 MLOAD DUP1 PUSH1 0x40 ADD PUSH1 0x40 MSTORE DUP1 PUSH1 0x7 DUP2 MSTORE PUSH1 0x20 ADD PUSH32 0x4F63746F62657200000000000000000000000000000000000000000000000000 DUP2 MSTORE POP SWAP1 POP PUSH2 0x1609 JUMP JUMPDEST PUSH1 0xB DUP3 SUB PUSH2 0x158B JUMPI PUSH1 0x40 MLOAD DUP1 PUSH1 0x40 ADD PUSH1 0x40 MSTORE DUP1 PUSH1 0x8 DUP2 MSTORE PUSH1 0x20 ADD PUSH32 0x4E6F76656D626572000000000000000000000000000000000000000000000000 DUP2 MSTORE POP SWAP1 POP PUSH2 0x1609 JUMP JUMPDEST PUSH1 0xC DUP3 SUB PUSH2 0x15D0 JUMPI PUSH1 0x40 MLOAD DUP1 PUSH1 0x40 ADD PUSH1 0x40 MSTORE DUP1 PUSH1 0x8 DUP2 MSTORE PUSH1 0x20 ADD PUSH32 0x446563656D626572000000000000000000000000000000000000000000000000 DUP2 MSTORE POP SWAP1 POP PUSH2 0x1609 JUMP JUMPDEST PUSH1 0x40 MLOAD DUP1 PUSH1 0x40 ADD PUSH1 0x40 MSTORE DUP1 PUSH1 0xD DUP2 MSTORE PUSH1 0x20 ADD PUSH32 0x496E76616C6964204D6F6E746800000000000000000000000000000000000000 DUP2 MSTORE POP SWAP1 POP JUMPDEST SWAP2 SWAP1 POP JUMP JUMPDEST PUSH1 0x60 PUSH0 DUP3 SUB PUSH2 0x1654 JUMPI PUSH1 0x40 MLOAD DUP1 PUSH1 0x40 ADD PUSH1 0x40 MSTORE DUP1 PUSH1 0x1 DUP2 MSTORE PUSH1 0x20 ADD PUSH32 0x3000000000000000000000000000000000000000000000000000000000000000 DUP2 MSTORE POP SWAP1 POP PUSH2 0x1767 JUMP JUMPDEST PUSH0 DUP3 SWAP1 POP PUSH0 JUMPDEST PUSH0 DUP3 EQ PUSH2 0x1683 JUMPI DUP1 DUP1 PUSH2 0x166C SWAP1 PUSH2 0x215E JUMP JUMPDEST SWAP2 POP POP PUSH1 0xA DUP3 PUSH2 0x167C SWAP2 SWAP1 PUSH2 0x1ECF JUMP JUMPDEST SWAP2 POP PUSH2 0x165A JUMP JUMPDEST PUSH0 DUP2 PUSH8 0xFFFFFFFFFFFFFFFF DUP2 GT ISZERO PUSH2 0x169E JUMPI PUSH2 0x169D PUSH2 0x268A JUMP JUMPDEST JUMPDEST PUSH1 0x40 MLOAD SWAP1 DUP1 DUP3 MSTORE DUP1 PUSH1 0x1F ADD PUSH1 0x1F NOT AND PUSH1 0x20 ADD DUP3 ADD PUSH1 0x40 MSTORE DUP1 ISZERO PUSH2 0x16D0 JUMPI DUP2 PUSH1 0x20 ADD PUSH1 0x1 DUP3 MUL DUP1 CALLDATASIZE DUP4 CALLDATACOPY DUP1 DUP3 ADD SWAP2 POP POP SWAP1 POP JUMPDEST POP SWAP1 POP PUSH0 DUP3 SWAP1 POP DUP6 SWAP4 POP JUMPDEST PUSH0 DUP5 EQ PUSH2 0x175F JUMPI PUSH1 0xA DUP5 PUSH2 0x16EF SWAP2 SWAP1 PUSH2 0x2328 JUMP JUMPDEST PUSH1 0x30 PUSH2 0x16FB SWAP2 SWAP1 PUSH2 0x21A5 JUMP JUMPDEST PUSH1 0xF8 SHL DUP3 DUP3 PUSH2 0x1709 SWAP1 PUSH2 0x2358 JUMP JUMPDEST SWAP3 POP DUP3 DUP2 MLOAD DUP2 LT PUSH2 0x171D JUMPI PUSH2 0x171C PUSH2 0x26B7 JUMP JUMPDEST JUMPDEST PUSH1 0x20 ADD ADD SWAP1 PUSH31 0xFFFFFFFFFFFFFFFFFFFFFFFFFFFFFFFFFFFFFFFFFFFFFFFFFFFFFFFFFFFFFF NOT AND SWAP1 DUP2 PUSH0 BYTE SWAP1 MSTORE8 POP PUSH1 0xA DUP5 PUSH2 0x1758 SWAP2 SWAP1 PUSH2 0x1ECF JUMP JUMPDEST SWAP4 POP PUSH2 0x16DB JUMP JUMPDEST DUP2 SWAP5 POP POP POP POP POP JUMPDEST SWAP2 SWAP1 POP JUMP JUMPDEST PUSH0 PUSH20 0xFFFFFFFFFFFFFFFFFFFFFFFFFFFFFFFFFFFFFFFF DUP3 AND SWAP1 POP SWAP2 SWAP1 POP JUMP JUMPDEST PUSH0 PUSH2 0x1795 DUP3 PUSH2 0x176C JUMP JUMPDEST SWAP1 POP SWAP2 SWAP1 POP JUMP JUMPDEST PUSH2 0x17A5 DUP2 PUSH2 0x178B JUMP JUMPDEST DUP3 MSTORE POP POP JUMP JUMPDEST PUSH0 PUSH1 0x20 DUP3 ADD SWAP1 POP PUSH2 0x17BE PUSH0 DUP4 ADD DUP5 PUSH2 0x179C JUMP JUMPDEST SWAP3 SWAP2 POP POP JUMP JUMPDEST PUSH0 DUP1 REVERT JUMPDEST PUSH0 DUP1 REVERT JUMPDEST PUSH2 0x17D5 DUP2 PUSH2 0x178B JUMP JUMPDEST DUP2 EQ PUSH2 0x17DF JUMPI PUSH0 DUP1 REVERT JUMPDEST POP JUMP JUMPDEST PUSH0 DUP2 CALLDATALOAD SWAP1 POP PUSH2 0x17F0 DUP2 PUSH2 0x17CC JUMP JUMPDEST SWAP3 SWAP2 POP POP JUMP JUMPDEST PUSH0 DUP2 SWAP1 POP SWAP2 SWAP1 POP JUMP JUMPDEST PUSH2 0x1808 DUP2 PUSH2 0x17F6 JUMP JUMPDEST DUP2 EQ PUSH2 0x1812 JUMPI PUSH0 DUP1 REVERT JUMPDEST POP JUMP JUMPDEST PUSH0 DUP2 CALLDATALOAD SWAP1 POP PUSH2 0x1823 DUP2 PUSH2 0x17FF JUMP JUMPDEST SWAP3 SWAP2 POP POP JUMP JUMPDEST PUSH0 DUP1 REVERT JUMPDEST PUSH0 DUP1 REVERT JUMPDEST PUSH0 DUP1 REVERT JUMPDEST PUSH0 DUP1 DUP4 PUSH1 0x1F DUP5 ADD SLT PUSH2 0x184A JUMPI PUSH2 0x1849 PUSH2 0x1829 JUMP JUMPDEST JUMPDEST DUP3 CALLDATALOAD SWAP1 POP PUSH8 0xFFFFFFFFFFFFFFFF DUP2 GT ISZERO PUSH2 0x1867 JUMPI PUSH2 0x1866 PUSH2 0x182D JUMP JUMPDEST JUMPDEST PUSH1 0x20 DUP4 ADD SWAP2 POP DUP4 PUSH1 0x1 DUP3 MUL DUP4 ADD GT ISZERO PUSH2 0x1883 JUMPI PUSH2 0x1882 PUSH2 0x1831 JUMP JUMPDEST JUMPDEST SWAP3 POP SWAP3 SWAP1 POP JUMP JUMPDEST PUSH0 DUP1 PUSH0 DUP1 PUSH0 DUP1 PUSH0 DUP1 PUSH1 0xE0 DUP10 DUP12 SUB SLT ISZERO PUSH2 0x18A6 JUMPI PUSH2 0x18A5 PUSH2 0x17C4 JUMP JUMPDEST JUMPDEST PUSH0 PUSH2 0x18B3 DUP12 DUP3 DUP13 ADD PUSH2 0x17E2 JUMP JUMPDEST SWAP9 POP POP PUSH1 0x20 PUSH2 0x18C4 DUP12 DUP3 DUP13 ADD PUSH2 0x1815 JUMP JUMPDEST SWAP8 POP POP PUSH1 0x40 PUSH2 0x18D5 DUP12 DUP3 DUP13 ADD PUSH2 0x1815 JUMP JUMPDEST SWAP7 POP POP PUSH1 0x60 PUSH2 0x18E6 DUP12 DUP3 DUP13 ADD PUSH2 0x1815 JUMP JUMPDEST SWAP6 POP POP PUSH1 0x80 PUSH2 0x18F7 DUP12 DUP3 DUP13 ADD PUSH2 0x1815 JUMP JUMPDEST SWAP5 POP POP PUSH1 0xA0 DUP10 ADD CALLDATALOAD PUSH8 0xFFFFFFFFFFFFFFFF DUP2 GT ISZERO PUSH2 0x1918 JUMPI PUSH2 0x1917 PUSH2 0x17C8 JUMP JUMPDEST JUMPDEST PUSH2 0x1924 DUP12 DUP3 DUP13 ADD PUSH2 0x1835 JUMP JUMPDEST SWAP4 POP SWAP4 POP POP PUSH1 0xC0 PUSH2 0x1937 DUP12 DUP3 DUP13 ADD PUSH2 0x1815 JUMP JUMPDEST SWAP2 POP POP SWAP3 SWAP6 SWAP9 POP SWAP3 SWAP6 SWAP9 SWAP1 SWAP4 SWAP7 POP JUMP JUMPDEST PUSH0 PUSH1 0x20 DUP3 DUP5 SUB SLT ISZERO PUSH2 0x195C JUMPI PUSH2 0x195B PUSH2 0x17C4 JUMP JUMPDEST JUMPDEST PUSH0 PUSH2 0x1969 DUP5 DUP3 DUP6 ADD PUSH2 0x17E2 JUMP JUMPDEST SWAP2 POP POP SWAP3 SWAP2 POP POP JUMP JUMPDEST PUSH2 0x197B DUP2 PUSH2 0x17F6 JUMP JUMPDEST DUP3 MSTORE POP POP JUMP JUMPDEST PUSH0 DUP2 ISZERO ISZERO SWAP1 POP SWAP2 SWAP1 POP JUMP JUMPDEST PUSH2 0x1995 DUP2 PUSH2 0x1981 JUMP JUMPDEST DUP3 MSTORE POP POP JUMP JUMPDEST PUSH0 PUSH2 0x140 DUP3 ADD SWAP1 POP PUSH2 0x19AF PUSH0 DUP4 ADD DUP14 PUSH2 0x1972 JUMP JUMPDEST PUSH2 0x19BC PUSH1 0x20 DUP4 ADD DUP13 PUSH2 0x1972 JUMP JUMPDEST PUSH2 0x19C9 PUSH1 0x40 DUP4 ADD DUP12 PUSH2 0x1972 JUMP JUMPDEST PUSH2 0x19D6 PUSH1 0x60 DUP4 ADD DUP11 PUSH2 0x1972 JUMP JUMPDEST PUSH2 0x19E3 PUSH1 0x80 DUP4 ADD DUP10 PUSH2 0x1972 JUMP JUMPDEST PUSH2 0x19F0 PUSH1 0xA0 DUP4 ADD DUP9 PUSH2 0x1972 JUMP JUMPDEST PUSH2 0x19FD PUSH1 0xC0 DUP4 ADD DUP8 PUSH2 0x1972 JUMP JUMPDEST PUSH2 0x1A0A PUSH1 0xE0 DUP4 ADD DUP7 PUSH2 0x1972 JUMP JUMPDEST PUSH2 0x1A18 PUSH2 0x100 DUP4 ADD DUP6 PUSH2 0x1972 JUMP JUMPDEST PUSH2 0x1A26 PUSH2 0x120 DUP4 ADD DUP5 PUSH2 0x198C JUMP JUMPDEST SWAP12 SWAP11 POP POP POP POP POP POP POP POP POP POP POP JUMP JUMPDEST PUSH0 DUP2 MLOAD SWAP1 POP SWAP2 SWAP1 POP JUMP JUMPDEST PUSH0 DUP3 DUP3 MSTORE PUSH1 0x20 DUP3 ADD SWAP1 POP SWAP3 SWAP2 POP POP JUMP JUMPDEST DUP3 DUP2 DUP4 MCOPY PUSH0 DUP4 DUP4 ADD MSTORE POP POP POP JUMP JUMPDEST PUSH0 PUSH1 0x1F NOT PUSH1 0x1F DUP4 ADD AND SWAP1 POP SWAP2 SWAP1 POP JUMP JUMPDEST PUSH0 PUSH2 0x1A77 DUP3 PUSH2 0x1A35 JUMP JUMPDEST PUSH2 0x1A81 DUP2 DUP6 PUSH2 0x1A3F JUMP JUMPDEST SWAP4 POP PUSH2 0x1A91 DUP2 DUP6 PUSH1 0x20 DUP7 ADD PUSH2 0x1A4F JUMP JUMPDEST PUSH2 0x1A9A DUP2 PUSH2 0x1A5D JUMP JUMPDEST DUP5 ADD SWAP2 POP POP SWAP3 SWAP2 POP POP JUMP JUMPDEST PUSH0 PUSH1 0xE0 DUP3 ADD SWAP1 POP PUSH2 0x1AB8 PUSH0 DUP4 ADD DUP11 PUSH2 0x1972 JUMP JUMPDEST PUSH2 0x1AC5 PUSH1 0x20 DUP4 ADD DUP10 PUSH2 0x1972 JUMP JUMPDEST PUSH2 0x1AD2 PUSH1 0x40 DUP4 ADD DUP9 PUSH2 0x1972 JUMP JUMPDEST DUP2 DUP2 SUB PUSH1 0x60 DUP4 ADD MSTORE PUSH2 0x1AE4 DUP2 DUP8 PUSH2 0x1A6D JUMP JUMPDEST SWAP1 POP PUSH2 0x1AF3 PUSH1 0x80 DUP4 ADD DUP7 PUSH2 0x1972 JUMP JUMPDEST PUSH2 0x1B00 PUSH1 0xA0 DUP4 ADD DUP6 PUSH2 0x1972 JUMP JUMPDEST PUSH2 0x1B0D PUSH1 0xC0 DUP4 ADD DUP5 PUSH2 0x198C JUMP JUMPDEST SWAP9 SWAP8 POP POP POP POP POP POP POP POP JUMP JUMPDEST PUSH32 0x4F6E6C792073656C6C65722063616E20706572666F726D207468697320616374 PUSH0 DUP3 ADD MSTORE PUSH32 0x696F6E0000000000000000000000000000000000000000000000000000000000 PUSH1 0x20 DUP3 ADD MSTORE POP JUMP JUMPDEST PUSH0 PUSH2 0x1B73 PUSH1 0x23 DUP4 PUSH2 0x1A3F JUMP JUMPDEST SWAP2 POP PUSH2 0x1B7E DUP3 PUSH2 0x1B19 JUMP JUMPDEST PUSH1 0x40 DUP3 ADD SWAP1 POP SWAP2 SWAP1 POP JUMP JUMPDEST PUSH0 PUSH1 0x20 DUP3 ADD SWAP1 POP DUP2 DUP2 SUB PUSH0 DUP4 ADD MSTORE PUSH2 0x1BA0 DUP2 PUSH2 0x1B67 JUMP JUMPDEST SWAP1 POP SWAP2 SWAP1 POP JUMP JUMPDEST PUSH32 0x546F74616C20636F7374206D7573742062652067726561746572207468616E20 PUSH0 DUP3 ADD MSTORE PUSH32 0x3000000000000000000000000000000000000000000000000000000000000000 PUSH1 0x20 DUP3 ADD MSTORE POP JUMP JUMPDEST PUSH0 PUSH2 0x1C01 PUSH1 0x21 DUP4 PUSH2 0x1A3F JUMP JUMPDEST SWAP2 POP PUSH2 0x1C0C DUP3 PUSH2 0x1BA7 JUMP JUMPDEST PUSH1 0x40 DUP3 ADD SWAP1 POP SWAP2 SWAP1 POP JUMP JUMPDEST PUSH0 PUSH1 0x20 DUP3 ADD SWAP1 POP DUP2 DUP2 SUB PUSH0 DUP4 ADD MSTORE PUSH2 0x1C2E DUP2 PUSH2 0x1BF5 JUMP JUMPDEST SWAP1 POP SWAP2 SWAP1 POP JUMP JUMPDEST PUSH32 0x4E756D626572206F66207061796D656E7473206D757374206265206772656174 PUSH0 DUP3 ADD MSTORE PUSH32 0x6572207468616E20300000000000000000000000000000000000000000000000 PUSH1 0x20 DUP3 ADD MSTORE POP JUMP JUMPDEST PUSH0 PUSH2 0x1C8F PUSH1 0x29 DUP4 PUSH2 0x1A3F JUMP JUMPDEST SWAP2 POP PUSH2 0x1C9A DUP3 PUSH2 0x1C35 JUMP JUMPDEST PUSH1 0x40 DUP3 ADD SWAP1 POP SWAP2 SWAP1 POP JUMP JUMPDEST PUSH0 PUSH1 0x20 DUP3 ADD SWAP1 POP DUP2 DUP2 SUB PUSH0 DUP4 ADD MSTORE PUSH2 0x1CBC DUP2 PUSH2 0x1C83 JUMP JUMPDEST SWAP1 POP SWAP2 SWAP1 POP JUMP JUMPDEST PUSH32 0x50656E616C74792070657263656E74616765206D757374206265203C3D203130 PUSH0 DUP3 ADD MSTORE PUSH32 0x3000000000000000000000000000000000000000000000000000000000000000 PUSH1 0x20 DUP3 ADD MSTORE POP JUMP JUMPDEST PUSH0 PUSH2 0x1D1D PUSH1 0x21 DUP4 PUSH2 0x1A3F JUMP JUMPDEST SWAP2 POP PUSH2 0x1D28 DUP3 PUSH2 0x1CC3 JUMP JUMPDEST PUSH1 0x40 DUP3 ADD SWAP1 POP SWAP2 SWAP1 POP JUMP JUMPDEST PUSH0 PUSH1 0x20 DUP3 ADD SWAP1 POP DUP2 DUP2 SUB PUSH0 DUP4 ADD MSTORE PUSH2 0x1D4A DUP2 PUSH2 0x1D11 JUMP JUMPDEST SWAP1 POP SWAP2 SWAP1 POP JUMP JUMPDEST PUSH32 0x427579657220616C72656164792068617320616E2061637469766520706C616E PUSH0 DUP3 ADD MSTORE POP JUMP JUMPDEST PUSH0 PUSH2 0x1D85 PUSH1 0x20 DUP4 PUSH2 0x1A3F JUMP JUMPDEST SWAP2 POP PUSH2 0x1D90 DUP3 PUSH2 0x1D51 JUMP JUMPDEST PUSH1 0x20 DUP3 ADD SWAP1 POP SWAP2 SWAP1 POP JUMP JUMPDEST PUSH0 PUSH1 0x20 DUP3 ADD SWAP1 POP DUP2 DUP2 SUB PUSH0 DUP4 ADD MSTORE PUSH2 0x1DB2 DUP2 PUSH2 0x1D79 JUMP JUMPDEST SWAP1 POP SWAP2 SWAP1 POP JUMP JUMPDEST PUSH0 DUP2 SWAP1 POP SWAP3 SWAP2 POP POP JUMP JUMPDEST DUP3 DUP2 DUP4 CALLDATACOPY PUSH0 DUP4 DUP4 ADD MSTORE POP POP POP JUMP JUMPDEST PUSH0 PUSH2 0x1DDC DUP4 DUP6 PUSH2 0x1DB9 JUMP JUMPDEST SWAP4 POP PUSH2 0x1DE9 DUP4 DUP6 DUP5 PUSH2 0x1DC3 JUMP JUMPDEST DUP3 DUP5 ADD SWAP1 POP SWAP4 SWAP3 POP POP POP JUMP JUMPDEST PUSH0 PUSH2 0x1E01 DUP3 DUP5 DUP7 PUSH2 0x1DD1 JUMP JUMPDEST SWAP2 POP DUP2 SWAP1 POP SWAP4 SWAP3 POP POP POP JUMP JUMPDEST PUSH32 0x496E76616C6964206D6F6E7468206E616D650000000000000000000000000000 PUSH0 DUP3 ADD MSTORE POP JUMP JUMPDEST PUSH0 PUSH2 0x1E41 PUSH1 0x12 DUP4 PUSH2 0x1A3F JUMP JUMPDEST SWAP2 POP PUSH2 0x1E4C DUP3 PUSH2 0x1E0D JUMP JUMPDEST PUSH1 0x20 DUP3 ADD SWAP1 POP SWAP2 SWAP1 POP JUMP JUMPDEST PUSH0 PUSH1 0x20 DUP3 ADD SWAP1 POP DUP2 DUP2 SUB PUSH0 DUP4 ADD MSTORE PUSH2 0x1E6E DUP2 PUSH2 0x1E35 JUMP JUMPDEST SWAP1 POP SWAP2 SWAP1 POP JUMP JUMPDEST PUSH32 0x4E487B7100000000000000000000000000000000000000000000000000000000 PUSH0 MSTORE PUSH1 0x12 PUSH1 0x4 MSTORE PUSH1 0x24 PUSH0 REVERT JUMPDEST PUSH32 0x4E487B7100000000000000000000000000000000000000000000000000000000 PUSH0 MSTORE PUSH1 0x11 PUSH1 0x4 MSTORE PUSH1 0x24 PUSH0 REVERT JUMPDEST PUSH0 PUSH2 0x1ED9 DUP3 PUSH2 0x17F6 JUMP JUMPDEST SWAP2 POP PUSH2 0x1EE4 DUP4 PUSH2 0x17F6 JUMP JUMPDEST SWAP3 POP DUP3 PUSH2 0x1EF4 JUMPI PUSH2 0x1EF3 PUSH2 0x1E75 JUMP JUMPDEST JUMPDEST DUP3 DUP3 DIV SWAP1 POP SWAP3 SWAP2 POP POP JUMP JUMPDEST PUSH0 PUSH2 0x1F09 DUP3 PUSH2 0x17F6 JUMP JUMPDEST SWAP2 POP PUSH2 0x1F14 DUP4 PUSH2 0x17F6 JUMP JUMPDEST SWAP3 POP DUP3 DUP3 MUL PUSH2 0x1F22 DUP2 PUSH2 0x17F6 JUMP JUMPDEST SWAP2 POP DUP3 DUP3 DIV DUP5 EQ DUP4 ISZERO OR PUSH2 0x1F39 JUMPI PUSH2 0x1F38 PUSH2 0x1EA2 JUMP JUMPDEST JUMPDEST POP SWAP3 SWAP2 POP POP JUMP JUMPDEST PUSH32 0x546F74616C20636F7374206D757374206265206576656E6C7920646976697369 PUSH0 DUP3 ADD MSTORE PUSH32 0x626C65206279206E756D626572206F66207061796D656E747300000000000000 PUSH1 0x20 DUP3 ADD MSTORE POP JUMP JUMPDEST PUSH0 PUSH2 0x1F9A PUSH1 0x39 DUP4 PUSH2 0x1A3F JUMP JUMPDEST SWAP2 POP PUSH2 0x1FA5 DUP3 PUSH2 0x1F40 JUMP JUMPDEST PUSH1 0x40 DUP3 ADD SWAP1 POP SWAP2 SWAP1 POP JUMP JUMPDEST PUSH0 PUSH1 0x20 DUP3 ADD SWAP1 POP DUP2 DUP2 SUB PUSH0 DUP4 ADD MSTORE PUSH2 0x1FC7 DUP2 PUSH2 0x1F8E JUMP JUMPDEST SWAP1 POP SWAP2 SWAP1 POP JUMP JUMPDEST PUSH32 0x53746172742064617465206D75737420626520696E2074686520667574757265 PUSH0 DUP3 ADD MSTORE POP JUMP JUMPDEST PUSH0 PUSH2 0x2002 PUSH1 0x20 DUP4 PUSH2 0x1A3F JUMP JUMPDEST SWAP2 POP PUSH2 0x200D DUP3 PUSH2 0x1FCE JUMP JUMPDEST PUSH1 0x20 DUP3 ADD SWAP1 POP SWAP2 SWAP1 POP JUMP JUMPDEST PUSH0 PUSH1 0x20 DUP3 ADD SWAP1 POP DUP2 DUP2 SUB PUSH0 DUP4 ADD MSTORE PUSH2 0x202F DUP2 PUSH2 0x1FF6 JUMP JUMPDEST SWAP1 POP SWAP2 SWAP1 POP JUMP JUMPDEST PUSH0 PUSH1 0xA0 DUP3 ADD SWAP1 POP PUSH2 0x2049 PUSH0 DUP4 ADD DUP9 PUSH2 0x179C JUMP JUMPDEST PUSH2 0x2056 PUSH1 0x20 DUP4 ADD DUP8 PUSH2 0x1972 JUMP JUMPDEST PUSH2 0x2063 PUSH1 0x40 DUP4 ADD DUP7 PUSH2 0x1972 JUMP JUMPDEST PUSH2 0x2070 PUSH1 0x60 DUP4 ADD DUP6 PUSH2 0x1972 JUMP JUMPDEST DUP2 DUP2 SUB PUSH1 0x80 DUP4 ADD MSTORE PUSH2 0x2082 DUP2 DUP5 PUSH2 0x1A6D JUMP JUMPDEST SWAP1 POP SWAP7 SWAP6 POP POP POP POP POP POP JUMP JUMPDEST PUSH32 0x4E6F20616374697665207061796D656E7420706C616E00000000000000000000 PUSH0 DUP3 ADD MSTORE POP JUMP JUMPDEST PUSH0 PUSH2 0x20C2 PUSH1 0x16 DUP4 PUSH2 0x1A3F JUMP JUMPDEST SWAP2 POP PUSH2 0x20CD DUP3 PUSH2 0x208E JUMP JUMPDEST PUSH1 0x20 DUP3 ADD SWAP1 POP SWAP2 SWAP1 POP JUMP JUMPDEST PUSH0 PUSH1 0x20 DUP3 ADD SWAP1 POP DUP2 DUP2 SUB PUSH0 DUP4 ADD MSTORE PUSH2 0x20EF DUP2 PUSH2 0x20B6 JUMP JUMPDEST SWAP1 POP SWAP2 SWAP1 POP JUMP JUMPDEST PUSH32 0x506C616E20697320616C726561647920636F6D706C6574656400000000000000 PUSH0 DUP3 ADD MSTORE POP JUMP JUMPDEST PUSH0 PUSH2 0x212A PUSH1 0x19 DUP4 PUSH2 0x1A3F JUMP JUMPDEST SWAP2 POP PUSH2 0x2135 DUP3 PUSH2 0x20F6 JUMP JUMPDEST PUSH1 0x20 DUP3 ADD SWAP1 POP SWAP2 SWAP1 POP JUMP JUMPDEST PUSH0 PUSH1 0x20 DUP3 ADD SWAP1 POP DUP2 DUP2 SUB PUSH0 DUP4 ADD MSTORE PUSH2 0x2157 DUP2 PUSH2 0x211E JUMP JUMPDEST SWAP1 POP SWAP2 SWAP1 POP JUMP JUMPDEST PUSH0 PUSH2 0x2168 DUP3 PUSH2 0x17F6 JUMP JUMPDEST SWAP2 POP PUSH32 0xFFFFFFFFFFFFFFFFFFFFFFFFFFFFFFFFFFFFFFFFFFFFFFFFFFFFFFFFFFFFFFFF DUP3 SUB PUSH2 0x219A JUMPI PUSH2 0x2199 PUSH2 0x1EA2 JUMP JUMPDEST JUMPDEST PUSH1 0x1 DUP3 ADD SWAP1 POP SWAP2 SWAP1 POP JUMP JUMPDEST PUSH0 PUSH2 0x21AF DUP3 PUSH2 0x17F6 JUMP JUMPDEST SWAP2 POP PUSH2 0x21BA DUP4 PUSH2 0x17F6 JUMP JUMPDEST SWAP3 POP DUP3 DUP3 ADD SWAP1 POP DUP1 DUP3 GT ISZERO PUSH2 0x21D2 JUMPI PUSH2 0x21D1 PUSH2 0x1EA2 JUMP JUMPDEST JUMPDEST SWAP3 SWAP2 POP POP JUMP JUMPDEST PUSH0 PUSH2 0x21E2 DUP3 PUSH2 0x17F6 JUMP JUMPDEST SWAP2 POP PUSH2 0x21ED DUP4 PUSH2 0x17F6 JUMP JUMPDEST SWAP3 POP DUP3 DUP3 SUB SWAP1 POP DUP2 DUP2 GT ISZERO PUSH2 0x2205 JUMPI PUSH2 0x2204 PUSH2 0x1EA2 JUMP JUMPDEST JUMPDEST SWAP3 SWAP2 POP POP JUMP JUMPDEST PUSH0 PUSH1 0x40 DUP3 ADD SWAP1 POP PUSH2 0x221E PUSH0 DUP4 ADD DUP6 PUSH2 0x179C JUMP JUMPDEST PUSH2 0x222B PUSH1 0x20 DUP4 ADD DUP5 PUSH2 0x1972 JUMP JUMPDEST SWAP4 SWAP3 POP POP POP JUMP JUMPDEST PUSH32 0x506C616E2064656661756C746564202D207468726565207061796D656E747320 PUSH0 DUP3 ADD MSTORE PUSH32 0x6D69737365640000000000000000000000000000000000000000000000000000 PUSH1 0x20 DUP3 ADD MSTORE POP JUMP JUMPDEST PUSH0 PUSH2 0x228C PUSH1 0x26 DUP4 PUSH2 0x1A3F JUMP JUMPDEST SWAP2 POP PUSH2 0x2297 DUP3 PUSH2 0x2232 JUMP JUMPDEST PUSH1 0x40 DUP3 ADD SWAP1 POP SWAP2 SWAP1 POP JUMP JUMPDEST PUSH0 PUSH1 0x20 DUP3 ADD SWAP1 POP DUP2 DUP2 SUB PUSH0 DUP4 ADD MSTORE PUSH2 0x22B9 DUP2 PUSH2 0x2280 JUMP JUMPDEST SWAP1 POP SWAP2 SWAP1 POP JUMP JUMPDEST PUSH32 0x496E73756666696369656E74207061796D656E7420616D6F756E740000000000 PUSH0 DUP3 ADD MSTORE POP JUMP JUMPDEST PUSH0 PUSH2 0x22F4 PUSH1 0x1B DUP4 PUSH2 0x1A3F JUMP JUMPDEST SWAP2 POP PUSH2 0x22FF DUP3 PUSH2 0x22C0 JUMP JUMPDEST PUSH1 0x20 DUP3 ADD SWAP1 POP SWAP2 SWAP1 POP JUMP JUMPDEST PUSH0 PUSH1 0x20 DUP3 ADD SWAP1 POP DUP2 DUP2 SUB PUSH0 DUP4 ADD MSTORE PUSH2 0x2321 DUP2 PUSH2 0x22E8 JUMP JUMPDEST SWAP1 POP SWAP2 SWAP1 POP JUMP JUMPDEST PUSH0 PUSH2 0x2332 DUP3 PUSH2 0x17F6 JUMP JUMPDEST SWAP2 POP PUSH2 0x233D DUP4 PUSH2 0x17F6 JUMP JUMPDEST SWAP3 POP DUP3 PUSH2 0x234D JUMPI PUSH2 0x234C PUSH2 0x1E75 JUMP JUMPDEST JUMPDEST DUP3 DUP3 MOD SWAP1 POP SWAP3 SWAP2 POP POP JUMP JUMPDEST PUSH0 PUSH2 0x2362 DUP3 PUSH2 0x17F6 JUMP JUMPDEST SWAP2 POP PUSH0 DUP3 SUB PUSH2 0x2374 JUMPI PUSH2 0x2373 PUSH2 0x1EA2 JUMP JUMPDEST JUMPDEST PUSH1 0x1 DUP3 SUB SWAP1 POP SWAP2 SWAP1 POP JUMP JUMPDEST PUSH0 PUSH1 0x80 DUP3 ADD SWAP1 POP PUSH2 0x2392 PUSH0 DUP4 ADD DUP8 PUSH2 0x179C JUMP JUMPDEST PUSH2 0x239F PUSH1 0x20 DUP4 ADD DUP7 PUSH2 0x1972 JUMP JUMPDEST PUSH2 0x23AC PUSH1 0x40 DUP4 ADD DUP6 PUSH2 0x1972 JUMP JUMPDEST PUSH2 0x23B9 PUSH1 0x60 DUP4 ADD DUP5 PUSH2 0x1972 JUMP JUMPDEST SWAP6 SWAP5 POP POP POP POP POP JUMP JUMPDEST PUSH32 0x496E76616C696420646179000000000000000000000000000000000000000000 PUSH0 DUP3 ADD MSTORE POP JUMP JUMPDEST PUSH0 PUSH2 0x23F6 PUSH1 0xB DUP4 PUSH2 0x1A3F JUMP JUMPDEST SWAP2 POP PUSH2 0x2401 DUP3 PUSH2 0x23C2 JUMP JUMPDEST PUSH1 0x20 DUP3 ADD SWAP1 POP SWAP2 SWAP1 POP JUMP JUMPDEST PUSH0 PUSH1 0x20 DUP3 ADD SWAP1 POP DUP2 DUP2 SUB PUSH0 DUP4 ADD MSTORE PUSH2 0x2423 DUP2 PUSH2 0x23EA JUMP JUMPDEST SWAP1 POP SWAP2 SWAP1 POP JUMP JUMPDEST PUSH32 0x496E76616C696420796561720000000000000000000000000000000000000000 PUSH0 DUP3 ADD MSTORE POP JUMP JUMPDEST PUSH0 PUSH2 0x245E PUSH1 0xC DUP4 PUSH2 0x1A3F JUMP JUMPDEST SWAP2 POP PUSH2 0x2469 DUP3 PUSH2 0x242A JUMP JUMPDEST PUSH1 0x20 DUP3 ADD SWAP1 POP SWAP2 SWAP1 POP JUMP JUMPDEST PUSH0 PUSH1 0x20 DUP3 ADD SWAP1 POP DUP2 DUP2 SUB PUSH0 DUP4 ADD MSTORE PUSH2 0x248B DUP2 PUSH2 0x2452 JUMP JUMPDEST SWAP1 POP SWAP2 SWAP1 POP JUMP JUMPDEST PUSH32 0x496E76616C6964206D6F6E746800000000000000000000000000000000000000 PUSH0 DUP3 ADD MSTORE POP JUMP JUMPDEST PUSH0 PUSH2 0x24C6 PUSH1 0xD DUP4 PUSH2 0x1A3F JUMP JUMPDEST SWAP2 POP PUSH2 0x24D1 DUP3 PUSH2 0x2492 JUMP JUMPDEST PUSH1 0x20 DUP3 ADD SWAP1 POP SWAP2 SWAP1 POP JUMP JUMPDEST PUSH0 PUSH1 0x20 DUP3 ADD SWAP1 POP DUP2 DUP2 SUB PUSH0 DUP4 ADD MSTORE PUSH2 0x24F3 DUP2 PUSH2 0x24BA JUMP JUMPDEST SWAP1 POP SWAP2 SWAP1 POP JUMP JUMPDEST PUSH32 0x496E76616C69642064617920666F722046656272756172790000000000000000 PUSH0 DUP3 ADD MSTORE POP JUMP JUMPDEST PUSH0 PUSH2 0x252E PUSH1 0x18 DUP4 PUSH2 0x1A3F JUMP JUMPDEST SWAP2 POP PUSH2 0x2539 DUP3 PUSH2 0x24FA JUMP JUMPDEST PUSH1 0x20 DUP3 ADD SWAP1 POP SWAP2 SWAP1 POP JUMP JUMPDEST PUSH0 PUSH1 0x20 DUP3 ADD SWAP1 POP DUP2 DUP2 SUB PUSH0 DUP4 ADD MSTORE PUSH2 0x255B DUP2 PUSH2 0x2522 JUMP JUMPDEST SWAP1 POP SWAP2 SWAP1 POP JUMP JUMPDEST PUSH32 0x496E76616C69642064617920666F722074686973206D6F6E7468000000000000 PUSH0 DUP3 ADD MSTORE POP JUMP JUMPDEST PUSH0 PUSH2 0x2596 PUSH1 0x1A DUP4 PUSH2 0x1A3F JUMP JUMPDEST SWAP2 POP PUSH2 0x25A1 DUP3 PUSH2 0x2562 JUMP JUMPDEST PUSH1 0x20 DUP3 ADD SWAP1 POP SWAP2 SWAP1 POP JUMP JUMPDEST PUSH0 PUSH1 0x20 DUP3 ADD SWAP1 POP DUP2 DUP2 SUB PUSH0 DUP4 ADD MSTORE PUSH2 0x25C3 DUP2 PUSH2 0x258A JUMP JUMPDEST SWAP1 POP SWAP2 SWAP1 POP JUMP JUMPDEST PUSH0 PUSH2 0x25D4 DUP3 PUSH2 0x1A35 JUMP JUMPDEST PUSH2 0x25DE DUP2 DUP6 PUSH2 0x1DB9 JUMP JUMPDEST SWAP4 POP PUSH2 0x25EE DUP2 DUP6 PUSH1 0x20 DUP7 ADD PUSH2 0x1A4F JUMP JUMPDEST DUP1 DUP5 ADD SWAP2 POP POP SWAP3 SWAP2 POP POP JUMP JUMPDEST PUSH32 0x2000000000000000000000000000000000000000000000000000000000000000 PUSH0 DUP3 ADD MSTORE POP JUMP JUMPDEST PUSH0 PUSH2 0x262E PUSH1 0x1 DUP4 PUSH2 0x1DB9 JUMP JUMPDEST SWAP2 POP PUSH2 0x2639 DUP3 PUSH2 0x25FA JUMP JUMPDEST PUSH1 0x1 DUP3 ADD SWAP1 POP SWAP2 SWAP1 POP JUMP JUMPDEST PUSH0 PUSH2 0x264F DUP3 DUP7 PUSH2 0x25CA JUMP JUMPDEST SWAP2 POP PUSH2 0x265A DUP3 PUSH2 0x2622 JUMP JUMPDEST SWAP2 POP PUSH2 0x2666 DUP3 DUP6 PUSH2 0x25CA JUMP JUMPDEST SWAP2 POP PUSH2 0x2671 DUP3 PUSH2 0x2622 JUMP JUMPDEST SWAP2 POP PUSH2 0x267D DUP3 DUP5 PUSH2 0x25CA JUMP JUMPDEST SWAP2 POP DUP2 SWAP1 POP SWAP5 SWAP4 POP POP POP POP JUMP JUMPDEST PUSH32 0x4E487B7100000000000000000000000000000000000000000000000000000000 PUSH0 MSTORE PUSH1 0x41 PUSH1 0x4 MSTORE PUSH1 0x24 PUSH0 REVERT JUMPDEST PUSH32 0x4E487B7100000000000000000000000000000000000000000000000000000000 PUSH0 MSTORE PUSH1 0x32 PUSH1 0x4 MSTORE PUSH1 0x24 PUSH0 REVERT INVALID LOG2 PUSH5 0x6970667358 0x22 SLT KECCAK256 SMOD 0xFC SWAP7 REVERT 0xE9 SELFBALANCE PUSH15 0x98FBFF3B94BDDFCCFC98421952FEA4 ORIGIN 0xC0 SWAP10 0xCC SUB 0x1E 0x21 0xE9 STATICCALL 0x27 PUSH5 0x736F6C6343 STOP ADDMOD BYTE STOP CALLER "
		},
		"gasEstimates": {
			"creation": {
				"codeDepositCost": "2002000",
				"executionCost": "infinite",
				"totalCost": "infinite"
			},
			"external": {
				"buyerPlans(address)": "infinite",
				"createPaymentPlan(address,uint256,uint256,uint256,uint256,string,uint256)": "infinite",
				"getPlanDetails(address)": "infinite",
				"makePayment()": "infinite",
				"seller()": "infinite"
			},
			"internal": {
				"calculateTimestamp(uint256,string memory,uint256)": "infinite",
				"formatDate(uint256,string memory,uint256)": "infinite",
				"monthToString(uint256)": "infinite",
				"uint2str(uint256)": "infinite"
			}
		},
		"methodIdentifiers": {
			"buyerPlans(address)": "44fe27fa",
			"createPaymentPlan(address,uint256,uint256,uint256,uint256,string,uint256)": "0eb874a7",
			"getPlanDetails(address)": "f6d1cd25",
			"makePayment()": "d8d79700",
			"seller()": "08551a53"
		}
	},
	"abi": [
		{
			"inputs": [],
			"stateMutability": "nonpayable",
			"type": "constructor"
		},
		{
			"anonymous": false,
			"inputs": [
				{
					"indexed": false,
					"internalType": "address",
					"name": "buyer",
					"type": "address"
				},
				{
					"indexed": false,
					"internalType": "uint256",
					"name": "remainingPayments",
					"type": "uint256"
				},
				{
					"indexed": false,
					"internalType": "uint256",
					"name": "amountPaid",
					"type": "uint256"
				},
				{
					"indexed": false,
					"internalType": "uint256",
					"name": "remainingAmount",
					"type": "uint256"
				}
			],
			"name": "PaymentMade",
			"type": "event"
		},
		{
			"anonymous": false,
			"inputs": [
				{
					"indexed": false,
					"internalType": "address",
					"name": "buyer",
					"type": "address"
				},
				{
					"indexed": false,
					"internalType": "uint256",
					"name": "penaltyAmount",
					"type": "uint256"
				}
			],
			"name": "PenaltyApplied",
			"type": "event"
		},
		{
			"anonymous": false,
			"inputs": [
				{
					"indexed": false,
					"internalType": "address",
					"name": "buyer",
					"type": "address"
				},
				{
					"indexed": false,
					"internalType": "uint256",
					"name": "totalCost",
					"type": "uint256"
				},
				{
					"indexed": false,
					"internalType": "uint256",
					"name": "monthlyPayment",
					"type": "uint256"
				},
				{
					"indexed": false,
					"internalType": "uint256",
					"name": "totalPayments",
					"type": "uint256"
				},
				{
					"indexed": false,
					"internalType": "string",
					"name": "startDate",
					"type": "string"
				}
			],
			"name": "PlanCreated",
			"type": "event"
		},
		{
			"anonymous": false,
			"inputs": [
				{
					"indexed": false,
					"internalType": "address",
					"name": "buyer",
					"type": "address"
				},
				{
					"indexed": false,
					"internalType": "uint256",
					"name": "amountForfeited",
					"type": "uint256"
				}
			],
			"name": "PlanDefaulted",
			"type": "event"
		},
		{
			"inputs": [
				{
					"internalType": "address",
					"name": "",
					"type": "address"
				}
			],
			"name": "buyerPlans",
			"outputs": [
				{
					"internalType": "uint256",
					"name": "totalCost",
					"type": "uint256"
				},
				{
					"internalType": "uint256",
					"name": "paymentPerMonth",
					"type": "uint256"
				},
				{
					"internalType": "uint256",
					"name": "totalPayments",
					"type": "uint256"
				},
				{
					"internalType": "uint256",
					"name": "penaltyPercent",
					"type": "uint256"
				},
				{
					"internalType": "uint256",
					"name": "paymentDate",
					"type": "uint256"
				},
				{
					"internalType": "uint256",
					"name": "nextPaymentDate",
					"type": "uint256"
				},
				{
					"internalType": "uint256",
					"name": "remainingAmount",
					"type": "uint256"
				},
				{
					"internalType": "uint256",
					"name": "remainingPayments",
					"type": "uint256"
				},
				{
					"internalType": "uint256",
					"name": "missedPayments",
					"type": "uint256"
				},
				{
					"internalType": "bool",
					"name": "isActive",
					"type": "bool"
				}
			],
			"stateMutability": "view",
			"type": "function"
		},
		{
			"inputs": [
				{
					"internalType": "address",
					"name": "buyer",
					"type": "address"
				},
				{
					"internalType": "uint256",
					"name": "_totalCost",
					"type": "uint256"
				},
				{
					"internalType": "uint256",
					"name": "_totalPayments",
					"type": "uint256"
				},
				{
					"internalType": "uint256",
					"name": "_penaltyPercent",
					"type": "uint256"
				},
				{
					"internalType": "uint256",
					"name": "_startDay",
					"type": "uint256"
				},
				{
					"internalType": "string",
					"name": "_startMonth",
					"type": "string"
				},
				{
					"internalType": "uint256",
					"name": "_startYear",
					"type": "uint256"
				}
			],
			"name": "createPaymentPlan",
			"outputs": [],
			"stateMutability": "nonpayable",
			"type": "function"
		},
		{
			"inputs": [
				{
					"internalType": "address",
					"name": "buyer",
					"type": "address"
				}
			],
			"name": "getPlanDetails",
			"outputs": [
				{
					"internalType": "uint256",
					"name": "totalCost",
					"type": "uint256"
				},
				{
					"internalType": "uint256",
					"name": "monthlyPayment",
					"type": "uint256"
				},
				{
					"internalType": "uint256",
					"name": "remainingAmount",
					"type": "uint256"
				},
				{
					"internalType": "string",
					"name": "nextPaymentDueDate",
					"type": "string"
				},
				{
					"internalType": "uint256",
					"name": "remainingPayments",
					"type": "uint256"
				},
				{
					"internalType": "uint256",
					"name": "missedPayments",
					"type": "uint256"
				},
				{
					"internalType": "bool",
					"name": "isActive",
					"type": "bool"
				}
			],
			"stateMutability": "view",
			"type": "function"
		},
		{
			"inputs": [],
			"name": "makePayment",
			"outputs": [],
			"stateMutability": "payable",
			"type": "function"
		},
		{
			"inputs": [],
			"name": "seller",
			"outputs": [
				{
					"internalType": "address",
					"name": "",
					"type": "address"
				}
			],
			"stateMutability": "view",
			"type": "function"
		}
	]
}